:020000040800F2
:10000000E0080020010E00086D0E00086D0E0008CB
:100010006D0E00086D0E00086D0E00080000000057
:100020000000000000000000000000006D0E00084D
:100030006D0E0008000000006D0E00086D0E000837
:100040006D0E00086D0E00086D0E00086D0E0008A4
:100050006D0E00086D0E0008410C00080D0D000823
:100060002906000881060008D90600086D0E000860
:100070006D0E00086D0E00086D0E00086D0E000874
:100080006D0E00086D0E00086D0E00086D0E000864
:100090006D0E00086D0E00086D0E00083107000897
:1000A000F904000845050008910500086D0E0008D8
:1000B0000D0C00086D0E00086D0E00086D0E000896
:1000C0006D0E00086D0E00086D0E00086D0E000824
:1000D0006D0E0008810D00086D0E00086D0E000801
:1000E0006D0E00086D0E00086D0E0008DD0500089D
:1000F0006D0E00086D0E00086D0E00086D0E0008F4
:100100006D0E00086D0E00086D0E00086D0E0008E3
:100110006D0E00086D0E00086D0E00086D0E0008D3
:100120006D0E00086D0E00086D0E00086D0E0008C3
:100130006D0E00086D0E00086D0E00086D0E0008B3
:100140006D0E00086D0E00086D0E00086D0E0008A3
:100150006D0E00086D0E00086D0E00086D0E000893
:100160006D0E00086D0E00086D0E00086D0E000883
:100170006D0E00086D0E00086D0E00086D0E000873
:100180006D0E00086D0E000880B500AF4FF0010045
:100190004FF0010101F026F84FF480404FF00101CB
:1001A00001F074F84FF480304FF0010101F06EF867
:1001B0004FF400304FF0010101F068F84FF4802057
:1001C0004FF0010101F062F84FF040004FF00101E3
:1001D00001F032F84FF000004FF0020101F080F81A
:1001E0004FF000004FF0030101F07AF84FF00000EB
:1001F0004FF0040101F074F84FF000004FF00501DA
:1002000001F06EF840F24003C2F200034FF03C02EE
:100210001A6040F24003C2F200034FF000021A716C
:1002200040F24003C2F200034FF003025A7140F261
:100230004003C2F200034FF00102DA714FF00000F8
:10024000C4F2020040F24001C2F2000100F0DCFE04
:1002500040F25803C2F200034FF000021A7140F25C
:100260005803C2F200034FF010025A7140F25803D3
:10027000C2F200034FF001029A7140F25803C2F239
:1002800000034FF004021A6040F25800C2F200006E
:1002900000F0F0FD40F25803C2F200034FF00802F4
:1002A0001A6040F25800C2F2000000F0E3FD40F294
:1002B0005803C2F200034FF010021A6040F25800D7
:1002C000C2F2000000F0D6FD40F25803C2F2000373
:1002D0004FF020021A6040F25800C2F2000000F015
:1002E000C9FD40F25403C2F200034FF001025A70FC
:1002F00040F25403C2F200034FF001029A7040F240
:100300005403C2F200034FF00102DA7040F25403CA
:10031000C2F200034FF008021A7040F25400C2F219
:10032000000000F0A1FA40F25403C2F200034FF0C3
:1003300009021A7040F25400C2F2000000F094FA70
:1003400040F25403C2F200034FF00A021A7040F266
:100350005400C2F2000000F087FA40F25403C2F2E7
:1003600000034FF017021A7040F25400C2F200006E
:1003700000F07AFA40F25403C2F200034FF0180280
:100380001A7040F25400C2F2000000F06DFA40F220
:100390005403C2F200034FF019021A7040F25400E5
:1003A000C2F2000000F060FA40F25403C2F200030F
:1003B0004FF01A021A7040F25400C2F2000000F02E
:1003C00053FA40F25403C2F200034FF02B021A70AA
:1003D00040F25400C2F2000000F046FA40F2480336
:1003E000C2F200034FF452721A8040F24803C2F284
:1003F00000034FF47A625A6040F24803C2F20003ED
:100400004FF000021A8140F24803C2F200034FF09D
:1004100000029A724FF48040C4F2010040F2480199
:10042000C2F2000100F0B4FF4FF48040C4F20100BA
:100430004FF001014FF0010201F05EF84FF48040EF
:10044000C4F201004FF0010101F036F84FF488408A
:10045000C4F2010040F24801C2F2000100F098FF2E
:100460004FF48840C4F201004FF001014FF0010247
:1004700001F042F84FF48840C4F201004FF001014E
:1004800001F01AF84FF49040C4F2010040F2480124
:10049000C2F2000100F07CFF4FF49040C4F2010072
:1004A0004FF001014FF0010201F026F84FF49040A7
:1004B000C4F201004FF0010100F0FEFF4FF4C05004
:1004C000C4F2000040F24801C2F2000100F060FFF7
:1004D0004FF4C050C4F200004FF001014FF0010290
:1004E00001F00AF84FF4C050C4F200004FF00101CF
:1004F00000F0E2FF80BD00BF80B500AF4FF4804048
:10050000C4F201004FF0010101F01AF80346002B7C
:1005100016D040F22803C2F200034FF000021A6026
:100520004FF44060C4F202004FF4004100F03AFE84
:100530004FF48040C4F201004FF0010101F030F8A7
:1005400080BD00BF80B500AF4FF48840C4F2010009
:100550004FF0010100F0F4FF0346002B16D040F2EB
:100560002803C2F200034FF000025A604FF44060CB
:10057000C4F202004FF4004100F014FE4FF4884032
:10058000C4F201004FF0010101F00AF880BD00BF84
:1005900080B500AF4FF49040C4F201004FF001016C
:1005A00000F0CEFF0346002B16D040F22803C2F223
:1005B00000034FF000029A604FF44060C4F2020062
:1005C0004FF4004100F0EEFD4FF49040C4F2010002
:1005D0004FF0010100F0E4FF80BD00BF80B500AF27
:1005E0004FF4C050C4F200004FF0010100F0A8FF2A
:1005F0000346002B16D040F22803C2F200034FF04E
:100600000002DA604FF44060C4F202004FF400418F
:1006100000F0C8FD4FF4C050C4F200004FF00101DB
:1006200000F0BEFF80BD00BF80B500AF4FF00400FA
:1006300000F0BCFC0346002B21D04FF48040C4F2F4
:10064000010000F02DFF024640F22803C2F2000331
:100650001A6040F22803C2F200031B68184600F03B
:1006600093F840F20803C2F20003C3E900014FF41B
:100670008040C4F201004FF0040100F0B9F880BDE1
:1006800080B500AF4FF0080000F090FC0346002B4F
:1006900021D04FF48840C4F2010000F001FF02466F
:1006A00040F22803C2F200035A6040F22803C2F26B
:1006B00000035B68184600F067F840F20803C2F2D6
:1006C0000003C3E902014FF48840C4F201004FF077
:1006D000080100F08DF880BD80B500AF4FF010002C
:1006E00000F064FC0346002B21D04FF49040C4F28C
:1006F000010000F0D5FE024640F22803C2F20003DA
:100700009A6040F22803C2F200039B68184600F08A
:100710003BF840F20803C2F20003C3E904014FF4BE
:100720009040C4F201004FF0100100F061F880BD6C
:1007300080B500AF4FF0200000F038FC0346002BDE
:1007400021D04FF4C050C4F2000000F0A9FE0246D0
:1007500040F22803C2F20003DA6040F22803C2F23A
:100760000003DB68184600F00FF840F20803C2F2FD
:100770000003C3E906014FF4C050C4F200004FF07B
:10078000200100F035F880BD80B582B000AF786000
:10079000786801F089F902460B461046194612A303
:1007A000D3E9002301F010FB02460B461046194620
:1007B0004FF000024FF00003C4F22C0301F0DAF90D
:1007C00002460B464FF000004FF00001C4F24E010C
:1007D00001F0FAFA02460B461046194607F10807DF
:1007E000BD4680BDAFF3008000000000006AF84005
:1007F00080B582B000AF7860396078684FF0000152
:1008000000F040FE4FF44060C4F202004FF400419B
:1008100000F0D6FC386800F0E7FB07F10807BD469A
:1008200080BD00BF80B500AF00F0DEFE00F08EF8A6
:10083000FFF7AAFC40F20003C2F200031B68012B81
:1008400008D14FF44060C4F202004FF4005100F0B0
:100850009BFCEFE74FF44060C4F202004FF40051FC
:1008600000F0A0FCE6E700BF80B485B000AF786080
:100870004FF00003FB734FF00003BB734FF00F0307
:100880007B737B68DB78002B45D04FF46D43CEF251
:100890000003DB686FEA030303F4E0634FEA13230A
:1008A000FB73FB7BC3F10403BB737A7BFB7B42FAD4
:1008B00003F37B737B685B781A46BB7B02FA03F316
:1008C000FB737B689A787B7B1340DAB2FB7B134324
:1008D000FB73FB7B4FEA0313FB734FF46143CEF2D0
:1008E00000037A6812789B18FA7B83F800234FF490
:1008F0006143CEF200037A6812784FEA5212D2B204
:100900007968097801F01F014FF0010000FA01F148
:1009100043F8221014E04FF46143CEF200037A68EA
:1009200012784FEA5212D2B27968097801F01F01A9
:100930004FF0010000FA01F102F1200243F8221009
:1009400007F11407BD4680BC704700BF80B500AFFB
:100950004FF008004FF0010100F044FC4FF001009F
:100960004FF0010100F03EFC4FF480404FF00101D8
:1009700000F08CFC4FF001004FF0010100F05CFC36
:1009800040F26003C2F200034FF470421A6040F27A
:100990006003C2F200034FF001021A7140F26003DB
:1009A000C2F200034FF000029A7140F26003C2F2FB
:1009B00000034FF003025A7140F26003C2F20003D9
:1009C0004FF00002DA714FF44060C4F2020040F2CE
:1009D0006001C2F2000100F017FB40F24003C2F2D6
:1009E00000034FF003021A6040F24003C2F200031A
:1009F0004FF000021A7140F24003C2F200034FF0C0
:100A000003025A7140F24003C2F200034FF00202A7
:100A1000DA714FF00000C4F2020040F24001C2F26D
:100A2000000100F0F1FA4FF000004FF0000100F07B
:100A300057FC4FF000004FF0010100F051FC40F274
:100A40005803C2F200034FF001021A6040F258034B
:100A5000C2F200034FF000021A7140F25803C2F2D2
:100A600000034FF010025A7140F25803C2F2000323
:100A70004FF001029A7140F25800C2F2000000F0FB
:100A8000F9F940F25803C2F200034FF002021A6073
:100A900040F25803C2F200034FF000021A7140F214
:100AA0005803C2F200034FF010025A7140F258038B
:100AB000C2F200034FF001029A7140F25800C2F2F4
:100AC000000000F0D7F940F25403C2F200034FF0E7
:100AD00006021A7040F25403C2F200034FF0010202
:100AE0005A7040F25403C2F200034FF001029A70B0
:100AF00040F25403C2F200034FF00102DA7040F2F8
:100B00005400C2F20000FFF7AFFE40F25403C2F2FD
:100B100000034FF007021A7040F25403C2F20003C0
:100B20004FF001025A7040F25403C2F200034FF03A
:100B300001029A7040F25403C2F200034FF0010226
:100B4000DA7040F25400C2F20000FFF78DFE40F26E
:100B50005403C2F200034FF01C021A7040F2540317
:100B6000C2F200034FF000025A7040F25403C2F286
:100B700000034FF001029A7040F25403C2F20003E6
:100B80004FF00102DA7040F25400C2F20000FFF7A9
:100B90006BFE40F24803C2F200034FF001021A80DC
:100BA00040F24803C2F200034FF000025A8040F2C4
:100BB0004803C2F2000345F66032C0F203025A60F5
:100BC00040F24803C2F200034FF000021A8140F2E3
:100BD0004803C2F200034FF000029A724FF08040C7
:100BE00040F24801C2F2000100F0D2FB4FF0804019
:100BF0004FF001014FF0010200F07EFC4FF0804009
:100C00004FF0010100F058FC80BD00BF80B500AF7F
:100C10004FF080404FF0010100F092FC0346002BA2
:100C20000CD040F20003C2F200034FF001021A6040
:100C30004FF080404FF0010100F0B2FC80BD00BFDA
:100C400080B500AF4FF0010000F0B0F90346002B73
:100C50005AD04FF00000C4F202004FF0010100F042
:100C600075FA0346002B1CD04FF44060C4F202001A
:100C70004FF4805100F088FA4FF080404FF00001AF
:100C800000F000FC40F20003C2F200034FF001024A
:100C90001A6040F23C03C2F200034FF000021A60F7
:100CA0002EE04FF44060C4F202004FF4805100F097
:100CB00079FA4FF0804000F0F3FB03461A4640F209
:100CC0003C03C2F200031A6040F23803C2F2000390
:100CD0004FF000021A6040F20003C2F200034FF02E
:100CE00001021A604FF44060C4F202004FF48041E8
:100CF00000F04AFA4FF080404FF0000100F0C2FBD4
:100D00004FF0010000F070F980BD00BF80B500AF6A
:100D10004FF0020000F04AF90346002B2ED04FF0AE
:100D20000000C4F202004FF0020100F00FFA034687
:100D3000002B1FD14FF44060C4F202004FF48041F9
:100D400000F030FA4FF0804000F0AAFB03461A464C
:100D500040F23803C2F200031A6040F20003C2F20C
:100D600000034FF000021A604FF080404FF0000186
:100D700000F088FB4FF0020000F036F980BD00BFA4
:100D800080B582B000AF4FF000037B604FF440604D
:100D9000C4F202004FF4005100F0F6F94FF00003E6
:100DA0007B601BE04FF48050C4F2010000F00AFCAD
:100DB00003460A2B16D04FF48050C4F2010000F015
:100DC00001FC0346DAB240F27803C2F2000379680C
:100DD0005B181A707B6803F101037B607B68642BEE
:100DE000E0DD00E000BF4FF44060C4F202004FF4C9
:100DF000005100F0D7F907F10807BD4680BD00BFDC
:100E000080B582B000AF41F69873C0F600037B60F6
:100E100040F20003C2F200033B600BE07B681A68FB
:100E20003B681A603B6803F104033B607B6803F195
:100E300004037B603A6840F20403C2F200039A4262
:100E4000ECD3084808494FF000028842B8BF40F888
:100E5000042BFFF6FAAFFFF7E5FC07F10807BD46E4
:100E600080BD000008000020DC00002080B400AF3E
:100E7000FEE700BF80B485B000AF78604FF000039C
:100E8000FB604FF47053C4F20103FB607B689B79F5
:100E9000002B78D04FF47053C4F201034FF470521A
:100EA000C4F2010211687A6812686FEA02020A400D
:100EB0001A604FF47053C4F201034FF47052C4F23D
:100EC000010251687A6812686FEA02020A405A60A9
:100ED0007B681B79FA68D318FB60FB68FA681168B5
:100EE0007A6812680A431A604FF47053C4F201031F
:100EF0004FF47052C4F2010291687A6812686FEA86
:100F000002020A409A604FF47053C4F201034FF496
:100F10007052C4F20102D1687A6812686FEA020264
:100F20000A40DA607B685B79102B1AD14FF470535A
:100F3000C4F201034FF47052C4F2010291687A685E
:100F400012680A439A604FF47053C4F201034FF4DD
:100F50007052C4F20102D1687A6812680A43DA60FA
:100F60001FE04FF47053C4F20103FB607B685B79B0
:100F7000FA68D318FB60FB68FA6811687A6812682F
:100F80000A431A600DE07B681B79FA68D318FB608E
:100F9000FB68FA6811687A6812686FEA02020A4010
:100FA0001A6007F11407BD4680BC704780B485B055
:100FB00000AF78604FF00003FB734FF47053C4F23E
:100FC00001035A697B681340002B03D04FF00103E3
:100FD000FB7302E04FF00003FB73FB7B184607F145
:100FE0001407BD4680BC704780B483B000AF786002
:100FF0004FF47053C4F201037A685A6107F10C0789
:10100000BD4680BC704700BF80B487B000AF786039
:1010100039604FF000037B614FF000033B614FF0FC
:101020000003FB604FF000037B6186E07B694FF0BB
:10103000010202FA03F33B613B681A683B69134003
:10104000FB60FA683B699A4273D17B681A687B69D6
:101050004FEA43034FF0030101FA03F36FEA03037E
:101060001A407B681A607B681A683B681B791946CE
:101070007B694FEA430301FA03F31A437B681A6062
:101080003B681B79012B03D03B681B79022B34D1C1
:101090007B689A687B694FEA43034FF0030101FACA
:1010A00003F36FEA03031A407B689A607B689A68CF
:1010B0003B685B7919467B694FEA430301FA03F306
:1010C0001A437B689A607B685A687B699BB24FF0D1
:1010D000010101FA03F36FEA03031A407B685A60C7
:1010E0007B685A683B689B7919467B699BB201FA19
:1010F00003F39BB21A437B685A607B68DA687B69AA
:101100009BB24FEA43034FF0030101FA03F36FEA86
:1011100003031A407B68DA607B68DA683B68DB7936
:1011200019467B694FEA430301FA03F31A437B68CC
:10113000DA607B6903F101037B617B690F2B7FF62A
:1011400075AF07F11C07BD4680BC704780B485B001
:1011500000AF78600B467B804FF00003FB737B6829
:101160001A697B881340002B03D04FF00103FB73F7
:1011700002E04FF00003FB73FB7B184607F11407F6
:10118000BD4680BC704700BF80B483B000AF7860BC
:101190000B467B807B687A881A8307F10C07BD4673
:1011A00080BC704780B483B000AF78600B467B8012
:1011B0007B687A885A8307F10C07BD4680BC70476C
:1011C00080B483B000AF78600B467B807B685A693F
:1011D0007B885A407B685A6107F10C07BD4680BC8A
:1011E000704700BF80B483B000AF78600B46FB70DF
:1011F000FB78002B0CD04FF46053C4F202034FF481
:101200006052C4F20202116B7A680A431A630DE05D
:101210004FF46053C4F202034FF46052C4F202026E
:10122000116B7A686FEA02020A401A6307F10C0731
:10123000BD4680BC704700BF80B483B000AF78600B
:101240000B46FB70FB78002B0CD04FF46053C4F2BC
:1012500002034FF46052C4F20202116C7A680A432E
:101260001A640DE04FF46053C4F202034FF460526D
:10127000C4F20202116C7A686FEA02020A401A6430
:1012800007F10C07BD4680BC704700BF80B483B037
:1012900000AF78600B46FB70FB78002B0CD04FF44E
:1012A0006053C4F202034FF46052C4F20202516C64
:1012B0007A680A435A640DE04FF46053C4F20203A3
:1012C0004FF46052C4F20202516C7A686FEA020273
:1012D0000A405A6407F10C07BD4680BC704700BF46
:1012E00090B484B000AF02460B46FA71BB714FF068
:1012F0000003FB60BB7903F003034FEA83034FF065
:101300000F0202FA03F3FB604FF46053C4F20103CF
:10131000BA794FEA9202D2B210464FF46052C4F248
:101320000102B9794FEA9101C9B201F1020152F803
:101330002110FA686FEA0202114000F1020243F83C
:1013400022104FF46053C4F20103BA794FEA9202BB
:10135000D2B210464FF46052C4F20102B9794FEA9A
:101360009101C9B201F1020152F82110FC79BA7958
:1013700002F003024FEA820204FA02F2114300F182
:10138000020243F8221007F11007BD4690BC7047D7
:1013900080B485B000AF786039604FF00003FB8106
:1013A0007B681B88FB817A684FF00003C4F201035D
:1013B0009A421FD07A684FF48063C4F201039A42C4
:1013C00018D07B68B3F1804F14D07A684FF48063F3
:1013D000C4F200039A420DD07A684FF40063C4F25D
:1013E00000039A4206D07A684FF44063C4F20003C7
:1013F0009A4208D1FB8923F07003FB813B685A882D
:10140000FB891343FB817A684FF48053C4F20003D5
:101410009A420FD07A684FF4A053C4F200039A4264
:1014200008D0FB8923F44073FB813B681A89FB8950
:101430001343FB817B68FA891A803B685A687B6892
:10144000DA623B681A887B681A857A684FF0000375
:10145000C4F201039A4206D07A684FF48063C4F262
:1014600001039A4204D13B689B7A1A467B681A862C
:101470007B684FF001029A8207F11407BD4680BCD9
:10148000704700BF80B483B000AF786039607B687C
:101490003A685A6207F10C07BD4680BC704700BF2E
:1014A00080B483B000AF78607B685B6A184607F150
:1014B0000C07BD4680BC704780B483B000AF786035
:1014C0000B46FB70FB78002B08D07B681B889BB217
:1014D00043F001039AB27B681A8007E07B681B889F
:1014E0009BB223F001039AB27B681A8007F10C07C4
:1014F000BD4680BC704700BF80B483B000AF786049
:1015000013460A467A807B707B78002B08D07B6874
:101510009B899AB27B8813439AB27B689A810AE0CE
:101520007B689B899AB27B886FEA03039BB2134066
:101530009AB27B689A8107F10C07BD4680BC704760
:1015400080B485B000AF78600B467B804FF000031D
:10155000FB734FF00003BB814FF000037B817B687E
:101560001B8A9AB27B881340BB817B689B899AB2A5
:101570007B8813407B81BB89002B06D07B89002BA5
:1015800003D04FF00103FB7302E04FF00003FB7345
:10159000FB7B184607F11407BD4680BC704700BFAF
:1015A00080B483B000AF78600B467B807B886FEAA5
:1015B00003039AB27B681A8207F10C07BD4680BC10
:1015C000704700BF80B483B000AF78607B689B88B1
:1015D0009BB24FEAC3534FEAD3539BB2184607F16D
:1015E0000C07BD4680BC704780B500AF4FF4605318
:1015F000C4F202034FF46052C4F20202126842F0D5
:1016000001021A604FF46053C4F202034FF000026B
:101610009A604FF46053C4F202034FF46052C4F274
:101620000202126822F0847222F480321A604FF4AF
:101630006053C4F2020343F21002C2F200425A6045
:101640004FF46053C4F202034FF46052C4F202023A
:10165000126822F480221A604FF46053C4F202032D
:101660004FF00002DA6000F009F84FF46D43CEF25B
:1016700000034FF000629A6080BD00BF80B483B069
:1016800000AF4FF000037B604FF000033B604FF46E
:101690006053C4F202034FF46052C4F202021268B3
:1016A00042F480321A604FF46053C4F202031B68A4
:1016B00003F400333B607B6803F101037B603B680C
:1016C000002B03D17B68B3F5A04FECD14FF46053EE
:1016D000C4F202031B6803F40033002B03D04FF065
:1016E00001033B6002E04FF000033B603B68012BCD
:1016F00040F082804FF46053C4F202034FF4605212
:10170000C4F20202126C42F080521A644FF4E043B9
:10171000C4F200034FF4E042C4F20002126842F443
:1017200040421A604FF46053C4F202034FF4605217
:10173000C4F2020292689A604FF46053C4F202034A
:101740004FF46052C4F20202926842F400429A607E
:101750004FF46053C4F202034FF46052C4F2020229
:10176000926842F4A0529A604FF46053C4F20203AC
:1017700045F20842C0F240725A604FF46053C4F21E
:1017800002034FF46052C4F20202126842F0807207
:101790001A6000BF4FF46053C4F202031B6803F0E9
:1017A0000073002BF6D04FF47053C4F2020340F2E2
:1017B00005621A604FF46053C4F202034FF46052A2
:1017C000C4F20202926822F003029A604FF460535E
:1017D000C4F202034FF46052C4F20202926842F073
:1017E00002029A6000BF4FF46053C4F202039B6888
:1017F00003F00C03082BF6D107F10C07BD4680BCA3
:10180000704700BF81F0004102E000BF83F0004359
:1018100030B54FEA41044FEA430594EA050F08BF8B
:1018200090EA020F1FBF54EA000C55EA020C7FEA4F
:10183000645C7FEA655C00F0E2804FEA5454D4EBCC
:101840005555B8BF6D420CDD2C4480EA020281EA96
:10185000030382EA000083EA010180EA020281EACE
:101860000303362D88BF30BD11F0004F4FEA013120
:101870004FF4801C4CEA113102D0404261EB41012F
:1018800013F0004F4FEA03334CEA133302D05242B5
:1018900063EB430394EA050F00F0A780A4F1010471
:1018A000D5F1200E0DDB02FA0EFC22FA05F28018AB
:1018B00041F1000103FA0EF2801843FA05F3594191
:1018C0000EE0A5F120050EF1200E012A03FA0EFC10
:1018D00028BF4CF0020C43FA05F3C01851EBE3713A
:1018E00001F0004507D54FF0000EDCF1000C7EEB57
:1018F00000006EEB0101B1F5801F1BD3B1F5001F95
:101900000CD349085FEA30004FEA3C0C04F10104B3
:101910004FEA445212F5800F80F09A80BCF1004FDC
:1019200008BF5FEA500C50F1000041EB045141EA5E
:10193000050130BD5FEA4C0C404141EB010111F45F
:10194000801FA4F10104E9D191F0000F04BF01460A
:101950000020B1FA81F308BF2033A3F10B03B3F1E8
:1019600020020CDA0C3208DD02F1140CC2F10C0278
:1019700001FA0CF021FA02F10CE002F11402D8BFD6
:10198000C2F1200C01FA02F120FA0CFCDCBF41EAA2
:101990000C019040E41AA2BF01EB0451294330BD71
:1019A0006FEA04041F3C1CDA0C340EDC04F114044E
:1019B000C4F1200220FA04F001FA02F340EA030025
:1019C00021FA04F345EA030130BDC4F10C04C4F16B
:1019D000200220FA02F001FA04F340EA030029464B
:1019E00030BD21FA04F0294630BD94F0000F83F495
:1019F000801306BF81F480110134013D4EE77FEA78
:101A0000645C18BF7FEA655C29D094EA050F08BFC3
:101A100090EA020F05D054EA000C04BF19461046A4
:101A200030BD91EA030F1EBF0021002030BD5FEAE8
:101A3000545C05D14000494128BF41F0004130BD10
:101A400014F580043CBF01F5801130BD01F0004564
:101A500045F0FE4141F470014FF0000030BD7FEAD7
:101A6000645C1ABF194610467FEA655C1CBF0B46D2
:101A7000024650EA013406BF52EA033591EA030FE9
:101A800041F4002130BD00BF90F0000F04BF0021E1
:101A9000704730B54FF4806404F132044FF0000514
:101AA0004FF0000150E700BF90F0000F04BF00218D
:101AB000704730B54FF4806404F1320410F00045F3
:101AC00048BF40424FF000013EE700BF42004FEAEE
:101AD000E2014FEA31014FEA02701FBF12F07F436B
:101AE00093F07F4F81F06051704792F0000F14BF68
:101AF00093F07F4F704730B54FF4607401F00045AC
:101B000021F0004120E700BF50EA010208BF704702
:101B100030B54FF000050AE050EA010208BF7047F7
:101B200030B511F0004502D5404261EB41014FF460
:101B3000806404F132045FEA915C3FF4DCAE4FF064
:101B400003025FEADC0C18BF03325FEADC0C18BF4B
:101B5000033202EBDC02C2F1200300FA03FC20FA9C
:101B600002F001FA03FE40EA0E0021FA02F11444E9
:101B7000C1E600BF70B54FF0FF0C4CF4E06C1CEAFE
:101B800011541DBF1CEA135594EA0C0F95EA0C0F73
:101B900000F0DEF82C4481EA030621EA4C5123EAE6
:101BA0004C5350EA013518BF52EA033541F4801115
:101BB00043F4801338D0A0FB02CE4FF00005E1FBC8
:101BC00002E506F00042E0FB03E54FF00006E1FB12
:101BD00003569CF0000F18BF4EF0010EA4F1FF0455
:101BE000B6F5007F64F5407404D25FEA4E0E6D4195
:101BF00046EB060642EAC62141EA55514FEAC520A6
:101C000040EA5E504FEACE2EB4F1FD0C88BFBCF521
:101C1000E06F1ED8BEF1004F08BF5FEA500E50F1D2
:101C2000000041EB045170BD06F0004646EA010198
:101C300040EA020081EA0301B4EB5C04C2BFD4EBCA
:101C40000C0541EA045170BD41F480114FF0000EC3
:101C5000013C00F3AB8014F1360FDEBF002001F031
:101C6000004170BDC4F10004203C35DA0C341BDCAB
:101C700004F11404C4F1200500FA05F320FA04F07D
:101C800001FA05F240EA020001F0004221F00041B1
:101C900010EBD37021FA04F642EB06015EEA430E24
:101CA00008BF20EAD37070BDC4F10C04C4F1200554
:101CB00000FA04F320FA05F001FA04F240EA020007
:101CC00001F0004110EBD37041F100015EEA430ED8
:101CD00008BF20EAD37070BDC4F1200500FA05F2F8
:101CE0004EEA020E20FA04F301FA05F243EA020377
:101CF00021FA04F001F0004121FA04F220EA020086
:101D000000EBD3705EEA430E08BF20EAD37070BDCB
:101D100094F0000F0FD101F00046400041EB0101AB
:101D200011F4801F08BF013CF7D041EA060195F08D
:101D3000000F18BF704703F00046520043EB030347
:101D400013F4801F08BF013DF7D043EA0603704734
:101D500094EA0C0F0CEA135518BF95EA0C0F0CD03F
:101D600050EA410618BF52EA4306D1D181EA030185
:101D700001F000414FF0000070BD50EA410606BF7F
:101D80001046194652EA430619D094EA0C0F02D1C4
:101D900050EA013613D195EA0C0F05D152EA033609
:101DA0001CBF104619460AD181EA030101F0004127
:101DB00041F0FE4141F470014FF0000070BD41F070
:101DC000FE4141F4780170BD70B54FF0FF0C4CF44A
:101DD000E06C1CEA11541DBF1CEA135594EA0C0F69
:101DE00095EA0C0F00F0A7F8A4EB050481EA030EB6
:101DF00052EA03354FEA013100F088804FEA03339D
:101E00004FF0805545EA131343EA12634FEA02226A
:101E100045EA111545EA10654FEA00260EF000412B
:101E20009D4208BF964244F1FD0404F5407402D27D
:101E30005B084FEA3202B61A65EB03055B084FEA0E
:101E400032024FF480104FF4002CB6EB020E75EB0B
:101E5000030E22BFB61A754640EA0C005B084FEA33
:101E60003202B6EB020E75EB030E22BFB61A7546B0
:101E700040EA5C005B084FEA3202B6EB020E75EBFB
:101E8000030E22BFB61A754640EA9C005B084FEA73
:101E90003202B6EB020E75EB030E22BFB61A754680
:101EA00040EADC0055EA060E18D04FEA051545EA6F
:101EB00016754FEA06164FEAC30343EA52734FEA18
:101EC000C2025FEA1C1CC0D111F4801F0BD141EA91
:101ED00000014FF000004FF0004CB6E711F4801FF6
:101EE00004BF01430020B4F1FD0C88BFBCF5E06FD6
:101EF0003FF6AFAEB5EB030C04BFB6EB020C5FEAE6
:101F0000500C50F1000041EB045170BD0EF0004E3A
:101F10004EEA113114EB5C04C2BFD4EB0C0541EA6C
:101F2000045170BD41F480114FF0000E013C90E669
:101F300045EA060E8DE60CEA135594EA0C0F08BF2D
:101F400095EA0C0F3FF43BAF94EA0C0F0AD150EA2C
:101F500001347FF434AF95EA0C0F7FF425AF1046BF
:101F600019462CE795EA0C0F06D152EA03353FF4E7
:101F7000FDAE1046194622E750EA410618BF52EA64
:101F800043067FF4C5AE50EA41047FF40DAF52EA38
:081F900043057FF4EBAE12E7FC
:041F98000100000044
:0400000508000000EF
:00000001FF
