:020000040800F2
:10000000B08E002071540008ED540008ED54000833
:10001000ED540008ED540008ED5400080000000005
:10002000000000000000000000000000ED54000887
:10003000ED54000800000000ED540008ED540008E5
:10004000ED540008ED540008ED540008ED5400088C
:10005000ED540008ED5400089D47000811480008C1
:100060007948000891480008A9490008ED540008A3
:10007000ED540008ED540008ED540008ED5400085C
:10008000ED540008ED540008ED540008ED5400084C
:10009000ED540008ED540008ED540008FD49000837
:1000A000ED540008A9480008E9480008ED5400088C
:1000B000ED540008A54F00084D470008ED54000816
:1000C000ED540008ED540008ED540008ED5400080C
:1000D000ED54000811540008ED540008ED540008D8
:1000E000ED540008ED540008ED540008ED540008EC
:1000F0002949000869490008ED540008ED5400083A
:10010000ED540008ED540008ED540008ED540008CB
:10011000ED540008ED540008ED540008ED540008BB
:10012000ED540008ED540008ED540008ED540008AB
:10013000D1040008ED540008ED540008ED54000807
:10014000ED540008ED540008ED540008ED5400088B
:10015000ED540008ED540008ED540008ED5400087B
:10016000ED540008ED540008ED540008ED5400086B
:10017000ED540008ED540008ED540008ED5400085B
:10018000ED540008ED54000880B500AF44F298101B
:10019000C2F2000005F0DCFF44F27810C2F2000069
:1001A00005F014FA44F2E010C2F2000005F062FA21
:1001B00044F2A410C2F2000005F032FD4FF480704A
:1001C0004FF0010106F08EFB4FF004004FF00101EB
:1001D00006F034FB4FF480004FF0010106F02EFBD7
:1001E00044F29813C2F200034FF00F021A6044F277
:1001F0009813C2F200034FF003021A7144F29813ED
:10020000C2F200034FF00002DA714FF40060C4F252
:10021000020044F29811C2F2000105F0F7FE46F226
:100220007040C4F2020005F081FB44F2A413C2F254
:1002300000034FF000021A6044F2A413C2F200035C
:1002400042F24C02C4F201025A6044F29012C2F22D
:10025000000244F2A413C2F200039A6044F2A41311
:10026000C2F200034FF00002DA6044F2A413C2F2BB
:1002700000034FF004021A6144F2A413C2F2000317
:100280004FF000025A6144F2A413C2F200034FF48B
:1002900080629A6144F2A413C2F200034FF4006238
:1002A000DA6144F2A413C2F200034FF400521A625E
:1002B00044F2A413C2F200034FF480725A6244F273
:1002C000A413C2F200034FF400329A6244F2A41362
:1002D000C2F200034FF00002DA6244F2A413C2F249
:1002E00000034FF001021A6344F2A413C2F20003A8
:1002F0004FF000025A6344F2A413C2F200034FF01D
:1003000000029A6346F27040C4F2020044F2A41163
:10031000C2F2000105F02CFC46F27040C4F202006B
:100320004FF010014FF0010205F0DCFC44F2A01385
:10033000C2F200034FF03C021A7044F2A013C2F262
:1003400000034FF000025A7044F2A013C2F20003FF
:100350004FF003029A7044F2A013C2F200034FF070
:100360000102DA7044F2A010C2F2000004F0F4FCC2
:1003700046F27040C4F202004FF0010105F096FC15
:1003800005F0B8F844F27813C2F200034FF000020F
:100390001A6144F27813C2F200034FF000021A60AF
:1003A00044F27813C2F200034FF001025A7144F292
:1003B0007813C2F200034FF00002DA6044F27813BF
:1003C000C2F200034FF004021A7544F27813C2F22D
:1003D00000034FF001021A714FF40050C4F2010003
:1003E00044F27811C2F2000105F094F844F2E013EF
:1003F000C2F200034FF000021A6044F2E013C2F2AE
:1004000000034FF000025A6044F2E013C2F200030E
:100410004FF00002DA6044F2E013C2F200034FF042
:1004200000029A6044F2E010C2F2000005F0F4F815
:100430004FF40050C4F201004FF00A014FF00102E6
:100440004FF0070305F04CF94FF40050C4F20100DF
:100450004FF00B014FF002024FF0070305F040F997
:100460004FF40050C4F201004FF00C014FF00302B2
:100470004FF0070305F034F94FF40050C4F20100C7
:100480004FF00D014FF004024FF0070305F028F97B
:100490004FF40050C4F201004FF0010105F02AFAB8
:1004A0004FF40050C4F201004FF0010105F006FACC
:1004B0004FF40050C4F201004FF0010105F0F4F8D0
:1004C0004FF40050C4F2010005F0E8F980BD00BF10
:1004D00080B500AF46F27040C4F2020048F220013D
:1004E000C2F2000105F038FC0346002B2BD044F289
:1004F0009013C2F200031B881A4644F2C003C2F2F2
:1005000000031A6044F29013C2F200035B881A469B
:1005100044F2C003C2F200035A6044F29013C2F2E4
:100520000003DB881A4644F2C003C2F200039A605B
:1005300044F29013C2F200031B891A4644F2C0032E
:10054000C2F20003DA6046F27040C4F202004FF0DB
:100550002001C2F2000105F05FFC80BD80B485B0CF
:1005600000AF87ED020B78607968D7E90223C1E913
:10057000002307F11407BD4680BC7047B0B584B0B6
:1005800000AF87ED020B786039603B68D3E9002348
:10059000D7E9020106F0F4FD02460B4614461D465B
:1005A0003B68D3E902013B68D3E9002306F0E8FD8C
:1005B00002460B462046294607F0C0F802460B4685
:1005C0007968C1E9002307F11007BD46B0BD00BF3F
:1005D000B0B584B000AF87ED020B786039603B683E
:1005E000D3E902013B68D3E9002306F0C9FD0246C6
:1005F0000B464FF000004FF00001C3F6F07107F01A
:100600009DF802460B4614461D463B68D3E902237B
:1006100010461946D7E9022306F0B2FD02460B4602
:100620002046294606F060FF02460B467968C1E97C
:10063000002307F11007BD46B0BD00BFB0B590B0B4
:1006400000AF44F21823C2F20003D3E9022310469C
:1006500019464FF000024FF00003CCF2080307F0F8
:10066000B5F90346002B12D144F21823C2F200035D
:10067000D3E90223104619464FF000024FF0000361
:10068000C3F6F07307F0C0F90346002B10D040F218
:100690000003C2F20003D3E9660144F24823C2F228
:1006A000000303F5864303F13003C3E9000153E07F
:1006B00044F21823C2F20003D3E90223104619467C
:1006C0004FF000024FF00003CBF6F07307F074F91F
:1006D0000346002B10D040F20003C2F20003D3E91E
:1006E0006A0144F24823C2F2000303F5864303F192
:1006F0003003C3E900012FE044F21823C2F20003E3
:10070000D3E90223104619464FF000024FF00003D0
:10071000CBF6F07307F05AF90346002B0ED044F2E3
:100720001823C2F2000393ED027BB0EE470AF0EE0D
:10073000670ABD48BD49FFF721FF0DE044F21823C9
:10074000C2F2000393ED027BB0EE470AF0EE670AB7
:10075000B548B749FFF73CFF40F20003C2F200037F
:1007600003F5AB63D3E9000144F24823C2F200036E
:1007700003F5864303F13003D3E9002306F0B4FE0A
:1007800002460B461046194644F24823C2F20003C3
:1007900003F5854303F12003C3E900014FF0000393
:1007A000FB632BE044F24823C2F2000303F58543C8
:1007B00003F12003D3E9000140F20003C2F2000379
:1007C000FA6B02F1AC024FEAC2029B18D3E9002394
:1007D00006F08AFE02460B461046194644F24823AC
:1007E000C2F20003FA6B02F21A724FEAC2029B18BD
:1007F000C3E90001FB6B03F10103FB63FB6B642B9B
:10080000D0DD44F21823C2F20003D3E902231046DC
:1008100019464FF000024FF00003CBF6F07307F0DB
:10082000D5F80346002B12D144F21823C2F200037C
:10083000D3E90223104619464FF000024FF000039F
:10084000C4F2080307F0E0F80346002B10D040F292
:100850000003C2F20003D3E96E0144F24823C2F25E
:10086000000303F5864303F13803C3E9000153E0B5
:1008700044F21823C2F20003D3E9022310461946BA
:100880004FF000024FF00003C3F6F07307F094F846
:100890000346002B10D040F20003C2F20003D3E95C
:1008A000720144F24823C2F2000303F5864303F1C8
:1008B0003803C3E900012FE044F21823C2F2000319
:1008C000D3E90223104619464FF000024FF000030F
:1008D000C3F6F07307F07AF80346002B0ED044F20B
:1008E0001823C2F2000393ED027BB0EE470AF0EE4C
:1008F000670A50485049FFF741FE0DE044F21823C3
:10090000C2F2000393ED027BB0EE470AF0EE670AF5
:1009100048484A49FFF75CFE40F20003C2F2000378
:1009200003F68803D3E9000144F24823C2F200032E
:1009300003F5864303F13803D3E9002306F0D4FD21
:1009400002460B461046194644F24823C2F2000301
:1009500003F5854303F12803C3E900014FF00003C9
:10096000FB632BE044F24823C2F2000303F5854306
:1009700003F12803D3E9000140F20003C2F20003AF
:10098000FA6B02F589724FEAC2029B18D3E9002381
:1009900006F0AAFD02460B461046194644F24823CB
:1009A000C2F20003FA6B02F27F724FEAC2029B1896
:1009B000C3E90001FB6B03F10103FB63FB6B642BD9
:1009C000D0DD44F21823C2F20003D3E9002310461D
:1009D00019464FF000024FF0404306F0F7FF034680
:1009E000002B10D144F21823C2F20003D3E90023F4
:1009F000104619464FF000024FF0000307F004F8CC
:100A00000346002B1CD040F20003C2F20003D3E9DE
:100A1000360144F24823C2F2000303F5874303F191
:100A20003003C3E900015FE078850020583F0020D3
:100A3000483F002080850020383F0020283F0020CC
:100A400044F21823C2F20003D3E9002310461946EA
:100A50004FF000024FF00003CBF6F07306F0ACFF4E
:100A60000346002B10D040F20003C2F20003D3E98A
:100A70003A0144F24823C2F2000303F5874303F12D
:100A80003003C3E900012FE044F21823C2F200034F
:100A9000D3E90023104619464FF000024FF000033F
:100AA000CBF6F07306F092FF0346002B0ED044F213
:100AB0001823C2F2000393ED007BB0EE470AF0EE7C
:100AC000670AAF48AF49FFF759FD0DE044F218231C
:100AD000C2F2000393ED007BB0EE470AF0EE670A26
:100AE000A748A949FFF774FD44F24823C2F2000366
:100AF00003F5874303F13003D3E9000144F24823AF
:100B0000C2F2000303F5864303F13003D3E9002367
:100B100006F066FF0346002B14D044F24823C2F2CD
:100B2000000303F5874303F13003D3E9000144F2E6
:100B30004823C2F2000303F5864303F12803C3E907
:100B4000000113E044F24823C2F2000303F5864398
:100B500003F13003D3E9000144F24823C2F2000359
:100B600003F5864303F12803C3E9000140F20003C3
:100B7000C2F2000303F6B833D3E9000144F248237C
:100B8000C2F2000303F5864303F12803D3E90023EF
:100B900006F0AAFC02460B461046194644F24823CA
:100BA000C2F2000303F5854303F13003C3E90001FA
:100BB0004FF00003FB632BE044F24823C2F2000332
:100BC00003F5854303F13003D3E9000140F200034C
:100BD000C2F20003FA6B02F1AC024FEAC2029B18A8
:100BE000D3E9002306F080FC02460B461046194666
:100BF00044F24823C2F20003FA6B02F2E4724FEAB5
:100C0000C2029B18C3E90001FB6B03F10103FB6304
:100C1000FB6B642BD0DD44F21823C2F20003D3E94E
:100C20000023104619464FF000024FF0000306F073
:100C3000CDFE0346002B10D144F21823C2F200036C
:100C4000D3E90023104619464FF000024FF08043CD
:100C500006F0DAFE0346002B10D040F20003C2F289
:100C60000003D3E92E0144F24823C2F2000303F546
:100C7000874303F13803C3E9000153E044F218232A
:100C8000C2F20003D3E90023104619464FF00002D8
:100C90004FF00003C3F6F07306F08EFE0346002B00
:100CA00010D040F20003C2F20003D3E9320144F253
:100CB0004823C2F2000303F5874303F13803C3E975
:100CC00000012FE044F21823C2F20003D3E900230D
:100CD000104619464FF000024FF00003C3F6F073C0
:100CE00006F074FE0346002B0ED044F21823C2F225
:100CF000000393ED007BB0EE470AF0EE670A23484D
:100D00002349FFF73BFC0DE044F21823C2F2000335
:100D100093ED007BB0EE470AF0EE670A1B481D49D1
:100D2000FFF756FC44F24823C2F2000303F5874361
:100D300003F13803D3E9000144F24823C2F200036F
:100D400003F5864303F13803D3E9002306F048FE98
:100D50000346002B20D044F24823C2F2000303F5DF
:100D6000874303F13803D3E9000144F24823C2F278
:100D7000000303F5864303F12803C3E900011FE0E4
:100D8000F885002018400020084000200086002040
:100D9000384000202840002044F24823C2F20003DB
:100DA00003F5864303F13803D3E9000144F24823F5
:100DB000C2F2000303F5864303F12803C3E90001EF
:100DC00040F20003C2F2000303F53C63D3E90001E3
:100DD00044F24823C2F2000303F5864303F12803DB
:100DE000D3E9002306F080FB02460B461046194665
:100DF00044F24823C2F2000303F5854303F13803AC
:100E0000C3E900014FF00003FB6361E044F24823B3
:100E1000C2F20003FA6B02F21A724FEAC2029B1886
:100E2000D3E9000144F24823C2F20003FA6B02F254
:100E30007F724FEAC2029B18D3E9002306F0A2F9A1
:100E400002460B461046194644F24823C2F20003FC
:100E5000FA6B02F2E4724FEAC2029B18D3E9002354
:100E600006F090F902460B4614461D4644F248230C
:100E7000C2F2000303F5854303F13803D3E900010F
:100E800040F20003C2F20003FA6B02F589724FEAE6
:100E9000C2029B18D3E9002306F026FB02460B464C
:100EA0002046294606F06EF902460B4610461946C2
:100EB00044F24823C2F20003FA6B02F21A724FEABC
:100EC000C2029B18C3E90001FB6B03F10103FB6342
:100ED000FB6B642B9ADD44F24823C2F2000303F556
:100EE000635303F11003D3E9000144F24823C2F233
:100EF000000303F5864303F12803C3E900014FF023
:100F00000003FB632BE044F24823C2F2000303F525
:100F1000864303F12803D3E90001FB6B03F10102CF
:100F200044F24823C2F2000302F21A724FEAC202EC
:100F30009B18D3E9002306F025F902460B4610461C
:100F4000194644F24823C2F2000303F5864303F135
:100F50002803C3E90001FB6B03F10103FB63FB6B97
:100F6000632BD0DD44F24823C2F2000303F586432D
:100F700003F12803D3E9000144F24823C2F200033D
:100F800003F5864303F14003C3E9000144F248231B
:100F9000C2F2000303F5864303F14003D3E90023C3
:100FA000104619464FF000024FF0000306F018FDFE
:100FB0000346002B08D040F20003C2F20003D3E93D
:100FC0000223C7E90C2312E044F24823C2F20003D3
:100FD00003F5864303F1400393ED007B07F13003F3
:100FE000B0EE470AF0EE670A1846FFF7B7FA44F288
:100FF0001823C2F20003D3E90A23104619464FF022
:1010000000024FF0000306F0E1FC0346002B10D174
:1010100044F21823C2F20003D3E90A23104619460A
:101020004FF000024FF0804306F0EEFC0346002B29
:1010300010D040F20003C2F20003D3E93E0144F2B3
:101040004823C2F2000303F5864303F14803C3E9D2
:10105000000153E044F21823C2F20003D3E90A234B
:10106000104619464FF000024FF00003C3F6F0732C
:1010700006F0A2FC0346002B10D040F20003C2F29F
:101080000003D3E9420144F24823C2F2000303F50E
:10109000864303F14803C3E900012FE044F218231B
:1010A000C2F20003D3E90A23104619464FF00002AA
:1010B0004FF00003C3F6F07306F088FC0346002BE4
:1010C0000ED044F21823C2F2000393ED0A7BB0EE77
:1010D000470AF0EE670ABE48BE49FFF74FFA0DE037
:1010E00044F21823C2F2000393ED0A7BB0EE470AE4
:1010F000F0EE670AB648B849FFF76AFA40F2000313
:10110000C2F2000303F56F63D3E9000144F2482300
:10111000C2F2000303F5864303F14803D3E9002339
:1011200006F0E2F902460B461046194644F24823FF
:10113000C2F2000303F5854303F14003C3E9000154
:101140004FF00003FB632BE044F24823C2F200039C
:1011500003F5854303F14003D3E9000140F20003A6
:10116000C2F20003FA6B02F2DF124FEAC2029B18CE
:10117000D3E9002306F0B8F902460B46104619469B
:1011800044F24823C2F20003FA6B02F2BC424FEA77
:10119000C2029B18C3E90001FB6B03F10103FB636F
:1011A000FB6B642BD0DD4FF00003FB632DE0FB6B8A
:1011B00003F1650444F24823C2F2000303F58543BA
:1011C00003F14003D3E9000140F20003C2F200033F
:1011D000FA6B02F511724FEAC2029B18D3E90023A1
:1011E00006F082F902460B461046194644F248239F
:1011F000C2F2000304F2BC424FEAC2029B18C3E9E8
:101200000001FB6B03F10103FB63FB6B642BCEDD81
:1012100044F21823C2F20003D3E90423104619460E
:101220004FF000024FF00003CBF6F07306F0CEFB58
:101230000346002B12D144F21823C2F20003D3E973
:101240000423104619464FF000024FF00003C3F686
:10125000F07306F0D9FB0346002B10D040F20003D8
:10126000C2F20003D3E97E0144F24823C2F2000334
:1012700003F5864303F15003C3E900014FE044F254
:101280001823C2F20003D3E90423104619464FF095
:1012900000024FF0000306F08FFB0346002B10D036
:1012A00040F20003C2F20003D3E9820144F2482372
:1012B000C2F2000303F5864303F15003C3E90001C2
:1012C0002DE044F21823C2F20003D3E904231046B0
:1012D00019464FF000024FF0000306F077FB03467B
:1012E000002B0ED044F21823C2F2000393ED047BCE
:1012F000B0EE470AF0EE670A38483949FFF73EF981
:101300000DE044F21823C2F2000393ED047BB0EE2B
:10131000470AF0EE670A31483249FFF759F940F2BF
:101320000003C2F2000303F5AA5303F10803D3E953
:10133000000144F24823C2F2000303F5864303F19F
:101340005003D3E9002306F0CFF802460B461046BF
:10135000194644F24823C2F2000303F5854303F122
:101360004803C3E900014FF00003FB6329E044F2A6
:101370004823C2F2000303F5854303F14803D3E990
:10138000000140F20003C2F20003FA6B02F2DF1226
:101390004FEAC2029B18D3E9002306F0A5F80246E3
:1013A0000B461046194644F24823C2F20003FA6B7A
:1013B0004FEAC2029B18C3E90001FB6B03F1010372
:1013C000FB63FB6B642BD2DD4FF00003FB6337E064
:1013D00090850020F83F0020E83F002098850020FD
:1013E000F83E0020E83E0020FB6B03F1650444F268
:1013F0004823C2F2000303F5854303F14803D3E910
:10140000000140F20003C2F20003FA6B02F5117210
:101410004FEAC2029B18D3E9002306F065F80246A2
:101420000B461046194644F24823C2F200034FEA25
:10143000C4029B18C3E90001FB6B03F10103FB63CA
:10144000FB6B642BD0DD4FF00003FB632BE0FB6BE9
:1014500003F1CA0444F24823C2F2000303F58543B2
:1014600003F14803D3E9000140F20003C2F2000394
:10147000FA6B02F2AA224FEAC2029B18D3E90023B8
:1014800006F032F802460B461046194644F248234D
:10149000C2F200034FEAC4029B18C3E90001FB6BD0
:1014A00003F10103FB63FB6B642BD0DD4FF0000302
:1014B000FB632BE0FB6B03F22F1444F24823C2F2D0
:1014C000000303F5854303F14803D3E9000140F22B
:1014D0000003C2F20003FA6B02F20F324FEAC202BB
:1014E0009B18D3E9002305F0FFFF02460B46104688
:1014F000194644F24823C2F200034FEAC4029B1883
:10150000C3E90001FB6B03F10103FB63FB6B642B7D
:10151000D0DD44F21823C2F20003D3E904231046BD
:1015200019464FF000024FF0404306F04FFA0346D1
:10153000002B10D144F21823C2F20003D3E9042394
:10154000104619464FF000024FF0000306F05CFA17
:101550000346002B10D040F20003C2F20003D3E98F
:10156000860144F24823C2F2000303F5864303F1E7
:101570005803C3E9000153E044F21823C2F2000308
:10158000D3E90423104619464FF000024FF0000340
:10159000CBF6F07306F010FA0346002B10D040F2A1
:1015A0000003C2F20003D3E98A0144F24823C2F2E5
:1015B000000303F5864303F15803C3E900012FE05C
:1015C00044F21823C2F20003D3E90423104619465B
:1015D0004FF000024FF00003CBF6F07306F0F6F97F
:1015E0000346002B0ED044F21823C2F2000393ED01
:1015F000047BB0EE470AF0EE670AB948B949FEF736
:10160000BDFF0DE044F21823C2F2000393ED047B0A
:10161000B0EE470AF0EE670AB148B349FEF7D8FFCB
:1016200040F20003C2F2000303F5DD53D3E90001E9
:1016300044F24823C2F2000303F5864303F1580342
:10164000D3E9002305F050FF02460B461046194629
:1016500044F24823C2F2000303F5854303F150032B
:10166000C3E900014FF00003FB632BE044F2482381
:10167000C2F2000303F5854303F15003D3E90001EF
:1016800040F20003C2F20003FA6B02F275324FEA35
:10169000C2029B18D3E9002305F026FF02460B4641
:1016A0001046194644F24823C2F20003FA6B02F5D1
:1016B000CA724FEAC2029B18C3E90001FB6B03F137
:1016C0000103FB63FB6B642BD0DD4FF00003FB6376
:1016D0002DE0FB6B03F1650444F24823C2F20003E2
:1016E00003F5854303F15003D3E9000140F2000301
:1016F000C2F20003FA6B02F2DA324FEAC2029B181E
:10170000D3E9002305F0F0FE02460B4610461946C9
:1017100044F24823C2F2000304F5CA724FEAC2023F
:101720009B18C3E90001FB6B03F10103FB63FB6B37
:10173000642BCEDD4FF00003FB632DE0FB6B03F168
:10174000CA0444F24823C2F2000303F5854303F1BF
:101750005003D3E9000140F20003C2F20003FA6B28
:1017600002F23F424FEAC2029B18D3E9002305F080
:10177000BBFE02460B461046194644F24823C2F20D
:10178000000304F5CA724FEAC2029B18C3E90001C4
:10179000FB6B03F10103FB63FB6B642BCEDD4FF0AE
:1017A0000003FB632DE0FB6B03F22F1444F248238C
:1017B000C2F2000303F5854303F15003D3E90001AE
:1017C00040F20003C2F20003FA6B02F2A4424FEAB5
:1017D000C2029B18D3E9002305F086FE02460B46A1
:1017E0001046194644F24823C2F2000304F5CA72B7
:1017F0004FEAC2029B18C3E90001FB6B03F101032E
:10180000FB63FB6B642BCEDD44F21823C2F20003B2
:10181000D3E90623104619464FF000024FF00003AB
:10182000CBF6F07306F0D2F80346002B12D144F247
:101830001823C2F20003D3E90623104619464FF0DD
:1018400000024FF00003C3F6F07306F0DDF8034624
:10185000002B08D040F20003C2F20003D3E91E239C
:10186000C7E90A2354E044F21823C2F20003D3E983
:101870000623104619464FF000024FF0000306F011
:101880009BF80346002B08D040F20003C2F200038D
:10189000D3E92223C7E90A233AE044F21823C2F22B
:1018A0000003D3E90623104619464FF000024FF01B
:1018B000000306F08BF80346002B19D044F21823DE
:1018C000C2F2000393ED067B07F12803B0EE470A4E
:1018D000F0EE670A18460549FEF750FE18E000BF13
:1018E000A0850020D83E0020C83E0020784000207F
:1018F00044F21823C2F2000393ED067B07F128039C
:10190000B0EE470AF0EE670A1846A749FEF760FEF8
:1019100044F21823C2F20003D3E904231046194607
:101920004FF000024FF0000306F050F80346002B82
:1019300010D144F21823C2F20003D3E90423104665
:1019400019464FF000024FF0804306F05DF8034661
:10195000002B10D040F20003C2F20003D3E976015D
:1019600044F24823C2F2000303F5864303F1600307
:10197000C3E9000153E044F21823C2F20003D3E9A3
:101980000423104619464FF000024FF00003C3F63F
:10199000F07306F011F80346002B10D040F200035C
:1019A000C2F20003D3E97A0144F24823C2F20003F1
:1019B00003F5864303F16003C3E900012FE044F21D
:1019C0001823C2F20003D3E90423104619464FF04E
:1019D00000024FF00003C3F6F07305F0F7FF034673
:1019E000002B0ED044F21823C2F2000393ED047BC7
:1019F000B0EE470AF0EE670A6C486D49FEF7BEFD8F
:101A00000DE044F21823C2F2000393ED047BB0EE24
:101A1000470AF0EE670A65486649FEF7D9FD44F2C9
:101A20004823C2F2000303F5864303F13003D3E9F0
:101A3000000144F24823C2F2000303F5864303F198
:101A40006003D3E9002305F0CBFF0346002B14D03D
:101A500044F24823C2F2000303F5864303F1300346
:101A6000D3E9000144F24823C2F2000303F58643A0
:101A700003F11003C3E9000113E044F24823C2F26A
:101A8000000303F5864303F16003D3E9000144F248
:101A90004823C2F2000303F5864303F11003C3E9B0
:101AA000000144F24823C2F2000303F5864303F128
:101AB0001003D3E90001D7E90A234FF0010405F030
:101AC0008FFF0346002B02D14FF000031C46E3B208
:101AD00083F00103DBB2002B0BD0D7E90A0144F2FB
:101AE0004823C2F2000303F5864303F11003C3E960
:101AF000000140F20003C2F2000303F5215303F199
:101B00000803D3E9000144F24823C2F2000303F5BD
:101B1000864303F11003D3E9002305F0E5FC0246F8
:101B20000B461046194644F24823C2F2000303F55F
:101B3000854303F15803C3E900014FF00003FB6341
:101B40002BE044F24823C2F2000303F5854303F17E
:101B50005803D3E9000140F20003C2F20003FA6B1C
:101B600002F2DF124FEAC2029B18D3E9002305F00C
:101B7000BBFC02460B461046194644F24823C2F20B
:101B80000003FA6B02F286524FEAC2029B18C3E9C5
:101B90000001FB6B03F10103FB63FB6B642BD0DDE6
:101BA0004FF00003FB6335E068400020A88500206B
:101BB000183F0020083F0020FB6B03F1650444F24E
:101BC0004823C2F2000303F5854303F15803D3E928
:101BD000000140F20003C2F20003FA6B02F20A5263
:101BE0004FEAC2029B18D3E9002305F07DFC0246B0
:101BF0000B461046194644F24823C2F2000304F291
:101C000086524FEAC2029B18C3E90001FB6B03F145
:101C10000103FB63FB6B642BCEDD44F24823C2F26D
:101C2000000303F5864303F13803D3E9000144F2CE
:101C30004823C2F2000303F5864303F16003D3E9AE
:101C4000002305F0CDFE0346002B14D044F24823B8
:101C5000C2F2000303F5864303F13803D3E9000120
:101C600044F24823C2F2000303F5864303F1100354
:101C7000C3E9000113E044F24823C2F2000303F574
:101C8000864303F16003D3E9000144F24823C2F222
:101C9000000303F5864303F11003C3E9000144F296
:101CA0004823C2F2000303F5864303F11003D3E98E
:101CB0000001D7E90A234FF0010405F091FE034625
:101CC000002B02D14FF000031C46E3B283F0010366
:101CD000DBB2002B0BD0D7E90A0144F24823C2F251
:101CE000000303F5864303F11003C3E9000140F24A
:101CF0000003C2F2000303F52D5303F13803D3E9C7
:101D0000000144F24823C2F2000303F5864303F1C5
:101D10001003D3E9002305F0E7FB02460B4610460B
:101D2000194644F24823C2F2000303F5854303F148
:101D30006003C3E900014FF00003FB632BE044F2B2
:101D40004823C2F2000303F5854303F16003D3E99E
:101D5000000140F20003C2F20003FA6B02F5AE622A
:101D60004FEAC2029B18D3E9002305F0BDFB0246EF
:101D70000B461046194644F24823C2F20003FA6BA0
:101D800002F5CA624FEAC2029B18C3E90001FB6B6D
:101D900003F10103FB63FB6B642BD0DD40F2000316
:101DA000C2F2000303F53A5303F12803D3E900011B
:101DB00044F24823C2F2000303F5864303F16003B3
:101DC000D3E9002305F090FB02460B461046194666
:101DD00044F24823C2F2000303F5854303F168038C
:101DE000C3E900014FF00003FB6355E0FB6B03F117
:101DF000650444F24823C2F2000303F5854303F16E
:101E00006003D3E9000140F20003C2F20003FA6B61
:101E100002F511724FEAC2029B18D3E9002305F0C4
:101E200063FB02460B461046194644F24823C2F2B1
:101E3000000304F5CA624FEAC2029B18C3E900011D
:101E400044F24823C2F2000303F5854303F168031B
:101E5000D3E9000140F20003C2F20003FA6B02F57D
:101E6000AE624FEAC2029B18D3E9002305F03CFBA7
:101E700002460B461046194644F24823C2F20003BC
:101E8000FA6B02F54A724FEAC2029B18C3E90001DD
:101E9000FB6B03F10103FB63FB6B642BA6DD4FF0CF
:101EA0000003FB632DE0FB6B03F1650444F2482360
:101EB000C2F2000303F5854303F16803D3E900018F
:101EC00040F20003C2F20003FA6B02F20A524FEA38
:101ED000C2029B18D3E9002305F006FB02460B461D
:101EE0001046194644F24823C2F2000304F54A7230
:101EF0004FEAC2029B18C3E90001FB6B03F1010327
:101F0000FB63FB6B642BCEDD4FF00003FB632DE026
:101F1000FB6B03F1CA0444F24823C2F2000303F549
:101F2000854303F16803D3E9000140F20003C2F2E4
:101F30000003FA6B02F2D6524FEAC2029B18D3E9B1
:101F4000002305F0D1FA02460B461046194644F22A
:101F50004823C2F2000304F54A724FEAC2029B18FA
:101F6000C3E90001FB6B03F10103FB63FB6B642B13
:101F7000CEDD4FF00003FB632DE0FB6B03F22F146B
:101F800044F24823C2F2000303F5854303F16803DA
:101F9000D3E9000140F20003C2F20003FA6B02F23F
:101FA0003B624FEAC2029B18D3E9002305F09CFA7A
:101FB00002460B461046194644F24823C2F200037B
:101FC00004F54A724FEAC2029B18C3E90001FB6B99
:101FD00003F10103FB63FB6B642BCEDD4FF00003C9
:101FE000FB63AFE044F24823C2F20003FA6B02F253
:101FF000BC424FEAC2029B18D3E9000144F24823D5
:10200000C2F20003FA6B4FEAC2029B18D3E9002325
:1020100005F0B8F802460B461046194644F248232C
:10202000C2F20003FA6B02F5CA724FEAC2029B18B1
:10203000D3E9002305F0A6F802460B4610461946E0
:1020400044F24823C2F20003FA6B02F286524FEACE
:10205000C2029B18D3E9002305F094F802460B4610
:102060001046194644F24823C2F20003FA6B02F507
:10207000CA624FEAC2029B18D3E9002305F082F836
:1020800002460B461046194644F24823C2F20003AA
:10209000FA6B02F54A724FEAC2029B18D3E9002399
:1020A00005F070F802460B461046194644F24823E4
:1020B000C2F2000303F5864303F12803C3E90001DC
:1020C00040F20003C2F20003FA6B02F279124FEA07
:1020D000C2029B18D3E9000144F24823C2F2000374
:1020E00003F5864303F12803D3E9002305F0FCF947
:1020F00002460B461046194644F24823C2F200033A
:10210000FA6B02F27F724FEAC2029B18C3E9000128
:1021100044F24823C2F2000303F5864303F1280387
:10212000D3E9000144F24823C2F20003FA6B02F241
:10213000E4724FEAC2029B18C3E90001FB6B03F192
:102140000103FB63FB6B642B7FF74CAF44F2482326
:10215000C2F2000303F56F5303F13803D3E9000122
:1021600044F24823C2F2000303F5854303F17003F0
:10217000C3E9000144F24823C2F2000303F57C5393
:1021800003F12003D3E9000144F24823C2F2000323
:1021900003F5864303F12803C3E900014FF0000370
:1021A000FB6353E044F24823C2F2000303F5854386
:1021B00003F17003D3E90001FB6B03F1010244F268
:1021C0004823C2F2000302F27F724FEAC2029B1858
:1021D000D3E9002304F0D6FF02460B461046194609
:1021E00044F24823C2F2000303F5854303F1700370
:1021F000C3E9000144F24823C2F2000303F5864319
:1022000003F12803D3E90001FB6B03F1010244F25F
:102210004823C2F2000302F2E4724FEAC2029B18A2
:10222000D3E9002304F0AEFF02460B4610461946E0
:1022300044F24823C2F2000303F5864303F1280366
:10224000C3E90001FB6B03F10103FB63FB6B632B31
:10225000A8DD44F24823C2F2000303F5864303F1EC
:102260002803D3E9000144F24823C2F2000303F536
:10227000864303F16803C3E9000144F24823C2F234
:10228000000303F5864303F16803D3E900231046F6
:1022900019464FF000024FF0000305F0A1FB034682
:1022A000002B10D040F20003C2F20003D3E9060174
:1022B00044F24823C2F2000303F5864303F170039E
:1022C000C3E9000110E044F24823C2F2000303F521
:1022D000864303F1680393ED007BB0EE470AF0EE0E
:1022E000670A8B48FEF73AF944F24823C2F200032A
:1022F00003F5854303F17003D3E9000144F2482359
:10230000C2F2000303F5864303F17003D3E900230F
:1023100005F014FA02460B461046194644F24823CB
:10232000C2F2000303F5854303F17003C3E9000122
:102330004FF00003FB63BBE0FB6B03F1650244F26B
:102340004823C2F2000302F2BC424FEAC2029B18C9
:10235000D3E90001FB6B03F1650244F24823C2F2AA
:1023600000034FEAC2029B18D3E9002304F00AFFDE
:1023700002460B4610461946FB6B03F1650244F218
:102380004823C2F2000302F5CA724FEAC2029B1848
:10239000D3E9002304F0F6FE02460B461046194628
:1023A000FB6B03F1650244F24823C2F2000302F220
:1023B00086524FEAC2029B18D3E9002304F0E2FEE2
:1023C00002460B4610461946FB6B03F1650244F2C8
:1023D0004823C2F2000302F5CA624FEAC2029B1808
:1023E000D3E9002304F0CEFE02460B461046194600
:1023F000FB6B03F1650244F24823C2F2000302F5CD
:102400004A724FEAC2029B18D3E9002304F0BAFED5
:1024100002460B461046194644F24823C2F2000316
:1024200003F5864303F12803C3E9000140F20003EA
:10243000C2F20003FA6B02F5D4624FEAC2029B18A3
:10244000D3E9000144F24823C2F2000303F58643B6
:1024500003F12803D3E9002305F046F802460B46B2
:102460001046194644F24823C2F20003FA6B02F206
:102470007F724FEAC2029B18C3E9000144F248236D
:10248000C2F2000303F5864303F12803D3E90001F8
:1024900044F24823C2F20003FA6B02F2E4724FEAFC
:1024A000C2029B18C3E90001FB6B03F10103FB634C
:1024B000FB6B642B7FF740AF44F24823C2F200036A
:1024C00003F56F5303F13803D3E9000144F24823C5
:1024D000C2F2000303F5854303F17803C3E9000169
:1024E00044F24823C2F2000303F57C5303F12003B6
:1024F000D3E9000144F24823C2F2000303F5864306
:1025000003F12803C3E900014FF00003FB6355E02A
:10251000B885002044F24823C2F2000303F5854346
:1025200003F17803D3E90001FB6B03F1010244F2EC
:102530004823C2F2000302F27F724FEAC2029B18E4
:10254000D3E9002304F01EFE02460B46104619464E
:1025500044F24823C2F2000303F5854303F17803F4
:10256000C3E9000144F24823C2F2000303F58643A5
:1025700003F12803D3E90001FB6B03F1010244F2EC
:102580004823C2F2000302F2E4724FEAC2029B182F
:10259000D3E9002304F0F6FD02460B461046194627
:1025A00044F24823C2F2000303F5864303F12803F3
:1025B000C3E90001FB6B03F10103FB63FB6B632BBE
:1025C000A8DD44F24823C2F2000303F5864303F179
:1025D0002803D3E9000144F24823C2F2000303F5C3
:1025E000864303F17803C3E9000144F24823C2F2B1
:1025F000000303F5864303F17803D3E90023104673
:1026000019464FF000024FF0000305F0E9F90346C8
:10261000002B0ED040F20003C2F20003D3E90A01FE
:1026200044F24823C2F2000303F58743C3E90001E3
:1026300010E044F24823C2F2000303F5864303F19D
:10264000780393ED007BB0EE470AF0EE670ABD48D1
:10265000FDF784FF44F24823C2F2000303F58543EB
:1026600003F17803D3E9000144F24823C2F20003E6
:1026700003F58743D3E9002305F060F802460B46D3
:102680001046194644F24823C2F2000303F585437D
:1026900003F17803C3E9000144F21823C2F20003F6
:1026A000D3E90A23104619464FF000024FF0404389
:1026B00005F08CF90346002B10D144F21823C2F226
:1026C0000003D3E90A23104619464FF000024FF0E9
:1026D000000305F099F90346002B10D040F20003E7
:1026E000C2F20003D3E9460144F24823C2F20003D8
:1026F00003F5874303F10803C3E9000153E044F203
:102700001823C2F20003D3E90A23104619464FF0FA
:1027100000024FF00003CBF6F07305F04DF90346CD
:10272000002B10D040F20003C2F20003D3E94A01AB
:1027300044F24823C2F2000303F5874303F1080380
:10274000C3E900012FE044F21823C2F20003D3E9E9
:102750000A23104619464FF000024FF00003CBF653
:10276000F07305F033F90346002B0ED044F2182322
:10277000C2F2000393ED0A7BB0EE470AF0EE670A5F
:1027800071487249FDF7FAFE0DE044F21823C2F2D7
:10279000000393ED0A7BB0EE470AF0EE670A6A4841
:1027A0006B49FDF715FF40F20003C2F2000303F589
:1027B0006D5303F11003D3E9000144F24823C2F240
:1027C000000303F5874303F10803D3E9002304F072
:1027D0008BFE02460B461046194644F24823C2F2CD
:1027E000000303F58643C3E900014FF00003FB63D8
:1027F00029E044F24823C2F2000303F58643D3E9FB
:10280000000140F20003C2F20003FA6B02F2AA22B6
:102810004FEAC2029B18D3E9002304F065FE02468A
:102820000B461046194644F24823C2F20003FA6BE5
:1028300002F5CA624FEAC2029B18C3E90001FB6BB2
:1028400003F10103FB63FB6B642BD2DD4FF000034C
:10285000FB632BE0FB6B03F1650444F24823C2F2F7
:10286000000303F58643D3E9000140F20003C2F2FE
:102870000003FA6B02F20F324FEAC2029B18D3E94F
:10288000002304F031FE02460B461046194644F27E
:102890004823C2F2000304F5CA624FEAC2029B1841
:1028A000C3E90001FB6B03F10103FB63FB6B642BCA
:1028B000D0DD44F21823C2F20003D3E90823104606
:1028C00019464FF000024FF00003CBF6F07305F00D
:1028D0007DF80346002B12D144F21823C2F2000304
:1028E000D3E90823104619464FF000024FF00003C9
:1028F000C3F6F07305F088F80346002B08D040F2C9
:102900000003C2F20003D3E95623C7E9082353E0CA
:1029100044F21823C2F20003D3E9082310461946F3
:102920004FF000024FF0000305F046F80346002B7D
:1029300010D040F20003C2F20003D3E95A23C7E9E2
:10294000082339E0C8850020D0850020D83F00202A
:10295000C83F002044F21823C2F20003D3E9082341
:10296000104619464FF000024FF0000305F02EF814
:102970000346002B10D044F21823C2F2000393ED5B
:10298000087B07F12003B0EE470AF0EE670A18460D
:102990009B49FDF7F3FD0FE044F21823C2F2000358
:1029A00093ED087B07F12003B0EE470AF0EE670ACB
:1029B00018469449FDF70CFE44F24823C2F2000386
:1029C00003F5864303F13003D3E9000144F24823C1
:1029D000C2F2000303F5864303F16003D3E9002349
:1029E00004F0FEFF0346002B14D044F24823C2F249
:1029F000000303F5864303F13003D3E9000144F2F9
:102A00004823C2F2000303F5864303F11003C3E930
:102A1000000113E044F24823C2F2000303F58643A9
:102A200003F16003D3E9000144F24823C2F200033A
:102A300003F5864303F11003C3E9000144F2482380
:102A4000C2F2000303F5864303F11003D3E900014A
:102A5000D7E908234FF0010404F0C2FF0346002B1E
:102A600002D14FF000031C46E3B283F00103DBB256
:102A7000002B0BD0D7E9080144F24823C2F200032F
:102A800003F5864303F11003C3E9000140F200039C
:102A9000C2F2000303F56D5303F11803D3E90001FB
:102AA00044F24823C2F2000303F5864303F1100306
:102AB000D3E9002304F018FD02460B4610461946E0
:102AC00044F24823C2F2000303F5864303F10803EE
:102AD000C3E900014FF00003FB632BE044F24823FD
:102AE000C2F2000303F5864303F10803D3E90001B2
:102AF00040F20003C2F20003FA6B02F2AA224FEA8C
:102B0000C2029B18D3E9002304F0EEFC02460B46F8
:102B10001046194644F24823C2F20003FA6B02F24F
:102B200086524FEAC2029B18C3E90001FB6B03F116
:102B30000103FB63FB6B642BD0DD4FF00003FB63F1
:102B40002DE0FB6B03F1650444F24823C2F200035D
:102B500003F5864303F10803D3E9000140F20003C3
:102B6000C2F20003FA6B02F23B624FEAC2029B1808
:102B7000D3E9002304F0B8FC02460B461046194680
:102B800044F24823C2F2000304F286524FEAC20222
:102B90009B18C3E90001FB6B03F10103FB63FB6BB3
:102BA000642BCEDD44F24823C2F2000303F58643D2
:102BB00003F13803D3E9000144F24823C2F20003D1
:102BC00003F5864303F16003D3E9002304F008FF13
:102BD0000346002B18D044F24823C2F2000303F549
:102BE000864303F13803D3E9000144F24823C2F2DB
:102BF000000303F5864303F11003C3E9000117E066
:102C0000983F0020883F002044F24823C2F200038E
:102C100003F5864303F16003D3E9000144F248233E
:102C2000C2F2000303F5864303F11003C3E9000178
:102C300044F24823C2F2000303F5864303F1100374
:102C4000D3E90001D7E908234FF0010404F0C8FEDE
:102C50000346002B02D14FF000031C46E3B283F081
:102C60000103DBB2002B0BD0D7E9080144F2482363
:102C7000C2F2000303F5864303F11003C3E9000128
:102C800044F24823C2F2000303F5864303F1100324
:102C9000D3E9000140F20003C2F2000303F56D53D3
:102CA00003F12003D3E9002304F01EFC02460B4687
:102CB0001046194644F24823C2F2000303F5864346
:102CC00003F11003C3E900014FF00003FB632BE0A5
:102CD00044F24823C2F2000303F5864303F11003D4
:102CE000D3E9000140F20003C2F20003FA6B02F2E2
:102CF000D6524FEAC2029B18D3E9002304F0F4FB3A
:102D000002460B461046194644F24823C2F200031D
:102D1000FA6B02F2BC424FEAC2029B18C3E90001FF
:102D2000FB6B03F10103FB63FB6B642BD0DD4FF006
:102D30000003FB632DE0FB6B03F1650444F24823C1
:102D4000C2F2000303F5864303F11003D3E9000147
:102D500040F20003C2F20003FA6B02F20F324FEAB4
:102D6000C2029B18D3E9002304F0BEFB02460B46C7
:102D70001046194644F24823C2F2000304F2BC4252
:102D80004FEAC2029B18C3E90001FB6B03F1010388
:102D9000FB63FB6B642BCEDD4FF00003FB63B5E000
:102DA000FB6B03F1CA0244F24823C2F200034FEA6C
:102DB000C2029B18D3E9000144F24823C2F2000387
:102DC000FA6B02F5CA624FEAC2029B18D3E90023EC
:102DD00004F0D8F902460B4610461946FB6B03F186
:102DE000CA0244F24823C2F2000302F5CA724FEA53
:102DF000C2029B18D3E9002304F0C4F902460B4633
:102E00001046194644F24823C2F20003FA6B02F25C
:102E100086524FEAC2029B18D3E9002304F0B2F9AC
:102E200002460B461046194644F24823C2F20003FC
:102E3000FA6B02F2BC424FEAC2029B18D3E90023AC
:102E400004F0A0F902460B4610461946FB6B03F14D
:102E5000CA0244F24823C2F2000302F54A724FEA62
:102E6000C2029B18D3E9002304F08CF902460B46FA
:102E70001046194644F24823C2F2000303F5864384
:102E800003F12803C3E9000140F20003C2F200038A
:102E9000FA6B02F205724FEAC2029B18D3E90001F5
:102EA00044F24823C2F2000303F5864303F12803EA
:102EB000D3E9002304F018FB02460B4610461946DE
:102EC00044F24823C2F20003FA6B02F27F724FEA27
:102ED000C2029B18C3E9000144F24823C2F2000376
:102EE00003F5864303F12803D3E9000144F24823A4
:102EF000C2F20003FA6B02F2E4724FEAC2029B18BC
:102F0000C3E90001FB6B03F10103FB63FB6B642B63
:102F10007FF746AF44F24823C2F2000303F56F5334
:102F200003F13803D3E9000144F24823C2F200035D
:102F300003F5864303F11803C3E9000144F2482373
:102F4000C2F2000303F57C5303F12003D3E900012F
:102F500044F24823C2F2000303F5864303F1280339
:102F6000C3E900014FF00003FB6353E044F2482340
:102F7000C2F2000303F5864303F11803D3E900010D
:102F8000FB6B03F1010244F24823C2F2000302F298
:102F90007F724FEAC2029B18D3E9002304F0F2F8D3
:102FA00002460B461046194644F24823C2F200037B
:102FB00003F5864303F11803C3E9000144F24823F3
:102FC000C2F2000303F5864303F12803D3E90001AD
:102FD000FB6B03F1010244F24823C2F2000302F248
:102FE000E4724FEAC2029B18D3E9002304F0CAF846
:102FF00002460B461046194644F24823C2F200032B
:1030000003F5864303F12803C3E90001FB6B03F1D9
:103010000103FB63FB6B632BA8DD44F24823C2F280
:10302000000303F5864303F12803D3E9000144F2CA
:103030004823C2F2000303F5874303F11003C3E9F9
:10304000000144F24823C2F2000303F5874303F171
:103050001003D3E90023104619464FF000024FF049
:10306000000304F0BDFC0346002B10D040F2000327
:10307000C2F20003D3E90E0144F24823C2F2000376
:1030800003F5874303F11803C3E9000110E044F29C
:103090004823C2F2000303F5874303F1100393EDC5
:1030A000007BB0EE470AF0EE670A8B48FDF756FA50
:1030B00044F24823C2F2000303F5864303F11803E8
:1030C000D3E9000144F24823C2F2000303F5874329
:1030D00003F11803D3E9002304F030FB02460B464A
:1030E0001046194644F24823C2F2000303F5864312
:1030F00003F11803C3E900014FF00003FB63BBE0D9
:10310000FB6B03F1650244F24823C2F2000302F5AF
:10311000CA624FEAC2029B18D3E90001FB6B03F2BB
:103120002F1244F24823C2F200034FEAC2029B1856
:10313000D3E9002304F026F802460B461046194650
:10314000FB6B03F22F1244F24823C2F2000302F594
:10315000CA724FEAC2029B18D3E9002304F012F8A6
:1031600002460B4610461946FB6B03F1650244F21A
:103170004823C2F2000302F286524FEAC2029B18B1
:10318000D3E9002303F0FEFF02460B461046194622
:10319000FB6B03F1650244F24823C2F2000302F222
:1031A000BC424FEAC2029B18D3E9002303F0EAFFB6
:1031B00002460B4610461946FB6B03F22F1244F2EF
:1031C0004823C2F2000302F54A724FEAC2029B187A
:1031D000D3E9002303F0D6FF02460B4610461946FA
:1031E00044F24823C2F2000303F5864303F12803A7
:1031F000C3E9000140F20003C2F20003FA6B02F2DD
:103200006D724FEAC2029B18D3E9000144F24823D1
:10321000C2F2000303F5864303F12803D3E9002338
:1032200004F062F902460B461046194644F2482360
:10323000C2F20003FA6B02F27F724FEAC2029B18DD
:10324000C3E9000144F24823C2F2000303F58643B8
:1032500003F12803D3E9000144F24823C2F200033A
:10326000FA6B02F2E4724FEAC2029B18C3E9000152
:10327000FB6B03F10103FB63FB6B642B7FF740AF38
:1032800044F24823C2F2000303F56F5303F13803FD
:10329000D3E9000144F24823C2F2000303F5864358
:1032A00003F12003C3E9000144F24823C2F2000302
:1032B00003F57C5303F12003D3E9000144F24823D2
:1032C000C2F2000303F5864303F12803C3E90001BA
:1032D0004FF00003FB6355E0E085002044F24823F3
:1032E000C2F2000303F5864303F12003D3E9000192
:1032F000FB6B03F1010244F24823C2F2000302F225
:103300007F724FEAC2029B18D3E9002303F03AFF11
:1033100002460B461046194644F24823C2F2000307
:1033200003F5864303F12003C3E9000144F2482377
:10333000C2F2000303F5864303F12803D3E9000139
:10334000FB6B03F1010244F24823C2F2000302F2D4
:10335000E4724FEAC2029B18D3E9002303F012FF84
:1033600002460B461046194644F24823C2F20003B7
:1033700003F5864303F12803C3E90001FB6B03F166
:103380000103FB63FB6B632BA8DD44F24823C2F20D
:10339000000303F5864303F12803D3E9000144F257
:1033A0004823C2F2000303F5874303F12003C3E976
:1033B000000144F24823C2F2000303F5874303F1FE
:1033C0002003D3E90023104619464FF000024FF0C6
:1033D000000304F005FB0346002B10D040F200036D
:1033E000C2F20003D3E9120144F24823C2F20003FF
:1033F00003F5874303F12803C3E9000110E044F219
:103400004823C2F2000303F5874303F1200393ED41
:10341000007BB0EE470AF0EE670AB448FDF79EF86D
:1034200044F24823C2F2000303F5864303F120036C
:10343000D3E9000144F24823C2F2000303F58743B5
:1034400003F12803D3E9002304F078F902460B4680
:103450001046194644F24823C2F2000303F586439E
:1034600003F12003C3E9000144F24823C2F2000340
:1034700003F5854303F12003D3E9000144F2482317
:10348000C2F2000303F5854303F12803D3E90023C7
:1034900003F078FE02460B461046194644F24823D4
:1034A000C2F2000303F58643D3E9002303F06AFE6A
:1034B00002460B461046194644F24823C2F2000366
:1034C00003F5854303F14003D3E9002303F05AFEDB
:1034D00002460B461046194644F24823C2F2000346
:1034E00003F5854303F14803D3E9002303F04AFEC3
:1034F00002460B461046194644F24823C2F2000326
:1035000003F5854303F15003D3E9002303F03AFEAA
:1035100002460B461046194644F24823C2F2000305
:1035200003F5864303F10803D3E9002303F02AFEE1
:1035300002460B461046194644F24823C2F20003E5
:1035400003F5864303F11003D3E9002303F01AFEC9
:1035500002460B461046194644F24823C2F20003C5
:1035600003F5854303F15803D3E9002303F00AFE72
:1035700002460B461046194644F24823C2F20003A5
:1035800003F5854303F16003D3E9002303F0FAFD5B
:1035900002460B461046194644F24823C2F2000385
:1035A00003F5854303F16803D3E9002303F0EAFD43
:1035B00002460B461046194644F24823C2F2000365
:1035C00003F5854303F13003D3E9002303F0DAFD6B
:1035D00002460B461046194644F24823C2F2000345
:1035E00003F5854303F13803D3E9002303F0CAFD53
:1035F00002460B461046194640F20003C2F2000391
:1036000003F57A5303F11003D3E9002304F0FCF926
:103610000346002B06D04FF000024FF00003C3F624
:10362000F07303E04FF000024FF0000340F200019E
:10363000C2F2000101F57B51D1E90045104619465F
:1036400022462B4604F0D6F90346002B00F0EA8010
:103650004FF00003FB632DE044F24823C2F2000365
:10366000FA6B02F21A724FEAC2029B18D3E9000108
:1036700040F20003C2F20003FA6B02F146024FEA85
:10368000C2029B18D3E9002303F02EFF02460B462B
:103690001046194644F24823C2F20003FA6B02F2C4
:1036A0001A724FEAC2029B18C3E90001FB6B03F1D7
:1036B0000103FB63FB6B642BCEDD44F24823C2F2B3
:1036C000000303F5635303F11003D3E9000144F24F
:1036D0004823C2F2000303F5864303F12803C3E93C
:1036E00000014FF00003FB632EE000BFF0850020D7
:1036F00044F24823C2F2000303F5864303F1280392
:10370000D3E90001FB6B03F1010244F24823C2F24A
:10371000000302F21A724FEAC2029B18D3E9002397
:1037200003F030FD02460B461046194644F248238A
:10373000C2F2000303F5864303F12803C3E9000145
:10374000FB6B03F10103FB63FB6B632BD0DD44F2E6
:103750004823C2F2000303F5864303F12803D3E9AB
:103760000001D7E90C2303F0E9FF02460B4610469F
:10377000194644F24823C2F2000303F5844303F1DF
:103780007803C3E9000144F24823C2F2000303F5C1
:10379000854303F17003D3E9000144F24823C2F2E8
:1037A000000303F58543C3E9000144F24823C2F254
:1037B000000303F5854303F17803D3E9000144F2E4
:1037C0004823C2F2000303F5854303F10803C3E96C
:1037D000000144F24823C2F2000303F5864303F1DB
:1037E0001803D3E9000144F24823C2F2000303F5B1
:1037F000854303F11003C3E9000144F24823C2F2F8
:10380000000303F5864303F12003D3E9000144F2EA
:103810004823C2F2000303F5854303F11803C3E90B
:10382000000122E04FF00003FB631BE040F20003C5
:10383000C2F20003FA6B02F2D3724FEAC2029B1883
:10384000D3E9000144F24823C2F20003FA6B02F606
:103850004F024FEAC2029B18C3E90001FB6B03F160
:103860000103FB63FB6B042BE0DD44F24823C2F24F
:10387000000303F5844303F17803D3E9000144F224
:10388000F013C2F20003C3E9000144F24823C2F27C
:10389000000303F58543D3E9000144F2F013C2F2BB
:1038A0000003C3E9020144F24823C2F2000303F516
:1038B000854303F10803D3E9000144F2F013C2F297
:1038C0000003C3E9040144F24823C2F2000303F5F4
:1038D000854303F11003D3E9000144F2F013C2F26F
:1038E0000003C3E9060144F24823C2F2000303F5D2
:1038F000854303F11803D3E9000144F2F013C2F247
:103900000003C3E9080144F21823C2F20003D3E91B
:103910000623104619464FF000024FF0404304F0D2
:1039200055F80346002B10D144F21823C2F20003CD
:10393000D3E90623104619464FF000024FF000036A
:1039400004F062F80346002B08D040F20003C2F2F4
:103950000003D3E91623C7E906234FE044F21823F6
:10396000C2F20003D3E90623104619464FF00002C5
:103970004FF00003CBF6F07304F01EF80346002B63
:1039800008D040F20003C2F20003D3E91A23C7E9CA
:10399000062333E044F21823C2F20003D3E90623DE
:1039A000104619464FF000024FF00003CBF6F073BB
:1039B00004F00CF80346002B10D044F21823C2F296
:1039C000000393ED067B07F11803B0EE470AF0EE13
:1039D000670A1846B949FCF7D1FD0FE044F21823F5
:1039E000C2F2000393ED067B07F11803B0EE470A1D
:1039F000F0EE670A1846B249FCF7EAFD44F21823D4
:103A0000C2F20003D3E90623104619464FF0000224
:103A10004FF0000303F0DAFF0346002B10D144F20D
:103A20001823C2F20003D3E90623104619464FF0CB
:103A300000024FF0804303F0E7FF0346002B08D05D
:103A400040F20003C2F20003D3E92623C7E90423AE
:103A50004FE044F21823C2F20003D3E906231046D4
:103A600019464FF000024FF00003C3F6F07303F065
:103A7000A3FF0346002B08D040F20003C2F200036C
:103A8000D3E92A23C7E9042333E044F21823C2F21E
:103A90000003D3E90623104619464FF000024FF009
:103AA0000003C3F6F07303F091FF0346002B10D020
:103AB00044F21823C2F2000393ED067B07F11003D2
:103AC000B0EE470AF0EE670A18467E49FCF756FD4D
:103AD0000FE044F21823C2F2000393ED067B07F1D6
:103AE0001003B0EE470AF0EE670A18467649FCF775
:103AF0006FFD44F21823C2F20003D3E908231046F5
:103B000019464FF000024FF0404303F05FFF0346B9
:103B1000002B10D144F21823C2F20003D3E908238A
:103B2000104619464FF000024FF0000303F06CFFFF
:103B30000346002B08D040F20003C2F20003D3E991
:103B40004E23C7E902234FE044F21823C2F20003D8
:103B5000D3E90823104619464FF000024FF0000346
:103B6000CBF6F07303F028FF0346002B08D040F299
:103B70000003C2F20003D3E95223C7E9022333E072
:103B800044F21823C2F20003D3E908231046194671
:103B90004FF000024FF00003CBF6F07303F016FF76
:103BA0000346002B10D044F21823C2F2000393ED19
:103BB000087B07F10803B0EE470AF0EE670A1846E3
:103BC0004249FCF7DBFC0FE044F21823C2F2000389
:103BD00093ED087B07F10803B0EE470AF0EE670AA1
:103BE00018463B49FCF7F4FC44F21823C2F20003E8
:103BF000D3E90823104619464FF000024FF00003A6
:103C000003F0E4FE0346002B10D144F21823C2F265
:103C10000003D3E90823104619464FF000024FF085
:103C2000804303F0F1FE0346002B08D040F200036E
:103C3000C2F20003D3E95E23C7E900235BE044F24C
:103C40001823C2F20003D3E90823104619464FF0A7
:103C500000024FF00003C3F6F07303F0ADFE03461D
:103C6000002B08D040F20003C2F20003D3E9622324
:103C7000C7E900233FE044F21823C2F20003D3E96E
:103C80000823104619464FF000024FF00003C3F618
:103C9000F07303F09BFE0346002B1DD044F2182363
:103CA000C2F2000393ED087B3B46B0EE470AF0EE0C
:103CB000670A18460749FCF761FC1CE098400020A1
:103CC000884000205840002048400020B83F002095
:103CD000A83F0020783F002044F21823C2F20003DE
:103CE00093ED087B3B46B0EE470AF0EE670A1846B4
:103CF0003349FCF76DFC44F21823C2F20003D3E908
:103D0000000144F24823C2F2000303F5844303F1A7
:103D10004803C3E9000144F21823C2F20003D3E9C7
:103D2000020144F24823C2F2000303F5844303F185
:103D30005003C3E9000144F21823C2F20003D3E99F
:103D4000040144F24823C2F2000303F5844303F163
:103D50005803C3E9000144F21823C2F20003D3E977
:103D6000060144F24823C2F2000303F5844303F141
:103D70006003C3E9000144F21823C2F20003D3E94F
:103D8000080144F24823C2F2000303F5844303F11F
:103D90006803C3E9000144F21823C2F20003D3E927
:103DA0000A0144F24823C2F2000303F5844303F1FD
:103DB0007003C3E9000107F14007BD46B0BD00BF75
:103DC000683F002080B500AF44F24820C2F20000F6
:103DD0004FF0000144F2C03203F090FE44F218208C
:103DE000C2F200004FF000014FF0300203F086FEF7
:103DF00044F2F010C2F200004FF000014FF0280230
:103E000003F07CFE80BD00BF80B500AF4FF4001012
:103E10004FF0010102F03CFD4FF002004FF00101B4
:103E200002F00CFD44F29813C2F200034FF440720A
:103E30001A6044F29813C2F200034FF002021A71A2
:103E400044F29813C2F200034FF000025A7144F298
:103E50009813C2F200034FF001029A7144F29813D2
:103E6000C2F200034FF00102DA714FF48060C4F235
:103E7000020044F29811C2F2000102F0C7F84FF4B8
:103E80008060C4F202004FF008014FF0040202F01B
:103E9000B7F94FF48060C4F202004FF009014FF00F
:103EA000040202F0ADF948F21863C2F2000348F2CE
:103EB000A062C0F201021A6048F21863C2F2000365
:103EC0004FF000029A8048F21863C2F200034BF6EA
:103ED000FF72DA8048F21863C2F200034FF000026A
:103EE0001A8148F21863C2F200034FF480625A81CB
:103EF00048F21863C2F200034FF480429A814FF4F3
:103F0000A840C4F2000048F21861C2F2000102F0B9
:103F1000CBF94FF4A840C4F200004FF0010102F0C9
:103F200099FA4FF004004FF4FA7100F077F880BD71
:103F300080B582B000AF02460B46FA71BB714FF4F8
:103F4000A840C4F200004FF0010102F0A3FA00BF44
:103F50004FF4A840C4F200004FF00101C0F2030189
:103F600002F006FB0346002BF2D04FF4A840C4F247
:103F700000004FF0D0014FF0000202F0CBFA00BF7A
:103F80004FF4A840C4F200004FF08201C0F20701D4
:103F900002F0EEFA0346002BF2D04FF4A840C4F230
:103FA00000004FF0010102F055FAFB794FF4A840F0
:103FB000C4F20000194602F0CBFA00BF4FF4A8404B
:103FC000C4F200004FF08401C0F2070102F0D0FA01
:103FD0000346002BF2D0BB794FF4A840C4F2000096
:103FE000194602F0B5FA00BF4FF4A840C4F2000031
:103FF0004FF08401C0F2070102F0BAFA0346002B29
:10400000F2D04FF4A840C4F200004FF0010102F0DA
:1040100061FA07F10807BD4680BD00BF80B582B0D8
:1040200000AF786039607B68042B0ED144F2F00356
:10403000C2F200034FF008021A6044F2A803C2F271
:1040400000034FF400521A6031E07B68082B0ED158
:1040500044F2F003C2F200034FF010021A6044F27F
:10406000A803C2F200034FF480521A601FE07B687D
:10407000102B0ED144F2F003C2F200034FF01802ED
:104080001A6044F2A803C2F200034FF400621A60FF
:104090000DE044F2F003C2F200034FF000021A6098
:1040A00044F2A803C2F200034FF480421A603B6856
:1040B000B3F5FA7F0ED144F2F403C2F200034FF0DD
:1040C00008021A6044F2AC03C2F200034FF041024E
:1040D0001A6033E03B68B3F57A7F0ED144F2F40303
:1040E000C2F200034FF010021A6044F2AC03C2F2B5
:1040F00000034FF020021A6020E03B68B3F5FA6F2E
:104100000ED144F2F403C2F200034FF018021A6019
:1041100044F2AC03C2F200034FF010021A600DE04B
:1041200044F2F403C2F200034FF000021A6044F2BA
:10413000AC03C2F200034FF083021A604FF01A0082
:104140004FF00001FFF7F4FE44F2F003C2F2000367
:104150001B68DBB24FF01C001946FFF7E9FE44F282
:10416000F403C2F200031B68DBB24FF01B001946D8
:10417000FFF7DEFE4FF06B004FF00001FFF7D8FEB7
:1041800007F10807BD4680BD80B500AF4FF00100C4
:104190004FF0010102F052FB4FF480404FF001015B
:1041A00002F0A0FB4FF001004FF0010102F070FBA4
:1041B0004FF004004FF0010102F06AFB4FF40030B1
:1041C0004FF0010102F08EFB4FF480204FF001010F
:1041D00002F088FB4FF080004FF0010102F058FB25
:1041E0004FF480704FF0010102F052FB44F298133B
:1041F000C2F200034FF00F021A6044F29813C2F2A9
:1042000000034FF000021A7144F29813C2F2000347
:104210004FF003025A7144F29813C2F200034FF0B8
:104220000102DA714FF00000C4F2020044F298116A
:10423000C2F2000101F0EAFE44F29813C2F2000358
:104240004FF0F0021A6044F29813C2F200034FF0EC
:1042500000021A7144F29813C2F200034FF00302F5
:104260005A7144F29813C2F200034FF00102DA715E
:104270004FF00000C4F2020044F29811C2F20001B3
:1042800001F0C4FE4FF000004FF0000102F07EFB91
:104290004FF000004FF0010102F078FB4FF00000FA
:1042A0004FF0020102F072FB4FF000004FF00301EB
:1042B00002F06CFB4FF000004FF0040102F066FBCF
:1042C0004FF000004FF0050102F060FB4FF00000DE
:1042D0004FF0060102F05AFB4FF000004FF00701CB
:1042E00002F054FB48F23463C2F200034FF00002C4
:1042F0001A7148F23463C2F200034FF010025A718F
:1043000048F23463C2F200034FF001029A7148F29E
:104310003463C2F200034FF001021A6048F23460C5
:10432000C2F2000001F0A8FD48F23463C2F20003BB
:104330004FF002021A6048F23460C2F2000001F04D
:104340009BFD48F23463C2F200034FF004021A608E
:1043500048F23460C2F2000001F08EFD48F234638E
:10436000C2F200034FF008021A6048F23460C2F251
:10437000000001F081FD48F23463C2F200034FF007
:1043800010021A6048F23460C2F2000001F074FDBD
:1043900048F23463C2F200034FF020021A6048F280
:1043A0003460C2F2000001F067FD48F23463C2F2EB
:1043B00000034FF040021A6048F23460C2F200007D
:1043C00001F05AFD48F23463C2F200034FF080025C
:1043D0001A6048F23460C2F2000001F04DFD44F270
:1043E000A013C2F200034FF005025A7044F2A0136A
:1043F000C2F200034FF001029A7044F2A013C2F21D
:1044000000034FF00102DA7044F2A013C2F200037D
:104410004FF00A021A7044F2A010C2F2000000F03D
:104420009BFC44F2A013C2F200034FF017021A7073
:1044300044F2A010C2F2000000F08EFC44F2A0137F
:10444000C2F200034FF019021A7044F2A010C2F237
:10445000000000F081FC44F2A013C2F200034FF010
:104460001A021A7044F2A010C2F2000000F074FCAC
:1044700044F2A013C2F200034FF02C021A7044F26F
:10448000A010C2F2000000F067FC44F2A013C2F2D8
:1044900000034FF02D021A7044F2A010C2F2000087
:1044A00000F05AFC44F2A013C2F200034FF00102E4
:1044B0005A7044F2A013C2F200034FF001029A7046
:1044C00044F2A013C2F200034FF00102DA7044F28A
:1044D000A013C2F200034FF01E021A7044F2A010A3
:1044E000C2F2000000F038FC44F2A013C2F2000354
:1044F0004FF006021A7044F2A010C2F2000000F061
:104500002BFC44F2A013C2F200034FF007021A7012
:1045100044F2A010C2F2000000F01EFC44F2A0130E
:10452000C2F200034FF008021A7044F2A010C2F267
:10453000000000F011FC44F2A013C2F200034FF09F
:1045400009021A7044F2A010C2F2000000F004FC4C
:1045500048F22863C2F200034FF000029A7248F258
:104560002863C2F200034FF000025A8048F2286329
:10457000C2F200034FF000021A8148F22863C2F22F
:1045800000034FF02A021A8048F22863C2F20003A7
:104590004CF250325A604FF40060C4F2000048F20E
:1045A0002861C2F2000102F049FA4FF40060C4F23F
:1045B00000004FF001014FF0010202F001FB4FF447
:1045C0000060C4F200004FF0010102F0D9FA48F295
:1045D0002863C2F200034FF000021A8148F22863F8
:1045E000C2F200034FF004021A8048F22863C2F2BC
:1045F00000034FF6FF725A604FF0804048F2286186
:10460000C2F2000102F01AFA4FF080404FF00101AF
:1046100002F0B6FA48F22863C2F200034FF000023B
:104620001A8148F22863C2F200034FF4C8621A806C
:1046300048F22863C2F2000342F210725A604FF44B
:104640008840C4F2010048F22861C2F2000102F081
:10465000F5F94FF48840C4F201004FF001014FF02A
:10466000010202F0ADFA4FF48840C4F201004FF0AD
:10467000010102F085FA4FF49040C4F2010048F2C3
:104680002861C2F2000102F0D9F94FF49040C4F25F
:1046900001004FF001014FF0010202F091FA4FF4D6
:1046A0009040C4F201004FF0010102F069FA48F2B3
:1046B0002863C2F200034FF000021A8148F2286317
:1046C000C2F200034FF452721A8048F22863C2F219
:1046D000000342F210725A604FF4E050C4F200003E
:1046E00048F22861C2F2000102F0A8F94FF4E0504C
:1046F000C4F200004FF001014FF0010202F060FA35
:104700004FF4E050C4F200004FF0010102F038FA1B
:104710004FF40050C4F2000048F22861C2F20001D8
:1047200002F08CF94FF40050C4F200004FF0010188
:104730004FF0010202F044FA4FF40050C4F20000BE
:104740004FF0010102F01CFA80BD00BF80B500AF40
:104750004FF40060C4F200004FF0010102F054FA7F
:104760000346002B18D044F2F803C2F200034FF0C6
:1047700000004FF00001C3E9000144F2F803C2F267
:1047800000034FF000029A604FF40060C4F2000092
:104790004FF0010102F068FA80BD00BF80B500AFA4
:1047A0004FF0010001F004FC0346002B2ED04FF027
:1047B0000000C4F202004FF0010101F0E7FC0346E3
:1047C000002B11D14FF0804002F0CEF9034618467D
:1047D00000F0C6F9B0EE407AF0EE607A44F2F803E9
:1047E000C2F2000383ED007B4FF080404FF00001E8
:1047F00002F09EF94FF40060C4F200004FF0000197
:1048000002F096F94FF0010001F0F0FB80BD00BF0F
:1048100080B500AF4FF0020001F0CAFB0346002B49
:1048200028D04FF00000C4F202004FF0020101F066
:10483000ADFC0346002B13D14FF0804002F094F9F9
:104840000346184600F08CF953EC102B104619461D
:1048500003F004F9024644F2F803C2F200039A603E
:104860004FF080404FF0000102F062F94FF002007B
:1048700001F0BCFB80BD00BF80B500AF4FF004006D
:1048800001F096FB4FF0040001F0B0FB80BD00BFCB
:1048900080B500AF4FF0080001F08AFB4FF0080030
:1048A00001F0A4FB80BD00BF80B500AF4FF488408D
:1048B000C4F201004FF0010102F0A6F90346002BFB
:1048C00011D044F21013C2F200034FF000004FF079
:1048D0000001C3E900014FF48840C4F201004FF029
:1048E000010102F0C1F980BD80B500AF4FF49040E6
:1048F000C4F201004FF0010102F086F90346002BDB
:1049000011D044F21013C2F200034FF000004FF038
:104910000001C3E902014FF49040C4F201004FF0DE
:10492000010102F0A1F980BD80B500AF4FF4E05065
:10493000C4F200004FF0010102F066F90346002BBB
:1049400011D044F21013C2F200034FF000004FF0F8
:104950000001C3E904014FF4E050C4F200004FF03D
:10496000010102F081F980BD80B500AF4FF4005025
:10497000C4F200004FF0010102F046F90346002B9B
:1049800011D044F21013C2F200034FF000004FF0B8
:104990000001C3E906014FF40050C4F200004FF0DB
:1049A000010102F061F980BD80B500AF4FF0100049
:1049B00001F0FEFA0346002B1FD04FF48840C4F2EA
:1049C000010002F0D1F80346184600F091F8B0EE6D
:1049D000407AF0EE607A44F21013C2F2000383EDE5
:1049E000007B4FF48840C4F201004FF0000102F058
:1049F0009FF84FF0100001F0F9FA80BD80B500AFCC
:104A00004FF0200001F0D4FA0346002B1FD04FF4E2
:104A10009040C4F2010002F0A7F80346184600F0E7
:104A200067F8B0EE407AF0EE607A44F21013C2F20A
:104A3000000383ED027B4FF49040C4F201004FF07D
:104A4000000102F075F84FF0200001F0CFFA4FF0AE
:104A5000400001F0ADFA0346002B1FD04FF4E050A8
:104A6000C4F2000002F080F80346184600F040F857
:104A7000B0EE407AF0EE607A44F21013C2F2000316
:104A800083ED047B4FF4E050C4F200004FF00001CE
:104A900002F04EF84FF0400001F0A8FA4FF080000D
:104AA00001F086FA0346002B1FD04FF40050C4F2E9
:104AB000000002F059F80346184600F019F8B0EE6D
:104AC000407AF0EE607A44F21013C2F2000383EDF4
:104AD000067B4FF40050C4F200004FF0000102F0DA
:104AE00027F84FF0800001F081FA80BD000000003F
:104AF00080B582B000AF7860786802F07FFC024633
:104B00000B461046194614A3D3E9002302F016FE03
:104B100002460B46104619464FF000024FF00003C4
:104B2000C4F22C0302F0E0FC02460B464FF00000FA
:104B30004FF00001C4F24E0102F000FE02460B46A7
:104B400043EC172BB0EE470AF0EE670A07F10807AF
:104B5000BD4680BDAFF3008000000000006AF84051
:104B600080B582B000AF78607B68B3F57A5F2BD9EF
:104B70007A6848F2CF439A4226D8786802F03EFC21
:104B800002460B46104619464FF000024FF4804390
:104B9000C4F2CF0302F0F4FA02460B46104619465F
:104BA00011A3D3E9002302F0C9FD02460B461046CB
:104BB00019464FF000024FF00003C3F6F07302F005
:104BC000DFFA02460B4603E04FF000024FF000030D
:104BD00043EC172BB0EE470AF0EE670A07F108071F
:104BE000BD4680BDAFF30080000000000094C140CE
:104BF00080B500AF02F0A4F945F2555001F0F0FC89
:104C00004FF0000001F0FCFC40F2FF7001F008FDE5
:104C100001F022FDFFF7B8FA00F010F900F040FBB8
:104C2000FBF7B2FAFFF7F0F8FFF7CCF844F2D00345
:104C3000C2F2000393ED057ADFED457AC7EE277ADD
:104C400017EE900A02F0FCFB44F21823C2F20003B4
:104C5000C3E9000144F2F803C2F20003D3E9000102
:104C600044F21823C2F20003C3E9020144F2F8033C
:104C7000C2F200039B68184602F0E2FB44F21823DC
:104C8000C2F20003C3E9040144F21823C2F2000394
:104C90002DA1D1E90001C3E9060144F21823C2F2B3
:104CA00000034FF000004FF00001C3E9080144F297
:104CB0001823C2F200034FF000004FF00001C3E9D7
:104CC0000A01FBF7BBFC44F2F013C2F20003D3E984
:104CD000000144F23013C2F20003C3E90E0144F2B2
:104CE000F013C2F20003D3E9020144F23013C2F21E
:104CF0000003C3E9000144F2F013C2F20003D3E958
:104D0000040144F23013C2F20003C3E9020144F289
:104D1000F013C2F20003D3E9060144F23013C2F2E9
:104D20000003C3E9040144F2F013C2F20003D3E923
:104D3000080144F23013C2F20003C3E9060101F096
:104D40007FFC73E7AFF300809A9999999999E93FAD
:104D50000000FA43AFF3008080B485B000AF786004
:104D60004FF00003FB734FF00003BB734FF00F03D2
:104D70007B737B68DB78002B45D04FF46D43CEF21C
:104D80000003DB686FEA030303F4E0634FEA1323D5
:104D9000FB73FB7BC3F10403BB737A7BFB7B42FA9F
:104DA00003F37B737B685B781A46BB7B02FA03F3E1
:104DB000FB737B689A787B7B1340DAB2FB7B1343EF
:104DC000FB73FB7B4FEA0313FB734FF46143CEF29B
:104DD00000037A6812789B18FA7B83F800234FF45B
:104DE0006143CEF200037A6812784FEA5212D2B2CF
:104DF0007968097801F01F014FF0010000FA01F114
:104E000043F8221014E04FF46143CEF200037A68B5
:104E100012784FEA5212D2B27968097801F01F0174
:104E20004FF0010000FA01F102F1200243F82210D4
:104E300007F11407BD4680BC704700BF80B500AFC6
:104E40004FF002004FF0010101F0F8FC4FF00400B8
:104E50004FF0010101F0F2FC4FF002004FF00101B0
:104E600001F016FD44F29813C2F200034FF0010264
:104E70001A7144F29813C2F200034FF000029A71C3
:104E800044F29813C2F200034FF003025A7144F245
:104E90009813C2F200034FF00002DA7144F2981343
:104EA000C2F200034FF470721A604FF40060C4F253
:104EB000020044F29811C2F2000101F0A7F844F296
:104EC0009813C2F200034FF470421A604FF48060EE
:104ED000C4F2020044F29811C2F2000101F096F807
:104EE00044F2A013C2F200034FF002025A7044F2DF
:104EF000A013C2F200034FF002029A7044F2A01312
:104F0000C2F200034FF00102DA7044F2A013C2F2C1
:104F100000034FF01D021A7044F2A010C2F200000C
:104F2000FFF71AFF48F22863C2F200034FF00002B5
:104F30001A8148F22863C2F200034FF004021A807B
:104F400048F22863C2F200034FF000025A8048F290
:104F50002863C2F200034FF6FF725A6048F22863DA
:104F6000C2F200034FF000029A724FF48060C4F264
:104F7000000048F22861C2F2000101F05FFD4FF429
:104F80008060C4F200004FF001014FF0010201F017
:104F900017FE4FF48060C4F200004FF0010101F0F1
:104FA000EFFD80BD80B500AF4FF48060C4F200001B
:104FB0004FF0010101F028FE0346002B00F00681AE
:104FC00044F27013C2F200031B68042B00F2FE804F
:104FD00001A252F823F000BFED4F00084F50000827
:104FE000B1500008135100087551000844F2301305
:104FF000C2F2000393ED007BB0EE470AF0EE670AC1
:1050000000F0EEF803464FF48060C4F20000194649
:1050100001F09CFD4FF48060C4F202004FF40041A7
:1050200001F0D2F84FF40060C4F202004FF04001EA
:1050300001F0D8F844F27013C2F200031B6803F1C8
:10504000010244F27013C2F200031A60BEE044F29F
:105050003013C2F2000393ED027BB0EE470AF0EE8C
:10506000670A00F0BDF803464FF48060C4F2000008
:10507000194601F06BFD4FF40060C4F202004FF0DE
:10508000400101F0A1F84FF40060C4F202004FF0BB
:10509000800101F0A7F844F27013C2F200031B680C
:1050A00003F1010244F27013C2F200031A608DE0B2
:1050B00044F23013C2F2000393ED047BB0EE470AD2
:1050C000F0EE670A00F08CF803464FF48060C4F2FB
:1050D0000000194601F03AFD4FF40060C4F20200EE
:1050E0004FF0800101F070F84FF40060C4F202004C
:1050F0004FF4807101F076F844F27013C2F20003AD
:105100001B6803F1010244F27013C2F200031A603B
:105110005CE044F23013C2F2000393ED067BB0EE84
:10512000470AF0EE670A00F05BF803464FF4806030
:10513000C4F20000194601F009FD4FF40060C4F20A
:1051400002004FF4807101F03FF84FF40060C4F2A8
:1051500002004FF4007101F045F844F27013C2F2FE
:1051600000031B6803F1010244F27013C2F2000352
:105170001A602BE044F23013C2F2000393ED0E7B71
:10518000B0EE470AF0EE670A00F02AF803464FF443
:105190008060C4F20000194601F0D8FC4FF40060B2
:1051A000C4F202004FF4007101F00EF84FF4806079
:1051B000C4F202004FF4004101F014F844F27013FD
:1051C000C2F200034FF000021A6000BF4FF480608B
:1051D000C4F200004FF0010101F046FD80BD00BFA8
:1051E00080B582B000AF87ED000BD7E900014FF02A
:1051F00000024FF00003C3F6F07302F005FC034613
:10520000002B07D04FF000024FF00003C3F6F073FD
:10521000C7E90023D7E900014FF000024FF0000377
:10522000CBF6F07302F0D2FB0346002B07D04FF011
:1052300000024FF00003CBF6F073C7E90023D7E973
:1052400000014FF000024FF00003C3F6F07301F0CD
:1052500099FF02460B46104619460FA3D3E90023D7
:1052600002F042F902460B46104619464FF0000282
:105270004FF48043C4F2CF0301F084FF02460B4693
:105280001046194602F0CAFB0346184607F1080704
:10529000BD4680BDAFF30080000000000094C14017
:1052A00080B500AF4FF002004FF0010101F0C6FAE7
:1052B0004FF010004FF0010101F014FB44F298137D
:1052C000C2F200034FF0C0021A6044F29813C2F217
:1052D00000034FF002021A7144F29813C2F2000365
:1052E0004FF002025A7144F29813C2F200034FF0D9
:1052F00000029A7144F29813C2F200034FF00102C7
:10530000DA714FF48060C4F2020044F29811C2F2E4
:10531000000100F07BFE4FF48060C4F202004FF009
:1053200006014FF0070200F06BFF4FF48060C4F2FB
:1053300002004FF007014FF0070200F061FF48F252
:105340003C63C2F200034FF416521A6048F23C6309
:10535000C2F200034FF000029A8048F23C63C2F2AE
:1053600000034FF00002DA8048F23C63C2F200030F
:105370004FF000021A8148F23C63C2F200034FF082
:1053800000029A8148F23C63C2F200034FF00C0223
:105390005A814FF48050C4F2010048F23C61C2F2DD
:1053A000000101F073FC4FF48050C4F2010040F2A0
:1053B00025514FF0010201F071FD44F2A013C2F239
:1053C00000034FF025021A7044F2A013C2F200034A
:1053D0004FF006025A7044F2A013C2F200034FF0DD
:1053E00006029A7044F2A013C2F200034FF00102C9
:1053F000DA7044F2A010C2F20000FFF7ADFC4FF4E7
:105400008050C4F201004FF0010101F015FD80BD94
:1054100080B582B000AF4FF000037B604FF0000317
:105420007B601BE04FF48050C4F2010001F024FDCA
:1054300003460A2B16D04FF48050C4F2010001F04D
:105440001BFD0346DAB248F24C63C2F200037968EE
:105450005B181A707B6803F101037B607B68642B27
:10546000E0DD00E000BF07F10807BD4680BD00BFDA
:1054700080B582B000AF47F62843C0F600037B60DA
:1054800040F20003C2F200033B600BE07B681A6845
:105490003B681A603B6803F104033B607B6803F1DF
:1054A00004037B603A6844F2C003C2F200039A42EC
:1054B000ECD30B480B494FF000028842B8BF40F8CC
:1054C000042BFFF6FAAFDFF82000016841F4700109
:1054D0000160FFF78DFB07F10807BD4680BD0000A6
:1054E000C0400020B086002088ED00E080B400AF0E
:1054F000FEE700BF80B500AF4FF480704FF00101B0
:1055000001F01AFA4FF480704FF0000101F014FA24
:1055100080BD00BF80B485B000AF786039604FF0C7
:105520000003FB604FF00003FB727B685B68FB606D
:10553000FB6823F0407323F48073FB603B681B79A6
:105540004FEA03223B681B681343FA681343FB606E
:105550007B68FA685A607B689B68FB60FA684FF268
:10556000FD73CCF2FF031340FB603B681A693B6894
:10557000DB681A433B689B681A433B685B794FEAD8
:1055800043031343FA681343FB607B68FA689A602D
:105590007B68DB6AFB60FB6823F47003FB603B689D
:1055A0001B7D03F1FF33DAB2FB7A1343FB72FB7A04
:1055B0004FEA0353FA681343FB607B68FA68DA62C8
:1055C00007F11407BD4680BC704700BF80B483B0AC
:1055D00000AF78607B684FF000021A607B684FF084
:1055E00000021A717B684FF000025A717B684FF01D
:1055F00000029A607B684FF00002DA607B684FF02F
:1056000000021A617B684FF001021A7507F10C075E
:10561000BD4680BC704700BF80B485B000AF7860E5
:105620004FF00003FB604FF40C53C4F201035B68BE
:10563000FB60FA6843F2E003CFF6FC731340FB60B3
:105640007B681A687B685B681A437B689B681A43AF
:105650007B68DB681343FA681343FB604FF40C5319
:10566000C4F20103FA685A6007F11407BD4680BC12
:10567000704700BF80B483B000AF78607B684FF0A4
:1056800000021A607B684FF000025A607B684FF09E
:1056900000029A607B684FF00002DA6007F10C07A5
:1056A000BD4680BC704700BF80B483B000AF786057
:1056B0000B46FB70FB78002B06D07B689B6843F0A1
:1056C00001027B689A6005E07B689B6823F0010219
:1056D0007B689A6007F10C07BD4680BC704700BF2D
:1056E00080B485B000AF7860F970BA707B704FF00D
:1056F0000003FB604FF00003BB60FB78092B27D948
:105700007B68DB68FB60FA7813464FEA43039B181B
:10571000A3F11E034FF0070202FA03F3BB60BB685C
:105720006FEA0303FA681340FB607978FA7813464E
:105730004FEA43039B18A3F11E0301FA03F3BB6076
:10574000FA68BB681343FB607B68FA68DA6022E0A2
:105750007B681B69FB60FA7813464FEA43039B188A
:105760004FF0070202FA03F3BB60BB686FEA030362
:10577000FA681340FB607978FA7813464FEA4303DE
:105780009B1801FA03F3BB60FA68BB681343FB6024
:105790007B68FA681A61BB78062B27D87B685B6B3D
:1057A000FB60BB7803F1FF3213464FEA83039B187B
:1057B0004FF01F0202FA03F3BB60BB686FEA0303FA
:1057C000FA681340FB60F978BB7803F1FF321346A7
:1057D0004FEA83039B1801FA03F3BB60FA68BB68C6
:1057E0001343FB607B68FA685A6351E0BB780C2B6B
:1057F00027D87B681B6BFB60BA7813464FEA83039C
:105800009B18A3F123034FF01F0202FA03F3BB60BE
:10581000BB686FEA0303FA681340FB60F978BA7853
:1058200013464FEA83039B18A3F1230301FA03F302
:10583000BB60FA68BB681343FB607B68FA681A6355
:1058400026E07B68DB6AFB60BA7813464FEA830385
:105850009B18A3F141034FF01F0202FA03F3BB6050
:10586000BB686FEA0303FA681340FB60F978BA7803
:1058700013464FEA83039B18A3F1410301FA03F394
:10588000BB60FA68BB681343FB607B68FA68DA6246
:1058900007F11407BD4680BC704700BF80B483B0D9
:1058A00000AF78607B689B6843F080427B689A60B9
:1058B00007F10C07BD4680BC704700BF80B483B0C1
:1058C00000AF78600B46FB70FB78002B06D07B683E
:1058D0009B6843F480727B689A6005E07B689B68F4
:1058E00023F480727B689A6007F10C07BD4680BC88
:1058F000704700BF80B483B000AF78600B46FB7088
:10590000FB78002B06D07B689B6843F400727B68B1
:105910009A6005E07B689B6823F400727B689A605C
:1059200007F10C07BD4680BC704700BF80B483B050
:1059300000AF78607B681B6823F001027B681A6007
:105940007B684FF000021A607B684FF000025A60DB
:105950007B684FF000029A607B684FF00002DA60CB
:105960007B684FF000021A617B684FF021025A6198
:105970007A6846F21003C4F202039A4207D14FF448
:10598000C043C4F202034FF03D029A60EBE07A6834
:1059900046F22803C4F202039A4207D14FF4C043EF
:1059A000C4F202034FF474629A60DCE07A6846F253
:1059B0004003C4F202039A4207D14FF4C043C4F239
:1059C00002034FF474129A60CDE07A6846F25803ED
:1059D000C4F202039A4207D14FF4C043C4F2020357
:1059E0004FF074629A60BEE07A6846F27003C4F2C7
:1059F00002039A4209D14FF4C043C4F202034FF0AC
:105A00003D02C2F20002DA60ADE07A6846F2880335
:105A1000C4F202039A4209D14FF4C043C4F2020314
:105A20004FF47462C2F20002DA609CE07A6846F2D7
:105A3000A003C4F202039A4209D14FF4C043C4F256
:105A400002034FF00002C2F23D02DA608BE07A6896
:105A500046F2B803C4F202039A4207D14FF4C0439E
:105A6000C4F202034FF03D52DA607CE07A6846F2FD
:105A70001043C4F202039A4207D14FF4C843C4F260
:105A800002034FF03D029A606DE07A6846F22843C7
:105A9000C4F202039A4207D14FF4C843C4F202038E
:105AA0004FF474629A605EE07A6846F24043C4F252
:105AB00002039A4207D14FF4C843C4F202034FF4E1
:105AC00074129A604FE07A6846F25843C4F20203B7
:105AD0009A4207D14FF4C843C4F202034FF07462F4
