:020000040800F2
:10000000700A0020791D0008E51D0008E51D0008A4
:10001000E51D0008E51D0008E51D000800000000C2
:10002000000000000000000000000000E51D0008C6
:10003000E51D000800000000E51D0008E51D0008A2
:10004000E51D0008E51D0008E51D0008E51D000888
:10005000E51D0008E51D0008011100086D110008EC
:10006000D5110008ED11000805130008E51D000872
:10007000E51D0008E51D0008E51D0008E51D000858
:10008000E51D0008E51D0008E51D0008E51D000848
:10009000E51D0008E51D0008E51D000851130008D6
:1000A000E51D00080512000845120008E51D0008BE
:1000B000E51D0008BD180008B1100008E51D000886
:1000C000E51D0008E51D0008E51D0008E51D000808
:1000D000E51D0008191D0008E51D0008E51D0008C4
:1000E000E51D0008E51D0008E51D0008E51D0008E8
:1000F00085120008C5120008E51D0008E51D00086E
:10010000E51D0008E51D0008E51D0008E51D0008C7
:10011000E51D0008E51D0008E51D0008E51D0008B7
:10012000E51D0008E51D0008E51D0008E51D0008A7
:10013000D1040008E51D0008E51D0008E51D0008C4
:10014000E51D0008E51D0008E51D0008E51D000887
:10015000E51D0008E51D0008E51D0008E51D000877
:10016000E51D0008E51D0008E51D0008E51D000867
:10017000E51D0008E51D0008E51D0008E51D000857
:10018000E51D0008E51D000880B500AF40F218101D
:10019000C2F2000002F058FC40F2F800C2F2000087
:1001A00001F090FE40F26010C2F2000001F0DEFEAD
:1001B00040F22410C2F2000002F0AEF94FF4807059
:1001C0004FF0010103F00AF84FF004004FF0010175
:1001D00002F0B0FF4FF480004FF0010102F0AAFFDF
:1001E00040F21813C2F200034FF00F021A6040F2FF
:1001F0001813C2F200034FF003021A7140F21813F1
:10020000C2F200034FF00002DA714FF40060C4F252
:10021000020040F21811C2F2000102F073FB46F234
:100220007040C4F2020001F0FDFF40F22413C2F25C
:1002300000034FF000021A6040F22413C2F20003E0
:1002400042F24C02C4F201025A6040F21012C2F2B1
:10025000000240F22413C2F200039A6040F2241319
:10026000C2F200034FF00002DA6040F22413C2F23F
:1002700000034FF004021A6140F22413C2F200039B
:100280004FF000025A6140F22413C2F200034FF40F
:1002900080629A6140F22413C2F200034FF40062BC
:1002A000DA6140F22413C2F200034FF400521A62E2
:1002B00040F22413C2F200034FF480725A6240F2FB
:1002C0002413C2F200034FF400329A6240F2241366
:1002D000C2F200034FF00002DA6240F22413C2F2CD
:1002E00000034FF001021A6340F22413C2F200032C
:1002F0004FF000025A6340F22413C2F200034FF0A1
:1003000000029A6346F27040C4F2020040F22411E7
:10031000C2F2000102F0A8F846F27040C4F20200F6
:100320004FF010014FF0010202F058F940F2201393
:10033000C2F200034FF03C021A7040F22013C2F2E6
:1003400000034FF000025A7040F22013C2F2000383
:100350004FF003029A7040F22013C2F200034FF0F4
:100360000102DA7040F22010C2F2000001F080F9C0
:1003700046F27040C4F202004FF0010102F012F99F
:1003800001F034FD40F2F803C2F200034FF0000226
:100390001A6140F2F803C2F200034FF000021A6043
:1003A00040F2F803C2F200034FF001025A7140F22A
:1003B000F803C2F200034FF00002DA6040F2F803E3
:1003C000C2F200034FF004021A7540F2F803C2F2C1
:1003D00000034FF001021A714FF40050C4F2010003
:1003E00040F2F801C2F2000101F010FD40F260138A
:1003F000C2F200034FF000021A6040F26013C2F232
:1004000000034FF000025A6040F26013C2F2000392
:100410004FF00002DA6040F26013C2F200034FF0C6
:1004200000029A6040F26010C2F2000001F070FD1C
:100430004FF40050C4F201004FF00A014FF00102E6
:100440004FF0070301F0C8FD4FF40050C4F2010063
:100450004FF00B014FF002024FF0070301F0BCFD1B
:100460004FF40050C4F201004FF00C014FF00302B2
:100470004FF0070301F0B0FD4FF40050C4F201004B
:100480004FF00D014FF004024FF0070301F0A4FDFF
:100490004FF40050C4F201004FF0010101F0A6FE3C
:1004A0004FF40050C4F201004FF0010101F082FE50
:1004B0004FF40050C4F201004FF0010101F070FD53
:1004C0004FF40050C4F2010001F064FE80BD00BF93
:1004D00080B500AF46F27040C4F2020048F220013D
:1004E000C2F2000102F0B4F80346002B2BD040F218
:1004F0001013C2F200031B881A4640F24003C2F2F6
:1005000000031A6040F21013C2F200035B881A461F
:1005100040F24003C2F200035A6040F21013C2F2EC
:100520000003DB881A4640F24003C2F200039A60DF
:1005300040F21013C2F200031B891A4640F2400336
:10054000C2F20003DA6046F27040C4F202004FF0DB
:100550002001C2F2000102F0DBF880BD80B58CB052
:1005600000AF40F29813C2F20003D3E9080140F251
:100570009813C2F20003D3E9062303F023FC0246DA
:100580000B46C7E90A2340F20003C2F20003D3E995
:10059000002310461946D7E90A2303F061FA024600
:1005A0000B46C7E9082340F20003C2F20003D3E977
:1005B000022310461946D7E90A2303F003FC02463A
:1005C0000B461046194640F20003C2F20003D3E97D
:1005D000042303F045FA02460B46C7E9062340F21E
:1005E0009813C2F20003D3E9060140F29813C2F255
:1005F0000003D3E90A2303F0E5FB02460B46C7E9F3
:100600000A2340F20003C2F20003D3E9022310469A
:100610001946D7E90A2303F0D5FB02460B461046DC
:10062000194640F20003C2F20003D3E9062303F0A7
:1006300017FA02460B46C7E9042340F20003C2F250
:100640000003D3E9082310461946D7E90A2303F02B
:1006500007FA02460B46C7E9022340F29813C2F29A
:100660000003D3E9020140F29813C2F20003D3E978
:10067000002303F0A7FB02460B46C7E90A2340F21A
:100680009813C2F20003D3E9000140F29813C2F2BA
:100690000003D3E9042303F095FB02460B46C7E9A8
:1006A0000023D7E90A01D7E9082303F08BFB0246B0
:1006B0000B461046194640F27013C2F20003C3E91C
:1006C0000001D7E90A01D7E9062303F07BFB0246C4
:1006D0000B461046194640F27013C2F20003C3E9FC
:1006E0000201D7E90201D7E9002303F06BFB0246C0
:1006F0000B461046194640F27013C2F20003C3E9DC
:100700000401D7E90401D7E9002303F05BFB0246AB
:100710000B461046194640F27013C2F20003C3E9BB
:10072000060107F13007BD4680BD00BF80B500AFB0
:1007300044F20453C0F600031B684FF000021A6035
:1007400040F29810C2F200004FF000014FF030026A
:1007500003F042FE40F27010C2F200004FF00001C0
:100760004FF0200203F038FE80BD00BF80B500AF1F
:100770004FF400104FF0010102F006FD4FF00200AF
:100780004FF0010102F0D6FC40F21813C2F2000350
:100790004FF440721A6040F21813C2F200034FF097
:1007A00002021A7140F21813C2F200034FF0000265
:1007B0005A7140F21813C2F200034FF001029A710D
:1007C00040F21813C2F200034FF00102DA714FF445
:1007D0008060C4F2020040F21811C2F2000102F07F
:1007E00091F84FF48060C4F202004FF008014FF01E
:1007F000040202F081F94FF48060C4F202004FF06D
:1008000009014FF0040202F077F940F2D813C2F266
:10081000000348F2A062C0F201021A6040F2D8134D
:10082000C2F200034FF000029A8040F2D813C2F2E5
:1008300000034BF6FF72DA8040F2D813C2F20003D5
:100840004FF000021A8140F2D813C2F200034FF4B5
:1008500080625A8140F2D813C2F200034FF4804202
:100860009A814FF4A840C4F2000040F2D811C2F2BD
:10087000000102F095F94FF4A840C4F200004FF0D7
:10088000010102F063FA4FF004004FF4FA7100F036
:1008900077F880BD80B582B000AF02460B46FA7192
:1008A000BB714FF4A840C4F200004FF0010102F008
:1008B0006DFA00BF4FF4A840C4F200004FF00101F0
:1008C000C0F2030102F0D0FA0346002BF2D04FF43D
:1008D000A840C4F200004FF0D0014FF0000202F037
:1008E00095FA00BF4FF4A840C4F200004FF0820117
:1008F000C0F2070102F0B8FA0346002BF2D04FF421
:10090000A840C4F200004FF0010102F01FFAFB7989
:100910004FF4A840C4F20000194602F095FA00BF57
:100920004FF4A840C4F200004FF08401C0F2070168
:1009300002F09AFA0346002BF2D0BB794FF4A8409C
:10094000C4F20000194602F07FFA00BF4FF4A8403D
:10095000C4F200004FF08401C0F2070102F084FAF3
:100960000346002BF2D04FF4A840C4F200004FF031
:10097000010102F02BFA07F10807BD4680BD00BF58
:1009800080B582B000AF786039607B68042B0ED1EF
:1009900040F27003C2F200034FF008021A6040F206
:1009A0002803C2F200034FF400521A6031E07B6862
:1009B000082B0ED140F27003C2F200034FF0100278
:1009C0001A6040F22803C2F200034FF480521A600A
:1009D0001FE07B68102B0ED140F27003C2F20003BF
:1009E0004FF018021A6040F22803C2F200034FF4DD
:1009F00000621A600DE040F27003C2F200034FF093
:100A000000021A6040F22803C2F200034FF4804251
:100A10001A603B68B3F5FA7F0ED140F27403C2F25C
:100A200000034FF008021A6040F22C03C2F20003E8
:100A30004FF041021A6033E03B68B3F57A7F0ED184
:100A400040F27403C2F200034FF010021A6040F249
:100A50002C03C2F200034FF020021A6020E03B6832
:100A6000B3F5FA6F0ED140F27403C2F200034FF0F7
:100A700018021A6040F22C03C2F200034FF0100279
:100A80001A600DE040F27403C2F200034FF000025E
:100A90001A6040F22C03C2F200034FF083021A6086
:100AA0004FF01A004FF00001FFF7F4FE40F2700320
:100AB000C2F200031B68DBB24FF01C001946FFF7BF
:100AC000E9FE40F27403C2F200031B68DBB24FF090
:100AD0001B001946FFF7DEFE4FF06B004FF00001E0
:100AE000FFF7D8FE07F10807BD4680BD80B500AF0F
:100AF0004FF001004FF0010102F01CFB4FF4804069
:100B00004FF0010102F06AFB4FF001004FF00101CC
:100B100002F03AFB4FF004004FF0010102F034FB09
:100B20004FF400304FF0010102F058FB4FF48020E9
:100B30004FF0010102F052FB4FF080004FF0010135
:100B400002F022FB4FF480704FF0010102F01CFB19
:100B500040F21813C2F200034FF00F021A6040F285
:100B60001813C2F200034FF000021A7140F218137A
:100B7000C2F200034FF003025A7140F21813C2F29E
:100B800000034FF00102DA714FF00000C4F20200DE
:100B900040F21811C2F2000101F0B4FE40F2181345
:100BA000C2F200034FF0F0021A6040F21813C2F2D2
:100BB00000034FF000021A7140F21813C2F2000352
:100BC0004FF003025A7140F21813C2F200034FF0C3
:100BD0000102DA714FF00000C4F2020040F2181175
:100BE000C2F2000101F08EFE4FF000004FF0000154
:100BF00002F048FB4FF000004FF0010102F042FB11
:100C00004FF000004FF0020102F03CFB4FF00000FB
:100C10004FF0030102F036FB4FF000004FF00401EB
:100C200002F030FB4FF000004FF0050102F02AFB0C
:100C30004FF000004FF0060102F024FB4FF00000DF
:100C40004FF0070102F01EFB40F2F413C2F2000362
:100C50004FF000021A7140F2F413C2F200034FF099
:100C600010025A7140F2F413C2F200034FF0010275
:100C70009A7140F2F413C2F200034FF001021A60BD
:100C800040F2F410C2F2000001F072FD40F2F413E1
:100C9000C2F200034FF002021A6040F2F410C2F2F6
:100CA000000001F065FD40F2F413C2F200034FF0C2
:100CB00004021A6040F2F410C2F2000001F058FD84
:100CC00040F2F413C2F200034FF008021A6040F23F
:100CD000F410C2F2000001F04BFD40F2F413C2F236
:100CE00000034FF010021A6040F2F410C2F200004C
:100CF00001F03EFD40F2F413C2F200034FF0200277
:100D00001A6040F2F410C2F2000001F031FD40F22E
:100D1000F413C2F200034FF040021A6040F2F410E4
:100D2000C2F2000001F024FD40F2F413C2F200030D
:100D30004FF080021A6040F2F410C2F2000001F09D
:100D400017FD40F22013C2F200034FF005025A7063
:100D500040F22013C2F200034FF001029A7040F2F9
:100D60002013C2F200034FF00102DA7040F22013A8
:100D7000C2F200034FF00A021A7040F22010C2F2D1
:100D8000000000F075FC40F22013C2F200034FF0A7
:100D900017021A7040F22010C2F2000000F068FC46
:100DA00040F22013C2F200034FF019021A7040F211
:100DB0002010C2F2000000F05BFC40F22013C2F2EF
:100DC00000034FF01A021A7040F22010C2F2000025
:100DD00000F04EFC40F22013C2F200034FF02C0250
:100DE0001A7040F22010C2F2000000F041FC40F204
:100DF0002013C2F200034FF02D021A7040F22010AF
:100E0000C2F2000000F034FC40F22013C2F20003F2
:100E10004FF001025A7040F22013C2F200034FF06B
:100E200001029A7040F22013C2F200034FF0010257
:100E3000DA7040F22013C2F200034FF01E021A7063
:100E400040F22010C2F2000000F012FC40F2201329
:100E5000C2F200034FF006021A7040F22010C2F2F4
:100E6000000000F005FC40F22013C2F200034FF036
:100E700007021A7040F22010C2F2000000F0F8FBE6
:100E800040F22013C2F200034FF008021A7040F241
:100E90002010C2F2000000F0EBFB40F22013C2F27F
:100EA00000034FF009021A7040F22010C2F2000055
:100EB00000F0DEFB40F2E813C2F200034FF0000244
:100EC0009A7240F2E813C2F200034FF000025A8017
:100ED00040F2E813C2F200034FF000021A8140F220
:100EE000E813C2F200034FF02A021A8040F2E8131E
:100EF000C2F200034CF250325A604FF40060C4F268
:100F0000000040F2E811C2F2000102F013FA4FF4BF
:100F10000060C4F200004FF001014FF0010202F046
:100F2000CBFA4FF40060C4F200004FF0010102F070
:100F3000A3FA40F2E813C2F200034FF000021A8154
:100F400040F2E813C2F200034FF004021A8040F2AC
:100F5000E813C2F200034FF6FF725A604FF0804070
:100F600040F2E811C2F2000102F0E4F94FF08040D3
:100F70004FF0010102F080FA40F2E813C2F20003E0
:100F80004FF000021A8140F2E813C2F200034FF45E
:100F9000C8621A8040F2E813C2F2000342F21072F3
:100FA0005A604FF48840C4F2010040F2E811C2F2E6
:100FB000000102F0BFF94FF48840C4F201004FF085
:100FC00001014FF0010202F077FA4FF48840C4F2B9
:100FD00001004FF0010102F04FFA4FF49040C4F2CB
:100FE000010040F2E811C2F2000102F0A3F94FF44F
:100FF0009040C4F201004FF001014FF0010202F0F5
:101000005BFA4FF49040C4F201004FF0010102F08E
:1010100033FA40F2E813C2F200034FF000021A81E3
:1010200040F2E813C2F200034FF452721A8040F209
:10103000E813C2F2000342F210725A604FF4E0501B
:10104000C4F2000040F2E811C2F2000102F072F9AD
:101050004FF4E050C4F200004FF001014FF00102E4
:1010600002F02AFA4FF4E050C4F200004FF0010100
:1010700002F002FA4FF40050C4F2000040F2E8110E
:10108000C2F2000102F056F94FF40050C4F2000021
:101090004FF001014FF0010202F00EFA4FF4005040
:1010A000C4F200004FF0010102F0E6F980BD00BF7C
:1010B00080B500AF4FF40060C4F200004FF00101B2
:1010C00002F01EFA0346002B18D040F27803C2F259
:1010D00000034FF000004FF00001C3E9000140F2AF
:1010E0007803C2F200034FF000029A604FF40060F0
:1010F000C4F200004FF0010102F032FA80BD00BFDF
:1011000080B500AF4FF0010001F0CEFB0346002B8D
:101110002AD04FF00000C4F202004FF0010101F0AC
:10112000B1FC0346002B0DD14FF0804002F098F93E
:101130000346184600F0ACF940F27803C2F200030F
:10114000C3E900014FF080404FF0000102F06CF95C
:101150004FF40060C4F200004FF0000102F064F9A7
:101160004FF0010001F0BEFB80BD00BF80B500AFB5
:101170004FF0020001F098FB0346002B28D04FF0FF
:101180000000C4F202004FF0020101F07BFC0346B4
:10119000002B13D14FF0804002F062F9034618464D
:1011A00000F076F902460B461046194603F0C4F8E3
:1011B000024640F27803C2F200039A604FF080408A
:1011C0004FF0000102F030F94FF0020001F08AFB0D
:1011D00080BD00BF80B500AF4FF0040001F064FB9C
:1011E0004FF0040001F07EFB80BD00BF80B500AF72
:1011F0004FF0080001F058FB4FF0080001F072FBBF
:1012000080BD00BF80B500AF4FF48840C4F201003C
:101210004FF0010102F074F90346002B11D040F2A7
:101220009003C2F200034FF000004FF00001C3E949
:1012300000014FF48840C4F201004FF0010102F0B8
:101240008FF980BD80B500AF4FF49040C4F201002B
:101250004FF0010102F054F90346002B11D040F287
:101260009003C2F200034FF000004FF00001C3E909
:1012700002014FF49040C4F201004FF0010102F06E
:101280006FF980BD80B500AF4FF4E050C4F20000AC
:101290004FF0010102F034F90346002B11D040F267
:1012A0009003C2F200034FF000004FF00001C3E9C9
:1012B00004014FF4E050C4F200004FF0010102F0CD
:1012C0004FF980BD80B500AF4FF40050C4F200006C
:1012D0004FF0010102F014F90346002B11D040F247
:1012E0009003C2F200034FF000004FF00001C3E989
:1012F00006014FF40050C4F200004FF0010102F06B
:101300002FF980BD80B500AF4FF0100001F0CCFA8E
:101310000346002B1BD04FF48840C4F2010002F0BA
:101320009FF80346184600F07FF840F29003C2F29F
:101330000003C3E900014FF48840C4F201004FF0FC
:10134000000102F071F84FF0100001F0CBFA80BDFF
:1013500080B500AF4FF0200001F0A6FA0346002B45
:101360001BD04FF49040C4F2010002F079F803461C
:10137000184600F059F840F29003C2F20003C3E9A6
:1013800002014FF49040C4F201004FF0000102F05E
:101390004BF84FF0200001F0A5FA4FF0400001F0AB
:1013A00083FA0346002B1BD04FF4E050C4F2000038
:1013B00002F056F80346184600F036F840F2900363
:1013C000C2F20003C3E904014FF4E050C4F200008C
:1013D0004FF0000102F028F84FF0400001F082FACF
:1013E0004FF0800001F060FA0346002B1BD04FF451
:1013F0000050C4F2000002F033F80346184600F033
:1014000013F840F29003C2F20003C3E906014FF45F
:101410000050C4F200004FF0000102F005F84FF058
:10142000800001F05FFA80BD80B582B000AF7860C7
:10143000786802F051FC02460B461046194612A38A
:10144000D3E9002302F0E8FD02460B461046194698
:101450004FF000024FF00003C4F22C0302F0B2FC84
:1014600002460B464FF000004FF00001C4F24E015F
:1014700002F0D2FD02460B461046194607F1080756
:10148000BD4680BDAFF3008000000000006AF84058
:1014900080B582B000AF78607B68B3F57A5F2BD9F6
:1014A0007A6848F2CF439A4226D8786802F014FC52
:1014B00002460B46104619464FF000024FF4804397
:1014C000C4F2CF0302F0CAFA02460B461046194690
:1014D0000FA3D3E9002302F09FFD02460B461046FE
:1014E00019464FF000024FF00003C3F6F07302F00C
:1014F000B5FA02460B4603E04FF000024FF000033E
:101500001046194607F10807BD4680BDAFF30080BD
:10151000000000000094C14080B500AF02F08CF9DB
:1015200045F2555001F0D8FC4FF0000001F0E4FC0A
:1015300040F2FF7001F0F0FC01F00AFDFFF7D6FA6F
:1015400000F008F900F030FBFEF71EFEFFF70EF981
:10155000FFF7ECF840F29813C2F200033EA1D1E984
:101560000001C3E9080140F29813C2F200033CA154
:10157000D1E90001C3E90A0140F29813C2F2000365
:1015800039A1D1E90001C3E9020140F29813C2F286
:1015900000034FF000004FF00001C3F6F071C3E903
:1015A000040140F27803C2F20003D3E9000140F2E3
:1015B0009813C2F20003C3E9060140F27803C2F2B5
:1015C00000039B68184602F0A9FB40F29813C2F290
:1015D0000003C3E90001FEF7C1FF40F27013C2F23D
:1015E0000003D3E9000140F2B003C2F20003C3E9F3
:1015F000000140F27013C2F20003D3E9020140F28D
:10160000B003C2F20003C3E9020140F27013C2F258
:101610000003D3E9040140F2B003C2F20003C3E9BE
:10162000040140F27013C2F20003D3E9060140F254
:10163000B003C2F20003C3E9060140F27803C2F22C
:101640000003D3E9000140F2B003C2F20003C3E992
:101650000E0101F071FC7DE79A9999999999C93F1A
:10166000666666666666F63FCDCCCCCCCCCCEC3FED
:1016700080B485B000AF78604FF00003FB734FF08B
:101680000003BB734FF00F037B737B68DB78002B89
:1016900045D04FF46D43CEF20003DB686FEA0303DD
:1016A00003F4E0634FEA1323FB73FB7BC3F10403F2
:1016B000BB737A7BFB7B42FA03F37B737B685B78BB
:1016C0001A46BB7B02FA03F3FB737B689A787B7B39
:1016D0001340DAB2FB7B1343FB73FB7B4FEA03132C
:1016E000FB734FF46143CEF200037A6812789B18C3
:1016F000FA7B83F800234FF46143CEF200037A684B
:1017000012784FEA5212D2B27968097801F01F01BB
:101710004FF0010000FA01F143F8221014E04FF4F9
:101720006143CEF200037A6812784FEA5212D2B2C5
:101730007968097801F01F014FF0010000FA01F10A
:1017400002F1200243F8221007F11407BD4680BCC5
:10175000704700BF80B500AF4FF002004FF00101AD
:1017600001F0E8FC4FF004004FF0010101F0E2FC51
:101770004FF002004FF0010101F006FD40F2181396
:10178000C2F200034FF001021A7140F21813C2F2C4
:1017900000034FF000029A7140F21813C2F20003E6
:1017A0004FF003025A7140F21813C2F200034FF0D7
:1017B0000002DA7140F21813C2F200034FF47072A3
:1017C0001A604FF40060C4F2020040F21811C2F235
:1017D000000101F097F840F21813C2F200034FF431
:1017E00070421A604FF48060C4F2020040F2181197
:1017F000C2F2000101F086F840F22013C2F20003A9
:101800004FF002025A7040F22013C2F200034FF070
:1018100002029A7040F22013C2F200034FF001025C
:10182000DA7040F22013C2F200034FF01D021A706A
:1018300040F22010C2F20000FFF71AFF40F2E81356
:10184000C2F200034FF000021A8140F2E813C2F224
:1018500000034FF004021A8040F2E813C2F20003C2
:101860004FF000025A8040F2E813C2F200034FF634
:10187000FF725A6040F2E813C2F200034FF0000218
:101880009A724FF48060C4F2000040F2E811C2F294
:10189000000101F04FFD4FF48060C4F200004FF0F2
:1018A00001014FF0010201F007FE4FF48060C4F225
:1018B00000004FF0010101F0DFFD80BD80B500AFF9
:1018C0004FF48060C4F200004FF0010101F018FEF7
:1018D0000346002B00F0FC8040F2F003C2F200034C
:1018E0001B68042B00F2F48001A252F823F000BF21
:1018F0000519000863190008C11900081F1A00081B
:101900007D1A000840F2B003C2F20003D3E90023BD
:101910001046194600F0E8F803464FF48060C4F220
:101920000000194601F08EFD4FF48060C4F2020001
:101930004FF4004101F0C4F84FF40060C4F202001B
:101940004FF0400101F0CAF840F2F003C2F2000388
:101950001B6803F1010240F2F003C2F200031A60B7
:10196000B6E040F2B003C2F20003D3E9022310460E
:10197000194600F0B9F803464FF48060C4F2000045
:10198000194601F05FFD4FF40060C4F202004FF011
:10199000400101F095F84FF40060C4F202004FF0EE
:1019A000800101F09BF840F2F003C2F200031B68D3
:1019B00003F1010240F2F003C2F200031A6087E073
:1019C00040F2B003C2F20003D3E9042310461946E3
:1019D00000F08AF803464FF48060C4F20000194614
:1019E00001F030FD4FF40060C4F202004FF08001BE
:1019F00001F066F84FF40060C4F202004FF4807109
:101A000001F06CF840F2F003C2F200031B6803F12E
:101A1000010240F2F003C2F200031A6058E040F203
:101A2000B003C2F20003D3E906231046194600F0C2
:101A30005BF803464FF48060C4F20000194601F0E1
:101A400001FD4FF40060C4F202004FF4807101F018
:101A500037F84FF40060C4F202004FF4007101F057
:101A60003DF840F2F003C2F200031B6803F10102EB
:101A700040F2F003C2F200031A6029E040F2B00322
:101A8000C2F20003D3E90E231046194600F02CF8E9
:101A900003464FF48060C4F20000194601F0D2FC06
:101AA0004FF40060C4F202004FF4007101F008F836
:101AB0004FF48060C4F202004FF4004101F00EF8D0
:101AC00040F2F003C2F200034FF000021A6000BFC0
:101AD0004FF48060C4F200004FF0010101F040FDBE
:101AE00080BD00BF0000000080B582B000AFC7E934
:101AF0000001D7E900014FF000024FF00003C3F6E8
:101B0000F07302F0EFFB0346002B07D04FF000020A
:101B10004FF00003C3F6F073C7E90023D7E90001D3
:101B20004FF000024FF00003CBF6F07302F0BCFB65
:101B30000346002B07D04FF000024FF00003CBF616
:101B4000F073C7E90023D7E900014FF000024FF01E
:101B50000003C3F6F07301F083FF02460B46104604
:101B600019460FA3D3E9002302F02CF902460B46D5
:101B7000104619464FF000024FF48043C4F2CF03E1
:101B800001F06EFF02460B461046194602F0B4FB08
:101B90000346184607F10807BD4680BDAFF3008035
:101BA000000000000094C14080B500AF4FF002007B
:101BB0004FF0010101F0BEFA4FF010004FF00101AB
:101BC00001F00CFB40F21813C2F200034FF0C00208
:101BD0001A6040F21813C2F200034FF002021A71A9
:101BE00040F21813C2F200034FF002025A7140F2A1
:101BF0001813C2F200034FF000029A7140F218135A
:101C0000C2F200034FF00102DA714FF48060C4F2B7
:101C1000020040F21811C2F2000100F073FE4FF40E
:101C20008060C4F202004FF006014FF0070200F09E
:101C300063FF4FF48060C4F202004FF007014FF0E1
:101C4000070200F059FF40F2FC13C2F200034FF408
:101C500016521A6040F2FC13C2F200034FF0000269
:101C60009A8040F2FC13C2F200034FF00002DA80C7
:101C700040F2FC13C2F200034FF000021A8140F25E
:101C8000FC13C2F200034FF000029A8140F2FC13F1
:101C9000C2F200034FF00C025A814FF48050C4F29C
:101CA000010040F2FC11C2F2000101F06BFC4FF4A4
:101CB0008050C4F2010040F225514FF0010201F0C2
:101CC00069FD40F22013C2F200034FF025021A70A2
:101CD00040F22013C2F200034FF006025A7040F2A5
:101CE0002013C2F200034FF006029A7040F2201354
:101CF000C2F200034FF00102DA7040F22010C2F28B
:101D00000000FFF7B5FC4FF48050C4F201004FF023
:101D1000010101F00DFD80BD80B582B000AF4FF034
:101D200000037B604FF000037B601BE04FF48050AA
:101D3000C4F2010001F01CFD03460A2B16D04FF43B
:101D40008050C4F2010001F013FD0346DAB240F204
:101D50000C23C2F2000379685B181A707B6803F1E8
:101D600001037B607B68642BE0DD00E000BF07F1CE
:101D70000807BD4680BD00BF80B582B000AF44F209
:101D80000853C0F600037B6040F20003C2F2000378
:101D90003B600BE07B681A683B681A603B6803F1A4
:101DA00004033B607B6803F104037B603A6840F204
:101DB0004003C2F200039A42ECD3084808494FF0AE
:101DC00000028842B8BF40F8042BFFF6FAAFFFF7D5
:101DD000A3FB07F10807BD4680BD000040000020BE
:101DE0007002002080B400AFFEE700BF80B500AFF6
:101DF0004FF480704FF0010101F01AFA4FF4807037
:101E00004FF0000101F014FA80BD00BF80B485B02E
:101E100000AF786039604FF00003FB604FF00003C3
:101E2000FB727B685B68FB60FB6823F0407323F404
:101E30008073FB603B681B794FEA03223B681B6899
:101E40001343FA681343FB607B68FA685A607B6847
:101E50009B68FB60FA684FF2FD73CCF2FF031340FE
:101E6000FB603B681A693B68DB681A433B689B6808
:101E70001A433B685B794FEA43031343FA68134301
:101E8000FB607B68FA689A607B68DB6AFB60FB68D2
:101E900023F47003FB603B681B7D03F1FF33DAB270
:101EA000FB7A1343FB72FB7A4FEA0353FA6813433E
:101EB000FB607B68FA68DA6207F11407BD4680BCF4
:101EC000704700BF80B483B000AF78607B684FF08C
:101ED00000021A607B684FF000021A717B684FF0B5
:101EE00000025A717B684FF000029A607B684FF0E5
:101EF0000002DA607B684FF000021A617B684FF0E5
:101F000001021A7507F10C07BD4680BC704700BF7F
:101F100080B485B000AF78604FF00003FB604FF4F1
:101F20000C53C4F201035B68FB60FA6843F2E00300
:101F3000CFF6FC731340FB607B681A687B685B68B4
:101F40001A437B689B681A437B68DB681343FA6813
:101F50001343FB604FF40C53C4F20103FA685A6058
:101F600007F11407BD4680BC704700BF80B483B042
:101F700000AF78607B684FF000021A607B684FF01A
:101F800000025A607B684FF000029A607B684FF055
:101F90000002DA6007F10C07BD4680BC704700BF45
:101FA00080B483B000AF78600B46FB70FB78002BE9
:101FB00006D07B689B6843F001027B689A6005E06D
:101FC0007B689B6823F001027B689A6007F10C072D
:101FD000BD4680BC704700BF80B485B000AF78605C
:101FE000F970BA707B704FF00003FB604FF0000394
:101FF000BB60FB78092B27D97B68DB68FB60FA782C
:1020000013464FEA43039B18A3F11E034FF0070248
:1020100002FA03F3BB60BB686FEA0303FA6813407C
:10202000FB607978FA7813464FEA43039B18A3F1D3
:102030001E0301FA03F3BB60FA68BB681343FB603D
:102040007B68FA68DA6022E07B681B69FB60FA78DB
:1020500013464FEA43039B184FF0070202FA03F3BB
:10206000BB60BB686FEA0303FA681340FB607978D2
:10207000FA7813464FEA43039B1801FA03F3BB6057
:10208000FA68BB681343FB607B68FA681A61BB7827
:10209000062B27D87B685B6BFB60BB7803F1FF32B4
:1020A00013464FEA83039B184FF01F0202FA03F313
:1020B000BB60BB686FEA0303FA681340FB60F97802
:1020C000BB7803F1FF3213464FEA83039B1801FAF2
:1020D00003F3BB60FA68BB681343FB607B68FA6874
:1020E0005A6351E0BB780C2B27D87B681B6BFB60D5
:1020F000BA7813464FEA83039B18A3F123034FF0EA
:102100001F0202FA03F3BB60BB686FEA0303FA68BD
:102110001340FB60F978BA7813464FEA83039B18A3
:10212000A3F1230301FA03F3BB60FA68BB6813430E
:10213000FB607B68FA681A6326E07B68DB6AFB60F9
:10214000BA7813464FEA83039B18A3F141034FF07B
:102150001F0202FA03F3BB60BB686FEA0303FA686D
:102160001340FB60F978BA7813464FEA83039B1853
:10217000A3F1410301FA03F3BB60FA68BB681343A0
:10218000FB607B68FA68DA6207F11407BD4680BC21
:10219000704700BF80B483B000AF78607B689B68F5
:1021A00043F080427B689A6007F10C07BD4680BC13
:1021B000704700BF80B483B000AF78600B46FB70FF
:1021C000FB78002B06D07B689B6843F480727B68A9
:1021D0009A6005E07B689B6823F480727B689A6054
:1021E00007F10C07BD4680BC704700BF80B483B0C8
:1021F00000AF78600B46FB70FB78002B06D07B6845
:102200009B6843F400727B689A6005E07B689B687A
:1022100023F400727B689A6007F10C07BD4680BC0E
:10222000704700BF80B483B000AF78607B681B68E4
:1022300023F001027B681A607B684FF000021A608D
:102240007B684FF000025A607B684FF000029A6092
:102250007B684FF00002DA607B684FF000021A6181
:102260007B684FF021025A617A6846F21003C4F28B
:1022700002039A4207D14FF4C043C4F202034FF065
:102280003D029A60EBE07A6846F22803C4F202034A
:102290009A4207D14FF4C043C4F202034FF4746270
:1022A0009A60DCE07A6846F24003C4F202039A4284
:1022B00007D14FF4C043C4F202034FF474129A6082
:1022C000CDE07A6846F25803C4F202039A4207D17D
:1022D0004FF4C043C4F202034FF074629A60BEE050
:1022E0007A6846F27003C4F202039A4209D14FF4AD
:1022F000C043C4F202034FF03D02C2F20002DA60B2
:10230000ADE07A6846F28803C4F202039A4209D12A
:102310004FF4C043C4F202034FF47462C2F20002ED
:10232000DA609CE07A6846F2A003C4F202039A42A3
:1023300009D14FF4C043C4F202034FF00002C2F2CD
:102340003D02DA608BE07A6846F2B803C4F2020319
:102350009A4207D14FF4C043C4F202034FF03D52FA
:10236000DA607CE07A6846F21043C4F202039A42D3
:1023700007D14FF4C843C4F202034FF03D029A6004
:102380006DE07A6846F22843C4F202039A4207D10C
:102390004FF4C843C4F202034FF474629A605EE0E3
:1023A0007A6846F24043C4F202039A4207D14FF4DE
:1023B000C843C4F202034FF474129A604FE07A6883
:1023C00046F25843C4F202039A4207D14FF4C8437D
:1023D000C4F202034FF074629A6040E07A6846F2F9
:1023E0007043C4F202039A4209D14FF4C843C4F2C5
:1023F00002034FF03D02C2F20002DA602FE07A6879
:1024000046F28843C4F202039A4209D14FF4C8430A
:10241000C4F202034FF47462C2F20002DA601EE0FA
:102420007A6846F2A043C4F202039A4209D14FF4FB
:10243000C843C4F202034FF00002C2F23D02DA6068
:102440000DE07A6846F2B843C4F202039A4206D11C
:102450004FF4C843C4F202034FF03D52DA6007F173
:102460000C07BD4680BC704780B485B000AF786073
:1024700039604FF00003FB607B681B68FB60FA6803
:1024800048F23F03CFF21C031340FB603B681A681D
:102490003B68DB681A433B685B691A433B689B698E
:1024A0001A433B68DB691A433B681B6A1A433B6863
:1024B0005B6A1A433B689B6A1A433B685B6B1A432F
:1024C0003B689B6B1343FA681343FB607B68FA68B5
:1024D0001A607B685B69FB60FB6823F00703FB60A5
:1024E0003B68DA6A3B681B6B1343FA681343FB6073
:1024F0007B68FA685A613B681A697B685A603B6876
:102500005A687B689A603B689A687B68DA6007F172
:102510001407BD4680BC704780B483B000AF7860BC
:102520007B684FF000021A607B684FF000025A602F
:102530007B684FF000029A607B684FF00002DA601F
:102540007B684FF000021A617B684FF000025A610D
:102550007B684FF000029A617B684FF00002DA61FD
:102560007B684FF000021A627B684FF000025A62EB
:102570007B684FF000029A627B684FF00002DA62DB
:102580007B684FF000021A637B684FF000025A63C9
:102590007B684FF000029A6307F10C07BD4680BCD0
:1025A000704700BF80B483B000AF78600B46FB700B
:1025B000FB78002B06D07B681B6843F001027B6828
:1025C0001A6005E07B681B6823F001027B681A60D3
:1025D00007F10C07BD4680BC704700BF80B485B0D2
:1025E00000AFF860B9601346FB71BB6803F080036D
:1025F000002B0FD0FB79002B06D0FB685B6943F002
:102600008002FB685A6105E0FB685B6923F0800289
:10261000FB685A61BB68802B15D0FB79002B08D072
:10262000FB681A68BB6803F01E031A43FB681A6054
:1026300009E0FB681A68BB6803F01E036FEA030336
:102640001A40FB681A6007F11407BD4680BC70474A
:1026500080B487B000AF786039604FF00003FB753D
:102660004FF00003FB604FF00003BB607A6846F256
:102670000F43C4F202039A4205D84FF4C043C4F298
:1026800002033B6104E04FF4C843C4F202033B6120
:102690003B6823F0F02323F0C313002B0BD03B68DF
:1026A0004FEAD32303F01E03FB607B681A68FB68C4
:1026B0001340BB6004E07B685B6903F08003BB6090
:1026C0003B6803F00053002B03D03B695B68FB6061
:1026D00002E03B691B68FB60FB6823F0F02323F0FA
:1026E0008213FB60FA683B681340002B06D0BB687E
:1026F000002B03D04FF00103FB7502E04FF0000305
:10270000FB75FB7D184607F11C07BD4680BC704772
:1027100080B485B000AF786039607A6846F20F43C4
:10272000C4F202039A4205D84FF4C043C4F2020334
:10273000FB6004E04FF4C843C4F20203FB603B6853
:1027400003F00053002B07D03B6823F0F02323F065
:102750008213FA68D36006E03B6823F0F02323F08D
:102760008213FA68936007F11407BD4680BC704776
:1027700080B485B000AF78604FF00003FB604FF489
:102780007053C4F20103FB607B689B79002B78D007
:102790004FF47053C4F201034FF47052C4F20102BB
:1027A00011687A6812686FEA02020A401A604FF4F0
:1027B0007053C4F201034FF47052C4F20102516825
:1027C0007A6812686FEA02020A405A607B681B79D5
:1027D000FA68D318FB60FB68FA6811687A681268B7
:1027E0000A431A604FF47053C4F201034FF470525D
:1027F000C4F2010291687A6812686FEA02020A4024
:102800009A604FF47053C4F201034FF47052C4F253
:102810000102D1687A6812686FEA02020A40DA603F
:102820007B685B79102B1AD14FF47053C4F201030B
:102830004FF47052C4F2010291687A6812680A4338
:102840009A604FF47053C4F201034FF47052C4F213
:102850000102D1687A6812680A43DA601FE04FF417
:102860007053C4F20103FB607B685B79FA68D3188C
:10287000FB60FB68FA6811687A6812680A431A609C
:102880000DE07B681B79FA68D318FB60FB68FA6877
:1028900011687A6812686FEA02020A401A6007F14A
:1028A0001407BD4680BC704780B485B000AF786027
:1028B0004FF00003FB734FF47053C4F201035A69E5
:1028C0007B681340002B03D04FF00103FB7302E041
:1028D0004FF00003FB73FB7B184607F11407BD465E
:1028E00080BC704780B483B000AF78604FF4705301
:1028F000C4F201037A685A6107F10C07BD4680BC37
:10290000704700BF80B487B000AF786039604FF087
:1029100000037B614FF000033B614FF00003FB605D
:102920004FF000037B6186E07B694FF0010202FA01
:1029300003F33B613B681A683B691340FB60FA682C
:102940003B699A4273D17B681A687B694FEA4303FB
:102950004FF0030101FA03F36FEA03031A407B68A7
:102960001A607B681A683B681B7919467B694FEAD5
:10297000430301FA03F31A437B681A603B681B792F
:10298000012B03D03B681B79022B34D17B689A68FA
:102990007B694FEA43034FF0030101FA03F36FEA47
:1029A00003031A407B689A607B689A683B685B798E
:1029B00019467B694FEA430301FA03F31A437B6824
:1029C0009A607B685A687B699BB24FF0010101FAFB
:1029D00003F36FEA03031A407B685A607B685A6806
:1029E0003B689B7919467B699BB201FA03F39BB262
:1029F0001A437B685A607B68DA687B699BB24FEA4E
:102A000043034FF0030101FA03F36FEA03031A4093
:102A10007B68DA607B68DA683B68DB7919467B693A
:102A20004FEA430301FA03F31A437B68DA607B69D8
:102A300003F101037B617B690F2B7FF675AF07F113
:102A40001C07BD4680BC704780B483B000AF78607F
:102A50007B684FF6FF721A607B684FF000021A71B4
:102A60007B684FF000025A717B684FF000029A7148
:102A70007B684FF00002DA7107F10C07BD4680BC9D
:102A8000704700BF80B485B000AF78600B467B8094
:102A90004FF00003FB737B681A697B881340002B9F
:102AA00003D04FF00103FB7302E04FF00003FB7310
:102AB000FB7B184607F11407BD4680BC704700BF7A
:102AC00080B483B000AF78600B467B807B687A88E7
:102AD0001A8307F10C07BD4680BC704780B483B0F1
:102AE00000AF78600B467B807B687A885A8307F159
:102AF0000C07BD4680BC704780B485B000AF7860DD
:102B000013460A467A807B704FF00003FB604FF05B
:102B10000003BB607A787B8803F007034FEA8303E6
:102B200002FA03F3FB607B884FEAD3039BB21A4699
:102B30007B884FEAD3039BB219467B6801F10801F9
:102B400053F821107B8803F007034FEA83034FF00B
:102B50000F0000FA03F36FEA030319407B6802F1E8
:102B6000080243F822107B884FEAD3039BB21A462F
:102B70007B6802F1080253F82220FB681343BB6014
:102B80007B884FEAD3039BB21A467B6802F10802A6
:102B9000B96843F8221007F11407BD4680BC70479E
:102BA00080B58AB000AF786039604FF00003FB84D5
:102BB0004FF000037B844FF00403BB844FF4905329
:102BC000C0F27A03FB617B689B88FB84FB8C23F05B
:102BD0003F03FB8407F10C03184600F0C5F97B693D
:102BE000FB61FA694DF68363C4F21B33A3FB021346
:102BF0004FEA93437B84FA8C7B8C1343FB847B6882
:102C0000FA8C9A807B681B889BB223F001039AB2EE
:102C10007B681A804FF00003FB843B681A6848F217
:102C2000A063C0F201039A4218D83B681B684FEAC0
:102C30004303FA69B2FBF3F3BB84BB8C032B02D8CA
:102C40004FF00403BB84FA8CBB8C1343FB847B8C56
:102C500003F101039AB27B681A844BE03B68DA887F
:102C60004BF6FF739A420AD13B681A6813464FEA43
:102C700043039B18FA69B2FBF3F3BB8410E03B6893
:102C80001A6813464FEA83039B184FEA83029B1886
:102C9000FA69B2FBF3F3BB84BB8C43F48043BB847F
:102CA000BB8C4FEA03534FEA1353002B03D1BB8C69
:102CB00043F00103BB84BA8CFB8C13439BB26FEAD5
:102CC00043436FEA5343FB847B8C4FF4967202FBC1
:102CD00003F244F6D353C1F2620383FB02134FEABB
:102CE000A3114FEAE273CB1A9BB203F101039AB22C
:102CF0007B681A847B68FA8C9A837B681B889BB2FA
:102D000043F001039AB27B681A807B681B88FB84BE
:102D1000FB8C23F4816323F00203FB843B689A88D5
:102D20003B685B8913439AB2FB8C1343FB847B683B
:102D3000FA8C1A803B689A893B681B8913439AB2C4
:102D40007B681A8107F12807BD4680BD80B483B037
:102D500000AF78600B46FB70FB78002B08D07B68D7
:102D60001B889BB243F001039AB27B681A8007E08C
:102D70007B681B889BB223F001039AB27B681A80A0
:102D800007F10C07BD4680BC704700BF80B483B01C
:102D900000AF78600B46FB70FB78002B08D07B6897
:102DA0001B889BB243F480739AB27B681A8007E059
:102DB0007B681B889BB223F480739AB27B681A806D
:102DC00007F10C07BD4680BC704700BF80B483B0DC
:102DD00000AF78600B46FB70FB78002B08D07B6857
:102DE0001B889BB243F400739AB27B681A8007E099
:102DF0007B681B889BB223F400739AB27B681A80AD
:102E000007F10C07BD4680BC704700BF80B483B09B
:102E100000AF786013460A46FA70BB70BB78002B8F
:102E200004D0FB7843F00103FB7003E0FB7823F050
:102E30000103FB70FB789AB27B681A8207F10C07DA
:102E4000BD4680BC704700BF80B483B000AF7860DF
:102E50000B46FB70FB789AB27B681A8207F10C076D
:102E6000BD4680BC704700BF80B487B000AF7860BB
:102E700039604FF000033B614FF00003FB604FF0FF
:102E80000003BB604FF00003FB757B689B8A9BB21D
:102E9000FB607B681B8B9BB2BB60BB684FEA034344
:102EA000BB60FA68BB68134323F07F433B613A6918
:102EB0003B681A403B689A4203D14FF00103FB750F
:102EC00002E04FF00003FB75FB7D184607F11C077D
:102ED000BD4680BC704700BF80B483B000AF0346DE
:102EE000FB804FF44053C4F20003FA881A6007F1E4
:102EF0000C07BD4680BC704780B483B000AF03466A
:102F0000FB714FF44053C4F20003FA795A6007F1A1
:102F10000C07BD4680BC704780B483B000AF034649
:102F2000FB804FF44053C4F20003FA889A6007F123
:102F30000C07BD4680BC704780B400AF4FF44053CF
:102F4000C4F200034AF6AA221A60BD4680BC70474C
:102F500080B400AF4FF44053C4F200034CF6CC42AF
:102F60001A60BD4680BC704780B489B000AF7860FD
:102F70004FF00003BB614FF000037B614FF0000393
:102F8000FB614FF002033B614FF00003FB604FF029
:102F90000203BB604FF46053C4F202039B6803F06A
:102FA0000C03BB61BB69042B0AD0082B0FD0002B8C
:102FB00060D17A684FF41053C0F2F403136060E0FC
:102FC0007A684FF49053C0F27A03136059E04FF4DB
:102FD0006053C4F202035B6803F480034FEA935327
:102FE000FB604FF46053C4F202035B6803F03F03DD
:102FF000BB60FB68002B14D04FF49053C0F27A03EF
:10300000BA68B3FBF2F24FF46053C4F2020359689A
:1030100047F6C0730B404FEA931303FB02F3FB61C7
:1030200013E04FF41053C0F2F403BA68B3FBF2F2AA
:103030004FF46053C4F20203596847F6C0730B4063
:103040004FEA931303FB02F3FB614FF46053C4F2A6
:1030500002035B6803F440334FEA134303F10103B7
:103060004FEA43033B61FA693B69B2FBF3F27B68C9
:103070001A6006E07A684FF41053C0F2F40313604C
:1030800000BF4FF46053C4F202039B6803F0F003E7
:10309000BB61BB694FEA1313BB6140F23003C2F25C
:1030A0000003BA699B181B78DBB27B617B681A68E6
:1030B0007B6922FA03F27B685A604FF46053C4F2D2
:1030C00002039B6803F4E053BB61BB694FEA93239F
:1030D000BB6140F23003C2F20003BA699B181B784F
:1030E000DBB27B617B685A687B6922FA03F27B68FA
:1030F0009A604FF46053C4F202039B6803F4604388
:10310000BB61BB694FEA5333BB6140F23003C2F28B
:103110000003BA699B181B78DBB27B617B685A6835
:103120007B6922FA03F27B68DA6007F12407BD4667
:1031300080BC704780B483B000AF78600B46FB70F2
:10314000FB78002B0CD04FF46053C4F202034FF411
:103150006052C4F20202116B7A680A431A630DE0EE
:103160004FF46053C4F202034FF46052C4F20202FF
:10317000116B7A686FEA02020A401A6307F10C07C2
:10318000BD4680BC704700BF80B483B000AF78609C
:103190000B46FB70FB78002B0CD04FF46053C4F24D
:1031A00002034FF46052C4F20202116C7A680A43BF
:1031B0001A640DE04FF46053C4F202034FF46052FE
:1031C000C4F20202116C7A686FEA02020A401A64C1
:1031D00007F10C07BD4680BC704700BF80B483B0C8
:1031E00000AF78600B46FB70FB78002B0CD04FF4DF
:1031F0006053C4F202034FF46052C4F20202516CF5
:103200007A680A435A640DE04FF46053C4F2020333
:103210004FF46052C4F20202516C7A686FEA020203
:103220000A405A6407F10C07BD4680BC704700BFD6
:1032300080B483B000AF78600B46FB70FB78002B46
:103240000CD04FF46053C4F202034FF46052C4F246
:103250000202516A7A680A435A620DE04FF46053E1
:10326000C4F202034FF46052C4F20202516A7A6857
:103270006FEA02020A405A6207F10C07BD4680BCA1
:10328000704700BF90B484B000AF02460B46FA719D
:10329000BB714FF00003FB60BB7903F003034FEAFF
:1032A00083034FF00F0202FA03F3FB604FF4605305
:1032B000C4F20103BA794FEA9202D2B210464FF437
:1032C0006052C4F20102B9794FEA9101C9B201F129
:1032D000020152F82110FA686FEA0202114000F16F
:1032E000020243F822104FF46053C4F20103BA798A
:1032F0004FEA9202D2B210464FF46052C4F2010279
:10330000B9794FEA9101C9B201F1020152F82110D5
:10331000FC79BA7902F003024FEA820204FA02F25F
:10332000114300F1020243F8221007F11007BD46D5
:1033300090BC704780B485B000AF786039604FF0C2
:103340000003FB817B681B88FB817A684FF00003D8
:10335000C4F201039A421FD07A684FF48063C4F22A
:1033600001039A4218D07B68B3F1804F14D07A6879
:103370004FF48063C4F200039A420DD07A684FF490
:103380000063C4F200039A4206D07A684FF44063A7
:10339000C4F200039A4208D1FB8923F07003FB8139
:1033A0003B685A88FB891343FB817A684FF480534A
:1033B000C4F200039A420FD07A684FF4A053C4F2CB
:1033C00000039A4208D0FB8923F44073FB813B68D9
:1033D0001A89FB891343FB817B68FA891A803B6851
:1033E0005A687B68DA623B681A887B681A857A6853
:1033F0004FF00003C4F201039A4206D07A684FF4FA
:103400008063C4F201039A4204D13B689B7A1A4656
:103410007B681A867B684FF001029A8207F11407D5
:10342000BD4680BC704700BF80B483B000AF7860F9
:1034300039607B683A685A6207F10C07BD4680BC68
:10344000704700BF80B483B000AF786039607B689C
:103450003A68DA6207F10C07BD4680BC704700BFCE
:1034600080B483B000AF78607B685B6A184607F170
:103470000C07BD4680BC704780B483B000AF786055
:103480000B46FB70FB78002B08D07B681B889BB237
:1034900043F001039AB27B681A8007E07B681B88BF
:1034A0009BB223F001039AB27B681A8007F10C07E4
:1034B000BD4680BC704700BF80B483B000AF786069
:1034C00013460A467A807B707B78002B08D07B6895
:1034D0009B899AB27B8813439AB27B689A810AE0EF
:1034E0007B689B899AB27B886FEA03039BB2134087
:1034F0009AB27B689A8107F10C07BD4680BC704781
:1035000080B485B000AF78600B467B804FF000033D
:10351000FB734FF00003BB814FF000037B817B689E
:103520001B8A9AB27B881340BB817B689B899AB2C5
:103530007B8813407B81BB89002B06D07B89002BC5
:1035400003D04FF00103FB7302E04FF00003FB7365
:10355000FB7B184607F11407BD4680BC704700BFCF
:1035600080B483B000AF78600B467B807B886FEAC5
:1035700003039AB27B681A8207F10C07BD4680BC30
:10358000704700BF80B58AB000AF786039604FF0F7
:1035900000037B624FF000033B624FF00003FB61CE
:1035A0004FF00003BB617B681B8A9BB27B627B6A26
:1035B00023F440537B623B68DB887A6A13437B6267
:1035C0007B6A9AB27B681A827B689B899BB27B621A
:1035D0007B6A23F4B05323F00C037B623B689A8828
:1035E0003B681B8913439AB23B685B8913439BB2C8
:1035F0007A6A13437B627B6A9AB27B689A817B68A2
:103600009B8A9BB27B627B6A23F440737B623B683C
:103610009B897A6A13437B627B6A9AB27B689A823F
:1036200007F108031846FFF79FFC7A684FF48053B0
:10363000C4F201039A4206D07A684FF4A053C4F250
:1036400001039A4202D17B693B6201E03B693B6224
:103650007B689B899BB29BB21BB2002B0FDA3A6A44
:1036600013464FEA83039B184FEA83029A183B687C
:103670001B684FEA4303B2FBF3F3FB610EE03A6AC7
:1036800013464FEA83039B184FEA83029A183B685C
:103690001B684FEA8303B2FBF3F3FB61FA6948F25C
:1036A0001F53C5F2EB13A3FB02134FEA53134FEA68
:1036B00003137B627B6A4FEA13134FF0640202FB31
:1036C00003F3FA69D31ABB617B689B899BB29BB2F7
:1036D0001BB2002B12DABB694FEAC30303F13202BB
:1036E00048F21F53C5F2EB13A3FB02134FEA531327
:1036F00003F007037A6A13437B6211E0BB694FEA68
:10370000031303F1320248F21F53C5F2EB13A3FB7C
:1037100002134FEA531303F00F037A6A13437B62D9
:103720007B6A9AB27B681A8107F12807BD4680BD83
:1037300080B483B000AF78600B46FB70FB78002B41
:1037400008D07B689B899BB243F400539AB27B6894
:103750009A8107E07B689B899BB223F400539AB25D
:103760007B689A8107F10C07BD4680BC704700BF9B
:1037700080B483B000AF78607B689B889BB24FEACF
:10378000C3534FEAD3539BB2184607F10C07BD460B
:1037900080BC704780B487B000AF786013460A469B
:1037A0007A807B704FF000033B614FF00003FB60B9
:1037B0004FF00003BB604FF000037B617B687B61CF
:1037C0007B88DBB24FEA5313DBB23B617B8803F0AB
:1037D0001F03FB60FB684FF0010202FA03F3BB60BA
:1037E0003B69012B04D17B6903F10C037B610BE086
:1037F0003B69022B04D17B6903F110037B6103E079
:103800007B6903F114037B617B78002B06D07B6915
:103810007A691168BA680A431A6007E07B697A69B5
:103820001168BA686FEA02020A401A6007F11C07C1
:10383000BD4680BC704700BF80B500AF4FF46053F9
:10384000C4F202034FF46052C4F20202126842F062
:1038500001021A604FF46053C4F202034FF00002F9
:103860009A604FF46053C4F202034FF46052C4F202
:103870000202126822F0847222F480321A604FF43D
:103880006053C4F2020343F21002C2F200425A60D3
:103890004FF46053C4F202034FF46052C4F20202C8
:1038A000126822F480221A604FF46053C4F20203BB
:1038B0004FF00002DA6000F009F84FF46D43CEF2E9
:1038C00000034FF000629A6080BD00BF80B483B0F7
:1038D00000AF4FF000037B604FF000033B604FF4FC
:1038E0006053C4F202034FF46052C4F20202126841
:1038F00042F480321A604FF46053C4F202031B6832
:1039000003F400333B607B6803F101037B603B6899
:10391000002B03D17B68B3F5A04FECD14FF460537B
:10392000C4F202031B6803F40033002B03D04FF0F2
:1039300001033B6002E04FF000033B603B68012B5A
:1039400040F082804FF46053C4F202034FF460529F
:10395000C4F20202126C42F080521A644FF4E04347
:10396000C4F200034FF4E042C4F20002126842F4D1
:1039700040421A604FF46053C4F202034FF46052A5
:10398000C4F2020292689A604FF46053C4F20203D8
:103990004FF46052C4F20202926842F400429A600C
:1039A0004FF46053C4F202034FF46052C4F20202B7
:1039B000926842F4A0529A604FF46053C4F202033A
:1039C00045F20842C0F240725A604FF46053C4F2AC
:1039D00002034FF46052C4F20202126842F0807295
:1039E0001A6000BF4FF46053C4F202031B6803F077
:1039F0000073002BF6D04FF47053C4F2020340F270
:103A000005621A604FF46053C4F202034FF460522F
:103A1000C4F20202926822F003029A604FF46053EB
:103A2000C4F202034FF46052C4F20202926842F000
:103A300002029A6000BF4FF46053C4F202039B6815
:103A400003F00C03082BF6D107F10C07BD4680BC30
:103A5000704700BF81F0004102E000BF83F00043E7
:103A600030B54FEA41044FEA430594EA050F08BF19
:103A700090EA020F1FBF54EA000C55EA020C7FEADD
:103A8000645C7FEA655C00F0E2804FEA5454D4EB5A
:103A90005555B8BF6D420CDD2C4480EA020281EA24
:103AA000030382EA000083EA010180EA020281EA5C
:103AB0000303362D88BF30BD11F0004F4FEA0131AE
:103AC0004FF4801C4CEA113102D0404261EB4101BD
:103AD00013F0004F4FEA03334CEA133302D0524243
:103AE00063EB430394EA050F00F0A780A4F10104FF
:103AF000D5F1200E0DDB02FA0EFC22FA05F2801839
:103B000041F1000103FA0EF2801843FA05F359411E
:103B10000EE0A5F120050EF1200E012A03FA0EFC9D
:103B200028BF4CF0020C43FA05F3C01851EBE371C7
:103B300001F0004507D54FF0000EDCF1000C7EEBE4
:103B400000006EEB0101B1F5801F1BD3B1F5001F22
:103B50000CD349085FEA30004FEA3C0C04F1010441
:103B60004FEA445212F5800F80F09A80BCF1004F6A
:103B700008BF5FEA500C50F1000041EB045141EAEC
:103B8000050130BD5FEA4C0C404141EB010111F4ED
:103B9000801FA4F10104E9D191F0000F04BF014698
:103BA0000020B1FA81F308BF2033A3F10B03B3F176
:103BB00020020CDA0C3208DD02F1140CC2F10C0206
:103BC00001FA0CF021FA02F10CE002F11402D8BF64
:103BD000C2F1200C01FA02F120FA0CFCDCBF41EA30
:103BE0000C019040E41AA2BF01EB0451294330BDFF
:103BF0006FEA04041F3C1CDA0C340EDC04F11404DC
:103C0000C4F1200220FA04F001FA02F340EA0300B2
:103C100021FA04F345EA030130BDC4F10C04C4F1F8
:103C2000200220FA02F001FA04F340EA03002946D8
:103C300030BD21FA04F0294630BD94F0000F83F422
:103C4000801306BF81F480110134013D4EE77FEA05
:103C5000645C18BF7FEA655C29D094EA050F08BF51
:103C600090EA020F05D054EA000C04BF1946104632
:103C700030BD91EA030F1EBF0021002030BD5FEA76
:103C8000545C05D14000494128BF41F0004130BD9E
:103C900014F580043CBF01F5801130BD01F00045F2
:103CA00045F0FE4141F470014FF0000030BD7FEA65
:103CB000645C1ABF194610467FEA655C1CBF0B4660
:103CC000024650EA013406BF52EA033591EA030F77
:103CD00041F4002130BD00BF90F0000F04BF00216F
:103CE000704730B54FF4806404F132044FF00005A2
:103CF0004FF0000150E700BF90F0000F04BF00211B
:103D0000704730B54FF4806404F1320410F0004580
:103D100048BF40424FF000013EE700BF42004FEA7B
:103D2000E2014FEA31014FEA02701FBF12F07F43F8
:103D300093F07F4F81F06051704792F0000F14BFF5
:103D400093F07F4F704730B54FF4607401F0004539
:103D500021F0004120E700BF50EA010208BF704790
:103D600030B54FF000050AE050EA010208BF704785
:103D700030B511F0004502D5404261EB41014FF4EE
:103D8000806404F132045FEA915C3FF4DCAE4FF0F2
:103D900003025FEADC0C18BF03325FEADC0C18BFD9
:103DA000033202EBDC02C2F1200300FA03FC20FA2A
:103DB00002F001FA03FE40EA0E0021FA02F1144477
:103DC000C1E600BF70B54FF0FF0C4CF4E06C1CEA8C
:103DD00011541DBF1CEA135594EA0C0F95EA0C0F01
:103DE00000F0DEF82C4481EA030621EA4C5123EA74
:103DF0004C5350EA013518BF52EA033541F48011A3
:103E000043F4801338D0A0FB02CE4FF00005E1FB55
:103E100002E506F00042E0FB03E54FF00006E1FB9F
:103E200003569CF0000F18BF4EF0010EA4F1FF04E2
:103E3000B6F5007F64F5407404D25FEA4E0E6D4122
:103E400046EB060642EAC62141EA55514FEAC52033
:103E500040EA5E504FEACE2EB4F1FD0C88BFBCF5AF
:103E6000E06F1ED8BEF1004F08BF5FEA500E50F160
:103E7000000041EB045170BD06F0004646EA010126
:103E800040EA020081EA0301B4EB5C04C2BFD4EB58
:103E90000C0541EA045170BD41F480114FF0000E51
:103EA000013C00F3AB8014F1360FDEBF002001F0BF
:103EB000004170BDC4F10004203C35DA0C341BDC39
:103EC00004F11404C4F1200500FA05F320FA04F00B
:103ED00001FA05F240EA020001F0004221F000413F
:103EE00010EBD37021FA04F642EB06015EEA430EB2
:103EF00008BF20EAD37070BDC4F10C04C4F12005E2
:103F000000FA04F320FA05F001FA04F240EA020094
:103F100001F0004110EBD37041F100015EEA430E65
:103F200008BF20EAD37070BDC4F1200500FA05F285
:103F30004EEA020E20FA04F301FA05F243EA020304
:103F400021FA04F001F0004121FA04F220EA020013
:103F500000EBD3705EEA430E08BF20EAD37070BD59
:103F600094F0000F0FD101F00046400041EB010139
:103F700011F4801F08BF013CF7D041EA060195F01B
:103F8000000F18BF704703F00046520043EB0303D5
:103F900013F4801F08BF013DF7D043EA06037047C2
:103FA00094EA0C0F0CEA135518BF95EA0C0F0CD0CD
:103FB00050EA410618BF52EA4306D1D181EA030113
:103FC00001F000414FF0000070BD50EA410606BF0D
:103FD0001046194652EA430619D094EA0C0F02D152
:103FE00050EA013613D195EA0C0F05D152EA033697
:103FF0001CBF104619460AD181EA030101F00041B5
:1040000041F0FE4141F470014FF0000070BD41F0FD
:10401000FE4141F4780170BD70B54FF0FF0C4CF4D7
:10402000E06C1CEA11541DBF1CEA135594EA0C0FF6
:1040300095EA0C0F00F0A7F8A4EB050481EA030E43
:1040400052EA03354FEA013100F088804FEA03332A
:104050004FF0805545EA131343EA12634FEA0222F8
:1040600045EA111545EA10654FEA00260EF00041B9
:104070009D4208BF964244F1FD0404F5407402D20B
:104080005B084FEA3202B61A65EB03055B084FEA9C
:1040900032024FF480104FF4002CB6EB020E75EB99
:1040A000030E22BFB61A754640EA0C005B084FEAC1
:1040B0003202B6EB020E75EB030E22BFB61A75463E
:1040C00040EA5C005B084FEA3202B6EB020E75EB89
:1040D000030E22BFB61A754640EA9C005B084FEA01
:1040E0003202B6EB020E75EB030E22BFB61A75460E
:1040F00040EADC0055EA060E18D04FEA051545EAFD
:1041000016754FEA06164FEAC30343EA52734FEAA5
:10411000C2025FEA1C1CC0D111F4801F0BD141EA1E
:1041200000014FF000004FF0004CB6E711F4801F83
:1041300004BF01430020B4F1FD0C88BFBCF5E06F63
:104140003FF6AFAEB5EB030C04BFB6EB020C5FEA73
:10415000500C50F1000041EB045170BD0EF0004EC8
:104160004EEA113114EB5C04C2BFD4EB0C0541EAFA
:10417000045170BD41F480114FF0000E013C90E6F7
:1041800045EA060E8DE60CEA135594EA0C0F08BFBB
:1041900095EA0C0F3FF43BAF94EA0C0F0AD150EABA
:1041A00001347FF434AF95EA0C0F7FF425AF10464D
:1041B00019462CE795EA0C0F06D152EA03353FF475
:1041C000FDAE1046194622E750EA410618BF52EAF2
:1041D00043067FF4C5AE50EA41047FF40DAF52EAC6
:1041E00043057FF4EBAE12E74FF0FF3C06E000BF63
:1041F0004FF0010C02E000BF4FF0010C4DF804CD70
:104200004FEA410C7FEA6C5C4FEA430C18BF7FEA2F
:104210006C5C1BD001B050EA410C0CBF52EA430C5D
:1042200091EA030F02BF90EA020F0020704710F1DD
:10423000000F91EA030F58BF994208BF90422CBF6C
:10424000D8176FEAE37040F0010070474FEA410C65
:104250007FEA6C5C02D150EA013C07D14FEA430C83
:104260007FEA6C5CD6D152EA033CD3D05DF8040BF4
:10427000704700BF8446104662468C461946634626
:1042800000E000BF01B5FFF7B7FF002848BF10F1FD
:10429000000F01BD4DF808EDFFF7F4FF0CBF012042
:1042A00000205DF808FB00BF4DF808EDFFF7EAFFBE
:1042B00034BF012000205DF808FB00BF4DF808ED79
:1042C000FFF7E0FF94BF012000205DF808FB00BF6E
:1042D0004DF808EDFFF7CEFF94BF012000205DF8F8
:1042E00008FB00BF4DF808EDFFF7C4FF34BF012005
:1042F00000205DF808FB00BF4A0011D212F5001241
:1043000011D20DD56FF47873B3EB62520ED44FEA2D
:10431000C12343F0004343EA505323FA02F07047AD
:104320004FF00000704750EA013002D14FF0FF30EB
:1043300070474FF0000070474FEA4102B2F1E0438E
:1043400024BFB3F5001CDCF1FE5C0DD901F0004C7C
:104350004FEAC0024CEA5070B2F1004F40EB8300CC
:1043600008BF20F00100704711F0804F21D113F1F8
:104370003872BCBF01F00040704741F480114FEA31
:104380005252C2F11802C2F1200C10FA0CF320FABA
:1043900002F018BF40F001004FEAC1234FEAD323D7
:1043A00003FA0CFC40EA0C0023FA02F34FEA430341
:1043B000CCE77FEA625307D150EA01331EBF4FF0CA
:1043C000FE4040F44000704701F0004040F0FE40E5
:1043D00040F40000704700BFF0B48407034600F0CB
:1043E0008E80541E002A00F08880E507CEB211D4DA
:1043F0001A46671E02F8016B1346154692070FD046
:10440000002C7AD003F8016B9A073C461D4607D072
:10441000013CEDE7034603F8016B9A071D46F7D10F
:10442000032C52D9CEB246EA06270F2C47EA07439F
:104430002DD9A4F1100217460F2FC2F300162B60DE
:104440006B60AB60EB6005F1100216D93EB1103F16
:10445000136053609360D36010320F2F0DD9203F4B
:1044600002F11006136053609360D36013615361CF
:104470009361D36120320F2FF1D8A4F1100222F002
:104480000F0204F00F041032032C15441DD9271F0E
:104490003E462A46032E42F8043BC7F380070DD957
:1044A00027B1043E032E42F8043B07D91746083EC5
:1044B00047F8043B53603A1D032EF7D8231F23F01F
:1044C0000302131D04F00304ED18B4B12B46C9B266
:1044D00003F8011B2C19ED436219A34202F00105F8
:1044E0000BD01DB103F8011BA34206D01A4602F8F7
:1044F000011B5970531CA342F8D1F0BC704705460C
:0845000014468DE79001002034
:10450800000000000000F03F000000000000F0BFC5
:10451800000000000000F03F000000000000F03F35
:10452800000000000000F03F004000008300000091
:104538000000000001020304010203040607080941
:0400000508000000EF
:00000001FF
