:020000040800F2
:10000000E8090020651E0008D11E0008D11E000866
:10001000D11E0008D11E0008D11E000800000000FB
:10002000000000000000000000000000D11E0008D9
:10003000D11E000800000000D11E0008D11E0008DB
:10004000D11E0008D11E0008D11E0008D11E0008D4
:10005000D11E0008D11E00082D1300089D130008B2
:10006000F11300080914000851150008D11E0008FA
:10007000D11E0008D11E0008D11E0008D11E0008A4
:10008000D11E0008D11E0008D11E0008D11E000894
:10009000D11E0008D11E0008D11E0008A9150008B5
:1000A0006D140008B914000805150008D11E0008D9
:1000B000D11E0008A91A0008F1120008D11E00087C
:1000C000D11E0008D11E0008D11E0008D11E000854
:1000D000D11E0008051E0008D11E0008D11E000810
:1000E000D11E0008D11E0008D11E0008D11E000834
:1000F000D11E0008D11E000821140008D11E0008DE
:10010000D11E0008D11E0008D11E0008D11E000813
:10011000D11E0008D11E0008D11E0008D11E000803
:10012000D11E0008D11E0008D11E0008D11E0008F3
:10013000D1040008D11E0008D11E0008D11E0008FD
:10014000D11E0008D11E0008D11E0008D11E0008D3
:10015000D11E0008D11E0008D11E0008D11E0008C3
:10016000D11E0008D11E0008D11E0008D11E0008B3
:10017000D11E0008D11E0008D11E0008D11E0008A3
:10018000D11E0008D11E000880B500AF40F2E40087
:10019000C2F2000002F0CEFC40F2C400C2F2000045
:1001A00001F006FF40F22C10C2F2000001F054FFF3
:1001B00040F2F000C2F2000002F024FA4FF4807026
:1001C0004FF0010103F0AEF84FF004004FF00101D1
:1001D00003F054F84FF480004FF0010103F04EF8A3
:1001E00040F2E403C2F200034FF00F021A6040F243
:1001F000E403C2F200034FF003021A7140F2E40379
:10020000C2F200034FF00002DA714FF40060C4F252
:10021000020040F2E401C2F2000102F0E9FB46F202
:100220007040C4F2020002F073F840F2F003C2F230
:1002300000034FF000021A6040F2F003C2F2000324
:1002400042F24C02C4F201025A6040F2DC02C2F2F5
:10025000000240F2F003C2F200039A6040F2F003A1
:10026000C2F200034FF00002DA6040F2F003C2F283
:1002700000034FF004021A6140F2F003C2F20003DF
:100280004FF000025A6140F2F003C2F200034FF453
:1002900080629A6140F2F003C2F200034FF4006200
:1002A000DA6140F2F003C2F200034FF400521A6226
:1002B00040F2F003C2F200034FF480725A6240F23F
:1002C000F003C2F200034FF400329A6240F2F003EE
:1002D000C2F200034FF00002DA6240F2F003C2F211
:1002E00000034FF001021A6340F2F003C2F2000370
:1002F0004FF000025A6340F2F003C2F200034FF0E5
:1003000000029A6346F27040C4F2020040F2F0012B
:10031000C2F2000102F01EF946F27040C4F202007F
:100320004FF010014FF0010202F0CEF940F2EC0361
:10033000C2F200034FF03C021A7040F2EC03C2F22A
:1003400000034FF000025A7040F2EC03C2F20003C7
:100350004FF003029A7040F2EC03C2F200034FF038
:100360000102DA7040F2EC00C2F2000001F076FA0D
:1003700046F27040C4F202004FF0010102F088F929
:1003800001F0AAFD40F2C403C2F200034FF00002E4
:100390001A6140F2C403C2F200034FF000021A6077
:1003A00040F2C403C2F200034FF001025A7140F25E
:1003B000C403C2F200034FF00002DA6040F2C4034B
:1003C000C2F200034FF004021A7540F2C403C2F2F5
:1003D00000034FF001021A714FF40050C4F2010003
:1003E00040F2C401C2F2000101F086FD40F22C137C
:1003F000C2F200034FF000021A6040F22C13C2F266
:1004000000034FF000025A6040F22C13C2F20003C6
:100410004FF00002DA6040F22C13C2F200034FF0FA
:1004200000029A6040F22C10C2F2000001F0E6FDDA
:100430004FF40050C4F201004FF00A014FF00102E6
:100440004FF0070301F03EFE4FF40050C4F20100EC
:100450004FF00B014FF002024FF0070301F032FEA4
:100460004FF40050C4F201004FF00C014FF00302B2
:100470004FF0070301F026FE4FF40050C4F20100D4
:100480004FF00D014FF004024FF0070301F01AFE88
:100490004FF40050C4F201004FF0010101F01CFFC5
:1004A0004FF40050C4F201004FF0010101F0F8FEDA
:1004B0004FF40050C4F201004FF0010101F0E6FDDD
:1004C0004FF40050C4F2010001F0DAFE80BD00BF1D
:1004D00080B500AF46F27040C4F2020048F220013D
:1004E000C2F2000102F02AF90346002B2BD040F2A1
:1004F000DC03C2F200031B881A4640F25003C2F22A
:1005000000031A6040F2DC03C2F200035B881A4663
:1005100040F25003C2F200035A6040F2DC03C2F220
:100520000003DB881A4640F25003C2F200039A60CF
:1005300040F2DC03C2F200031B891A4640F250036A
:10054000C2F20003DA6046F27040C4F202004FF0DB
:100550002001C2F2000102F051F980BD80B500AF68
:100560004FF400104FF0010102F0B2FE4FF0020014
:100570004FF0010102F082FE40F2E403C2F20003F8
:100580004FF440721A6040F2E403C2F200034FF0ED
:1005900002021A7140F2E403C2F200034FF00002BB
:1005A0005A7140F2E403C2F200034FF001029A7163
:1005B00040F2E403C2F200034FF00102DA714FF49B
:1005C0008060C4F2020040F2E401C2F2000102F0D5
:1005D0000FFA4FF48060C4F202004FF008014FF0B0
:1005E000040202F0FFFA4FF48060C4F202004FF000
:1005F00009014FF0040202F0F5FA40F24C13C2F286
:10060000000348F2A062C0F201021A6040F24C13EB
:10061000C2F200034FF000029A8040F24C13C2F283
:1006200000034BF6FF72DA8040F24C13C2F2000373
:100630004FF000021A8140F24C13C2F200034FF453
:1006400080625A8140F24C13C2F200034FF48042A0
:100650009A814FF4A840C4F2000040F24C11C2F25B
:10066000000102F013FB4FF4A840C4F200004FF069
:10067000010102F0E1FB4FF004004FF4FA7100F0C9
:1006800077FA80BD90B585B000AF0B463A60024660
:10069000FA71BB714FF4A840C4F200004FF00101A1
:1006A00002F0EAFB00BF4FF4A840C4F200004FF094
:1006B0000101C0F2030102F07BFC0346002BF2D0E3
:1006C0004FF4A840C4F200004FF0D0014FF00002F8
:1006D00002F012FC00BF4FF4A840C4F200004FF03B
:1006E0008201C0F2070102F063FC0346002BF2D046
:1006F000FB794FF4A840C4F20000194602F03AFC1E
:1007000000BF4FF4A840C4F200004FF08401C0F2D3
:10071000070102F04DFC0346002BF2D04FF4A84035
:10072000C4F200004FF0010102F0A6FB00BF4FF43D
:10073000A840C4F200004FF00101C0F2030102F032
:1007400037FC0346002BF2D04FF4A840C4F200005F
:100750004FF0D0014FF0010202F0CEFB00BF4FF48A
:10076000A840C4F200004FF00201C0F2030102F001
:100770001FFC0346002BF2D04FF00003FB604FF04C
:100780000003FB6030E0BA79FB689A420FD14FF466
:10079000A840C4F200004FF0000102F0CBFB4FF480
:1007A000A840C4F200004FF0010102F085FB00BF39
:1007B0004FF4A840C4F200004FF04001C0F2030122
:1007C00002F0F6FB0346002BF2D0FB683A68D4181F
:1007D0004FF4A840C4F2000002F0DCFB0346237093
:1007E000FB6803F10103FB60BA79FB689A42CADA3D
:1007F0004FF4A840C4F200004FF0010102F09AFB50
:1008000007F11407BD4690BD80B582B000AF024627
:100810000B46FA71BB714FF4A840C4F200004FF0D0
:10082000010102F029FB00BF4FF4A840C4F2000010
:100830004FF00101C0F2030102F0BAFB0346002BA6
:10084000F2D04FF4A840C4F200004FF0D0014FF0B6
:10085000000202F051FB00BF4FF4A840C4F20000B8
:100860004FF08201C0F2070102F0A2FB0346002B09
:10087000F2D04FF4A840C4F200004FF0010102F0A2
:10088000DBFAFB794FF4A840C4F20000194602F0ED
:1008900071FB00BF4FF4A840C4F200004FF0840188
:1008A000C0F2070102F084FB0346002BF2D0BB79B3
:1008B0004FF4A840C4F20000194602F05BFB00BFF1
:1008C0004FF4A840C4F200004FF08401C0F20701C9
:1008D00002F06EFB0346002BF2D04FF4A840C4F2A6
:1008E00000004FF0010102F0E7FA07F10807BD46EA
:1008F00080BD00BF0000000098B500AF4FF03B0086
:100900004FF00E0140F23C12C2F20002FFF7BAFEB5
:1009100040F23C13C2F200031B784FEA03239AB261
:1009200040F23C13C2F200035B7813439BB21BB24C
:10093000184603F007FE044640F20003C2F200032B
:100940001B68184603F0FEFD03462046194603F0D7
:1009500001FF03461A4640F26003C2F200031A6028
:1009600040F23C13C2F200039B784FEA03239AB291
:1009700040F23C13C2F20003DB7813439BB21BB27C
:10098000184603F0DFFD044640F20003C2F2000304
:100990001B68184603F0D6FD03462046194603F0AF
:1009A000D9FE03461A4640F26003C2F200035A60C1
:1009B00040F23C13C2F200031B794FEA03239AB2C0
:1009C00040F23C13C2F200035B7913439BB21BB2AB
:1009D000184603F0B7FD044640F20003C2F20003DC
:1009E0001B68184603F0AEFD03462046194603F087
:1009F000B1FE03461A4640F26003C2F200039A6059
:100A000040F23C13C2F200039B794FEA03239AB2EF
:100A100040F23C13C2F20003DB7913439BB21BB2DA
:100A2000184603F08FFD0346184603F01BFA0246F2
:100A30000B46104619464CA3D3E9002303F0B4F843
:100A400002460B46104619464FF000024FF4804311
:100A5000C4F2750303F084FB02460B4610461946A8
:100A600003F066FC024640F26003C2F200039A61A2
:100A700040F23C13C2F200031B7A4FEA03239AB2FE
:100A800040F23C13C2F200035B7A13439BB21BB2E9
:100A9000184603F057FD044640F20403C2F2000377
:100AA0001B68184603F04EFD03462046194603F026
:100AB00051FE03461A4640F26003C2F20003DA60B8
:100AC00040F23C13C2F200039B7A4FEA03239AB22E
:100AD00040F23C13C2F20003DB7A13439BB21BB219
:100AE000184603F02FFD044640F20403C2F200034F
:100AF0001B68184603F026FD03462046194603F0FE
:100B000029FE03461A4640F26003C2F200031A614E
:100B100040F23C13C2F200031B7B4FEA03239AB25C
:100B200040F23C13C2F200035B7B13439BB21BB247
:100B3000184603F007FD044640F20403C2F2000326
:100B40001B68184603F0FEFC03462046194603F0D6
:100B500001FE03461A4640F26003C2F200035A61E6
:100B600098BD00BFAFF3008000000000003EC84009
:100B700080B582B000AF786039607B68042B0ED1FD
:100B800040F28003C2F200034FF008021A6040F204
:100B90000003C2F200034FF400521A6031E07B6898
:100BA000082B0ED140F28003C2F200034FF0100276
:100BB0001A6040F20003C2F200034FF480521A6040
:100BC0001FE07B68102B0ED140F28003C2F20003BD
:100BD0004FF018021A6040F20003C2F200034FF413
:100BE00000621A600DE040F28003C2F200034FF091
:100BF00000021A6040F20003C2F200034FF4804288
:100C00001A603B68B3F5FA7F0ED140F28403C2F25A
:100C100000034FF008021A6040F20403C2F200031E
:100C20004FF041021A6033E03B68B3F57A7F0ED192
:100C300040F28403C2F200034FF010021A6040F247
:100C40000403C2F200034FF020021A6020E03B6868
:100C5000B3F5FA6F0ED140F28403C2F200034FF0F5
:100C600018021A6040F20403C2F200034FF01002AF
:100C70001A600DE040F28403C2F200034FF000025C
:100C80001A6040F20403C2F200034FF083021A60BC
:100C90004FF01A004FF00001FFF7B6FD40F280035D
:100CA000C2F200031B68DBB24FF01C001946FFF7CD
:100CB000ABFD40F28403C2F200031B68DBB24FF0CD
:100CC0001B001946FFF7A0FD4FF06B004FF000012D
:100CD000FFF79AFD07F10807BD4680BD80B500AF5C
:100CE0004FF001004FF0010102F0C8FA4FF48040CC
:100CF0004FF0010102F016FB4FF001004FF001012F
:100D000002F0E6FA4FF004004FF0010102F0E0FAC1
:100D10004FF002004FF0010102F004FB4FF480306D
:100D20004FF0010102F0FEFA4FF400304FF00101E4
:100D300002F0F8FA4FF480204FF0010102F0F2FACD
:100D400040F2E403C2F200034FF00F021A6040F2D7
:100D5000E403C2F200034FF000021A7140F2E40310
:100D6000C2F200034FF003025A7140F2E403C2F2F0
:100D700000034FF00102DA714FF00000C4F20200EC
:100D800040F2E401C2F2000101F032FE40F2E4035D
:100D9000C2F200034FF0F0021A6040F2E403C2F224
:100DA00000034FF000021A7140F2E403C2F20003A4
:100DB0004FF003025A7140F2E403C2F200034FF015
:100DC0000102DA714FF00000C4F2020040F2E401C7
:100DD000C2F2000101F00CFE4FF000004FF00001E4
:100DE00002F0F4FA4FF000004FF0010102F0EEFAC9
:100DF0004FF000004FF0020102F0E8FA4FF000005F
:100E00004FF0030102F0E2FA4FF000004FF004014E
:100E100002F0DCFA4FF000004FF0050102F0D6FAC4
:100E20004FF000004FF0060102F0D0FA4FF0000042
:100E30004FF0070102F0CAFA40F26813C2F2000351
:100E40004FF000021A7140F26813C2F200034FF033
:100E500010025A7140F26813C2F200034FF001020F
:100E60009A7140F26813C2F200034FF001021A6057
:100E700040F26810C2F2000001F0F0FC40F268138A
:100E8000C2F200034FF002021A6040F26810C2F290
:100E9000000001F0E3FC40F26813C2F200034FF0DF
:100EA00004021A6040F26810C2F2000001F0D6FCA1
:100EB00040F26813C2F200034FF008021A6040F2D9
:100EC0006810C2F2000001F0C9FC40F26813C2F2DF
:100ED00000034FF010021A6040F26810C2F20000E6
:100EE00001F0BCFC40F26813C2F200034FF0200294
:100EF0001A6040F26810C2F2000001F0AFFC40F24C
:100F00006813C2F200034FF040021A6040F268100A
:100F1000C2F2000001F0A2FC40F26813C2F200032A
:100F20004FF080021A6040F26810C2F2000001F037
:100F300095FC40F2EC03C2F200034FF005025A7038
:100F400040F2EC03C2F200034FF005029A7040F247
:100F5000EC03C2F200034FF00102DA7040F2EC033E
:100F6000C2F200034FF00A021A7040F2EC00C2F223
:100F7000000000F073FC40F2EC03C2F200034FF0FB
:100F800017021A7040F2EC00C2F2000000F066FC9A
:100F900040F2EC03C2F200034FF02E021A7040F24E
:100FA000EC00C2F2000000F059FC40F2EC03C2F287
:100FB00000034FF018021A7040F2EC00C2F2000079
:100FC00000F04CFC40F2EC03C2F200034FF01902B7
:100FD0001A7040F2EC00C2F2000000F03FFC40F258
:100FE000EC03C2F200034FF01A021A7040F2EC0058
:100FF000C2F2000000F032FC40F2EC03C2F2000347
:101000004FF001025A7040F2EC03C2F200034FF0BD
:1010100001029A7040F2EC03C2F200034FF00102A9
:10102000DA7040F2EC03C2F200034FF01E021A70B5
:1010300040F2EC00C2F2000000F010FC40F2EC03C1
:10104000C2F200034FF006021A7040F2EC00C2F246
:10105000000000F003FC40F2EC03C2F200034FF08A
:1010600007021A7040F2EC00C2F2000000F0F6FB3A
:1010700040F2EC03C2F200034FF008021A7040F293
:10108000EC00C2F2000000F0E9FB40F2EC03C2F217
:1010900000034FF009021A7040F2EC00C2F20000A7
:1010A00000F0DCFB40F25C13C2F200034FF00002E0
:1010B0009A7240F25C13C2F200034FF000025A80B1
:1010C00040F25C13C2F200034FF000021A8140F2BA
:1010D0005C13C2F200034FF02A021A8040F25C1344
:1010E000C2F2000349F640425A604FF40060C4F275
:1010F000000040F25C11C2F2000102F0BFF94FF4AF
:101100000060C4F200004FF001014FF0010202F054
:1011100077FA4FF40060C4F200004FF0010102F0D2
:101120004FFA40F25C13C2F200034FF000021A8142
:1011300040F25C13C2F200034FF004021A8040F246
:101140005C13C2F200034FF6FF725A604FF080400A
:1011500040F25C11C2F2000102F090F94FF08040C1
:101160004FF0010102F02CFA40F25C13C2F20003CE
:101170004FF480721A8140F25C13C2F200034FF404
:1011800052721A8040F25C13C2F200034FF47A727A
:101190005A604FF48060C4F2010040F25C11C2F268
:1011A000000102F06BF94FF48060C4F201004FF0CF
:1011B00001014FF0010202F023FA4FF48060C4F203
:1011C00001004FF0010102F0FBF94FF48040C4F23E
:1011D000010040F25C11C2F2000102F04FF94FF43D
:1011E0008040C4F201004FF001014FF0010202F013
:1011F00007FA4FF48040C4F201004FF0010102F001
:10120000DFF94FF48840C4F2010040F25C11C2F2F1
:10121000000102F033F94FF48840C4F201004FF0AE
:1012200001014FF0010202F0EBF94FF48840C4F2E3
:1012300001004FF0010102F0C3F94FF49040C4F2F5
:10124000010040F25C11C2F2000102F017F94FF404
:101250009040C4F201004FF001014FF0010202F092
:10126000CFF94FF49040C4F201004FF0010102F0B9
:10127000A7F980BD80B400AF40F20803C2F20003BA
:101280001B69002B29D140F20803C2F200031A683F
:1012900048F2CF439A4220D840F20803C2F200033A
:1012A0001B68B3F57A5F18D940F20803C2F2000355
:1012B0005A6848F2CF439A420FD840F20803C2F26C
:1012C00000035B68B3F57A5F07D940F20803C2F206
:1012D00000034FF001025A6106E040F20803C2F237
:1012E00000034FF000025A61BD4680BC704700BF4A
:1012F00080B500AF4FF40060C4F200004FF0010170
:1013000002F0A2F90346002B0ED040F20803C2F20D
:1013100000034FF001021A614FF40060C4F20000B4
:101320004FF0010102F0C0F980BD00BF80B500AFF1
:101330004FF0010001F02EFB0346002B2DD04FF0A3
:101340000000C4F202004FF0010101F011FC03465D
:10135000002B09D14FF0804002F026F9024640F2FE
:101360000803C2F200031A604FF080404FF0000102
:1013700002F0FEF840F20803C2F200034FF0000250
:101380001A614FF40060C4F200004FF0000102F057
:10139000EFF84FF0010001F01BFB80BD80B500AFFE
:1013A0004FF0020001F0F6FA0346002B1ED04FF07A
:1013B0000000C4F202004FF0020101F0D9FB034625
:1013C000002B09D14FF0804002F0EEF8024640F2C7
:1013D0000803C2F200035A604FF080404FF0000152
:1013E00002F0C6F84FF0020001F0F2FA80BD00BF33
:1013F00080B500AF4FF0040001F0CCFA4FF00400CC
:1014000001F0E6FA80BD00BF80B500AF4FF00800E4
:1014100001F0C0FA4FF0080001F0DAFA80BD00BF19
:1014200080B500AF4FF48060C4F201004FF00101BD
:1014300002F00AF90346002B16D040F2A803C2F2CC
:1014400000034FF000021A6040F2A803C2F200034A
:101450001B68184600F028F94FF48060C4F20100C0
:101460004FF0010102F020F980BD00BF80B500AF50
:101470004FF48040C4F201004FF0010102F0E4F8A3
:101480000346002B16D040F2A803C2F200034FF02F
:1014900000025A6040F2A803C2F200035B681846DB
:1014A00000F002F94FF48040C4F201004FF0010156
:1014B00002F0FAF880BD00BF80B500AF4FF488405D
:1014C000C4F201004FF0010102F0BEF80346002B08
:1014D00016D040F2A803C2F200034FF000029A6057
:1014E00040F2A803C2F200039B68184600F0DCF843
:1014F0004FF48840C4F201004FF0010102F0D4F82B
:1015000080BD00BF80B500AF4FF49040C4F2010031
:101510004FF0010102F098F80346002B16D040F27C
:10152000A803C2F200034FF00002DA6040F2A80301
:10153000C2F20003DB68184600F0B6F84FF49040A2
:10154000C4F201004FF0010102F0AEF880BD00BF0F
:1015500080B500AF4FF0100001F01CFA0346002BDD
:1015600021D04FF48040C4F2010002F01DF8024681
:1015700040F2A803C2F200031A6040F2A803C2F2CC
:1015800000031B68184600F08FF840F28803C2F28F
:101590000003C3E900014FF48060C4F201004FF082
:1015A000100100F0B5F880BD80B500AF4FF020000D
:1015B00001F0F0F90346002B21D04FF48040C4F233
:1015C000010001F0F1FF024640F2A803C2F200035D
:1015D0005A6040F2A803C2F200035B68184600F0AC
:1015E00063F840F28803C2F20003C3E902014FF43A
:1015F0008040C4F201004FF0200100F089F84FF064
:10160000400001F0C7F90346002B21D04FF4884079
:10161000C4F2010001F0C8FF024640F2A803C2F282
:1016200000039A6040F2A803C2F200039B681846C8
:1016300000F03AF840F28803C2F20003C3E9040163
:101640004FF48840C4F201004FF0400100F060F810
:101650004FF0800001F09EF90346002B21D04FF49B
:101660009040C4F2010001F09FFF024640F2A8033F
:10167000C2F20003DA6040F2A803C2F20003DB68A2
:10168000184600F011F840F28803C2F20003C3E9E3
:1016900006014FF49040C4F201004FF0800100F0C9
:1016A00037F880BD0000000080B582B000AF7860E0
:1016B000786802F0B5FB02460B461046194612A3A5
:1016C000D3E9002302F04CFD02460B4610461946B2
:1016D0004FF000024FF00003C4F22C0302F016FC9E
:1016E00002460B464FF000004FF00001C4F24E01DD
:1016F00002F036FD02460B461046194607F1080770
:10170000BD4680BDAFF3008000000000006AF840D5
:1017100080B582B000AF7860396078684FF0000122
:1017200001F026FF386801F053F907F10807BD46BC
:1017300080BD00BF80B582B000AF02F021F945F254
:10174000555001F06DFC4FF0000001F079FC40F2C3
:10175000FF7001F085FC01F09FFCFFF7BFFA00F07D
:10176000EFF800F097FAFEF70FFDFEF7F7FEFFF730
:1017700081FD40F20803C2F200035B69002B32D006
:1017800040F20803C2F200035A6840F22003C2F29A
:1017900000031A6040F20803C2F200035A6840F2E4
:1017A0002003C2F200035A6040F20803C2F20003B1
:1017B0005A6840F22003C2F200039A6040F2080324
:1017C000C2F200035A6840F22003C2F20003DA605A
:1017D00040F20803C2F200031A6840F22003C2F28A
:1017E0000003DA6122E040F22003C2F2000346F275
:1017F000A8121A6040F22003C2F2000346F2A812B7
:101800005A6040F22003C2F2000346F2A8129A6026
:1018100040F22003C2F2000346F2A812DA6040F25E
:101820002003C2F2000346F2A812DA614FF000036F
:101830007B604FF000037B6003E07B6803F10103F2
:101840007B607A6848F29F63C0F201039A42F4DD3C
:10185000FFF752F801F014FC89E700BF80B485B0AF
:1018600000AF78604FF00003FB734FF00003BB73D1
:101870004FF00F037B737B68DB78002B45D04FF470
:101880006D43CEF20003DB686FEA030303F4E06309
:101890004FEA1323FB73FB7BC3F10403BB737A7B17
:1018A000FB7B42FA03F37B737B685B781A46BB7B56
:1018B00002FA03F3FB737B689A787B7B1340DAB2FE
:1018C000FB7B1343FB73FB7B4FEA0313FB734FF468
:1018D0006143CEF200037A6812789B18FA7B83F892
:1018E00000234FF46143CEF200037A6812784FEA86
:1018F0005212D2B27968097801F01F014FF001004D
:1019000000FA01F143F8221014E04FF46143CEF2E3
:1019100000037A6812784FEA5212D2B279680978D5
:1019200001F01F014FF0010000FA01F102F1200265
:1019300043F8221007F11407BD4680BC704700BF72
:1019400080B500AF4FF002004FF0010101F096FCAE
:101950004FF004004FF0010101F090FC4FF0020045
:101960004FF0010101F0B4FC40F2E403C2F20003C5
:101970004FF001021A7140F2E403C2F200034FF08B
:1019800000029A7140F2E403C2F200034FF0030236
:101990005A7140F2E403C2F200034FF00002DA7120
:1019A00040F2E403C2F200034FF470721A604FF485
:1019B0000060C4F2020040F2E401C2F2000101F052
:1019C00017F840F2E403C2F200034FF470421A60C9
:1019D0004FF48060C4F2020040F2E401C2F2000160
:1019E00001F006F840F2EC03C2F200034FF00202ED
:1019F0005A7040F2EC03C2F200034FF002029A70F8
:101A000040F2EC03C2F200034FF00102DA7040F240
:101A1000EC03C2F200034FF01D021A7040F2EC001A
:101A2000C2F20000FFF71AFF40F25C13C2F200039B
:101A30004FF000021A8140F25C13C2F200034FF033
:101A400004021A8040F25C13C2F200034FF000025D
:101A50005A8040F25C13C2F200034FF6FF725A60E4
:101A600040F25C13C2F200034FF000029A724FF48E
:101A70008060C4F2000040F25C11C2F2000101F08B
:101A8000FDFC4FF48060C4F200004FF001014FF004
:101A9000010201F0B5FD4FF48060C4F200004FF088
:101AA000010101F08DFD80BD80B500AF4FF4806075
:101AB000C4F200004FF0010101F0C6FD0346002B07
:101AC00000F0DE8040F2C003C2F200031B68042B6A
:101AD00000F2D68001A252F823F000BFF11A0008EC
:101AE000431B0008951B0008E71B0008391C000871
:101AF00040F22003C2F200031B684FF48060C4F27E
:101B00000000194601F042FD4FF48060C4F202006B
:101B10004FF4004101F04AF84FF40060C4F20200B3
:101B20004FF0400101F050F840F2C003C2F2000350
:101B30001B6803F1010240F2C003C2F200031A6005
:101B40009EE040F22003C2F200035B684FF4806025
:101B5000C4F20000194601F019FD4FF40060C4F210
:101B600002004FF0400101F021F84FF40060C4F290
:101B700002004FF0800101F027F840F2C003C2F2EA
:101B800000031B6803F1010240F2C003C2F200032C
:101B90001A6075E040F22003C2F200039B684FF424
:101BA0008060C4F20000194601F0F0FC4FF40060C0
:101BB000C4F202004FF0800100F0F8FF4FF4006023
:101BC000C4F202004FF4807100F0FEFF40F2C00347
:101BD000C2F200031B6803F1010240F2C003C2F22B
:101BE00000031A604CE040F22003C2F20003DB68FD
:101BF0004FF48060C4F20000194601F0C7FC4FF4B6
:101C00000060C4F202004FF4807100F0CFFF4FF487
:101C10000060C4F202004FF4007100F0D5FF40F202
:101C2000C003C2F200031B6803F1010240F2C003CB
:101C3000C2F200031A6023E040F22003C2F2000364
:101C4000DB694FF48060C4F20000194601F09EFC8D
:101C50004FF40060C4F202004FF4007100F0A6FFE0
:101C60004FF48060C4F202004FF4004100F0ACFF7A
:101C700040F2C003C2F200034FF000021A6000BF3E
:101C80004FF48060C4F200004FF0010101F00CFD40
:101C900080BD00BF80B500AF4FF002004FF00101E2
:101CA00001F0ECFA4FF010004FF0010101F03AFBA7
:101CB00040F2E403C2F200034FF0C0021A6040F2A7
:101CC000E403C2F200034FF002021A7140F2E4038F
:101CD000C2F200034FF002025A7140F2E403C2F272
:101CE00000034FF000029A7140F2E403C2F20003D5
:101CF0004FF00102DA714FF48060C4F2020040F24A
:101D0000E401C2F2000100F073FE4FF48060C4F2FF
:101D100002004FF006014FF0070200F063FF4FF49E
:101D20008060C4F202004FF007014FF0070200F09C
:101D300059FF40F27013C2F200034FF416521A60BA
:101D400040F27013C2F200034FF000029A8040F29A
:101D50007013C2F200034FF00002DA8040F27013F9
:101D6000C2F200034FF000021A8140F27013C2F277
:101D700000034FF000029A8140F27013C2F2000398
:101D80004FF00C025A814FF48050C4F2010040F22F
:101D90007011C2F2000101F099FC4FF48050C4F2BE
:101DA000010040F225514FF0010201F097FD40F291
:101DB000EC03C2F200034FF025021A7040F2EC036C
:101DC000C2F200034FF006025A7040F2EC03C2F276
:101DD00000034FF006029A7040F2EC03C2F20003D7
:101DE0004FF00102DA7040F2EC00C2F20000FFF79F
:101DF00035FD4FF48050C4F201004FF0010101F0B5
:101E00003BFD80BD80B582B000AF4FF000037B602A
:101E10004FF000037B601BE04FF48050C4F20100E0
:101E200001F04AFD03460A2B16D04FF48050C4F24D
:101E3000010001F041FD0346DAB240F28013C2F224
:101E4000000379685B181A707B6803F101037B60FB
:101E50007B68642BE0DD00E000BF07F10807BD46AA
:101E600080BD00BF80B582B000AF44F68C03C0F6E1
:101E700000037B6040F20003C2F200033B600BE012
:101E80007B681A683B681A603B6803F104033B6097
:101E90007B6803F104037B603A6840F25003C2F2AE
:101EA00000039A42ECD3084808494FF000028842E8
:101EB000B8BF40F8042BFFF6FAAFFFF73BFC07F181
:101EC0000807BD4680BD000050000020E40100204E
:101ED00080B400AFFEE700BF80B500AF4FF4807064
:101EE0004FF0010101F048FA4FF480704FF000010B
:101EF00001F042FA80BD00BF80B485B000AF7860C9
:101F000039604FF00003FB604FF00003FB727B6809
:101F10005B68FB60FB6823F0407323F48073FB6015
:101F20003B681B794FEA03223B681B681343FA683E
:101F30001343FB607B68FA685A607B689B68FB60B0
:101F4000FA684FF2FD73CCF2FF031340FB603B686D
:101F50001A693B68DB681A433B689B681A433B6815
:101F60005B794FEA43031343FA681343FB607B68D2
:101F7000FA689A607B68DB6AFB60FB6823F4700395
:101F8000FB603B681B7D03F1FF33DAB2FB7A13433E
:101F9000FB72FB7A4FEA0353FA681343FB607B68DA
:101FA000FA68DA6207F11407BD4680BC704700BFCB
:101FB00080B483B000AF78607B684FF000021A6095
:101FC0007B684FF000021A717B684FF000025A7173
:101FD0007B684FF000029A607B684FF00002DA6085
:101FE0007B684FF000021A617B684FF001021A759E
:101FF00007F10C07BD4680BC704700BF80B485B0B8
:1020000000AF78604FF00003FB604FF40C53C4F254
:1020100001035B68FB60FA6843F2E003CFF6FC73F0
:102020001340FB607B681A687B685B681A437B68B7
:102030009B681A437B68DB681343FA681343FB60B1
:102040004FF40C53C4F20103FA685A6007F1140705
:10205000BD4680BC704700BF80B483B000AF7860DD
:102060007B684FF000021A607B684FF000025A60F4
:102070007B684FF000029A607B684FF00002DA60E4
:1020800007F10C07BD4680BC704700BF80B483B029
:1020900000AF78600B46FB70FB78002B06D07B68A6
:1020A0009B6843F001027B689A6005E07B689B684F
:1020B00023F001027B689A6007F10C07BD4680BCE3
:1020C000704700BF80B485B000AF7860F970BA7017
:1020D0007B704FF00003FB604FF00003BB60FB78A8
:1020E000092B27D97B68DB68FB60FA7813464FEA37
:1020F00043039B18A3F11E034FF0070202FA03F3F8
:10210000BB60BB686FEA0303FA681340FB60797831
:10211000FA7813464FEA43039B18A3F11E0301FA12
:1021200003F3BB60FA68BB681343FB607B68FA6823
:10213000DA6022E07B681B69FB60FA7813464FEA9D
:1021400043039B184FF0070202FA03F3BB60BB681E
:102150006FEA0303FA681340FB607978FA78134654
:102160004FEA43039B1801FA03F3BB60FA68BB68AC
:102170001343FB607B68FA681A61BB78062B27D88B
:102180007B685B6BFB60BB7803F1FF3213464FEA61
:1021900083039B184FF01F0202FA03F3BB60BB6876
:1021A0006FEA0303FA681340FB60F978BB7803F128
:1021B000FF3213464FEA83039B1801FA03F3BB6017
:1021C000FA68BB681343FB607B68FA685A6351E0A6
:1021D000BB780C2B27D87B681B6BFB60BA78134647
:1021E0004FEA83039B18A3F123034FF01F0202FA67
:1021F00003F3BB60BB686FEA0303FA681340FB603C
:10220000F978BA7813464FEA83039B18A3F12303A6
:1022100001FA03F3BB60FA68BB681343FB607B6899
:10222000FA681A6326E07B68DB6AFB60BA781346BB
:102230004FEA83039B18A3F141034FF01F0202FAF8
:1022400003F3BB60BB686FEA0303FA681340FB60EB
:10225000F978BA7813464FEA83039B18A3F1410338
:1022600001FA03F3BB60FA68BB681343FB607B6849
:10227000FA68DA6207F11407BD4680BC704700BFF8
:1022800080B483B000AF78607B689B6843F0804285
:102290007B689A6007F10C07BD4680BC704700BFA1
:1022A00080B483B000AF78600B46FB70FB78002BE6
:1022B00006D07B689B6843F480727B689A6005E077
:1022C0007B689B6823F480727B689A6007F10C0737
:1022D000BD4680BC704700BF80B483B000AF78605B
:1022E0000B46FB70FB78002B06D07B689B6843F4A1
:1022F00000727B689A6005E07B689B6823F400723B
:102300007B689A6007F10C07BD4680BC704700BF30
:1023100080B483B000AF78607B681B6823F0010253
:102320007B681A607B684FF000021A607B684FF090
:1023300000025A607B684FF000029A607B684FF0A1
:102340000002DA607B684FF000021A617B684FF090
:1023500021025A617A6846F21003C4F202039A42DB
:1023600007D14FF4C043C4F202034FF03D029A601C
:10237000EBE07A6846F22803C4F202039A4207D1DE
:102380004FF4C043C4F202034FF474629A60DCE07D
:102390007A6846F24003C4F202039A4207D14FF42E
:1023A000C043C4F202034FF474129A60CDE07A681D
:1023B00046F25803C4F202039A4207D14FF4C043D5
:1023C000C4F202034FF074629A60BEE07A6846F28B
:1023D0007003C4F202039A4209D14FF4C043C4F21D
:1023E00002034FF03D02C2F20002DA60ADE07A680B
:1023F00046F28803C4F202039A4209D14FF4C04363
:10240000C4F202034FF47462C2F20002DA609CE08C
:102410007A6846F2A003C4F202039A4209D14FF44B
:10242000C043C4F202034FF00002C2F23D02DA6080
:102430008BE07A6846F2B803C4F202039A4207D1ED
:102440004FF4C043C4F202034FF03D52DA607CE027
:102450007A6846F21043C4F202039A4207D14FF45D
:10246000C843C4F202034FF03D029A606DE07A68FF
:1024700046F22843C4F202039A4207D14FF4C843FC
:10248000C4F202034FF474629A605EE07A6846F226
:102490004043C4F202039A4207D14FF4C843C4F246
:1024A00002034FF474129A604FE07A6846F2584380
:1024B000C4F202039A4207D14FF4C843C4F20203A4
:1024C0004FF074629A6040E07A6846F27043C4F25A
:1024D00002039A4209D14FF4C843C4F202034FF0F9
:1024E0003D02C2F20002DA602FE07A6846F28843C9
:1024F000C4F202039A4209D14FF4C843C4F2020362
:102500004FF47462C2F20002DA601EE07A6846F2AA
:10251000A043C4F202039A4209D14FF4C843C4F263
:1025200002034FF00002C2F23D02DA600DE07A6869
:1025300046F2B843C4F202039A4206D14FF4C843AC
:10254000C4F202034FF03D52DA6007F10C07BD46BA
:1025500080BC704780B485B000AF786039604FF0C0
:102560000003FB607B681B68FB60FA6848F23F036E
:10257000CFF21C031340FB603B681A683B68DB68C2
:102580001A433B685B691A433B689B691A433B6883
:10259000DB691A433B681B6A1A433B685B6A1A4350
:1025A0003B689B6A1A433B685B6B1A433B689B6BB7
:1025B0001343FA681343FB607B68FA681A607B6810
:1025C0005B69FB60FB6823F00703FB603B68DA6A2A
:1025D0003B681B6B1343FA681343FB607B68FA6824
:1025E0005A613B681A697B685A603B685A687B6825
:1025F0009A603B689A687B68DA6007F11407BD4609
:1026000080BC704780B483B000AF78607B684FF0C7
:1026100000021A607B684FF000025A607B684FF03E
:1026200000029A607B684FF00002DA607B684FF02E
:1026300000021A617B684FF000025A617B684FF01C
:1026400000029A617B684FF00002DA617B684FF00C
:1026500000021A627B684FF000025A627B684FF0FA
:1026600000029A627B684FF00002DA627B684FF0EA
:1026700000021A637B684FF000025A637B684FF0D8
:1026800000029A6307F10C07BD4680BC704700BF8B
:1026900080B483B000AF78600B46FB70FB78002BF2
:1026A00006D07B681B6843F001027B681A6005E076
:1026B0007B681B6823F001027B681A6007F10C0736
:1026C000BD4680BC704700BF80B485B000AFF860E5
:1026D000B9601346FB71BB6803F08003002B0FD079
:1026E000FB79002B06D0FB685B6943F08002FB6836
:1026F0005A6105E0FB685B6923F08002FB685A6160
:10270000BB68802B15D0FB79002B08D0FB681A68BA
:10271000BB6803F01E031A43FB681A6009E0FB68FC
:102720001A68BB6803F01E036FEA03031A40FB68D4
:102730001A6007F11407BD4680BC704780B487B0AB
:1027400000AF786039604FF00003FB754FF0000375
:10275000FB604FF00003BB607A6846F20F43C4F29F
:1027600002039A4205D84FF4C043C4F202033B610E
:1027700004E04FF4C843C4F202033B613B6823F01A
:10278000F02323F0C313002B0BD03B684FEAD32375
:1027900003F01E03FB607B681A68FB681340BB6094
:1027A00004E07B685B6903F08003BB603B6803F077
:1027B0000053002B03D03B695B68FB6002E03B6980
:1027C0001B68FB60FB6823F0F02323F08213FB609F
:1027D000FA683B681340002B06D0BB68002B03D07F
:1027E0004FF00103FB7502E04FF00003FB75FB7D2A
:1027F000184607F11C07BD4680BC704780B485B001
:1028000000AF786039607A6846F20F43C4F2020381
:102810009A4205D84FF4C043C4F20203FB6004E0BF
:102820004FF4C843C4F20203FB603B6803F000535B
:10283000002B07D03B6823F0F02323F08213FA68C3
:10284000D36006E03B6823F0F02323F08213FA689C
:10285000936007F11407BD4680BC704780B485B013
:1028600000AF78604FF00003FB604FF47053C4F288
:102870000103FB607B689B79002B78D04FF4705389
:10288000C4F201034FF47052C4F2010211687A6875
:1028900012686FEA02020A401A604FF47053C4F2E1
:1028A00001034FF47052C4F2010251687A68126851
:1028B0006FEA02020A405A607B681B79FA68D318F3
:1028C000FB60FB68FA6811687A6812680A431A604C
:1028D0004FF47053C4F201034FF47052C4F201027A
:1028E00091687A6812686FEA02020A409A604FF4AF
:1028F0007053C4F201034FF47052C4F20102D16864
:102900007A6812686FEA02020A40DA607B685B79D3
:10291000102B1AD14FF47053C4F201034FF47052CC
:10292000C4F2010291687A6812680A439A604FF40F
:102930007053C4F201034FF47052C4F20102D16823
:102940007A6812680A43DA601FE04FF47053C4F2E9
:102950000103FB607B685B79FA68D318FB60FB6856
:10296000FA6811687A6812680A431A600DE07B6899
:102970001B79FA68D318FB60FB68FA6811687A68FB
:1029800012686FEA02020A401A6007F11407BD4696
:1029900080BC704780B485B000AF78604FF0000312
:1029A000FB734FF47053C4F201035A697B68134000
:1029B000002B03D04FF00103FB7302E04FF0000344
:1029C000FB73FB7B184607F11407BD4680BC7047BC
:1029D00080B483B000AF78604FF47053C4F2010349
:1029E0007A685A6107F10C07BD4680BC704700BF8A
:1029F00080B487B000AF786039604FF000037B612E
:102A00004FF000033B614FF00003FB604FF0000309
:102A10007B6186E07B694FF0010202FA03F33B61C0
:102A20003B681A683B691340FB60FA683B699A424D
:102A300073D17B681A687B694FEA43034FF0030147
:102A400001FA03F36FEA03031A407B681A607B689C
:102A50001A683B681B7919467B694FEA430301FA00
:102A600003F31A437B681A603B681B79012B03D080
:102A70003B681B79022B34D17B689A687B694FEAEB
:102A800043034FF0030101FA03F36FEA03031A4013
:102A90007B689A607B689A683B685B7919467B69BA
:102AA0004FEA430301FA03F31A437B689A607B6899
:102AB0005A687B699BB24FF0010101FA03F36FEA98
:102AC00003031A407B685A607B685A683B689B79AD
:102AD00019467B699BB201FA03F39BB21A437B68E8
:102AE0005A607B68DA687B699BB24FEA43034FF018
:102AF000030101FA03F36FEA03031A407B68DA600B
:102B00007B68DA683B68DB7919467B694FEA4303E7
:102B100001FA03F31A437B68DA607B6903F101036E
:102B20007B617B690F2B7FF675AF07F11C07BD46F4
:102B300080BC704780B483B000AF78607B684FF68C
:102B4000FF721A607B684FF000021A717B684FF0C9
:102B500000025A717B684FF000029A717B684FF057
:102B60000002DA7107F10C07BD4680BC704700BF58
:102B700080B485B000AF78600B467B804FF00003D7
:102B8000FB737B681A697B881340002B03D04FF0DE
:102B90000103FB7302E04FF00003FB73FB7B18465D
:102BA00007F11407BD4680BC704700BF80B483B0F6
:102BB00000AF78600B467B807B687A881A8307F1C8
:102BC0000C07BD4680BC704780B483B000AF78600E
:102BD0000B467B807B687A885A8307F10C07BD46D9
:102BE00080BC704780B485B000AF786013460A4659
:102BF0007A807B704FF00003FB604FF00003BB60F6
:102C00007A787B8803F007034FEA830302FA03F321
:102C1000FB607B884FEAD3039BB21A467B884FEA5E
:102C2000D3039BB219467B6801F1080153F82110C8
:102C30007B8803F007034FEA83034FF00F0000FA8D
:102C400003F36FEA030319407B6802F1080243F8BB
:102C500022107B884FEAD3039BB21A467B6802F1AD
:102C6000080253F82220FB681343BB607B884FEABD
:102C7000D3039BB21A467B6802F10802B96843F895
:102C8000221007F11407BD4680BC704780B58AB09A
:102C900000AF786039604FF00003FB844FF0000311
:102CA0007B844FF00403BB844FF49053C0F27A034B
:102CB000FB617B689B88FB84FB8C23F03F03FB84D8
:102CC00007F10C03184600F0F3F97B69FB61FA6920
:102CD0004DF68363C4F21B33A3FB02134FEA934305
:102CE0007B84FA8C7B8C1343FB847B68FA8C9A8000
:102CF0007B681B889BB223F001039AB27B681A8021
:102D00004FF00003FB843B681A6848F2A063C0F2EE
:102D100001039A4218D83B681B684FEA4303FA69DB
:102D2000B2FBF3F3BB84BB8C032B02D84FF004033C
:102D3000BB84FA8CBB8C1343FB847B8C03F10103B3
:102D40009AB27B681A844BE03B68DA884BF6FF73D3
:102D50009A420AD13B681A6813464FEA43039B180C
:102D6000FA69B2FBF3F3BB8410E03B681A681346C0
:102D70004FEA83039B184FEA83029B18FA69B2FB60
:102D8000F3F3BB84BB8C43F48043BB84BB8C4FEA1E
:102D900003534FEA1353002B03D1BB8C43F00103C1
:102DA000BB84BA8CFB8C13439BB26FEA43436FEA3C
:102DB0005343FB847B8C4FF4967202FB03F244F680
:102DC000D353C1F2620383FB02134FEAA3114FEA0C
:102DD000E273CB1A9BB203F101039AB27B681A84A7
:102DE0007B68FA8C9A837B681B889BB243F0010353
:102DF0009AB27B681A807B681B88FB84FB8C23F467
:102E0000816323F00203FB843B689A883B685B89FB
:102E100013439AB2FB8C1343FB847B68FA8C1A80B1
:102E20003B689A893B681B8913439AB27B681A8175
:102E300007F12807BD4680BD80B483B000AF78603D
:102E40000B46FB70FB78002B08D07B681B889BB27D
:102E500043F001039AB27B681A8007E07B681B8805
:102E60009BB223F001039AB27B681A8007F10C072A
:102E7000BD4680BC704700BF80B483B000AF7860AF
:102E80000B46FB70FB78002B08D07B681B889BB23D
:102E900043F480739AB27B681A8007E07B681B88D2
:102EA0009BB223F480739AB27B681A8007F10C07F7
:102EB000BD4680BC704700BF80B483B000AF78606F
:102EC0000B46FB70FB78002B08D07B681B889BB2FD
:102ED00043F400739AB27B681A8007E07B681B8812
:102EE0009BB223F400739AB27B681A8007F10C0737
:102EF000BD4680BC704700BF80B483B000AF78602F
:102F000013460A46FA70BB70BB78002B04D0FB78DE
:102F100043F00103FB7003E0FB7823F00103FB7037
:102F2000FB789AB27B681A8207F10C07BD4680BC19
:102F3000704700BF80B483B000AF78600B46FB7071
:102F4000FB78002B08D07B681B889BB243F480631E
:102F50009AB27B681A8007E07B681B889BB223F4D7
:102F600080639AB27B681A8007F10C07BD4680BC6B
:102F7000704700BF80B483B000AF78600B46FB7031
:102F8000FB789AB27B681A8207F10C07BD4680BCB9
:102F9000704700BF80B483B000AF78607B681B8A45
:102FA0009BB2DBB2184607F10C07BD4680BC7047E8
:102FB00080B487B000AF786039604FF000033B61A8
:102FC0004FF00003FB604FF00003BB604FF00003C5
:102FD000FB757B689B8A9BB2FB607B681B8B9BB2FB
:102FE000BB60BB684FEA0343BB60FA68BB6813432E
:102FF00023F07F433B613A693B681A403B689A4241
:1030000003D14FF00103FB7502E04FF00003FB75A5
:10301000FB7D184607F11C07BD4680BC704700BF0A
:1030200080B483B000AF0346FB804FF44053C4F23A
:103030000003FA881A6007F10C07BD4680BC704790
:1030400080B483B000AF0346FB714FF44053C4F229
:103050000003FA795A6007F10C07BD4680BC70473F
:1030600080B483B000AF0346FB804FF44053C4F2FA
:103070000003FA889A6007F10C07BD4680BC7047D0
:1030800080B400AF4FF44053C4F200034AF6AA22C2
:103090001A60BD4680BC704780B400AF4FF4405307
:1030A000C4F200034CF6CC421A60BD4680BC7047A7
:1030B00080B489B000AF78604FF00003BB614FF07F
:1030C00000037B614FF00003FB614FF002033B61A3
:1030D0004FF00003FB604FF00203BB604FF46053FE
:1030E000C4F202039B6803F00C03BB61BB69042BB1
:1030F0000AD0082B0FD0002B60D17A684FF4105300
:10310000C0F2F403136060E07A684FF49053C0F2A9
:103110007A03136059E04FF46053C4F202035B6812
:1031200003F480034FEA9353FB604FF46053C4F2FF
:1031300002035B6803F03F03BB60FB68002B14D005
:103140004FF49053C0F27A03BA68B3FBF2F24FF433
:103150006053C4F20203596847F6C0730B404FEA4C
:10316000931303FB02F3FB6113E04FF41053C0F21F
:10317000F403BA68B3FBF2F24FF46053C4F20203F3
:10318000596847F6C0730B404FEA931303FB02F3F1
:10319000FB614FF46053C4F202035B6803F44033F5
:1031A0004FEA134303F101034FEA43033B61FA691A
:1031B0003B69B2FBF3F27B681A6006E07A684FF471
:1031C0001053C0F2F403136000BF4FF46053C4F215
:1031D00002039B6803F0F003BB61BB694FEA131362
:1031E000BB6140F24003C2F20003BA699B181B782E
:1031F000DBB27B617B681A687B6922FA03F27B6829
:103200005A604FF46053C4F202039B6803F4E05326
:10321000BB61BB694FEA9323BB6140F24003C2F23A
:103220000003BA699B181B78DBB27B617B685A6824
:103230007B6922FA03F27B689A604FF46053C4F210
:1032400002039B6803F46043BB61BB694FEA5333DD
:10325000BB6140F24003C2F20003BA699B181B78BD
:10326000DBB27B617B685A687B6922FA03F27B6878
:10327000DA6007F12407BD4680BC704780B483B094
:1032800000AF78600B46FB70FB78002B0CD04FF43E
:103290006053C4F202034FF46052C4F20202116B95
:1032A0007A680A431A630DE04FF46053C4F20203D4
:1032B0004FF46052C4F20202116B7A686FEA0202A4
:1032C0000A401A6307F10C07BD4680BC704700BF77
:1032D00080B483B000AF78600B46FB70FB78002BA6
:1032E0000CD04FF46053C4F202034FF46052C4F2A6
:1032F0000202116C7A680A431A640DE04FF46053BD
:10330000C4F202034FF46052C4F20202116C7A68F4
:103310006FEA02020A401A6407F10C07BD4680BC3E
:10332000704700BF80B483B000AF78600B46FB707D
:10333000FB78002B0CD04FF46053C4F202034FF41F
:103340006052C4F20202516C7A680A435A640DE07A
:103350004FF46053C4F202034FF46052C4F202020D
:10336000516C7A686FEA02020A405A6407F10C074E
:10337000BD4680BC704700BF80B483B000AF7860AA
:103380000B46FB70FB78002B0CD04FF46053C4F25B
:1033900002034FF46052C4F20202516A7A680A438F
:1033A0005A620DE04FF46053C4F202034FF46052CE
:1033B000C4F20202516A7A686FEA02020A405A6253
:1033C00007F10C07BD4680BC704700BF90B484B0C5
:1033D00000AF02460B46FA71BB714FF00003FB6071
:1033E000BB7903F003034FEA83034FF00F0202FAA5
:1033F00003F3FB604FF46053C4F20103BA794FEA60
:103400009202D2B210464FF46052C4F20102B9796E
:103410004FEA9101C9B201F1020152F82110FA6894
:103420006FEA0202114000F1020243F822104FF449
:103430006053C4F20103BA794FEA9202D2B2104645
:103440004FF46052C4F20102B9794FEA9101C9B256
:1034500001F1020152F82110FC79BA7902F003025D
:103460004FEA820204FA02F2114300F1020243F829
:10347000221007F11007BD4690BC704780B485B09C
:1034800000AF786039604FF00003FB817B681B88D8
:10349000FB817A684FF00003C4F201039A421FD007
:1034A0007A684FF48063C4F201039A4218D07B68B3
:1034B000B3F1804F14D07A684FF48063C4F20003F4
:1034C0009A420DD07A684FF40063C4F200039A4226
:1034D00006D07A684FF44063C4F200039A4208D1E0
:1034E000FB8923F07003FB813B685A88FB891343F7
:1034F000FB817A684FF48053C4F200039A420FD0E4
:103500007A684FF4A053C4F200039A4208D0FB89B2
:1035100023F44073FB813B681A89FB891343FB81C9
:103520007B68FA891A803B685A687B68DA623B6874
:103530001A887B681A857A684FF00003C4F2010389
:103540009A4206D07A684FF48063C4F201039A422B
:1035500004D13B689B7A1A467B681A867B684FF0D9
:1035600001029A8207F11407BD4680BC704700BF74
:1035700080B483B000AF786039607B683A685A6283
:1035800007F10C07BD4680BC704700BF80B483B014
:1035900000AF786039607B683A68DA6207F10C073F
:1035A000BD4680BC704700BF80B483B000AF786078
:1035B0007B685B6A184607F10C07BD4680BC704704
:1035C00080B483B000AF78600B46FB70FB78002BB3
:1035D00008D07B681B889BB243F001039AB27B68DA
:1035E0001A8007E07B681B889BB223F001039AB224
:1035F0007B681A8007F10C07BD4680BC704700BF8E
:1036000080B483B000AF786013460A467A807B703E
:103610007B78002B08D07B689B899AB27B88134308
:103620009AB27B689A810AE07B689B899AB27B8810
:103630006FEA03039BB213409AB27B689A8107F149
:103640000C07BD4680BC704780B485B000AF786081
:103650000B467B804FF00003FB734FF00003BB81F0
:103660004FF000037B817B681B8A9AB27B881340F2
:10367000BB817B689B899AB27B8813407B81BB8925
:10368000002B06D07B89002B03D04FF00103FB7386
:1036900002E04FF00003FB73FB7B184607F11407B1
:1036A000BD4680BC704700BF80B483B000AF786077
:1036B0000B467B807B886FEA03039AB27B681A8291
:1036C00007F10C07BD4680BC704700BF80B58AB0CB
:1036D00000AF786039604FF000037B624FF0000369
:1036E0003B624FF00003FB614FF00003BB617B685E
:1036F0001B8A9BB27B627B6A23F440537B623B68EC
:10370000DB887A6A13437B627B6A9AB27B681A828F
:103710007B689B899BB27B627B6A23F4B05323F066
:103720000C037B623B689A883B681B8913439AB2FF
:103730003B685B8913439BB27A6A13437B627B6A63
:103740009AB27B689A817B689B8A9BB27B627B6A18
:1037500023F440737B623B689B897A6A13437B62E4
:103760007B6A9AB27B689A8207F108031846FFF7D2
:103770009FFC7A684FF48053C4F201039A4206D04A
:103780007A684FF4A053C4F201039A4202D17B69D4
:103790003B6201E03B693B627B689B899BB29BB2C9
:1037A0001BB2002B0FDA3A6A13464FEA83039B18C9
:1037B0004FEA83029A183B681B684FEA4303B2FB47
:1037C000F3F3FB610EE03A6A13464FEA83039B185A
:1037D0004FEA83029A183B681B684FEA8303B2FBE7
:1037E000F3F3FB61FA6948F21F53C5F2EB13A3FB35
:1037F00002134FEA53134FEA03137B627B6A4FEACB
:1038000013134FF0640202FB03F3FA69D31ABB618E
:103810007B689B899BB29BB21BB2002B12DABB69FF
:103820004FEAC30303F1320248F21F53C5F2EB1310
:10383000A3FB02134FEA531303F007037A6A1343FF
:103840007B6211E0BB694FEA031303F1320248F2D5
:103850001F53C5F2EB13A3FB02134FEA531303F0FC
:103860000F037A6A13437B627B6A9AB27B681A8180
:1038700007F12807BD4680BD80B483B000AF7860F3
:103880000B46FB70FB78002B08D07B689B899BB2B2
:1038900043F400539AB27B689A8107E07B689B8966
:1038A0009BB223F400539AB27B689A8107F10C070C
:1038B000BD4680BC704700BF80B483B000AF786065
:1038C0007B689B889BB24FEAC3534FEAD3539BB2AA
:1038D000184607F10C07BD4680BC704780B487B01E
:1038E00000AF786013460A467A807B704FF0000381
:1038F0003B614FF00003FB604FF00003BB604FF0F3
:1039000000037B617B687B617B88DBB24FEA5313EA
:10391000DBB23B617B8803F01F03FB60FB684FF069
:10392000010202FA03F3BB603B69012B04D17B69FE
:1039300003F10C037B610BE03B69022B04D17B6933
:1039400003F110037B6103E07B6903F114037B61E6
:103950007B78002B06D07B697A691168BA680A43C4
:103960001A6007E07B697A691168BA686FEA020237
:103970000A401A6007F11C07BD4680BC704700BFB3
:1039800080B500AF4FF46053C4F202034FF46052AD
:10399000C4F20202126842F001021A604FF460534E
:1039A000C4F202034FF000029A604FF46053C4F275
:1039B00002034FF46052C4F20202126822F08472D1
:1039C00022F480321A604FF46053C4F2020343F2CF
:1039D0001002C2F200425A604FF46053C4F2020374
:1039E0004FF46052C4F20202126822F480221A607C
:1039F0004FF46053C4F202034FF00002DA6000F0AB
:103A000009F84FF46D43CEF200034FF000629A6064
:103A100080BD00BF80B483B000AF4FF000037B6077
:103A20004FF000033B604FF46053C4F202034FF4C5
:103A30006052C4F20202126842F480321A604FF4FB
:103A40006053C4F202031B6803F400333B607B68DD
:103A500003F101037B603B68002B03D17B68B3F566
:103A6000A04FECD14FF46053C4F202031B6803F47F
:103A70000033002B03D04FF001033B6002E04FF016
:103A800000033B603B68012B40F082804FF46053A1
:103A9000C4F202034FF46052C4F20202126C42F00C
:103AA00080521A644FF4E043C4F200034FF4E04242
:103AB000C4F20002126842F440421A604FF46053AC
:103AC000C4F202034FF46052C4F2020292689A6098
:103AD0004FF46053C4F202034FF46052C4F2020286
:103AE000926842F400429A604FF46053C4F20203B9
:103AF0004FF46052C4F20202926842F4A0529A60FB
:103B00004FF46053C4F2020345F20842C0F240721F
:103B10005A604FF46053C4F202034FF46052C4F28F
:103B20000202126842F080721A6000BF4FF46053C4
:103B3000C4F202031B6803F00073002BF6D04FF4AD
:103B40007053C4F2020340F205621A604FF46053EE
:103B5000C4F202034FF46052C4F20202926822F0EF
:103B600003029A604FF46053C4F202034FF46052B0
:103B7000C4F20202926842F002029A6000BF4FF45F
:103B80006053C4F202039B6803F00C03082BF6D1C8
:103B900007F10C07BD4680BC704700BF81F00041B3
:103BA00002E000BF83F0004330B54FEA41044FEA22
:103BB000430594EA050F08BF90EA020F1FBF54EABD
:103BC000000C55EA020C7FEA645C7FEA655C00F059
:103BD000E2804FEA5454D4EB5555B8BF6D420CDD2A
:103BE0002C4480EA020281EA030382EA000083EAAD
:103BF000010180EA020281EA0303362D88BF30BD4D
:103C000011F0004F4FEA01314FF4801C4CEA1131A2
:103C100002D0404261EB410113F0004F4FEA033301
:103C20004CEA133302D0524263EB430394EA050F8C
:103C300000F0A780A4F10104D5F1200E0DDB02FAFB
:103C40000EFC22FA05F2801841F1000103FA0EF28F
:103C5000801843FA05F359410EE0A5F120050EF155
:103C6000200E012A03FA0EFC28BF4CF0020C43FA86
:103C700005F3C01851EBE37101F0004507D54FF093
:103C8000000EDCF1000C7EEB00006EEB0101B1F5E3
:103C9000801F1BD3B1F5001F0CD349085FEA300029
:103CA0004FEA3C0C04F101044FEA445212F5800F34
:103CB00080F09A80BCF1004F08BF5FEA500C50F1D1
:103CC000000041EB045141EA050130BD5FEA4C0CB4
:103CD000404141EB010111F4801FA4F10104E9D13D
:103CE00091F0000F04BF01460020B1FA81F308BF34
:103CF0002033A3F10B03B3F120020CDA0C3208DD00
:103D000002F1140CC2F10C0201FA0CF021FA02F1DA
:103D10000CE002F11402D8BFC2F1200C01FA02F14A
:103D200020FA0CFCDCBF41EA0C019040E41AA2BF6F
:103D300001EB0451294330BD6FEA04041F3C1CDA37
:103D40000C340EDC04F11404C4F1200220FA04F057
:103D500001FA02F340EA030021FA04F345EA030101
:103D600030BDC4F10C04C4F1200220FA02F001FAC3
:103D700004F340EA0300294630BD21FA04F0294645
:103D800030BD94F0000F83F4801306BF81F48011DE
:103D90000134013D4EE77FEA645C18BF7FEA655C51
:103DA00029D094EA050F08BF90EA020F05D054EA23
:103DB000000C04BF1946104630BD91EA030F1EBF28
:103DC0000021002030BD5FEA545C05D1400049412C
:103DD00028BF41F0004130BD14F580043CBF01F51F
:103DE000801130BD01F0004545F0FE4141F4700105
:103DF0004FF0000030BD7FEA645C1ABF19461046E0
:103E00007FEA655C1CBF0B46024650EA013406BFE0
:103E100052EA033591EA030F41F4002130BD00BF9F
:103E200090F0000F04BF0021704730B54FF480645C
:103E300004F132044FF000054FF0000150E700BFDD
:103E400090F0000F04BF0021704730B54FF480643C
:103E500004F1320410F0004548BF40424FF0000129
:103E60003EE700BF42004FEAE2014FEA31014FEA6C
:103E700002701FBF12F07F4393F07F4F81F06051BB
:103E8000704792F0000F14BF93F07F4F704730B52A
:103E90004FF4607401F0004521F0004120E700BFBD
:103EA00050EA010208BF704730B54FF000050AE044
:103EB00050EA010208BF704730B511F0004502D545
:103EC000404261EB41014FF4806404F132045FEA47
:103ED000915C3FF4DCAE4FF003025FEADC0C18BFEC
:103EE00003325FEADC0C18BF033202EBDC02C2F1E2
:103EF000200300FA03FC20FA02F001FA03FE40EA74
:103F00000E0021FA02F11444C1E600BF70B54FF073
:103F1000FF0C4CF4E06C1CEA11541DBF1CEA135555
:103F200094EA0C0F95EA0C0F00F0DEF82C4481EABD
:103F3000030621EA4C5123EA4C5350EA013518BFDD
:103F400052EA033541F4801143F4801338D0A0FBCA
:103F500002CE4FF00005E1FB02E506F00042E0FB77
:103F600003E54FF00006E1FB03569CF0000F18BF7D
:103F70004EF0010EA4F1FF04B6F5007F64F5407425
:103F800004D25FEA4E0E6D4146EB060642EAC621B8
:103F900041EA55514FEAC52040EA5E504FEACE2E25
:103FA000B4F1FD0C88BFBCF5E06F1ED8BEF1004F28
:103FB00008BF5FEA500E50F1000041EB045170BDA4
:103FC00006F0004646EA010140EA020081EA0301E8
:103FD000B4EB5C04C2BFD4EB0C0541EA045170BDE4
:103FE00041F480114FF0000E013C00F3AB8014F15E
:103FF000360FDEBF002001F0004170BDC4F10004A7
:10400000203C35DA0C341BDC04F11404C4F1200527
:1040100000FA05F320FA04F001FA05F240EA020082
:1040200001F0004221F0004110EBD37021FA04F6B8
:1040300042EB06015EEA430E08BF20EAD37070BD72
:10404000C4F10C04C4F1200500FA04F320FA05F0D1
:1040500001FA04F240EA020001F0004110EBD370D3
:1040600041F100015EEA430E08BF20EAD37070BD43
:10407000C4F1200500FA05F24EEA020E20FA04F31C
:1040800001FA05F243EA020321FA04F001F00041CB
:1040900021FA04F220EA020000EBD3705EEA430E3C
:1040A00008BF20EAD37070BD94F0000F0FD101F06B
:1040B0000046400041EB010111F4801F08BF013CA4
:1040C000F7D041EA060195F0000F18BF704703F0E2
:1040D0000046520043EB030313F4801F08BF013D69
:1040E000F7D043EA0603704794EA0C0F0CEA135525
:1040F00018BF95EA0C0F0CD050EA410618BF52EADF
:104100004306D1D181EA030101F000414FF00000E4
:1041100070BD50EA410606BF1046194652EA4306F2
:1041200019D094EA0C0F02D150EA013613D195EA66
:104130000C0F05D152EA03361CBF104619460AD1AE
:1041400081EA030101F0004141F0FE4141F47001B8
:104150004FF0000070BD41F0FE4141F4780170BDA8
:1041600070B54FF0FF0C4CF4E06C1CEA11541DBF0D
:104170001CEA135594EA0C0F95EA0C0F00F0A7F80F
:10418000A4EB050481EA030E52EA03354FEA01313C
:1041900000F088804FEA03334FF0805545EA13134F
:1041A00043EA12634FEA022245EA111545EA106517
:1041B0004FEA00260EF000419D4208BF964244F1AE
:1041C000FD0404F5407402D25B084FEA3202B61ACD
:1041D00065EB03055B084FEA32024FF480104FF4A1
:1041E000002CB6EB020E75EB030E22BFB61A754615
:1041F00040EA0C005B084FEA3202B6EB020E75EBA8
:10420000030E22BFB61A754640EA5C005B084FEA0F
:104210003202B6EB020E75EB030E22BFB61A7546DC
:1042200040EA9C005B084FEA3202B6EB020E75EBE7
:10423000030E22BFB61A754640EADC0055EA060EA8
:1042400018D04FEA051545EA16754FEA06164FEAEB
:10425000C30343EA52734FEAC2025FEA1C1CC0D197
:1042600011F4801F0BD141EA00014FF000004FF024
:10427000004CB6E711F4801F04BF01430020B4F1E5
:10428000FD0C88BFBCF5E06F3FF6AFAEB5EB030C9D
:1042900004BFB6EB020C5FEA500C50F1000041EB9A
:1042A000045170BD0EF0004E4EEA113114EB5C0467
:1042B000C2BFD4EB0C0541EA045170BD41F480113A
:1042C0004FF0000E013C90E645EA060E8DE60CEA42
:1042D000135594EA0C0F08BF95EA0C0F3FF43BAF5F
:1042E00094EA0C0F0AD150EA01347FF434AF95EA16
:1042F0000C0F7FF425AF104619462CE795EA0C0FFA
:1043000006D152EA03353FF4FDAE1046194622E7C6
:1043100050EA410618BF52EA43067FF4C5AE50EAA0
:1043200041047FF40DAF52EA43057FF4EBAE12E790
:104330004FEA4102B2F1E04324BFB3F5001CDCF1C7
:10434000FE5C0DD901F0004C4FEAC0024CEA5070FF
:10435000B2F1004F40EB830008BF20F0010070472E
:1043600011F0804F21D113F13872BCBF01F0004031
:10437000704741F480114FEA5252C2F11802C2F163
:10438000200C10FA0CF320FA02F018BF40F00100E4
:104390004FEAC1234FEAD32303FA0CFC40EA0C0096
:1043A00023FA02F34FEA4303CCE77FEA625307D1D3
:1043B00050EA01331EBF4FF0FE4040F4400070470A
:1043C00001F0004040F0FE4040F40000704700BFA4
:1043D00080F0004002E000BF81F0004142001FBFBA
:1043E0005FEA410392EA030F7FEA226C7FEA236CC3
:1043F0006AD04FEA1262D2EB1363C1BFD2184140B8
:1044000048404140B8BF5B42192B88BF704710F04D
:10441000004F40F4000020F07F4018BF404211F0F0
:10442000004F41F4000121F07F4118BF494292EA58
:10443000030F3FD0A2F1010241FA03FC10EB0C0084
:10444000C3F1200301FA03F100F0004302D5494211
:1044500060EB4000B0F5000F13D3B0F1807F06D3BE
:1044600040084FEA310102F10102FE2A51D2B1F1B6
:10447000004F40EBC25008BF20F0010040EA0300AB
:104480007047490040EB000010F4000FA2F1010258
:10449000EDD1B0FA80FCACF1080CB2EB0C0200FAE2
:1044A0000CF0AABF00EBC25052421843BCBFD04030
:1044B0001843704792F0000F81F4000106BF80F4AA
:1044C00000000132013BB5E74FEA41037FEA226C6D
:1044D00018BF7FEA236C21D092EA030F04D092F038
:1044E000000F08BF0846704790EA010F1CBF00206C
:1044F000704712F07F4F04D1400028BF40F00040C9
:10450000704712F100723CBF00F50000704700F0E8
:10451000004343F0FE4040F4000070477FEA22620F
:1045200016BF08467FEA23630146420206BF5FEAE0
:10453000412390EA010F40F4800070474FF00003E0
:1045400004E000BF10F0004348BF40425FEA000CA7
:1045500008BF704743F0964301464FF000001CE04F
:1045600050EA010208BF70474FF000030AE000BFA5
:1045700050EA010208BF704711F0004302D54042E3
:1045800061EB41015FEA010C02BF84460146002055
:1045900043F0B64308BFA3F18053A3F50003BCFA70
:1045A0008CF2083AA3EBC25310DB01FA02FC63441D
:1045B00000FA02FCC2F12002BCF1004F20FA02F224
:1045C00043EB020008BF20F00100704702F1200217
:1045D00001FA02FCC2F1200250EA4C0021FA02F278
:1045E00043EB020008BF20EADC7070474FF0FF0C7D
:1045F0001CEAD0521EBF1CEAD15392EA0C0F93EA78
:104600000C0F6FD01A4480EA010C400218BF5FEA19
:1046100041211ED04FF0006343EA501043EA51118C
:10462000A0FB01310CF00040B1F5000F3EBF490086
:1046300041EAD3715B0040EA010062F17F02FD2A8A
:104640001DD8B3F1004F40EBC25008BF20F001006D
:10465000704790F0000F0CF0004C08BF49024CEA84
:10466000502040EA51207F3AC2BFD2F1FF0340EA16
:10467000C250704740F400004FF00003013A5DDC87
:1046800012F1190FDCBF00F000407047C2F10002C8
:10469000410021FA02F1C2F1200200FA02FC5FEAB5
:1046A000310040F1000053EA4C0308BF20EADC70FF
:1046B000704792F0000F00F0004C02BF400010F471
:1046C000000F013AF9D040EA0C0093F0000F01F01E
:1046D000004C02BF490011F4000F013BF9D041EA40
:1046E0000C018FE70CEAD15392EA0C0F18BF93EA42
:1046F0000C0F0AD030F0004C18BF31F0004CD8D16C
:1047000080EA010000F00040704790F0000F17BFF2
:1047100090F0004F084691F0000F91F0004F14D038
:1047200092EA0C0F01D142020FD193EA0C0F03D190
:104730004B0218BF084608D180EA010000F0004093
:1047400040F0FE4040F40000704740F0FE4040F46E
:10475000400070474FF0FF0C1CEAD0521EBF1CEA0D
:10476000D15392EA0C0F93EA0C0F69D0A2EB03022B
:1047700080EA010C49024FEA402037D04FF08053C5
:1047800043EA111143EA10130CF000408B4238BF8A
:104790005B0042F17D024FF4000C8B4224BF5B1A98
:1047A00040EA0C00B3EB510F24BFA3EB510340EAE6
:1047B0005C00B3EB910F24BFA3EB910340EA9C0094
:1047C000B3EBD10F24BFA3EBD10340EADC001B0104
:1047D00018BF5FEA1C1CE0D1FD2A3FF650AF8B42A8
:1047E00040EBC25008BF20F0010070470CF0004CB5
:1047F0004CEA50207F32C2BFD2F1FF0340EAC250E0
:10480000704740F400004FF00003013A37E792F0A0
:10481000000F00F0004C02BF400010F4000F013AFE
:10482000F9D040EA0C0093F0000F01F0004C02BFF9
:10483000490011F4000F013BF9D041EA0C0195E762
:104840000CEAD15392EA0C0F08D142027FF47DAFFB
:1048500093EA0C0F7FF470AF084676E793EA0C0FEB
:1048600004D14B023FF44CAF08466EE730F0004CE9
:1048700018BF31F0004CCAD130F000427FF45CAF79
:0C48800031F000437FF43CAF5FE700BF65
:10488C000040000083000000A8610000A861000047
:10489C00A8610000A86100000000000000000000FA
:1048AC0070170000701700007017000070170000E0
:1048BC0070170000701700007017000070170000D0
:1048CC0000000000010203040102030406070809AA
:0400000508000000EF
:00000001FF
