:020000040800F2
:1000000020B20020B95800082559000825590008D9
:10001000255900082559000825590008000000004E
:10002000000000000000000000000000255900084A
:10003000255900080000000025590008255900082E
:100040002559000825590008255900082559000898
:100050002559000825590008554C0008C14C0008D6
:10006000294D0008414D0008594E00082559000847
:100070002559000825590008255900082559000868
:100080002559000825590008255900082559000858
:10009000255900082559000825590008A54E0008D3
:1000A00025590008594D0008994D000825590008A8
:1000B0002559000801540008054C0008255900087E
:1000C0002559000825590008255900082559000818
:1000D00025590008595800082559000825590008D5
:1000E00025590008255900082559000825590008F8
:1000F000D94D0008194E0008255900082559000857
:1001000025590008255900082559000825590008D7
:1001100025590008255900082559000825590008C7
:1001200025590008255900082559000825590008B7
:10013000D104000825590008255900082559000850
:100140002559000825590008255900082559000897
:100150002559000825590008255900082559000887
:100160002559000825590008255900082559000877
:100170002559000825590008255900082559000867
:10018000255900082559000880B500AF44F2785081
:10019000C2F2000006F0F8F944F25850C2F2000032
:1001A00005F030FC44F2C050C2F2000005F07EFCC5
:1001B00044F28450C2F2000005F04EFF4FF480700C
:1001C0004FF0010106F0AAFD4FF004004FF00101CD
:1001D00006F050FD4FF480004FF0010106F04AFD9B
:1001E00044F27853C2F200034FF00F021A6044F257
:1001F0007853C2F200034FF003021A7144F27853AD
:10020000C2F200034FF00002DA714FF40060C4F252
:10021000020044F27851C2F2000106F013F946F2EE
:100220007040C4F2020005F09DFD44F28453C2F216
:1002300000034FF000021A6044F28453C2F200033C
:1002400042F24C02C4F201025A6044F27052C2F20D
:10025000000244F28453C2F200039A6044F28453D1
:10026000C2F200034FF00002DA6044F28453C2F29B
:1002700000034FF004021A6144F28453C2F20003F7
:100280004FF000025A6144F28453C2F200034FF46B
:1002900080629A6144F28453C2F200034FF4006218
:1002A000DA6144F28453C2F200034FF400521A623E
:1002B00044F28453C2F200034FF480725A6244F253
:1002C0008453C2F200034FF400329A6244F2845322
:1002D000C2F200034FF00002DA6244F28453C2F229
:1002E00000034FF001021A6344F28453C2F2000388
:1002F0004FF000025A6344F28453C2F200034FF0FD
:1003000000029A6346F27040C4F2020044F2845143
:10031000C2F2000105F048FE46F27040C4F202004D
:100320004FF010014FF0010205F0F8FE44F2805347
:10033000C2F200034FF03C021A7044F28053C2F242
:1003400000034FF000025A7044F28053C2F20003DF
:100350004FF003029A7044F28053C2F200034FF050
:100360000102DA7044F28050C2F2000004F022FF71
:1003700046F27040C4F202004FF0010105F0B2FEF7
:1003800005F0D4FA44F25853C2F200034FF00002D1
:100390001A6144F25853C2F200034FF000021A608F
:1003A00044F25853C2F200034FF001025A7144F272
:1003B0005853C2F200034FF00002DA6044F258537F
:1003C000C2F200034FF004021A7544F25853C2F20D
:1003D00000034FF001021A714FF40050C4F2010003
:1003E00044F25851C2F2000105F0B0FA44F2C05391
:1003F000C2F200034FF000021A6044F2C053C2F28E
:1004000000034FF000025A6044F2C053C2F20003EE
:100410004FF00002DA6044F2C053C2F200034FF022
:1004200000029A6044F2C050C2F2000005F010FBD6
:100430004FF40050C4F201004FF00A014FF00102E6
:100440004FF0070305F068FB4FF40050C4F20100C1
:100450004FF00B014FF002024FF0070305F05CFB79
:100460004FF40050C4F201004FF00C014FF00302B2
:100470004FF0070305F050FB4FF40050C4F20100A9
:100480004FF00D014FF004024FF0070305F044FB5D
:100490004FF40050C4F201004FF0010105F046FC9A
:1004A0004FF40050C4F201004FF0010105F022FCAE
:1004B0004FF40050C4F201004FF0010105F010FBB1
:1004C0004FF40050C4F2010005F004FC80BD00BFF1
:1004D00080B500AF46F27040C4F2020048F220013D
:1004E000C2F2000105F054FE0346002B2BD044F26B
:1004F0007053C2F200031B881A4644F2A043C2F2B2
:1005000000031A6044F27053C2F200035B881A467B
:1005100044F2A043C2F200035A6044F27053C2F2A4
:100520000003DB881A4644F2A043C2F200039A603B
:1005300044F27053C2F200031B891A4644F2A043EE
:10054000C2F20003DA6046F27040C4F202004FF0DB
:100550002001C2F2000105F07BFE80BD80B485B0B1
:1005600000AFC7E902017A607968D7E90223C1E9DF
:10057000002307F11407BD4680BC7047B0B584B0B6
:1005800000AFC7E902017A603B603B68D3E9002312
:10059000D7E9020107F002F802460B4614461D4651
:1005A0003B68D3E902013B68D3E9002306F0F6FF7C
:1005B00002460B462046294607F0CEFA02460B4675
:1005C0007968C1E9002307F11007BD46B0BD00BF3F
:1005D000B0B584B000AFC7E902017A603B603B6808
:1005E000D3E902013B68D3E9002306F0D7FF0246B6
:1005F0000B464FF000004FF00001C3F6F07107F01A
:10060000ABFA02460B4614461D463B68D3E902236B
:1006100010461946D7E9022306F0C0FF02460B46F2
:100620002046294607F06EF902460B467968C1E973
:10063000002307F11007BD46B0BD00BFB0B590B0B4
:1006400000AF44F2F853C2F20003D3E9022310468C
:1006500019464FF000024FF0404307F0C5FB034638
:10066000002B10D144F2F853C2F20003D3E9022365
:10067000104619464FF000024FF0000307F0D2FB7E
:100680000346002B12D040F20003C2F2000303F530
:10069000FC73D3E9000144F22863C2F2000303F5BE
:1006A000C54303F12803C3E9000151E044F2F853C4
:1006B000C2F20003D3E90223104619464FF00002AC
:1006C0004FF00003CBF6F07307F084FB0346002BDA
:1006D00012D040F20003C2F2000303F50273D3E923
:1006E000000144F22863C2F2000303F5C54303F19D
:1006F0002803C3E900012BE044F2F853C2F20003DF
:10070000D3E90223104619464FF000024FF00003D0
:10071000CBF6F07307F068FB0346002B0CD044F2D5
:10072000F853C2F20003D3E9022310461946BD4A2A
:10073000BD4BFFF723FF0BE044F2F853C2F2000376
:10074000D3E9022310461946B64AB84BFFF740FFDB
:1007500040F20003C2F2000303F5B763D3E90001DE
:1007600044F22863C2F2000303F5C54303F12803F2
:10077000D3E9002307F0C6F802460B461046194697
:1007800044F22863C2F2000303F5C44303F13003CB
:10079000C3E900014FF00003FB632BE044F2286340
:1007A000C2F2000303F5C44303F13003D3E90001AF
:1007B00040F20003C2F20003FA6B02F1B8024FEA02
:1007C000C2029B18D3E9002307F09CF802460B46AF
:1007D0001046194644F22863C2F20003FA6B02F68F
:1007E0000C324FEAC2029B18C3E90001FB6B03F114
:1007F0000103FB63FB6B642BD0DD44F2F853C2F2C0
:100800000003D3E90223104619464FF000024FF0CF
:10081000000307F0E9FA0346002B10D144F2F85325
:10082000C2F20003D3E90223104619464FF000023A
:100830004FF0804307F0F6FA0346002B12D040F247
:100840000003C2F2000303F50673D3E9000144F28A
:100850002863C2F2000303F5C54303F13003C3E983
:10086000000151E044F2F853C2F20003D3E902233D
:10087000104619464FF000024FF00003C3F6F07324
:1008800007F0A8FA0346002B12D040F20003C2F290
:10089000000303F50A73D3E9000144F22863C2F2AE
:1008A000000303F5C54303F13003C3E900012BE066
:1008B00044F2F853C2F20003D3E90223104619466A
:1008C0004FF000024FF00003C3F6F07307F08CFA0C
:1008D0000346002B0CD044F2F853C2F20003D3E9D4
:1008E000022310461946524A524BFFF747FE0BE0CF
:1008F00044F2F853C2F20003D3E90223104619462A
:100900004B4A4D4BFFF764FE40F20003C2F2000376
:1009100003F6E803D3E9000144F22863C2F20003BE
:1009200003F5C54303F13003D3E9002306F0EAFFE2
:1009300002460B461046194644F22863C2F20003F1
:1009400003F5C44303F13803C3E900014FF000038A
:10095000FB632BE044F22863C2F2000303F5C443B7
:1009600003F13803D3E9000140F20003C2F20003AF
:10097000FA6B02F58F724FEAC2029B18D3E900238B
:1009800006F0C0FF02460B461046194644F22863A3
:10099000C2F20003FA6B02F671324FEAC2029B18F0
:1009A000C3E90001FB6B03F10103FB63FB6B642BE9
:1009B000D0DD44F2F853C2F20003D3E9022310461B
:1009C00019464FF000024FF00003CBF6F07307F02A
:1009D0000BFA0346002B12D144F2F853C2F2000383
:1009E000D3E90223104619464FF000024FF00003EE
:1009F000C3F6F07307F016FA0346002B1ED040F240
:100A00000003C2F2000303F5EC73D3E9000144F2E2
:100A10002863C2F2000303F5C54303F13803C3E9B9
:100A2000000159E0D0A80020D8420020C842002090
:100A3000D8A80020B8420020A842002044F2F85371
:100A4000C2F20003D3E90223104619464FF0000218
:100A50004FF0000307F0BEF90346002B12D040F21E
:100A60000003C2F2000303F5F473D3E9000144F27A
:100A70002863C2F2000303F5C54303F13803C3E959
:100A8000000129E044F2F853C2F20003D3E9022343
:100A9000104619464FF000024FF0000307F0A4F98A
:100AA0000346002B0CD044F2F853C2F20003D3E902
:100AB000022310461946BA4ABA4BFFF75FFD0BE016
:100AC00044F2F853C2F20003D3E902231046194658
:100AD000B34AB54BFFF77CFD40F20003C2F20003BE
:100AE00003F61843D3E9000144F22863C2F200037D
:100AF00003F5C54303F13803D3E9002306F002FFF1
:100B000002460B461046194644F22863C2F200031F
:100B100003F5C44303F14003C3E900014FF00003B0
:100B2000FB634FE044F22863C2F20003FA6B02F663
:100B30000C324FEAC2029B18D3E9000144F2286349
:100B4000C2F20003FA6B02F671324FEAC2029B183E
:100B5000D3E9002306F024FD02460B4614461D4649
:100B600044F22863C2F2000303F5C44303F14003D7
:100B7000D3E9000140F20003C2F20003FA6B02F570
:100B8000C2724FEAC2029B18D3E9002306F0BAFEF4
:100B900002460B462046294606F002FD02460B4659
:100BA0001046194644F22863C2F20003FA6B02F6BB
:100BB0000C324FEAC2029B18C3E90001FB6B03F140
:100BC0000103FB63FB6B642BACDD44F22863C2F2D0
:100BD000000303F5B04303F16003D3E9000144F2DD
:100BE0002863C2F2000303F5C54303F12003C3E900
:100BF00000014FF00003FB632BE044F22863C2F2D4
:100C0000000303F5C54303F12003D3E90001FB6BA7
:100C100003F1010244F22863C2F2000302F60C322F
:100C20004FEAC2029B18D3E9002306F0B9FC024642
:100C30000B461046194644F22863C2F2000303F53E
:100C4000C54303F12003C3E90001FB6B03F101037A
:100C5000FB63FB6B632BD0DD44F22863C2F200031D
:100C600003F5C54303F12003D3E9000144F22863EF
:100C7000C2F2000303F5C54303F14003C3E90001D9
:100C800044F22863C2F2000303F5C54303F14003B5
:100C9000D3E90023104619464FF000024FF000033D
:100CA00007F0ACF80346002B10D040F20003C2F26C
:100CB0000003D3E9020144F22863C2F2000303F502
:100CC000C64303F11003C3E900010EE044F22863B8
:100CD000C2F2000303F5C54303F14003D3E9002347
:100CE00010461946314AFFF739FC44F2F853C2F274
:100CF0000003D3E90423104619464FF000024FF0D9
:100D0000000307F071F80346002B10D144F2F853AA
:100D1000C2F20003D3E90423104619464FF0000243
:100D20004FF0804307F07EF80346002B12D040F2CC
:100D30000003C2F2000303F50E73D3E9000144F28D
:100D40002863C2F2000303F5C54303F14803C3E976
:100D5000000159E044F2F853C2F20003D3E904233E
:100D6000104619464FF000024FF00003C3F6F0732F
:100D700007F030F80346002B1AD040F20003C2F20D
:100D8000000303F51273D3E9000144F22863C2F2B1
:100D9000000303F5C54303F14803C3E9000133E051
:100DA000E0A80020F8420020E842002038A90020F6
:100DB00044F2F853C2F20003D3E904231046194663
:100DC0004FF000024FF00003C3F6F07307F00CF889
:100DD0000346002B0CD044F2F853C2F20003D3E9CF
:100DE000042310461946AD4AAD4BFFF7C7FB0BE095
:100DF00044F2F853C2F20003D3E904231046194623
:100E0000A64AA84BFFF7E4FB40F20003C2F200033E
:100E100003F5935303F11003D3E9000144F228636F
:100E2000C2F2000303F5C54303F14803D3E90023ED
:100E300006F068FD02460B461046194644F2286348
:100E4000C2F2000303F5C44303F14803C3E9000100
:100E50004FF00003FB6329E044F22863C2F2000371
:100E600003F5C44303F14803D3E9000140F2000352
:100E7000C2F20003FA6B02F24F224FEAC2029B1841
:100E8000D3E9002306F03EFD02460B461046194604
:100E900044F22863C2F20003FA6B4FEAC2029B18C5
:100EA000C3E90001FB6B03F10103FB63FB6B642BE4
:100EB000D2DD4FF00003FB632BE0FB6B03F1650415
:100EC00044F22863C2F2000303F5C44303F148036C
:100ED000D3E9000140F20003C2F20003FA6B02F50D
:100EE0002D724FEAC2029B18D3E9002306F00AFDD7
:100EF00002460B461046194644F22863C2F200032C
:100F00004FEAC4029B18C3E90001FB6B03F1010324
:100F1000FB63FB6B642BD0DD4FF00003FB632BE026
:100F2000FB6B03F1CA0444F22863C2F2000303F529
:100F3000C44303F14803D3E9000140F20003C2F2C5
:100F40000003FA6B02F219324FEAC2029B18D3E98E
:100F5000002306F0D7FC02460B461046194644F221
:100F60002863C2F200034FEAC4029B18C3E90001E0
:100F7000FB6B03F10103FB63FB6B642BD0DD4FF0D4
:100F80000003FB632BE0FB6B03F22F1444F2286396
:100F9000C2F2000303F5C44303F14803D3E900019F
:100FA00040F20003C2F20003FA6B02F27E324FEA13
:100FB000C2029B18D3E9002306F0A4FC02460B46AC
:100FC0001046194644F22863C2F200034FEAC402F5
:100FD0009B18C3E90001FB6B03F10103FB63FB6B8F
:100FE000642BD0DD44F2F853C2F20003D3E90A23A4
:100FF000104619464FF000024FF0404306F0F4FE51
:101000000346002B10D144F2F853C2F20003D3E997
:101010000A23104619464FF000024FF0000306F075
:1010200001FF0346002B12D040F20003C2F200037E
:1010300003F59C73D3E9000144F22863C2F2000374
:1010400003F5C64303F11803C3E9000158E044F275
:10105000F853C2F20003D3E90A23104619464FF0B1
:1010600000024FF00003CBF6F07306F0B3FE034628
:10107000002B19D040F20003C2F2000303F5A47361
:10108000D3E9000144F22863C2F2000303F5C6432A
:1010900003F11803C3E9000132E000BFF0A800200B
:1010A000984200208842002044F2F853C2F2000324
:1010B000D3E90A23104619464FF000024FF000030F
:1010C000CBF6F07306F090FE0346002B0CD044F2F2
:1010D000F853C2F20003D3E90A2310461946BC4A6A
:1010E000BC4BFFF74BFA0BE044F2F853C2F200039B
:1010F000D3E90A2310461946B54AB74BFFF768FAF9
:1011000044F22863C2F2000303F5C54303F1480328
:10111000D3E9000144F22863C2F2000303F5C64399
:1011200003F11803D3E9002306F068FE0346002B01
:1011300012D044F22863C2F2000303F5C54303F161
:101140004803D3E9000144F22863C2F2000303F527
:10115000C543C3E9000111E044F22863C2F2000371
:1011600003F5C64303F11803D3E9000144F22863F1
:10117000C2F2000303F5C543C3E9000140F20003D6
:10118000C2F2000303F5F85303F11803D3E9000199
:1011900044F22863C2F2000303F5C543D3E90023F8
:1011A00006F0B0FB02460B461046194644F228638F
:1011B000C2F2000303F5C44303F15003C3E9000185
:1011C0004FF00003FB632BE044F22863C2F20003FC
:1011D00003F5C44303F15003D3E9000140F20003D7
:1011E000C2F20003FA6B02F24F224FEAC2029B18CE
:1011F000D3E9002306F086FB02460B46104619464B
:1012000044F22863C2F20003FA6B02F5CA724FEA95
:10121000C2029B18C3E90001FB6B03F10103FB63EE
:10122000FB6B642BD0DD4FF00003FB632DE0FB6B09
:1012300003F1650444F22863C2F2000303F5C443DA
:1012400003F15003D3E9000140F20003C2F20003AE
:10125000FA6B02F52D724FEAC2029B18D3E9002304
:1012600006F050FB02460B461046194644F228632E
:10127000C2F2000304F5CA724FEAC2029B18C3E926
:101280000001FB6B03F10103FB63FB6B642BCEDD01
:101290004FF00003FB632DE0FB6B03F1CA0444F243
:1012A0002863C2F2000303F5C44303F15003D3E9FA
:1012B000000140F20003C2F20003FA6B02F57972FA
:1012C0004FEAC2029B18D3E9002306F01BFB02463B
:1012D0000B461046194644F22863C2F2000304F597
:1012E000CA724FEAC2029B18C3E90001FB6B03F10B
:1012F0000103FB63FB6B642BCEDD4FF00003FB634C
:101300002DE0FB6B03F22F1444F22863C2F20003BA
:1013100003F5C44303F15003D3E9000140F2000395
:10132000C2F20003FA6B02F249424FEAC2029B1872
:10133000D3E9002306F0E6FA02460B4610461946AA
:1013400044F22863C2F2000304F5CA724FEAC202F3
:101350009B18C3E90001FB6B03F10103FB63FB6B0B
:10136000642BCEDD44F2F853C2F20003D3E90A2322
:10137000104619464FF000024FF0000306F034FD0E
:101380000346002B10D144F2F853C2F20003D3E914
:101390000A23104619464FF000024FF0804306F032
:1013A00041FD0346002B19D040F20003C2F20003B6
:1013B00003F58C73D3E9000144F22863C2F2000301
:1013C00003F5C64303F12003C3E9000158E000BF61
:1013D00040A90020984300208843002044F2F8539D
:1013E000C2F20003D3E90A23104619464FF0000267
:1013F0004FF00003C3F6F07306F0ECFC0346002B3D
:1014000012D040F20003C2F2000303F59473D3E953
:10141000000144F22863C2F2000303F5C64303F15E
:101420002003C3E900012BE044F2F853C2F20003A9
:10143000D3E90A23104619464FF000024FF000038B
:10144000C3F6F07306F0D0FC0346002B0CD044F238
:10145000F853C2F20003D3E90A2310461946BE4AE4
:10146000BE4BFFF78BF80BE044F2F853C2F20003D7
:10147000D3E90A2310461946B74AB94BFFF7A8F833
:1014800044F22863C2F2000303F5C54303F14803A5
:10149000D3E9000144F22863C2F2000303F5C64316
:1014A00003F12003D3E9002306F0A8FC0346002B38
:1014B00012D044F22863C2F2000303F5C54303F1DE
:1014C0004803D3E9000144F22863C2F2000303F5A4
:1014D000C543C3E9000111E044F22863C2F20003EE
:1014E00003F5C64303F12003D3E9000144F2286366
:1014F000C2F2000303F5C543C3E9000140F2000353
:10150000C2F2000303F5155303F13003D3E90001E0
:1015100044F22863C2F2000303F5C543D3E9002374
:1015200006F0F0F902460B461046194644F22863CD
:10153000C2F2000303F5C44303F15803C3E90001F9
:101540004FF00003FB632BE044F22863C2F2000378
:1015500003F5C44303F15803D3E9000140F200034B
:10156000C2F20003FA6B02F2AF424FEAC2029B18CA
:10157000D3E9002306F0C6F902460B461046194689
:1015800044F22863C2F20003FA6B02F54A724FEA92
:10159000C2029B18C3E90001FB6B03F10103FB636B
:1015A000FB6B642BD0DD4FF00003FB632DE0FB6B86
:1015B00003F1650444F22863C2F2000303F5C44357
:1015C00003F15803D3E9000140F20003C2F2000323
:1015D000FA6B02F214524FEAC2029B18D3E90023BD
:1015E00006F090F902460B461046194644F228636D
:1015F000C2F2000304F54A724FEAC2029B18C3E923
:101600000001FB6B03F10103FB63FB6B642BCEDD7D
:101610004FF00003FB632DE0FB6B03F1CA0444F2BF
:101620002863C2F2000303F5C44303F15803D3E96E
:10163000000140F20003C2F20003FA6B02F2193219
:101640004FEAC2029B18D3E9002306F05BF9024679
:101650000B461046194644F22863C2F2000304F513
:101660004A724FEAC2029B18C3E90001FB6B03F107
:101670000103FB63FB6B642BCEDD4FF00003FB63C8
:101680002DE0FB6B03F22F1444F22863C2F2000337
:1016900003F5C44303F15803D3E9000140F200030A
:1016A000C2F20003FA6B02F27E324FEAC2029B18CA
:1016B000D3E9002306F026F902460B4610461946E8
:1016C00044F22863C2F2000304F54A724FEAC202F0
:1016D0009B18C3E90001FB6B03F10103FB63FB6B88
:1016E000642BCEDD44F2F853C2F20003D3E90423A5
:1016F000104619464FF000024FF00003CBF6F0738E
:1017000006F072FB0346002B12D144F2F853C2F2EA
:101710000003D3E90423104619464FF000024FF0AE
:101720000003C3F6F07306F07DFB0346002B19D0CF
:1017300040F20003C2F2000303F51673D3E900017F
:1017400044F22863C2F2000303F5C54303F15003DA
:10175000C3E9000154E000BF48A90020B8430020BD
:10176000A843002044F2F853C2F20003D3E9042353
:10177000104619464FF000024FF0000306F02AFB16
:101780000346002B12D040F20003C2F2000303F51F
:101790001A73D3E9000144F22863C2F2000303F58F
:1017A000C54303F15003C3E9000129E044F2F853B3
:1017B000C2F20003D3E90423104619464FF0000299
:1017C0004FF0000306F010FB0346002B0CD044F250
:1017D000F853C2F20003D3E9042310461946B14A74
:1017E000B14BFEF7CBFE0BE044F2F853C2F200031C
:1017F000D3E9042310461946AA4AAC4BFEF7E8FE8B
:1018000040F20003C2F2000303F52F5303F1080373
:10181000D3E9000144F22863C2F2000303F5C54393
:1018200003F15003D3E9002306F06CF802460B469F
:101830001046194644F22863C2F2000303F5C4437C
:1018400003F16003C3E900014FF00003FB632BE0E9
:1018500044F22863C2F2000303F5C44303F16003BA
:10186000D3E9000140F20003C2F20003FA6B02F276
:101870007A524FEAC2029B18D3E9002306F042F8DD
:1018800002460B461046194644F22863C2F2000392
:10189000FA6B02F2BC424FEAC2029B18C3E9000194
:1018A000FB6B03F10103FB63FB6B642BD0DD4FF09B
:1018B0000003FB632DE0FB6B03F1650444F2286336
:1018C000C2F2000303F5C44303F16003D3E900014E
:1018D00040F20003C2F20003FA6B02F2DF524FEA59
:1018E000C2029B18D3E9002306F00CF802460B460F
:1018F0001046194644F22863C2F2000304F2BC42C7
:101900004FEAC2029B18C3E90001FB6B03F101031C
:10191000FB63FB6B642BCEDD4FF00003FB632DE01C
:10192000FB6B03F1CA0444F22863C2F2000303F51F
:10193000C44303F16003D3E9000140F20003C2F2A3
:101940000003FA6B02F244624FEAC2029B18D3E929
:10195000002305F0D7FF02460B461046194644F215
:101960002863C2F2000304F2BC424FEAC2029B1891
:10197000C3E90001FB6B03F10103FB63FB6B642B09
:10198000CEDD4FF00003FB632DE0FB6B03F22F1461
:1019900044F22863C2F2000303F5C44303F1600379
:1019A000D3E9000140F20003C2F20003FA6B02F235
:1019B000A9624FEAC2029B18D3E9002305F0A2FFF7
:1019C00002460B461046194644F22863C2F2000351
:1019D00004F2BC424FEAC2029B18C3E90001FB6B50
:1019E00003F10103FB63FB6B642BCEDD44F2F85380
:1019F000C2F20003D3E90423104619464FF0000257
:101A00004FF0404306F0F0F90346002B10D144F2AA
:101A1000F853C2F20003D3E90423104619464FF0ED
:101A200000024FF0000306F0FDF90346002B12D030
:101A300040F20003C2F2000303F51E73D3E9000174
:101A400044F22863C2F2000303F5C54303F15803CF
:101A5000C3E9000158E044F2F853C2F20003D3E9AD
:101A60000423104619464FF000024FF00003CBF656
:101A7000F07306F0AFF90346002B19D040F20003D3
:101A8000C2F2000303F52273D3E9000144F2286394
:101A9000C2F2000303F5C54303F15803C3E9000193
:101AA00032E000BFF8A80020784200206842002001
:101AB00044F2F853C2F20003D3E904231046194656
:101AC0004FF000024FF00003CBF6F07306F08CF9F4
:101AD0000346002B0CD044F2F853C2F20003D3E9C2
:101AE000042310461946854A854BFEF747FD0BE057
:101AF00044F2F853C2F20003D3E904231046194616
:101B00007E4A804BFEF764FD40F20003C2F2000300
:101B100003F5615303F13003D3E9000144F2286374
:101B2000C2F2000303F5C54303F15803D3E90023D0
:101B300005F0E8FE02460B461046194644F22863BB
:101B4000C2F2000303F5C44303F16803C3E90001D3
:101B50004FF00003FB632BE044F22863C2F2000362
:101B600003F5C44303F16803D3E9000140F2000325
:101B7000C2F20003FA6B02F2AF424FEAC2029B18B4
:101B8000D3E9002305F0BEFE02460B461046194677
:101B900044F22863C2F20003FA6B02F5CA624FEA0C
:101BA000C2029B18C3E90001FB6B03F10103FB6355
:101BB000FB6B642BD0DD4FF00003FB632DE0FB6B70
:101BC00003F1650444F22863C2F2000303F5C44341
:101BD00003F16803D3E9000140F20003C2F20003FD
:101BE000FA6B02F214524FEAC2029B18D3E90023A7
:101BF00005F088FE02460B461046194644F228635B
:101C0000C2F2000304F5CA624FEAC2029B18C3E99C
:101C10000001FB6B03F10103FB63FB6B642BCEDD67
:101C20004FF00003FB632DE0FB6B03F1CA0444F2A9
:101C30002863C2F2000303F5C44303F16803D3E948
:101C4000000140F20003C2F20003FA6B02F5797260
:101C50004FEAC2029B18D3E9002305F053FE024667
:101C60000B461046194644F22863C2F2000304F5FD
:101C7000CA624FEAC2029B18C3E90001FB6B03F181
:101C80000103FB63FB6B642BCEDD4FF00003FB63B2
:101C90002DE0FB6B03F22F1444F22863C2F2000321
:101CA00003F5C44303F16803D3E9000140F20003E4
:101CB000C2F20003FA6B02F249424FEAC2029B18D9
:101CC000D3E9002305F01EFE02460B4610461946D6
:101CD00044F22863C2F2000304F5CA624FEAC2026A
:101CE0009B18C3E90001FB6B03F10103FB63FB6B72
:101CF000642BCEDD4FF00003FB639DE000A90020C4
:101D0000584200204842002044F22863C2F20003F7
:101D1000FA6B4FEAC2029B18D3E9000144F2286330
:101D2000C2F20003FA6B02F5CA724FEAC2029B18B4
:101D3000D3E9002305F034FC02460B461046194651
:101D400044F22863C2F20003FA6B02F54A724FEACA
:101D5000C2029B18D3E9002305F022FC02460B4681
:101D60001046194644F22863C2F20003FA6B02F2ED
:101D7000BC424FEAC2029B18D3E9002305F010FCD5
:101D800002460B461046194644F22863C2F200038D
:101D9000FA6B02F5CA624FEAC2029B18D3E900232C
:101DA00005F0FEFB02460B461046194644F2286336
:101DB000C2F2000303F5C543C3E9000140F200038A
:101DC000C2F20003FA6B02F2E9124FEAC2029B1858
:101DD000D3E9000144F22863C2F2000303F5C543CE
:101DE000D3E9002305F08EFD02460B461046194646
:101DF00044F22863C2F20003FA6B02F671324FEA32
:101E0000C2029B18C3E9000144F22863C2F2000336
:101E100003F5C543D3E9000144F22863C2F200038D
:101E2000FA6B02F6D6324FEAC2029B18C3E90001F0
:101E3000FB6B03F10103FB63FB6B642B7FF764AF68
:101E400044F22863C2F2000303F5B74303F1080329
:101E5000D3E9000144F22863C2F2000303F5C4434E
:101E600003F17003C3E9000144F22863C2F20003E6
:101E700003F5BD4303F13003D3E9000144F22863C5
:101E8000C2F2000303F5C54303F12003C3E90001D7
:101E90004FF00003FB6353E044F22863C2F20003F7
:101EA00003F5C44303F17003D3E90001FB6B03F1B5
:101EB000010244F22863C2F2000302F671324FEAD3
:101EC000C2029B18D3E9002305F06AFB02460B46C9
:101ED0001046194644F22863C2F2000303F5C443D6
:101EE00003F17003C3E9000144F22863C2F2000366
:101EF00003F5C54303F12003D3E90001FB6B03F1B4
:101F0000010244F22863C2F2000302F6D6324FEA1D
:101F1000C2029B18D3E9002305F042FB02460B46A0
:101F20001046194644F22863C2F2000303F5C54384
:101F300003F12003C3E90001FB6B03F10103FB6321
:101F4000FB6B632BA8DD44F22863C2F2000303F5A8
:101F5000C54303F12003D3E9000144F22863C2F230
:101F6000000303F5C54303F16003C3E9000144F234
:101F70002863C2F2000303F5C54303F16003D3E90C
:101F80000023104619464FF000024FF0000305F001
:101F900035FF0346002B10D040F20003C2F20003CD
:101FA000D3E9060144F22863C2F2000303F5C543F6
:101FB00003F16803C3E900010EE044F22863C2F2B2
:101FC000000303F5C54303F16003D3E90023104682
:101FD00019467E4AFEF7C2FA44F22863C2F20003B1
:101FE00003F5C44303F17003D3E9000144F228630D
:101FF000C2F2000303F5C54303F16803D3E90023EC
:1020000005F0AAFD02460B461046194644F2286325
:10201000C2F2000303F5C44303F17003C3E90001F6
:102020004FF00003FB63A1E0FB6B03F1650244F298
:102030002863C2F200034FEAC2029B18D3E90001F1
:10204000FB6B03F1650244F22863C2F2000302F560
:10205000CA724FEAC2029B18D3E9002305F0A0FA26
:1020600002460B4610461946FB6B03F1650244F22B
:102070002863C2F2000302F54A724FEAC2029B18BB
:10208000D3E9002305F08CFA02460B4610461946A8
:10209000FB6B03F1650244F22863C2F2000302F213
:1020A000BC424FEAC2029B18D3E9002305F078FA3C
:1020B00002460B4610461946FB6B03F1650244F2DB
:1020C0002863C2F2000302F5CA624FEAC2029B18FB
:1020D000D3E9002305F064FA02460B461046194680
:1020E00044F22863C2F2000303F5C543C3E90001CB
:1020F00040F20003C2F20003FA6B02F20F724FEAE1
:10210000C2029B18D3E9000144F22863C2F2000323
:1021100003F5C543D3E9002305F0F4FB02460B4663
:102120001046194644F22863C2F20003FA6B02F625
:1021300071324FEAC2029B18C3E9000144F22863DE
:10214000C2F2000303F5C543D3E9000144F228635A
:10215000C2F20003FA6B02F6D6324FEAC2029B18B3
:10216000C3E90001FB6B03F10103FB63FB6B642B11
:102170007FF75AAF44F22863C2F2000303F5B74376
:1021800003F10803D3E9000144F22863C2F200031B
:1021900003F5C44303F17803C3E9000144F2286363
:1021A000C2F2000303F5BD4303F13003D3E900019C
:1021B00044F22863C2F2000303F5C54303F1200390
:1021C000C3E900014FF00003FB6355E010A90020B4
:1021D00044F22863C2F2000303F5C44303F1780319
:1021E000D3E90001FB6B03F1010244F22863C2F260
:1021F000000302F671324FEAC2029B18D3E90023B2
:1022000005F0CEF902460B461046194644F2286303
:10221000C2F2000303F5C44303F17803C3E90001EC
:1022200044F22863C2F2000303F5C54303F120031F
:10223000D3E90001FB6B03F1010244F22863C2F20F
:10224000000302F6D6324FEAC2029B18D3E90023FC
:1022500005F0A6F902460B461046194644F22863DB
:10226000C2F2000303F5C54303F12003C3E90001F3
:10227000FB6B03F10103FB63FB6B632BA8DD44F2F3
:102280002863C2F2000303F5C54303F12003D3E939
:10229000000144F22863C2F2000303F5C54303F1D1
:1022A0007003C3E9000144F22863C2F2000303F59E
:1022B000C54303F17003D3E90023104619464FF0DC
:1022C00000024FF0000305F099FD0346002B10D0EB
:1022D00040F20003C2F20003D3E90A0144F228638A
:1022E000C2F2000303F5C54303F17803C3E900011B
:1022F0000EE044F22863C2F2000303F5C54303F184
:102300007003D3E9002310461946BF4AFEF726F9A9
:1023100044F22863C2F2000303F5C44303F17803D7
:10232000D3E9000144F22863C2F2000303F5C54378
:1023300003F17803D3E9002305F00EFC02460B46B7
:102340001046194644F22863C2F2000303F5C44361
:1023500003F17803C3E9000144F2F853C2F2000329
:10236000D3E90823104619464FF000024FF04043CE
:1023700005F03AFD0346002B10D144F2F853C2F2A7
:102380000003D3E90823104619464FF000024FF02E
:10239000000305F047FD0346002B12D040F2000376
:1023A000C2F2000303F5BC73D3E9000144F22863D1
:1023B000C2F2000303F5C64303F12803C3E9000199
:1023C00051E044F2F853C2F20003D3E90823104667
:1023D00019464FF000024FF00003CBF6F07305F002
:1023E000F9FC0346002B12D040F20003C2F20003B6
:1023F00003F5C473D3E9000144F22863C2F2000379
:1024000003F5C64303F12803C3E900012BE044F2BE
:10241000F853C2F20003D3E90823104619464FF0DF
:1024200000024FF00003CBF6F07305F0DDFC03462D
:10243000002B0CD044F2F853C2F20003D3E9082376
:1024400010461946714A724BFEF798F80BE044F2B9
:10245000F853C2F20003D3E90823104619466B4A29
:102460006C4BFEF7B5F844F22863C2F2000303F5A3
:10247000C54303F12803D3E9000144F22863C2F203
:10248000000303F5C54303F14803D3E9002305F036
:10249000B5FC0346002B14D044F22863C2F20003BB
:1024A00003F5C54303F12803D3E9000144F228638F
:1024B000C2F2000303F5C54303F11803C3E90001A9
:1024C00013E044F22863C2F2000303F5C54303F1AD
:1024D0004803D3E9000144F22863C2F2000303F584
:1024E000C54303F11803C3E9000144F22863C2F2B3
:1024F000000303F5C54303F11803D3E9000144F2D7
:102500002863C2F2000303F5C64303F12803D3E9AD
:1025100000234FF0010405F071FC0346002B02D1AB
:102520004FF000031C46E3B283F00103DBB2002B43
:1025300013D044F22863C2F2000303F5C64303F14B
:102540002803D3E9000144F22863C2F2000303F533
:10255000C54303F11803C3E9000140F20003C2F2CE
:10256000000303F57B5303F10803D3E9000144F2B0
:102570002863C2F2000303F5C54303F11803D3E94E
:10258000002305F0BFF902460B461046194644F2F7
:102590002863C2F2000303F5C543C3E900014FF00D
:1025A0000003FB6329E044F22863C2F2000303F551
:1025B000C543D3E9000140F20003C2F20003FA6B05
:1025C00002F579724FEAC2029B18D3E9002305F0A5
:1025D00099F902460B461046194644F22863C2F2A6
:1025E0000003FA6B02F2E4724FEAC2029B18C3E9DD
:1025F0000001FB6B03F10103FB63FB6B642BD2DD7A
:102600004FF00003FB6333E020A9002050A9002015
:102610005843002048430020FB6B03F1650444F25B
:102620002863C2F2000303F5C543D3E9000140F279
:102630000003C2F20003FA6B02F27E324FEAC202DA
:102640009B18D3E9002305F05DF902460B461046BE
:10265000194644F22863C2F2000304F2E4724FEA1E
:10266000C2029B18C3E90001FB6B03F10103FB638A
:10267000FB6B642BD0DD44F22863C2F2000303F548
:10268000C54303F13003D3E9000144F22863C2F2E9
:10269000000303F5C54303F14803D3E9002305F024
:1026A000ADFB0346002B14D044F22863C2F20003B2
:1026B00003F5C54303F13003D3E9000144F2286375
:1026C000C2F2000303F5C54303F11803C3E9000197
:1026D00013E044F22863C2F2000303F5C54303F19B
:1026E0004803D3E9000144F22863C2F2000303F572
:1026F000C54303F11803C3E9000144F22863C2F2A1
:10270000000303F5C54303F11803D3E9000144F2C4
:102710002863C2F2000303F5C64303F12803D3E99B
:1027200000234FF0010405F069FB0346002B02D1A2
:102730004FF000031C46E3B283F00103DBB2002B31
:1027400013D044F22863C2F2000303F5C64303F139
:102750002803D3E9000144F22863C2F2000303F521
:10276000C54303F11803C3E9000140F20003C2F2BC
:10277000000303F57B5303F11003D3E9000144F296
:102780002863C2F2000303F5C54303F11803D3E93C
:10279000002305F0B7F802460B461046194644F2EE
:1027A0002863C2F2000303F5C54303F10803C3E93C
:1027B00000014FF00003FB632BE044F22863C2F2F8
:1027C000000303F5C54303F10803D3E9000140F218
:1027D0000003C2F20003FA6B02F219324FEAC2029E
:1027E0009B18D3E9002305F08DF802460B461046EE
:1027F000194644F22863C2F20003FA6B02F6AE02F5
:102800004FEAC2029B18C3E90001FB6B03F101030D
:10281000FB63FB6B642BD0DD4FF00003FB632DE00B
:10282000FB6B03F1650444F22863C2F2000303F575
:10283000C54303F10803D3E9000140F20003C2F2EB
:102840000003FA6B02F249424FEAC2029B18D3E935
:10285000002305F057F802460B461046194644F28D
:102860002863C2F2000304F6AE024FEAC2029B18CC
:10287000C3E90001FB6B03F10103FB63FB6B642BFA
:10288000CEDD44F2F853C2F20003D3E90823104628
:1028900019464FF000024FF00003CBF6F07305F03D
:1028A000A3FA0346002B12D144F2F853C2F20003FC
:1028B000D3E90823104619464FF000024FF00003F9
:1028C000C3F6F07305F0AEFA0346002B12D040F2C7
:1028D0000003C2F2000303F5CC73D3E9000144F214
:1028E0002863C2F2000303F5C64303F13003C3E9D2
:1028F00000014DE044F2F853C2F20003D3E908238B
:10290000104619464FF000024FF0000305F062FA3E
:102910000346002B12D040F20003C2F2000303F57D
:10292000D473D3E9000144F22863C2F2000303F533
:10293000C64303F13003C3E9000129E044F2F85330
:10294000C2F20003D3E90823104619464FF00002F3
:102950004FF0000305F048FA0346002B0CD044F278
:10296000F853C2F20003D3E9082310461946A24ADD
:10297000A24BFDF703FE0BE044F2F853C2F2000352
:10298000D3E90823104619469B4A9D4BFDF720FECC
:1029900044F22863C2F2000303F5C54303F12803A0
:1029A000D3E9000144F22863C2F2000303F5C543F2
:1029B00003F14803D3E9002305F020FA0346002B76
:1029C00014D044F22863C2F2000303F5C54303F1B7
:1029D0002803D3E9000144F22863C2F2000303F59F
:1029E000C54303F11803C3E9000113E044F228636F
:1029F000C2F2000303F5C54303F14803D3E9000124
:102A000044F22863C2F2000303F5C54303F118033F
:102A1000C3E9000144F22863C2F2000303F5C54391
:102A200003F11803D3E9000144F22863C2F2000362
:102A300003F5C64303F13003D3E900234FF001044B
:102A400005F0DCF90346002B02D14FF000031C46D1
:102A5000E3B283F00103DBB2002B13D044F228630E
:102A6000C2F2000303F5C64303F13003D3E90001CA
:102A700044F22863C2F2000303F5C54303F11803CF
:102A8000C3E9000140F20003C2F2000303F57B53E7
:102A900003F11803D3E9000144F22863C2F20003F2
:102AA00003F5C54303F11803D3E9002304F02AFF1B
:102AB00002460B461046194644F22863C2F2000350
:102AC00003F5C54303F11003C3E900014FF0000310
:102AD000FB632BE044F22863C2F2000303F5C54315
:102AE00003F11003D3E9000140F20003C2F2000336
:102AF000FA6B02F244624FEAC2029B18D3E9002348
:102B000004F000FF02460B461046194644F22863C3
:102B1000C2F20003FA6B02F678124FEAC2029B1867
:102B2000C3E90001FB6B03F10103FB63FB6B642B47
:102B3000D0DD4FF00003FB632DE0FB6B03F1650478
:102B400044F22863C2F2000303F5C54303F1100306
:102B5000D3E9000140F20003C2F20003FA6B02F273
:102B60007E324FEAC2029B18D3E9002304F0CAFE6A
:102B700002460B461046194644F22863C2F200038F
:102B800004F678124FEAC2029B18C3E90001FB6BFE
:102B900003F10103FB63FB6B642BCEDD44F228637E
:102BA000C2F2000303F5C54303F13003D3E900018A
:102BB00044F22863C2F2000303F5C54303F148035E
:102BC000D3E9002305F01AF90346002B1AD044F28A
:102BD0002863C2F2000303F5C54303F13003D3E9D0
:102BE000000144F22863C2F2000303F5C54303F178
:102BF0001803C3E9000119E058A900203843002058
:102C00002843002044F22863C2F2000303F5C543C1
:102C100003F14803D3E9000144F22863C2F2000340
:102C200003F5C54303F11803C3E9000144F2286327
:102C3000C2F2000303F5C54303F11803D3E9000111
:102C400044F22863C2F2000303F5C64303F13003E4
:102C5000D3E900234FF0010405F0D0F80346002B20
:102C600002D14FF000031C46E3B283F00103DBB254
:102C7000002B13D044F22863C2F2000303F5C643CD
:102C800003F13003D3E9000144F22863C2F20003E8
:102C900003F5C54303F11803C3E9000144F22863B7
:102CA000C2F2000303F5C54303F11803D3E90001A1
:102CB00040F20003C2F2000303F57B5303F120034B
:102CC000D3E9002304F01EFE02460B4610461946C7
:102CD00044F22863C2F2000303F5C54303F118036D
:102CE000C3E900014FF00003FB632BE044F22863CB
:102CF000C2F2000303F5C54303F11803D3E9000151
:102D000040F20003C2F20003FA6B02F219324FEAFA
:102D1000C2029B18D3E9002304F0F4FD02460B46DF
:102D20001046194644F22863C2F20003FA6B02F619
:102D300042224FEAC2029B18C3E90001FB6B03F178
:102D40000103FB63FB6B642BD0DD4FF00003FB63DF
:102D50002DE0FB6B03F1650444F22863C2F200032B
:102D600003F5C54303F11803D3E9000140F2000362
:102D7000C2F20003FA6B02F2A9624FEAC2029B1888
:102D8000D3E9002304F0BEFD02460B461046194667
:102D900044F22863C2F2000304F642224FEAC20260
:102DA0009B18C3E90001FB6B03F10103FB63FB6BA1
:102DB000642BCEDD4FF00003FB63B3E0FB6B03F14C
:102DC000CA0244F22863C2F200034FEAC2029B180F
:102DD000D3E90001FB6B03F1CA0244F22863C2F29B
:102DE000000302F5CA724FEAC2029B18D3E900231E
:102DF00004F0D6FB02460B4610461946FB6B03F166
:102E0000CA0244F22863C2F2000302F54A724FEA92
:102E1000C2029B18D3E9002304F0C2FB02460B4612
:102E200010461946FB6B03F1CA0244F22863C2F252
:102E3000000302F2BC424FEAC2029B18D3E900230E
:102E400004F0AEFB02460B4610461946FB6B03F13D
:102E5000CA0244F22863C2F2000302F5CA624FEAD2
:102E6000C2029B18D3E9002304F09AFB02460B46EA
:102E70001046194644F22863C2F20003FA6B02F2CC
:102E8000E4724FEAC2029B18D3E9002304F088FBE6
:102E900002460B461046194644F22863C2F200036C
:102EA000FA6B02F6AE024FEAC2029B18D3E9002386
:102EB00004F076FB02460B461046194644F228639E
:102EC000C2F20003FA6B02F678124FEAC2029B18B4
:102ED000D3E9002304F064FB02460B461046194672
:102EE00044F22863C2F20003FA6B02F642224FEA70
:102EF000C2029B18D3E9002304F052FB02460B46A2
:102F00001046194644F22863C2F20003FA6B02F637
:102F100071324FEAC2029B18C3E90001FB6B03F157
:102F20000103FB63FB6B642B7FF748AF44F228631C
:102F3000C2F2000303F5B74303F10803D3E900012C
:102F400044F22863C2F2000303F5C54303F12003F2
:102F5000C3E900014FF00003FB632BE044F2286358
:102F6000C2F2000303F5C54303F12003D3E90001D6
:102F7000FB6B03F1010244F22863C2F2000302F684
:102F800071324FEAC2029B18D3E9002304F008FB18
:102F900002460B461046194644F22863C2F200036B
:102FA00003F5C54303F12003C3E90001FB6B03F103
:102FB0000103FB63FB6B632BD0DD44F22863C2F299
:102FC000000303F5C54303F12003D3E9000144F2F4
:102FD0002863C2F2000303F5C643C3E9000144F2CB
:102FE0002863C2F2000303F5C643D3E90023104669
:102FF00019464FF000024FF0000304F0FFFE0346B5
:10300000002B10D040F20003C2F20003D3E90E01FE
:1030100044F22863C2F2000303F5C64303F1380308
:10302000C3E900010CE044F22863C2F2000303F597
:10303000C643D3E9002310461946A44AFDF78EFA89
:103040004FF00003FB63BBE0FB6B03F22F1244F273
:103050002863C2F200034FEAC2029B18D3E90001C1
:10306000FB6B03F22F1244F22863C2F2000302F555
:10307000CA724FEAC2029B18D3E9002304F090FA07
:1030800002460B4610461946FB6B03F22F1244F220
:103090002863C2F2000302F54A724FEAC2029B188B
:1030A000D3E9002304F07CFA02460B461046194689
:1030B000FB6B03F22F1244F22863C2F2000302F208
:1030C000BC424FEAC2029B18D3E9002304F068FA1D
:1030D00002460B4610461946FB6B03F22F1244F2D0
:1030E0002863C2F2000302F5CA624FEAC2029B18CB
:1030F000D3E9002304F054FA02460B461046194661
:10310000FB6B03F1650244F22863C2F2000302F292
:10311000E4724FEAC2029B18D3E9002304F040FA9C
:1031200002460B4610461946FB6B03F1650244F25A
:103130002863C2F2000302F6AE024FEAC2029B18F5
:10314000D3E9002304F02CFA02460B461046194638
:10315000FB6B03F1650244F22863C2F2000302F63E
:1031600078124FEAC2029B18D3E9002304F018FA40
:1031700002460B4610461946FB6B03F1650244F20A
:103180002863C2F2000302F642224FEAC2029B18F1
:10319000D3E9002304F004FA02460B461046194610
:1031A00044F22863C2F20003FA6B02F6D6324FEA09
:1031B000C2029B18C3E90001FB6B03F10103FB632F
:1031C000FB6B642B7FF740AF44F22863C2F200032D
:1031D00003F5BD4303F13003D3E9000144F2286352
:1031E000C2F2000303F5C54303F12003C3E9000164
:1031F0004FF00003FB632BE044F22863C2F20003AC
:1032000003F5C54303F12003D3E90001FB6B03F190
:10321000010244F22863C2F2000302F6D6324FEAFA
:10322000C2029B18D3E9002304F0BAF902460B4608
:103230001046194644F22863C2F2000303F5C54361
:1032400003F12003C3E90001FB6B03F10103FB63FE
:10325000FB6B632BD0DD44F22863C2F2000303F55D
:10326000C54303F12003D3E9000144F22863C2F20D
:10327000000303F5C64303F10803C3E9000144F268
:103280002863C2F2000303F5C64303F10803D3E940
:103290000023104619464FF000024FF0000304F0DF
:1032A000ADFD0346002B13D040F20003C2F2000331
:1032B000D3E9120144F22863C2F2000303F5C643C6
:1032C00003F14003C3E9000111E000BF60A9002041
:1032D00044F22863C2F2000303F5C64303F1080376
:1032E000D3E9002310461946994AFDF737F944F20D
:1032F0002863C2F2000303F5C44303F13003D3E9AA
:10330000000144F22863C2F2000303F5C44303F151
:103310003803D3E9002304F043F902460B46104674
:10332000194644F22863C2F2000303F5C44303F1D3
:103330004003D3E9002304F033F902460B4610465C
:10334000194644F22863C2F2000303F5C44303F1B3
:103350004803D3E9002304F023F902460B46104644
:10336000194644F22863C2F2000303F5C44303F193
:103370005003D3E9002304F013F902460B4610462C
:10338000194644F22863C2F2000303F5C44303F173
:103390005803D3E9002304F003F902460B46104614
:1033A000194644F22863C2F2000303F5C44303F153
:1033B0006003D3E9002304F0F3F802460B461046FD
:1033C000194644F22863C2F2000303F5C44303F133
:1033D0006803D3E9002304F0E3F802460B461046E5
:1033E000194644F22863C2F2000303F5C543D3E94A
:1033F000002304F0D5F802460B461046194644F265
:103400002863C2F2000303F5C54303F10803D3E9BF
:10341000002304F0C5F802460B461046194644F254
:103420002863C2F2000303F5C54303F11003D3E997
:10343000002304F0B5F802460B461046194644F244
:103440002863C2F2000303F5C54303F11803D3E96F
:10345000002304F0A5F802460B461046194640F238
:103460000003C2F2000303F5844303F11003D3E920
:10347000002304F0D7FC0346002B06D04FF00002D7
:103480004FF00003C3F6F07303E04FF000024FF07B
:10349000000340F20001C2F2000101F5844101F194
:1034A0004001D1E900451046194622462B4604F05A
:1034B000AFFC0346002B00F01B824FF00003FB63C0
:1034C0002DE044F22863C2F20003FA6B02F60C32DC
:1034D0004FEAC2029B18D3E9000140F20003C2F296
:1034E0000003FA6B02F152024FEAC2029B18D3E9C1
:1034F000002304F007FA02460B461046194644F230
:103500002863C2F20003FA6B02F60C324FEAC202E1
:103510009B18C3E90001FB6B03F10103FB63FB6B29
:10352000642BCEDD44F22863C2F2000303F5B043FE
:1035300003F16003D3E9000144F22863C2F20003FF
:1035400003F5C543C3E900014FF00003FB6329E025
:1035500068A9002044F22863C2F2000303F5C543C2
:10356000D3E90001FB6B03F1010244F22863C2F2CC
:10357000000302F60C324FEAC2029B18D3E9002383
:1035800004F00EF802460B461046194644F2286332
:10359000C2F2000303F5C543C3E90001FB6B03F16D
:1035A0000103FB63FB6B632BD4DD44F22863C2F29F
:1035B000000303F5C543D3E9000144F22863C2F2D6
:1035C000000303F5C64303F11003D3E9002304F01D
:1035D000C3FA02460B461046194644F22863C2F26B
:1035E000000303F5C54303F11803C3E900014FF0DD
:1035F0000003FB632DE044F22863C2F20003FA6B80
:1036000002F671324FEAC2029B18D3E9000140F280
:103610000003C2F20003FA6B02F274724FEAC202B4
:103620009B18D3E9002304F06DF902460B461046BF
:10363000194644F22863C2F20003FA6B02F67132B3
:103640004FEAC2029B18C3E90001FB6B03F10103BF
:10365000FB63FB6B642BCEDD44F22863C2F20003F4
:1036600003F5B74303F10803D3E9000144F22863EB
:10367000C2F2000303F5C543C3E900014FF00003A4
:10368000FB6327E044F22863C2F2000303F5C5435D
:10369000D3E90001FB6B03F1010244F22863C2F29B
:1036A000000302F671324FEAC2029B18D3E90023ED
:1036B00003F076FF02460B461046194644F2286393
:1036C000C2F2000303F5C543C3E90001FB6B03F13C
:1036D0000103FB63FB6B632BD4DD44F22863C2F26E
:1036E000000303F5C543D3E9000144F22863C2F2A5
:1036F000000303F5C64303F13803D3E9002304F0C4
:103700002BFA02460B461046194644F22863C2F2D1
:10371000000303F5C54303F12003C3E900014FF0A3
:103720000003FB632DE044F22863C2F20003FA6B4E
:1037300002F6D6324FEAC2029B18D3E9000140F2EA
:103740000003C2F20003FA6B02F2DD724FEAC2021A
:103750009B18D3E9002304F0D5F802460B46104627
:10376000194644F22863C2F20003FA6B02F6D6321D
:103770004FEAC2029B18C3E90001FB6B03F101038E
:10378000FB63FB6B642BCEDD44F22863C2F20003C3
:1037900003F5BD4303F13003D3E9000144F228638C
:1037A000C2F2000303F5C543C3E900014FF0000373
:1037B000FB6327E044F22863C2F2000303F5C5432C
:1037C000D3E90001FB6B03F1010244F22863C2F26A
:1037D000000302F6D6324FEAC2029B18D3E9002357
:1037E00003F0DEFE02460B461046194644F22863FB
:1037F000C2F2000303F5C543C3E90001FB6B03F10B
:103800000103FB63FB6B632BD4DD44F22863C2F23C
:10381000000303F5C54303F11803D3E9000144F2A3
:103820002863C2F2000303F5C44303F10803C3E9AC
:10383000000144F22863C2F2000303F5C44303F11C
:103840007003D3E9000144F22863C2F2000303F5D8
:10385000C44303F11003C3E9000144F22863C2F238
:10386000000303F5C44303F17803D3E9000144F2F4
:103870002863C2F2000303F5C44303F11803C3E94C
:10388000000144F22863C2F2000303F5C54303F1CB
:103890002003D3E9000144F22863C2F2000303F5D8
:1038A000C44303F12003C3E9000144F22863C2F2D8
:1038B000000303F5C543D3E9000144F22863C2F2D3
:1038C000000303F5C64303F14003D3E9002304F0EA
:1038D00043F902460B461046194644F22863C2F2E9
:1038E000000303F5C44303F12803C3E9000122E008
:1038F0004FF00003FB631BE040F20003C2F2000341
:10390000FA6B02F643024FEAC2029B18D3E90001A8
:1039100044F22863C2F20003FA6B02F641424FEA16
:10392000C2029B18C3E90001FB6B03F10103FB63B7
:10393000FB6B042BE0DD44F22863C2F2000303F5C5
:10394000C44303F10803D3E9000144F2D053C2F2A7
:103950000003C3E9000144F22863C2F2000303F547
:10396000C44303F11003D3E9000144F2D053C2F27F
:103970000003C3E9020144F22863C2F2000303F525
:10398000C44303F11803D3E9000144F2D053C2F257
:103990000003C3E9040144F22863C2F2000303F503
:1039A000C44303F12003D3E9000144F2D053C2F22F
:1039B0000003C3E9060144F22863C2F2000303F5E1
:1039C000C44303F12803D3E9000144F2D053C2F207
:1039D0000003C3E9080144F2F853C2F20003D3E93B
:1039E0000623104619464FF000024FF0404304F002
:1039F000FBF90346002B10D144F2F853C2F2000346
:103A0000D3E90623104619464FF000024FF0000399
:103A100004F008FA0346002B10D040F20003C2F273
:103A20000003D3E9160144F22863C2F2000303F550
:103A3000C64303F14803C3E900014FE044F2F853E1
:103A4000C2F20003D3E90623104619464FF00002E4
:103A50004FF00003CBF6F07304F0BCF90346002BE3
:103A600010D040F20003C2F20003D3E91A0144F27D
:103A70002863C2F2000303F5C64303F14803C3E918
:103A800000012BE044F2F853C2F20003D3E906230D
:103A9000104619464FF000024FF00003CBF6F073CA
:103AA00004F0A2F90346002B0CD044F2F853C2F202
:103AB0000003D3E9062310461946B44AB44BFCF779
:103AC0005DFD0BE044F2F853C2F20003D3E9062394
:103AD00010461946AD4AAF4BFCF77AFD44F2F85355
:103AE000C2F20003D3E90623104619464FF0000244
:103AF0004FF00003CBF6F07304F076F90346002B89
:103B000012D144F2F853C2F20003D3E9062310465F
:103B100019464FF000024FF00003C3F6F07304F0B3
:103B200081F90346002B08D040F20003C2F20003E3
:103B3000D3E91E23C7E90C2347E044F2F853C2F24D
:103B40000003D3E90623104619464FF000024FF058
:103B5000000304F03FF90346002B08D040F20003B5
:103B6000C2F20003D3E92223C7E90C232DE044F27B
:103B7000F853C2F20003D3E90623104619464FF06A
:103B800000024FF0000304F02FF90346002B0ED083
:103B900044F2F853C2F20003D3E9062307F13004DC
:103BA0001046194622467C4BFCF7E8FC0DE044F237
:103BB000F853C2F20003D3E9062307F1300410469C
:103BC00019462246754BFCF703FD44F2F853C2F246
:103BD0000003D3E90623104619464FF000024FF0C8
:103BE000000304F001F90346002B10D144F2F8530E
:103BF000C2F20003D3E90623104619464FF0000233
:103C00004FF0804304F00EF90346002B08D040F239
:103C10000003C2F20003D3E92623C7E90A234BE0DD
:103C200044F2F853C2F20003D3E9062310461946C2
:103C30004FF000024FF00003C3F6F07304F0CAF82F
:103C40000346002B08D040F20003C2F20003D3E980
:103C50002A23C7E90A232FE044F2F853C2F20003F3
:103C6000D3E90623104619464FF000024FF0000337
:103C7000C3F6F07304F0B8F80346002B0ED044F2FC
:103C8000F853C2F20003D3E9062307F128041046D3
:103C900019462246424BFCF771FC0DE044F2F85302
:103CA000C2F20003D3E9062307F12804104619469F
:103CB00022463C4BFCF78CFC44F2F853C2F2000362
:103CC000D3E90023104619464FF000024FF040435D
:103CD00004F08AF80346002B10D144F2F853C2F2E4
:103CE0000003D3E90023104619464FF000024FF0BD
:103CF000000304F097F80346002B08D040F20003BD
:103D0000C2F20003D3E92E23C7E908235CE044F2A2
:103D1000F853C2F20003D3E90023104619464FF0CE
:103D200000024FF00003CBF6F07304F053F80346A3
:103D3000002B08D040F20003C2F20003D3E9322383
:103D4000C7E9082340E044F2F853C2F20003D3E984
:103D50000023104619464FF000024FF00003CBF647
:103D6000F07304F041F80346002B1FD044F2F853DF
:103D7000C2F20003D3E9002307F1200410461946DC
:103D80002246094BFCF7FAFB1EE000BF70A9002099
:103D90007844002068440020584400204844002013
:103DA00038440020284400201844002044F2F853EE
:103DB000C2F20003D3E9002307F12004104619469C
:103DC0002246B04BFCF704FC44F2F853C2F2000365
:103DD000D3E90023104619464FF000024FF00003CC
:103DE00004F002F80346002B10D144F2F853C2F25B
:103DF0000003D3E90023104619464FF000024FF0AC
:103E0000804304F00FF80346002B08D040F2000373
:103E1000C2F20003D3E93623C7E906234BE044F29C
:103E2000F853C2F20003D3E90023104619464FF0BD
:103E300000024FF00003C3F6F07303F0CBFF03461C
:103E4000002B08D040F20003C2F20003D3E93A236A
:103E5000C7E906232FE044F2F853C2F20003D3E986
:103E60000023104619464FF000024FF00003C3F63E
:103E7000F07303F0B9FF0346002B0ED044F2F85361
:103E8000C2F20003D3E9002307F1180410461946D3
:103E900022467D4BFCF772FB0DE044F2F853C2F270
:103EA0000003D3E9002307F11804104619462246FF
:103EB000764BFCF78DFB44F2F853C2F20003D3E9D2
:103EC0000023104619464FF000024FF00003CBF6D6
:103ED000F07303F089FF0346002B12D144F2F8532C
:103EE000C2F20003D3E90023104619464FF0000246
:103EF0004FF00003C3F6F07303F094FF0346002B6A
:103F000008D040F20003C2F20003D3E93E23C7E920
:103F1000042349E044F2F853C2F20003D3E900233A
:103F2000104619464FF000024FF0000303F052FF15
:103F30000346002B0AD040F20003C2F2000303F54F
:103F40008473D3E90023C7E904232DE044F2F85336
:103F5000C2F20003D3E90023104619464FF00002D5
:103F60004FF0000303F040FF0346002B0ED044F255
:103F7000F853C2F20003D3E9002307F110041046FE
:103F800019462246424BFCF7F9FA0DE044F2F85389
:103F9000C2F20003D3E9002307F1100410461946CA
:103FA00022463C4BFCF714FB44F2F853C2F20003E8
:103FB000D3E90A23104619464FF000024FF00003E0
:103FC000CBF6F07303F010FF0346002B12D144F23E
:103FD000F853C2F20003D3E90A23104619464FF002
:103FE00000024FF00003C3F6F07303F01BFF03461B
:103FF000002B0AD040F20003C2F2000303F5AC73B9
:10400000D3E90023C7E9022356E044F2F853C2F291
:104010000003D3E90A23104619464FF000024FF07F
:10402000000303F0D7FE0346002B0AD040F2000342
:10403000C2F2000303F5B473D3E90023C7E90223F6
:104040003AE044F2F853C2F20003D3E90A231046DF
:1040500019464FF000024FF0000303F0C5FE03467F
:10406000002B1BD044F2F853C2F20003D3E90A2319
:1040700007F10804104619462246074BFCF77EFA62
:104080001AE000BF08440020F8430020E843002065
:10409000D8430020C84300207843002044F2F8535E
:1040A000C2F20003D3E90A2307F1080410461946B7
:1040B00022466F4BFCF78CFA44F2F853C2F200032D
:1040C000D3E90823104619464FF000024FF00003D1
:1040D00003F08AFE0346002B10D144F2F853C2F2DB
:1040E0000003D3E90823104619464FF000024FF0B1
:1040F000804303F097FE0346002B0AD040F20003F2
:10410000C2F2000303F5DC73D3E90023C7E90023FF
:104110004BE044F2F853C2F20003D3E908231046FF
:1041200019464FF000024FF00003C3F6F07303F09E
:1041300051FE0346002B0AD040F20003C2F20003F6
:1041400003F5E473D3E90023C7E900232DE044F22B
:10415000F853C2F20003D3E90823104619464FF082
:1041600000024FF00003C3F6F07303F03DFE034678
:10417000002B0DD044F2F853C2F20003D3E9082318
:104180003C461046194622463A4BFCF7F7F90CE03C
:1041900044F2F853C2F20003D3E908233C46104628
:1041A00019462246344BFCF713FA44F2F853C2F294
:1041B0000003D3E9000144F22863C2F2000303F5CF
:1041C000C34303F15803C3E9000144F2F853C2F2B8
:1041D0000003D3E9020144F22863C2F2000303F5AD
:1041E000C34303F16003C3E9000144F2F853C2F290
:1041F0000003D3E9040144F22863C2F2000303F58B
:10420000C34303F16803C3E9000144F2F853C2F267
:104210000003D3E9060144F22863C2F2000303F568
:10422000C34303F17003C3E9000144F2F853C2F23F
:104230000003D3E9080144F22863C2F2000303F546
:10424000C34303F17803C3E9000144F2F853C2F217
:104250000003D3E90A0144F22863C2F2000303F524
:10426000C443C3E9000107F14007BD46B0BD00BF2C
:1042700068430020184300200843002080B500AFA9
:1042800044F22860C2F200004FF0000146F25032C2
:1042900003F042FE44F2F850C2F200004FF0000179
:1042A0004FF0300203F038FE44F2D050C2F200006A
:1042B0004FF000014FF0280203F02EFE80BD00BF3A
:1042C00080B500AF4FF400104FF0010102F0FCFC8C
:1042D0004FF002004FF0010102F0CCFC44F27853A1
:1042E000C2F200034FF440721A6044F27853C2F2F3
:1042F00000034FF002021A7144F27853C2F2000335
:104300004FF000025A7144F27853C2F200034FF0AA
:1043100001029A7144F27853C2F200034FF0010295
:10432000DA714FF48060C4F2020044F27851C2F2B4
:10433000000102F087F84FF48060C4F202004FF0F1
:1043400008014FF0040202F077F94FF48060C4F2E4
:1043500002004FF009014FF0040202F06DF94AF635
:104360008813C2F2000348F2A062C0F201021A6090
:104370004AF68813C2F200034FF000029A804AF610
:104380008813C2F200034BF6FF72DA804AF68813F4
:10439000C2F200034FF000021A814AF68813C2F2FB
:1043A00000034FF480625A814AF68813C2F2000378
:1043B0004FF480429A814FF4A840C4F200004AF6BC
:1043C0008811C2F2000102F08BF94FF4A840C4F248
:1043D00000004FF0010102F059FA4FF004004FF4D1
:1043E000FA7100F077F880BD80B582B000AF024668
:1043F0000B46FA71BB714FF4A840C4F200004FF0B5
:10440000010102F063FA00BF4FF4A840C4F20000BB
:104410004FF00101C0F2030102F0C6FA0346002B7F
:10442000F2D04FF4A840C4F200004FF0D0014FF09A
:10443000000202F08BFA00BF4FF4A840C4F2000063
:104440004FF08201C0F2070102F0AEFA0346002BE2
:10445000F2D04FF4A840C4F200004FF0010102F086
:1044600015FAFB794FF4A840C4F20000194602F097
:104470008BFA00BF4FF4A840C4F200004FF0840153
:10448000C0F2070102F090FA0346002BF2D0BB798C
:104490004FF4A840C4F20000194602F075FA00BFBC
:1044A0004FF4A840C4F200004FF08401C0F20701AD
:1044B00002F07AFA0346002BF2D04FF4A840C4F27F
:1044C00000004FF0010102F021FA07F10807BD4694
:1044D00080BD00BF80B582B000AF786039607B6876
:1044E000042B0ED144F2D043C2F200034FF0080275
:1044F0001A6044F28843C2F200034FF400521A607B
:1045000031E07B68082B0ED144F2D043C2F20003A5
:104510004FF010021A6044F28843C2F200034FF4D5
:1045200080521A601FE07B68102B0ED144F2D043FA
:10453000C2F200034FF018021A6044F28843C2F23C
:1045400000034FF400621A600DE044F2D043C2F25F
:1045500000034FF000021A6044F28843C2F20003E5
:104560004FF480421A603B68B3F5FA7F0ED144F2F3
:10457000D443C2F200034FF008021A6044F28C43A5
:10458000C2F200034FF041021A6033E03B68B3F51A
:104590007A7F0ED144F2D443C2F200034FF01002EE
:1045A0001A6044F28C43C2F200034FF020021A60FA
:1045B00020E03B68B3F5FA6F0ED144F2D443C2F267
:1045C00000034FF018021A6044F28C43C2F2000359
:1045D0004FF010021A600DE044F2D443C2F200031F
:1045E0004FF000021A6044F28C43C2F200034FF015
:1045F00083021A604FF01A004FF00001FFF7F4FE3B
:1046000044F2D043C2F200031B68DBB24FF01C003F
:104610001946FFF7E9FE44F2D443C2F200031B68D7
:10462000DBB24FF01B001946FFF7DEFE4FF06B00C8
:104630004FF00001FFF7D8FE07F10807BD4680BD27
:1046400080B500AF4FF001004FF0010102F012FB06
:104650004FF480404FF0010102F060FB4FF0010089
:104660004FF0010102F030FB4FF004004FF0010168
:1046700002F02AFB4FF400304FF0010102F04EFB34
:104680004FF480204FF0010102F048FB4FF0800012
:104690004FF0010102F018FB4FF480704FF0010160
:1046A00002F012FB44F27853C2F200034FF00F0203
:1046B0001A6044F27853C2F200034FF000021A71FC
:1046C00044F27853C2F200034FF003025A7144F2ED
:1046D0007853C2F200034FF00102DA714FF000008C
:1046E000C4F2020044F27851C2F2000101F0AAFEC5
:1046F00044F27853C2F200034FF0F0021A6044F221
:104700007853C2F200034FF000021A7144F278535A
:10471000C2F200034FF003025A7144F27853C2F21E
:1047200000034FF00102DA714FF00000C4F2020002
:1047300044F27851C2F2000101F084FE4FF0000013
:104740004FF0000102F03EFB4FF000004FF001017E
:1047500002F038FB4FF000004FF0020102F032FB94
:104760004FF000004FF0030102F02CFB4FF000006F
:104770004FF0040102F026FB4FF000004FF005015E
:1047800002F020FB4FF000004FF0060102F01AFB90
:104790004FF000004FF0070102F014FB4AF6A4139B
:1047A000C2F200034FF000021A714AF6A413C2F2DB
:1047B00000034FF010025A714AF6A413C2F200032C
:1047C0004FF001029A714AF6A413C2F200034FF0AF
:1047D00001021A604AF6A410C2F2000001F068FD5E
:1047E0004AF6A413C2F200034FF002021A604AF61E
:1047F000A410C2F2000001F05BFD4AF6A413C2F25D
:1048000000034FF004021A604AF6A410C2F200003E
:1048100001F04EFD4AF6A413C2F200034FF0080265
:104820001A604AF6A410C2F2000001F041FD4AF6F7
:10483000A413C2F200034FF010021A604AF6A4104B
:10484000C2F2000001F034FD4AF6A413C2F20003E4
:104850004FF020021A604AF6A410C2F2000001F0E4
:1048600027FD4AF6A413C2F200034FF040021A607B
:104870004AF6A410C2F2000001F01AFD4AF6A41391
:10488000C2F200034FF080021A604AF6A410C2F28E
:10489000000001F00DFD44F28053C2F200034FF01E
:1048A00005025A7044F28053C2F200034FF0010235
:1048B0009A7044F28053C2F200034FF00102DA70A2
:1048C00044F28053C2F200034FF00A021A7044F21D
:1048D0008050C2F2000000F06DFC44F28053C2F23E
:1048E00000034FF017021A7044F28050C2F2000029
:1048F00000F060FC44F28053C2F200034FF0190252
:104900001A7044F28050C2F2000000F053FC44F2EE
:104910008053C2F200034FF01A021A7044F2805022
:10492000C2F2000000F046FC44F28053C2F20003E1
:104930004FF02C021A7044F28050C2F2000000F0D6
:1049400039FC44F28053C2F200034FF02D021A707A
:1049500044F28050C2F2000000F02CFC44F280537C
:10496000C2F200034FF001025A7044F28053C2F2C7
:1049700000034FF001029A7044F28053C2F2000328
:104980004FF00102DA7044F28053C2F200034FF09C
:104990001E021A7044F28050C2F2000000F00AFCBD
:1049A00044F28053C2F200034FF006021A7044F240
:1049B0008050C2F2000000F0FDFB44F28053C2F2CE
:1049C00000034FF007021A7044F28050C2F2000058
:1049D00000F0F0FB44F28053C2F200034FF00802F3
:1049E0001A7044F28050C2F2000000F0E3FB44F27F
:1049F0008053C2F200034FF009021A7044F2805053
:104A0000C2F2000000F0D6FB4AF69813C2F200038F
:104A10004FF000029A724AF69813C2F200034FF068
:104A200000025A804AF69813C2F200034FF00002C7
:104A30001A814AF69813C2F200034FF02A021A8034
:104A40004AF69813C2F200034CF250325A604FF407
:104A50000060C4F200004AF69811C2F2000102F0B0
:104A600009FA4FF40060C4F200004FF001014FF06A
:104A7000010202F0C1FA4FF40060C4F200004FF0EE
:104A8000010102F099FA4AF69813C2F200034FF0BE
:104A900000021A814AF69813C2F200034FF0040292
:104AA0001A804AF69813C2F200034FF6FF725A605A
:104AB0004FF080404AF69811C2F2000102F0DAF994
:104AC0004FF080404FF0010102F076FA4AF6981359
:104AD000C2F200034FF000021A814AF69813C2F2A4
:104AE00000034FF4C8621A804AF69813C2F200031A
:104AF00042F210725A604FF48840C4F201004AF644
:104B00009811C2F2000102F0B5F94FF48840C4F2E6
:104B100001004FF001014FF0010202F06DFA4FF475
:104B20008840C4F201004FF0010102F045FA4FF451
:104B30009040C4F201004AF69811C2F2000102F05E
:104B400099F94FF49040C4F201004FF001014FF089
:104B5000010202F051FA4FF49040C4F201004FF00C
:104B6000010102F029FA4AF69813C2F200034FF04D
:104B700000021A814AF69813C2F200034FF45272EF
:104B80001A804AF69813C2F2000342F210725A6079
:104B90004FF4E050C4F200004AF69811C2F200014E
:104BA00002F068F94FF4E050C4F200004FF0010148
:104BB0004FF0010202F020FA4FF4E050C4F200007E
:104BC0004FF0010102F0F8F94FF40050C4F2000078
:104BD0004AF69811C2F2000102F04CF94FF400506D
:104BE000C4F200004FF001014FF0010202F004FA9C
:104BF0004FF40050C4F200004FF0010102F0DCF964
:104C000080BD00BF80B500AF4FF40060C4F200006B
:104C10004FF0010102F014FA0346002B18D044F2C1
:104C2000D843C2F200034FF000004FF00001C3E987
:104C3000000144F2D843C2F200034FF000029A6030
:104C40004FF40060C4F200004FF0010102F028FAB6
:104C500080BD00BF80B500AF4FF0010001F0C4FB84
:104C60000346002B2AD04FF00000C4F202004FF0A0
:104C7000010101F0A7FC0346002B0DD14FF080404D
:104C800002F08EF90346184600F0AEF944F2D8431C
:104C9000C2F20003C3E900014FF080404FF0000171
:104CA00002F062F94FF40060C4F200004FF000011E
:104CB00002F05AF94FF0010001F0B4FB80BD00BFD3
:104CC00080B500AF4FF0020001F08EFB0346002BD1
:104CD00028D04FF00000C4F202004FF0020101F0B2
:104CE00071FC0346002B13D14FF0804002F058F9BD
:104CF0000346184600F078F902460B46104619465E
:104D000003F0BAF8024644F2D843C2F200039A60B4
:104D10004FF080404FF0000102F026F94FF0020002
:104D200001F080FB80BD00BF80B500AF4FF00400F4
:104D300001F05AFB4FF0040001F074FB80BD00BF8E
:104D400080B500AF4FF0080001F04EFB4FF00800B7
:104D500001F068FB80BD00BF80B500AF4FF4884014
:104D6000C4F201004FF0010102F06AF90346002B82
:104D700011D044F2F043C2F200034FF000004FF0B4
:104D80000001C3E900014FF48840C4F201004FF074
:104D9000010102F085F980BD80B500AF4FF490406D
:104DA000C4F201004FF0010102F04AF90346002B62
:104DB00011D044F2F043C2F200034FF000004FF074
:104DC0000001C3E902014FF49040C4F201004FF02A
:104DD000010102F065F980BD80B500AF4FF4E050ED
:104DE000C4F200004FF0010102F02AF90346002B43
:104DF00011D044F2F043C2F200034FF000004FF034
:104E00000001C3E904014FF4E050C4F200004FF088
:104E1000010102F045F980BD80B500AF4FF40050AC
:104E2000C4F200004FF0010102F00AF90346002B22
:104E300011D044F2F043C2F200034FF000004FF0F3
:104E40000001C3E906014FF40050C4F200004FF026
:104E5000010102F025F980BD80B500AF4FF01000D0
:104E600001F0C2FA0346002B1BD04FF48840C4F275
:104E7000010002F095F80346184600F081F844F26C
:104E8000F043C2F20003C3E900014FF48840C4F2CA
:104E900001004FF0000102F067F84FF0100001F040
:104EA000C1FA80BD80B500AF4FF0200001F09CFA40
:104EB0000346002B1BD04FF49040C4F2010002F0D7
:104EC0006FF80346184600F05BF844F2F043C2F274
:104ED0000003C3E902014FF49040C4F201004FF017
:104EE000000102F041F84FF0200001F09BFA4FF072
:104EF000400001F079FA0346002B1BD04FF4E0503C
:104F0000C4F2000002F04CF80346184600F038F8EE
:104F100044F2F043C2F20003C3E904014FF4E0504D
:104F2000C4F200004FF0000102F01EF84FF0400004
:104F300001F078FA4FF0800001F056FA0346002B9A
:104F40001BD04FF40050C4F2000002F029F80346D1
:104F5000184600F015F844F2F043C2F20003C3E92A
:104F600006014FF40050C4F200004FF0000101F0C0
:104F7000FBFF4FF0800001F055FA80BD00000000FB
:104F800080B582B000AF7860786802F045FC0246D8
:104F90000B461046194612A3D3E9002302F0DCFDAC
:104FA00002460B46104619464FF000024FF0000330
:104FB000C4F22C0302F0A6FC02460B464FF00000A0
:104FC0004FF00001C4F24E0102F0C6FD02460B464E
:104FD0001046194607F10807BD4680BDAFF30080B3
:104FE00000000000006AF84080B582B000AF786031
:104FF0007B68B3F57A5F2BD97A6848F2CF439A423F
:1050000026D8786802F008FC02460B46104619467E
:105010004FF000024FF48043C4F2CF0302F0BEFA17
:1050200002460B46104619460FA3D3E9002302F0AF
:1050300093FD02460B46104619464FF000024FF012
:105040000003C3F6F07302F0A9FA02460B4603E030
:105050004FF000024FF000031046194607F1080711
:10506000BD4680BDAFF30080000000000094C14049
:1050700080B500AF02F080F945F2555001F0CCFC4C
:105080004FF0000001F0D8FC40F2FF7001F0E4FCAA
:1050900001F0FEFCFFF7D4FA00F0FEF800F024FB6C
:1050A000FBF772F8FFF70CF9FFF7E8F844F2F85352
:1050B000C2F200034FF000004FF00001C3E900010D
:1050C00044F2D843C2F20003D3E9000144F2F8539A
:1050D000C2F20003C3E9020144F2D843C2F2000362
:1050E0009B68184602F0BAFB44F2F853C2F2000380
:1050F000C3E9040144F2F853C2F200034FF0000088
:105100004FF00001C3E9060144F2F853C2F2000374
:105110004FF000004FF00001C3E9080144F2F853DA
:10512000C2F200034FF000004FF00001C3E90A0192
:10513000FBF784FA44F2D053C2F20003D3E9000132
:1051400044F21053C2F20003C3E90E0144F2D053FB
:10515000C2F20003D3E9020144F21053C2F2000389
:10516000C3E9000144F2D053C2F20003D3E90401C1
:1051700044F21053C2F20003C3E9020144F2D053D7
:10518000C2F20003D3E9060144F21053C2F2000355
:10519000C3E9040144F2D053C2F20003D3E9080189
:1051A00044F21053C2F20003C3E9060101F064FCAB
:1051B0007CE700BF80B485B000AF78604FF000039B
:1051C000FB734FF00003BB734FF00F037B737B68DF
:1051D000DB78002B45D04FF46D43CEF20003DB6843
:1051E0006FEA030303F4E0634FEA1323FB73FB7BD3
:1051F000C3F10403BB737A7BFB7B42FA03F37B733B
:105200007B685B781A46BB7B02FA03F3FB737B680F
:105210009A787B7B1340DAB2FB7B1343FB73FB7BF7
:105220004FEA0313FB734FF46143CEF200037A6835
:1052300012789B18FA7B83F800234FF46143CEF277
:1052400000037A6812784FEA5212D2B2796809786C
:1052500001F01F014FF0010000FA01F143F82210A4
:1052600014E04FF46143CEF200037A6812784FEAFB
:105270005212D2B27968097801F01F014FF0010093
:1052800000FA01F102F1200243F8221007F114079D
:10529000BD4680BC704700BF80B500AF4FF0020034
:1052A0004FF0010101F0E6FC4FF004004FF0010166
:1052B00001F0E0FC4FF002004FF0010101F004FDAD
:1052C00044F27853C2F200034FF001021A7144F223
:1052D0007853C2F200034FF000029A7144F27853FF
:1052E000C2F200034FF003025A7144F27853C2F243
:1052F00000034FF00002DA7144F27853C2F2000367
:105300004FF470721A604FF40060C4F2020044F26D
:105310007851C2F2000101F095F844F27853C2F2DC
:1053200000034FF470421A604FF48060C4F2020030
:1053300044F27851C2F2000101F084F844F2805343
:10534000C2F200034FF002025A7044F28053C2F2DC
:1053500000034FF002029A7044F28053C2F200033D
:105360004FF00102DA7044F28053C2F200034FF0B2
:105370001D021A7044F28050C2F20000FFF71AFFBB
:105380004AF69813C2F200034FF000021A814AF65F
:105390009813C2F200034FF004021A804AF69813E1
:1053A000C2F200034FF000025A804AF69813C2F28C
:1053B00000034FF6FF725A604AF69813C2F20003D8
:1053C0004FF000029A724FF48060C4F200004AF677
:1053D0009811C2F2000101F04DFD4FF48060C4F25B
:1053E00000004FF001014FF0010201F005FE4FF403
:1053F0008060C4F200004FF0010101F0DDFD80BDCE
:1054000080B500AF4FF48060C4F200004FF001019E
:1054100001F016FE0346002B00F0FC8044F25053CE
:10542000C2F200031B68042B00F2F48001A252F8C0
:1054300023F000BF49540008A75400080555000890
:1054400063550008C155000844F21053C2F200032E
:10545000D3E900231046194600F0E6F803464FF45E
:105460008060C4F20000194601F08CFD4FF48060AA
:10547000C4F202004FF4004101F0C2F84FF40060A2
:10548000C4F202004FF0400101F0C8F844F250535A
:10549000C2F200031B6803F1010244F25053C2F24E
:1054A00000031A60B6E044F21053C2F20003D3E9DD
:1054B00002231046194600F0B7F803464FF4806007
:1054C000C4F20000194601F05DFD4FF40060C4F223
:1054D00002004FF0400101F093F84FF40060C4F275
:1054E00002004FF0800101F099F844F25053C2F2EB
:1054F00000031B6803F1010244F25053C2F200039F
:105500001A6087E044F21053C2F20003D3E9042387
:105510001046194600F088F803464FF48060C4F244
:105520000000194601F02EFD4FF40060C4F20200A5
:105530004FF0800101F064F84FF40060C4F2020003
:105540004FF4807101F06AF844F25053C2F2000344
:105550001B6803F1010244F25053C2F200031A60C7
:1055600058E044F21053C2F20003D3E90623104678
:10557000194600F059F803464FF48060C4F2000069
:10558000194601F0FFFC4FF40060C4F202004FF432
:10559000807101F035F84FF40060C4F202004FF45E
:1055A000007101F03BF844F25053C2F200031B6853
:1055B00003F1010244F25053C2F200031A6029E0E1
:1055C00044F21053C2F20003D3E90E2310461946E9
:1055D00000F02AF803464FF48060C4F20000194638
:1055E00001F0D0FC4FF40060C4F202004FF40071EF
:1055F00001F006F84FF48060C4F202004FF400415D
:1056000001F00CF844F25053C2F200034FF00002D4
:105610001A6000BF4FF48060C4F200004FF0010137
:1056200001F03EFD80BD00BF80B582B000AFC7E98C
:105630000001D7E900014FF000024FF00003C3F66C
:10564000F07302F0EFFB0346002B07D04FF000028F
:105650004FF00003C3F6F073C7E90023D7E9000158
:105660004FF000024FF00003CBF6F07302F0BCFBEA
:105670000346002B07D04FF000024FF00003CBF69B
:10568000F073C7E90023D7E900014FF000024FF0A3
:105690000003C3F6F07301F083FF02460B46104689
:1056A00019460FA3D3E9002302F02CF902460B465A
:1056B000104619464FF000024FF48043C4F2CF0366
:1056C00001F06EFF02460B461046194602F0B4FB8D
:1056D0000346184607F10807BD4680BDAFF30080BA
:1056E000000000000094C14080B500AF4FF0020000
:1056F0004FF0010101F0BEFA4FF010004FF0010130
:1057000001F00CFB44F27853C2F200034FF0C002E8
:105710001A6044F27853C2F200034FF002021A7189
:1057200044F27853C2F200034FF002025A7144F27D
:105730007853C2F200034FF000029A7144F278539A
:10574000C2F200034FF00102DA714FF48060C4F23C
:10575000020044F27851C2F2000100F073FE4FF4EF
:105760008060C4F202004FF006014FF0070200F023
:1057700063FF4FF48060C4F202004FF007014FF066
:10578000070200F059FF4AF6AC13C2F200034FF4CF
:1057900016521A604AF6AC13C2F200034FF0000230
:1057A0009A804AF6AC13C2F200034FF00002DA808E
:1057B0004AF6AC13C2F200034FF000021A814AF617
:1057C000AC13C2F200034FF000029A814AF6AC1308
:1057D000C2F200034FF00C025A814FF48050C4F221
:1057E00001004AF6AC11C2F2000101F06BFC4FF46B
:1057F0008050C4F2010040F225514FF0010201F047
:1058000069FD44F28053C2F200034FF025021A7082
:1058100044F28053C2F200034FF006025A7044F281
:105820008053C2F200034FF006029A7044F2805394
:10583000C2F200034FF00102DA7044F28050C2F26B
:105840000000FFF7B7FC4FF48050C4F201004FF0A6
:10585000010101F00DFD80BD80B582B000AF4FF0B9
:1058600000037B604FF000037B601BE04FF480502F
:10587000C4F2010001F01CFD03460A2B16D04FF4C0
:105880008050C4F2010001F013FD0346DAB24AF67B
:10589000BC13C2F2000379685B181A707B6803F1CD
:1058A00001037B607B68642BE0DD00E000BF07F153
:1058B0000807BD4680BD00BF80B582B000AF48F28A
:1058C0004403C0F600037B6040F20003C2F2000311
:1058D0003B600BE07B681A683B681A603B6803F129
:1058E00004033B607B6803F104037B603A6844F285
:1058F000A043C2F200039A42ECD3084808494FF093
:1059000000028842B8BF40F8042BFFF6FAAFFFF759
:10591000AFFB07F10807BD4680BD0000A044002092
:1059200020AA002080B400AFFEE700BF80B500AF22
:105930004FF480704FF0010101F01AFA4FF48070BB
:105940004FF0000101F014FA80BD00BF80B485B0B3
:1059500000AF786039604FF00003FB604FF0000348
:10596000FB727B685B68FB60FB6823F0407323F489
:105970008073FB603B681B794FEA03223B681B681E
:105980001343FA681343FB607B68FA685A607B68CC
:105990009B68FB60FA684FF2FD73CCF2FF03134083
:1059A000FB603B681A693B68DB681A433B689B688D
:1059B0001A433B685B794FEA43031343FA68134386
:1059C000FB607B68FA689A607B68DB6AFB60FB6857
:1059D00023F47003FB603B681B7D03F1FF33DAB2F5
:1059E000FB7A1343FB72FB7A4FEA0353FA681343C3
:1059F000FB607B68FA68DA6207F11407BD4680BC79
:105A0000704700BF80B483B000AF78607B684FF010
:105A100000021A607B684FF000021A717B684FF039
:105A200000025A717B684FF000029A607B684FF069
:105A30000002DA607B684FF000021A617B684FF069
:105A400001021A7507F10C07BD4680BC704700BF04
:105A500080B485B000AF78604FF00003FB604FF476
:105A60000C53C4F201035B68FB60FA6843F2E00385
:105A7000CFF6FC731340FB607B681A687B685B6839
:105A80001A437B689B681A437B68DB681343FA6898
:105A90001343FB604FF40C53C4F20103FA685A60DD
:105AA00007F11407BD4680BC704700BF80B483B0C7
:105AB00000AF78607B684FF000021A607B684FF09F
:105AC00000025A607B684FF000029A607B684FF0DA
:105AD0000002DA6007F10C07BD4680BC704700BFCA
