:020000040800F2
:10000000B08E002039580008B5580008B5580008CF
:10001000B5580008B5580008B558000800000000A1
:10002000000000000000000000000000B5580008BB
:10003000B558000800000000B5580008B558000881
:10004000B5580008B5580008B5580008B55800085C
:10005000B5580008B5580008694B0008DD4B00088A
:10006000454C00085D4C0008754D0008B558000867
:10007000B5580008B5580008B5580008B55800082C
:10008000B5580008B5580008B5580008B55800081C
:10009000B5580008B5580008B5580008C94D000803
:1000A000B5580008754C0008B54C0008B558000854
:1000B000B55800086D530008194B0008B5580008E2
:1000C000B5580008B5580008B5580008B5580008DC
:1000D000B5580008D9570008B5580008B5580008A9
:1000E000B5580008B5580008B5580008B5580008BC
:1000F000F54C0008354D0008B5580008B558000803
:10010000B5580008B5580008B5580008B55800089B
:10011000B5580008B5580008B5580008B55800088B
:10012000B5580008B5580008B5580008B55800087B
:10013000D1040008B5580008B5580008B5580008A3
:10014000B5580008B5580008B5580008B55800085B
:10015000B5580008B5580008B5580008B55800084B
:10016000B5580008B5580008B5580008B55800083B
:10017000B5580008B5580008B5580008B55800082B
:10018000B5580008B558000880B500AF44F2981083
:10019000C2F2000006F0C0F944F27810C2F200008A
:1001A00005F0F8FB44F2E010C2F2000005F046FC56
:1001B00044F2A410C2F2000005F016FF4FF4807064
:1001C0004FF0010106F094FD4FF004004FF00101E3
:1001D00006F03AFD4FF480004FF0010106F034FDC7
:1001E00044F29813C2F200034FF00F021A6044F277
:1001F0009813C2F200034FF003021A7144F29813ED
:10020000C2F200034FF00002DA714FF40060C4F252
:10021000020044F29811C2F2000106F0DBF846F247
:100220007040C4F2020005F065FD44F2A413C2F26E
:1002300000034FF000021A6044F2A413C2F200035C
:1002400042F24C02C4F201025A6044F29012C2F22D
:10025000000244F2A413C2F200039A6044F2A41311
:10026000C2F200034FF00002DA6044F2A413C2F2BB
:1002700000034FF004021A6144F2A413C2F2000317
:100280004FF000025A6144F2A413C2F200034FF48B
:1002900080629A6144F2A413C2F200034FF4006238
:1002A000DA6144F2A413C2F200034FF400521A625E
:1002B00044F2A413C2F200034FF480725A6244F273
:1002C000A413C2F200034FF400329A6244F2A41362
:1002D000C2F200034FF00002DA6244F2A413C2F249
:1002E00000034FF001021A6344F2A413C2F20003A8
:1002F0004FF000025A6344F2A413C2F200034FF01D
:1003000000029A6346F27040C4F2020044F2A41163
:10031000C2F2000105F010FE46F27040C4F2020085
:100320004FF010014FF0010205F0C0FE44F2A0139F
:10033000C2F200034FF03C021A7044F2A013C2F262
:1003400000034FF000025A7044F2A013C2F20003FF
:100350004FF003029A7044F2A013C2F200034FF070
:100360000102DA7044F2A010C2F2000004F0D8FEDC
:1003700046F27040C4F202004FF0010105F07AFE2F
:1003800005F09CFA44F27813C2F200034FF0000229
:100390001A6144F27813C2F200034FF000021A60AF
:1003A00044F27813C2F200034FF001025A7144F292
:1003B0007813C2F200034FF00002DA6044F27813BF
:1003C000C2F200034FF004021A7544F27813C2F22D
:1003D00000034FF001021A714FF40050C4F2010003
:1003E00044F27811C2F2000105F078FA44F2E01309
:1003F000C2F200034FF000021A6044F2E013C2F2AE
:1004000000034FF000025A6044F2E013C2F200030E
:100410004FF00002DA6044F2E013C2F200034FF042
:1004200000029A6044F2E010C2F2000005F0D8FA2F
:100430004FF40050C4F201004FF00A014FF00102E6
:100440004FF0070305F030FB4FF40050C4F20100F9
:100450004FF00B014FF002024FF0070305F024FBB1
:100460004FF40050C4F201004FF00C014FF00302B2
:100470004FF0070305F018FB4FF40050C4F20100E1
:100480004FF00D014FF004024FF0070305F00CFB95
:100490004FF40050C4F201004FF0010105F00EFCD2
:1004A0004FF40050C4F201004FF0010105F0EAFBE7
:1004B0004FF40050C4F201004FF0010105F0D8FAEA
:1004C0004FF40050C4F2010005F0CCFB80BD00BF2A
:1004D00080B500AF46F27040C4F2020048F220013D
:1004E000C2F2000105F01CFE0346002B2BD044F2A3
:1004F0009013C2F200031B881A4644F2C003C2F2F2
:1005000000031A6044F29013C2F200035B881A469B
:1005100044F2C003C2F200035A6044F29013C2F2E4
:100520000003DB881A4644F2C003C2F200039A605B
:1005300044F29013C2F200031B891A4644F2C0032E
:10054000C2F20003DA6046F27040C4F202004FF0DB
:100550002001C2F2000105F043FE80BD80B485B0E9
:1005600000AF87ED020B78607968D7E90223C1E913
:10057000002307F11407BD4680BC7047B0B584B0B6
:1005800000AF87ED020B786039603B68D3E9002348
:10059000D7E9020106F0FAFF02460B4614461D4653
:1005A0003B68D3E902013B68D3E9002306F0EEFF84
:1005B00002460B462046294607F0C6FA02460B467D
:1005C0007968C1E9002307F11007BD46B0BD00BF3F
:1005D000B0B584B000AF87ED020B786039603B683E
:1005E000D3E902013B68D3E9002306F0CFFF0246BE
:1005F0000B464FF000004FF00001C3F6F07107F01A
:10060000A3FA02460B4614461D463B68D3E9022373
:1006100010461946D7E9022306F0B8FF02460B46FA
:100620002046294607F066F902460B467968C1E97B
:10063000002307F11007BD46B0BD00BFB0B590B0B4
:1006400000AF44F21823C2F20003D3E9022310469C
:1006500019464FF000024FF00003CCF2080307F0F8
:10066000BBFB0346002B12D144F21823C2F2000355
:10067000D3E90223104619464FF000024FF0000361
:10068000C3F6F07307F0C6FB0346002B10D040F210
:100690000003C2F20003D3E9660144F24823C2F228
:1006A000000303F5864303F13003C3E9000153E07F
:1006B00044F21823C2F20003D3E90223104619467C
:1006C0004FF000024FF00003CBF6F07307F07AFB17
:1006D0000346002B10D040F20003C2F20003D3E91E
:1006E0006A0144F24823C2F2000303F5864303F192
:1006F0003003C3E900012FE044F21823C2F20003E3
:10070000D3E90223104619464FF000024FF00003D0
:10071000CBF6F07307F060FB0346002B0ED044F2DB
:100720001823C2F2000393ED027BB0EE470AF0EE0D
:10073000670ABD48BD49FFF721FF0DE044F21823C9
:10074000C2F2000393ED027BB0EE470AF0EE670AB7
:10075000B548B749FFF73CFF40F20003C2F200037F
:1007600003F5AB63D3E9000144F24823C2F200036E
:1007700003F5864303F13003D3E9002307F0BAF809
:1007800002460B461046194644F24823C2F20003C3
:1007900003F5854303F12003C3E900014FF0000393
:1007A000FB632BE044F24823C2F2000303F58543C8
:1007B00003F12003D3E9000140F20003C2F2000379
:1007C000FA6B02F1AC024FEAC2029B18D3E9002394
:1007D00007F090F802460B461046194644F24823AB
:1007E000C2F20003FA6B02F21A724FEAC2029B18BD
:1007F000C3E90001FB6B03F10103FB63FB6B642B9B
:10080000D0DD44F21823C2F20003D3E902231046DC
:1008100019464FF000024FF00003CBF6F07307F0DB
:10082000DBFA0346002B12D144F21823C2F2000374
:10083000D3E90223104619464FF000024FF000039F
:10084000C4F2080307F0E6FA0346002B10D040F28A
:100850000003C2F20003D3E96E0144F24823C2F25E
:10086000000303F5864303F13803C3E9000153E0B5
:1008700044F21823C2F20003D3E9022310461946BA
:100880004FF000024FF00003C3F6F07307F09AFA3E
:100890000346002B10D040F20003C2F20003D3E95C
:1008A000720144F24823C2F2000303F5864303F1C8
:1008B0003803C3E900012FE044F21823C2F2000319
:1008C000D3E90223104619464FF000024FF000030F
:1008D000C3F6F07307F080FA0346002B0ED044F203
:1008E0001823C2F2000393ED027BB0EE470AF0EE4C
:1008F000670A50485049FFF741FE0DE044F21823C3
:10090000C2F2000393ED027BB0EE470AF0EE670AF5
:1009100048484A49FFF75CFE40F20003C2F2000378
:1009200003F68803D3E9000144F24823C2F200032E
:1009300003F5864303F13803D3E9002306F0DAFF19
:1009400002460B461046194644F24823C2F2000301
:1009500003F5854303F12803C3E900014FF00003C9
:10096000FB632BE044F24823C2F2000303F5854306
:1009700003F12803D3E9000140F20003C2F20003AF
:10098000FA6B02F589724FEAC2029B18D3E9002381
:1009900006F0B0FF02460B461046194644F24823C3
:1009A000C2F20003FA6B02F27F724FEAC2029B1896
:1009B000C3E90001FB6B03F10103FB63FB6B642BD9
:1009C000D0DD44F21823C2F20003D3E9002310461D
:1009D00019464FF000024FF0404307F0FDF903467F
:1009E000002B10D144F21823C2F20003D3E90023F4
:1009F000104619464FF000024FF0000307F00AFAC4
:100A00000346002B1CD040F20003C2F20003D3E9DE
:100A1000360144F24823C2F2000303F5874303F191
:100A20003003C3E900015FE078850020583F0020D3
:100A3000483F002080850020383F0020283F0020CC
:100A400044F21823C2F20003D3E9002310461946EA
:100A50004FF000024FF00003CBF6F07307F0B2F94D
:100A60000346002B10D040F20003C2F20003D3E98A
:100A70003A0144F24823C2F2000303F5874303F12D
:100A80003003C3E900012FE044F21823C2F200034F
:100A9000D3E90023104619464FF000024FF000033F
:100AA000CBF6F07307F098F90346002B0ED044F212
:100AB0001823C2F2000393ED007BB0EE470AF0EE7C
:100AC000670AAF48AF49FFF759FD0DE044F218231C
:100AD000C2F2000393ED007BB0EE470AF0EE670A26
:100AE000A748A949FFF774FD44F24823C2F2000366
:100AF00003F5874303F13003D3E9000144F24823AF
:100B0000C2F2000303F5864303F13003D3E9002367
:100B100007F06CF90346002B14D044F24823C2F2CC
:100B2000000303F5874303F13003D3E9000144F2E6
:100B30004823C2F2000303F5864303F12803C3E907
:100B4000000113E044F24823C2F2000303F5864398
:100B500003F13003D3E9000144F24823C2F2000359
:100B600003F5864303F12803C3E9000140F20003C3
:100B7000C2F2000303F6B833D3E9000144F248237C
:100B8000C2F2000303F5864303F12803D3E90023EF
:100B900006F0B0FE02460B461046194644F24823C2
:100BA000C2F2000303F5854303F13003C3E90001FA
:100BB0004FF00003FB632BE044F24823C2F2000332
:100BC00003F5854303F13003D3E9000140F200034C
:100BD000C2F20003FA6B02F1AC024FEAC2029B18A8
:100BE000D3E9002306F086FE02460B46104619465E
:100BF00044F24823C2F20003FA6B02F2E4724FEAB5
:100C0000C2029B18C3E90001FB6B03F10103FB6304
:100C1000FB6B642BD0DD44F21823C2F20003D3E94E
:100C20000023104619464FF000024FF0000307F072
:100C3000D3F80346002B10D144F21823C2F200036C
:100C4000D3E90023104619464FF000024FF08043CD
:100C500007F0E0F80346002B10D040F20003C2F288
:100C60000003D3E92E0144F24823C2F2000303F546
:100C7000874303F13803C3E9000153E044F218232A
:100C8000C2F20003D3E90023104619464FF00002D8
:100C90004FF00003C3F6F07307F094F80346002BFF
:100CA00010D040F20003C2F20003D3E9320144F253
:100CB0004823C2F2000303F5874303F13803C3E975
:100CC00000012FE044F21823C2F20003D3E900230D
:100CD000104619464FF000024FF00003C3F6F073C0
:100CE00007F07AF80346002B0ED044F21823C2F224
:100CF000000393ED007BB0EE470AF0EE670A23484D
:100D00002349FFF73BFC0DE044F21823C2F2000335
:100D100093ED007BB0EE470AF0EE670A1B481D49D1
:100D2000FFF756FC44F24823C2F2000303F5874361
:100D300003F13803D3E9000144F24823C2F200036F
:100D400003F5864303F13803D3E9002307F04EF897
:100D50000346002B20D044F24823C2F2000303F5DF
:100D6000874303F13803D3E9000144F24823C2F278
:100D7000000303F5864303F12803C3E900011FE0E4
:100D8000F885002018400020084000200086002040
:100D9000384000202840002044F24823C2F20003DB
:100DA00003F5864303F13803D3E9000144F24823F5
:100DB000C2F2000303F5864303F12803C3E90001EF
:100DC00040F20003C2F2000303F53C63D3E90001E3
:100DD00044F24823C2F2000303F5864303F12803DB
:100DE000D3E9002306F086FD02460B46104619465D
:100DF00044F24823C2F2000303F5854303F13803AC
:100E0000C3E900014FF00003FB6361E044F24823B3
:100E1000C2F20003FA6B02F21A724FEAC2029B1886
:100E2000D3E9000144F24823C2F20003FA6B02F254
:100E30007F724FEAC2029B18D3E9002306F0A8FB99
:100E400002460B461046194644F24823C2F20003FC
:100E5000FA6B02F2E4724FEAC2029B18D3E9002354
:100E600006F096FB02460B4614461D4644F2482304
:100E7000C2F2000303F5854303F13803D3E900010F
:100E800040F20003C2F20003FA6B02F589724FEAE6
:100E9000C2029B18D3E9002306F02CFD02460B4644
:100EA0002046294606F074FB02460B4610461946BA
:100EB00044F24823C2F20003FA6B02F21A724FEABC
:100EC000C2029B18C3E90001FB6B03F10103FB6342
:100ED000FB6B642B9ADD44F24823C2F2000303F556
:100EE000635303F11003D3E9000144F24823C2F233
:100EF000000303F5864303F12803C3E900014FF023
:100F00000003FB632BE044F24823C2F2000303F525
:100F1000864303F12803D3E90001FB6B03F10102CF
:100F200044F24823C2F2000302F21A724FEAC202EC
:100F30009B18D3E9002306F02BFB02460B46104614
:100F4000194644F24823C2F2000303F5864303F135
:100F50002803C3E90001FB6B03F10103FB63FB6B97
:100F6000632BD0DD44F24823C2F2000303F586432D
:100F700003F12803D3E9000144F24823C2F200033D
:100F800003F5864303F14003C3E9000144F248231B
:100F9000C2F2000303F5864303F14003D3E90023C3
:100FA000104619464FF000024FF0000306F01EFFF6
:100FB0000346002B08D040F20003C2F20003D3E93D
:100FC0000223C7E90C2312E044F24823C2F20003D3
:100FD00003F5864303F1400393ED007B07F13003F3
:100FE000B0EE470AF0EE670A1846FFF7B7FA44F288
:100FF0001823C2F20003D3E90A23104619464FF022
:1010000000024FF0000306F0E7FE0346002B10D16C
:1010100044F21823C2F20003D3E90A23104619460A
:101020004FF000024FF0804306F0F4FE0346002B21
:1010300010D040F20003C2F20003D3E93E0144F2B3
:101040004823C2F2000303F5864303F14803C3E9D2
:10105000000153E044F21823C2F20003D3E90A234B
:10106000104619464FF000024FF00003C3F6F0732C
:1010700006F0A8FE0346002B10D040F20003C2F297
:101080000003D3E9420144F24823C2F2000303F50E
:10109000864303F14803C3E900012FE044F218231B
:1010A000C2F20003D3E90A23104619464FF00002AA
:1010B0004FF00003C3F6F07306F08EFE0346002BDC
:1010C0000ED044F21823C2F2000393ED0A7BB0EE77
:1010D000470AF0EE670ABE48BE49FFF74FFA0DE037
:1010E00044F21823C2F2000393ED0A7BB0EE470AE4
:1010F000F0EE670AB648B849FFF76AFA40F2000313
:10110000C2F2000303F56F63D3E9000144F2482300
:10111000C2F2000303F5864303F14803D3E9002339
:1011200006F0E8FB02460B461046194644F24823F7
:10113000C2F2000303F5854303F14003C3E9000154
:101140004FF00003FB632BE044F24823C2F200039C
:1011500003F5854303F14003D3E9000140F20003A6
:10116000C2F20003FA6B02F2DF124FEAC2029B18CE
:10117000D3E9002306F0BEFB02460B461046194693
:1011800044F24823C2F20003FA6B02F2BC424FEA77
:10119000C2029B18C3E90001FB6B03F10103FB636F
:1011A000FB6B642BD0DD4FF00003FB632DE0FB6B8A
:1011B00003F1650444F24823C2F2000303F58543BA
:1011C00003F14003D3E9000140F20003C2F200033F
:1011D000FA6B02F511724FEAC2029B18D3E90023A1
:1011E00006F088FB02460B461046194644F2482397
:1011F000C2F2000304F2BC424FEAC2029B18C3E9E8
:101200000001FB6B03F10103FB63FB6B642BCEDD81
:1012100044F21823C2F20003D3E90423104619460E
:101220004FF000024FF00003CBF6F07306F0D4FD50
:101230000346002B12D144F21823C2F20003D3E973
:101240000423104619464FF000024FF00003C3F686
:10125000F07306F0DFFD0346002B10D040F20003D0
:10126000C2F20003D3E97E0144F24823C2F2000334
:1012700003F5864303F15003C3E900014FE044F254
:101280001823C2F20003D3E90423104619464FF095
:1012900000024FF0000306F095FD0346002B10D02E
:1012A00040F20003C2F20003D3E9820144F2482372
:1012B000C2F2000303F5864303F15003C3E90001C2
:1012C0002DE044F21823C2F20003D3E904231046B0
:1012D00019464FF000024FF0000306F07DFD034673
:1012E000002B0ED044F21823C2F2000393ED047BCE
:1012F000B0EE470AF0EE670A38483949FFF73EF981
:101300000DE044F21823C2F2000393ED047BB0EE2B
:10131000470AF0EE670A31483249FFF759F940F2BF
:101320000003C2F2000303F5AA5303F10803D3E953
:10133000000144F24823C2F2000303F5864303F19F
:101340005003D3E9002306F0D5FA02460B461046B7
:10135000194644F24823C2F2000303F5854303F122
:101360004803C3E900014FF00003FB6329E044F2A6
:101370004823C2F2000303F5854303F14803D3E990
:10138000000140F20003C2F20003FA6B02F2DF1226
:101390004FEAC2029B18D3E9002306F0ABFA0246DB
:1013A0000B461046194644F24823C2F20003FA6B7A
:1013B0004FEAC2029B18C3E90001FB6B03F1010372
:1013C000FB63FB6B642BD2DD4FF00003FB6337E064
:1013D00090850020F83F0020E83F002098850020FD
:1013E000F83E0020E83E0020FB6B03F1650444F268
:1013F0004823C2F2000303F5854303F14803D3E910
:10140000000140F20003C2F20003FA6B02F5117210
:101410004FEAC2029B18D3E9002306F06BFA02469A
:101420000B461046194644F24823C2F200034FEA25
:10143000C4029B18C3E90001FB6B03F10103FB63CA
:10144000FB6B642BD0DD4FF00003FB632BE0FB6BE9
:1014500003F1CA0444F24823C2F2000303F58543B2
:1014600003F14803D3E9000140F20003C2F2000394
:10147000FA6B02F2AA224FEAC2029B18D3E90023B8
:1014800006F038FA02460B461046194644F2482345
:10149000C2F200034FEAC4029B18C3E90001FB6BD0
:1014A00003F10103FB63FB6B642BD0DD4FF0000302
:1014B000FB632BE0FB6B03F22F1444F24823C2F2D0
:1014C000000303F5854303F14803D3E9000140F22B
:1014D0000003C2F20003FA6B02F20F324FEAC202BB
:1014E0009B18D3E9002306F005FA02460B46104686
:1014F000194644F24823C2F200034FEAC4029B1883
:10150000C3E90001FB6B03F10103FB63FB6B642B7D
:10151000D0DD44F21823C2F20003D3E904231046BD
:1015200019464FF000024FF0404306F055FC0346C9
:10153000002B10D144F21823C2F20003D3E9042394
:10154000104619464FF000024FF0000306F062FC0F
:101550000346002B10D040F20003C2F20003D3E98F
:10156000860144F24823C2F2000303F5864303F1E7
:101570005803C3E9000153E044F21823C2F2000308
:10158000D3E90423104619464FF000024FF0000340
:10159000CBF6F07306F016FC0346002B10D040F299
:1015A0000003C2F20003D3E98A0144F24823C2F2E5
:1015B000000303F5864303F15803C3E900012FE05C
:1015C00044F21823C2F20003D3E90423104619465B
:1015D0004FF000024FF00003CBF6F07306F0FCFB77
:1015E0000346002B0ED044F21823C2F2000393ED01
:1015F000047BB0EE470AF0EE670AB948B949FEF736
:10160000BDFF0DE044F21823C2F2000393ED047B0A
:10161000B0EE470AF0EE670AB148B349FEF7D8FFCB
:1016200040F20003C2F2000303F5DD53D3E90001E9
:1016300044F24823C2F2000303F5864303F1580342
:10164000D3E9002306F056F902460B461046194628
:1016500044F24823C2F2000303F5854303F150032B
:10166000C3E900014FF00003FB632BE044F2482381
:10167000C2F2000303F5854303F15003D3E90001EF
:1016800040F20003C2F20003FA6B02F275324FEA35
:10169000C2029B18D3E9002306F02CF902460B4640
:1016A0001046194644F24823C2F20003FA6B02F5D1
:1016B000CA724FEAC2029B18C3E90001FB6B03F137
:1016C0000103FB63FB6B642BD0DD4FF00003FB6376
:1016D0002DE0FB6B03F1650444F24823C2F20003E2
:1016E00003F5854303F15003D3E9000140F2000301
:1016F000C2F20003FA6B02F2DA324FEAC2029B181E
:10170000D3E9002306F0F6F802460B4610461946C8
:1017100044F24823C2F2000304F5CA724FEAC2023F
:101720009B18C3E90001FB6B03F10103FB63FB6B37
:10173000642BCEDD4FF00003FB632DE0FB6B03F168
:10174000CA0444F24823C2F2000303F5854303F1BF
:101750005003D3E9000140F20003C2F20003FA6B28
:1017600002F23F424FEAC2029B18D3E9002306F07F
:10177000C1F802460B461046194644F24823C2F20D
:10178000000304F5CA724FEAC2029B18C3E90001C4
:10179000FB6B03F10103FB63FB6B642BCEDD4FF0AE
:1017A0000003FB632DE0FB6B03F22F1444F248238C
:1017B000C2F2000303F5854303F15003D3E90001AE
:1017C00040F20003C2F20003FA6B02F2A4424FEAB5
:1017D000C2029B18D3E9002306F08CF802460B46A0
:1017E0001046194644F24823C2F2000304F5CA72B7
:1017F0004FEAC2029B18C3E90001FB6B03F101032E
:10180000FB63FB6B642BCEDD44F21823C2F20003B2
:10181000D3E90623104619464FF000024FF00003AB
:10182000CBF6F07306F0D8FA0346002B12D144F23F
:101830001823C2F20003D3E90623104619464FF0DD
:1018400000024FF00003C3F6F07306F0E3FA03461C
:10185000002B08D040F20003C2F20003D3E91E239C
:10186000C7E90A2354E044F21823C2F20003D3E983
:101870000623104619464FF000024FF0000306F011
:10188000A1FA0346002B08D040F20003C2F2000385
:10189000D3E92223C7E90A233AE044F21823C2F22B
:1018A0000003D3E90623104619464FF000024FF01B
:1018B000000306F091FA0346002B19D044F21823D6
:1018C000C2F2000393ED067B07F12803B0EE470A4E
:1018D000F0EE670A18460549FEF750FE18E000BF13
:1018E000A0850020D83E0020C83E0020784000207F
:1018F00044F21823C2F2000393ED067B07F128039C
:10190000B0EE470AF0EE670A1846A749FEF760FEF8
:1019100044F21823C2F20003D3E904231046194607
:101920004FF000024FF0000306F056FA0346002B7A
:1019300010D144F21823C2F20003D3E90423104665
:1019400019464FF000024FF0804306F063FA034659
:10195000002B10D040F20003C2F20003D3E976015D
:1019600044F24823C2F2000303F5864303F1600307
:10197000C3E9000153E044F21823C2F20003D3E9A3
:101980000423104619464FF000024FF00003C3F63F
:10199000F07306F017FA0346002B10D040F2000354
:1019A000C2F20003D3E97A0144F24823C2F20003F1
:1019B00003F5864303F16003C3E900012FE044F21D
:1019C0001823C2F20003D3E90423104619464FF04E
:1019D00000024FF00003C3F6F07306F0FDF9034672
:1019E000002B0ED044F21823C2F2000393ED047BC7
:1019F000B0EE470AF0EE670A6C486D49FEF7BEFD8F
:101A00000DE044F21823C2F2000393ED047BB0EE24
:101A1000470AF0EE670A65486649FEF7D9FD44F2C9
:101A20004823C2F2000303F5864303F13003D3E9F0
:101A3000000144F24823C2F2000303F5864303F198
:101A40006003D3E9002306F0D1F90346002B14D03C
:101A500044F24823C2F2000303F5864303F1300346
:101A6000D3E9000144F24823C2F2000303F58643A0
:101A700003F11003C3E9000113E044F24823C2F26A
:101A8000000303F5864303F16003D3E9000144F248
:101A90004823C2F2000303F5864303F11003C3E9B0
:101AA000000144F24823C2F2000303F5864303F128
:101AB0001003D3E90001D7E90A234FF0010406F02F
:101AC00095F90346002B02D14FF000031C46E3B208
:101AD00083F00103DBB2002B0BD0D7E90A0144F2FB
:101AE0004823C2F2000303F5864303F11003C3E960
:101AF000000140F20003C2F2000303F5215303F199
:101B00000803D3E9000144F24823C2F2000303F5BD
:101B1000864303F11003D3E9002305F0EBFE0246F0
:101B20000B461046194644F24823C2F2000303F55F
:101B3000854303F15803C3E900014FF00003FB6341
:101B40002BE044F24823C2F2000303F5854303F17E
:101B50005803D3E9000140F20003C2F20003FA6B1C
:101B600002F2DF124FEAC2029B18D3E9002305F00C
:101B7000C1FE02460B461046194644F24823C2F203
:101B80000003FA6B02F286524FEAC2029B18C3E9C5
:101B90000001FB6B03F10103FB63FB6B642BD0DDE6
:101BA0004FF00003FB6335E068400020A88500206B
:101BB000183F0020083F0020FB6B03F1650444F24E
:101BC0004823C2F2000303F5854303F15803D3E928
:101BD000000140F20003C2F20003FA6B02F20A5263
:101BE0004FEAC2029B18D3E9002305F083FE0246A8
:101BF0000B461046194644F24823C2F2000304F291
:101C000086524FEAC2029B18C3E90001FB6B03F145
:101C10000103FB63FB6B642BCEDD44F24823C2F26D
:101C2000000303F5864303F13803D3E9000144F2CE
:101C30004823C2F2000303F5864303F16003D3E9AE
:101C4000002306F0D3F80346002B14D044F24823B7
:101C5000C2F2000303F5864303F13803D3E9000120
:101C600044F24823C2F2000303F5864303F1100354
:101C7000C3E9000113E044F24823C2F2000303F574
:101C8000864303F16003D3E9000144F24823C2F222
:101C9000000303F5864303F11003C3E9000144F296
:101CA0004823C2F2000303F5864303F11003D3E98E
:101CB0000001D7E90A234FF0010406F097F8034624
:101CC000002B02D14FF000031C46E3B283F0010366
:101CD000DBB2002B0BD0D7E90A0144F24823C2F251
:101CE000000303F5864303F11003C3E9000140F24A
:101CF0000003C2F2000303F52D5303F13803D3E9C7
:101D0000000144F24823C2F2000303F5864303F1C5
:101D10001003D3E9002305F0EDFD02460B46104603
:101D2000194644F24823C2F2000303F5854303F148
:101D30006003C3E900014FF00003FB632BE044F2B2
:101D40004823C2F2000303F5854303F16003D3E99E
:101D5000000140F20003C2F20003FA6B02F5AE622A
:101D60004FEAC2029B18D3E9002305F0C3FD0246E7
:101D70000B461046194644F24823C2F20003FA6BA0
:101D800002F5CA624FEAC2029B18C3E90001FB6B6D
:101D900003F10103FB63FB6B642BD0DD40F2000316
:101DA000C2F2000303F53A5303F12803D3E900011B
:101DB00044F24823C2F2000303F5864303F16003B3
:101DC000D3E9002305F096FD02460B46104619465E
:101DD00044F24823C2F2000303F5854303F168038C
:101DE000C3E900014FF00003FB6355E0FB6B03F117
:101DF000650444F24823C2F2000303F5854303F16E
:101E00006003D3E9000140F20003C2F20003FA6B61
:101E100002F511724FEAC2029B18D3E9002305F0C4
:101E200069FD02460B461046194644F24823C2F2A9
:101E3000000304F5CA624FEAC2029B18C3E900011D
:101E400044F24823C2F2000303F5854303F168031B
:101E5000D3E9000140F20003C2F20003FA6B02F57D
:101E6000AE624FEAC2029B18D3E9002305F042FD9F
:101E700002460B461046194644F24823C2F20003BC
:101E8000FA6B02F54A724FEAC2029B18C3E90001DD
:101E9000FB6B03F10103FB63FB6B642BA6DD4FF0CF
:101EA0000003FB632DE0FB6B03F1650444F2482360
:101EB000C2F2000303F5854303F16803D3E900018F
:101EC00040F20003C2F20003FA6B02F20A524FEA38
:101ED000C2029B18D3E9002305F00CFD02460B4615
:101EE0001046194644F24823C2F2000304F54A7230
:101EF0004FEAC2029B18C3E90001FB6B03F1010327
:101F0000FB63FB6B642BCEDD4FF00003FB632DE026
:101F1000FB6B03F1CA0444F24823C2F2000303F549
:101F2000854303F16803D3E9000140F20003C2F2E4
:101F30000003FA6B02F2D6524FEAC2029B18D3E9B1
:101F4000002305F0D7FC02460B461046194644F222
:101F50004823C2F2000304F54A724FEAC2029B18FA
:101F6000C3E90001FB6B03F10103FB63FB6B642B13
:101F7000CEDD4FF00003FB632DE0FB6B03F22F146B
:101F800044F24823C2F2000303F5854303F16803DA
:101F9000D3E9000140F20003C2F20003FA6B02F23F
:101FA0003B624FEAC2029B18D3E9002305F0A2FC72
:101FB00002460B461046194644F24823C2F200037B
:101FC00004F54A724FEAC2029B18C3E90001FB6B99
:101FD00003F10103FB63FB6B642BCEDD4FF00003C9
:101FE000FB63AFE044F24823C2F20003FA6B02F253
:101FF000BC424FEAC2029B18D3E9000144F24823D5
:10200000C2F20003FA6B4FEAC2029B18D3E9002325
:1020100005F0BEFA02460B461046194644F2482324
:10202000C2F20003FA6B02F5CA724FEAC2029B18B1
:10203000D3E9002305F0ACFA02460B4610461946D8
:1020400044F24823C2F20003FA6B02F286524FEACE
:10205000C2029B18D3E9002305F09AFA02460B4608
:102060001046194644F24823C2F20003FA6B02F507
:10207000CA624FEAC2029B18D3E9002305F088FA2E
:1020800002460B461046194644F24823C2F20003AA
:10209000FA6B02F54A724FEAC2029B18D3E9002399
:1020A00005F076FA02460B461046194644F24823DC
:1020B000C2F2000303F5864303F12803C3E90001DC
:1020C00040F20003C2F20003FA6B02F279124FEA07
:1020D000C2029B18D3E9000144F24823C2F2000374
:1020E00003F5864303F12803D3E9002305F002FC3E
:1020F00002460B461046194644F24823C2F200033A
:10210000FA6B02F27F724FEAC2029B18C3E9000128
:1021100044F24823C2F2000303F5864303F1280387
:10212000D3E9000144F24823C2F20003FA6B02F241
:10213000E4724FEAC2029B18C3E90001FB6B03F192
:102140000103FB63FB6B642B7FF74CAF44F2482326
:10215000C2F2000303F56F5303F13803D3E9000122
:1021600044F24823C2F2000303F5854303F17003F0
:10217000C3E9000144F24823C2F2000303F57C5393
:1021800003F12003D3E9000144F24823C2F2000323
:1021900003F5864303F12803C3E900014FF0000370
:1021A000FB6353E044F24823C2F2000303F5854386
:1021B00003F17003D3E90001FB6B03F1010244F268
:1021C0004823C2F2000302F27F724FEAC2029B1858
:1021D000D3E9002305F0DCF902460B461046194608
:1021E00044F24823C2F2000303F5854303F1700370
:1021F000C3E9000144F24823C2F2000303F5864319
:1022000003F12803D3E90001FB6B03F1010244F25F
:102210004823C2F2000302F2E4724FEAC2029B18A2
:10222000D3E9002305F0B4F902460B4610461946DF
:1022300044F24823C2F2000303F5864303F1280366
:10224000C3E90001FB6B03F10103FB63FB6B632B31
:10225000A8DD44F24823C2F2000303F5864303F1EC
:102260002803D3E9000144F24823C2F2000303F536
:10227000864303F16803C3E9000144F24823C2F234
:10228000000303F5864303F16803D3E900231046F6
:1022900019464FF000024FF0000305F0A7FD03467A
:1022A000002B10D040F20003C2F20003D3E9060174
:1022B00044F24823C2F2000303F5864303F170039E
:1022C000C3E9000110E044F24823C2F2000303F521
:1022D000864303F1680393ED007BB0EE470AF0EE0E
:1022E000670A8B48FEF73AF944F24823C2F200032A
:1022F00003F5854303F17003D3E9000144F2482359
:10230000C2F2000303F5864303F17003D3E900230F
:1023100005F01AFC02460B461046194644F24823C3
:10232000C2F2000303F5854303F17003C3E9000122
:102330004FF00003FB63BBE0FB6B03F1650244F26B
:102340004823C2F2000302F2BC424FEAC2029B18C9
:10235000D3E90001FB6B03F1650244F24823C2F2AA
:1023600000034FEAC2029B18D3E9002305F010F9DD
:1023700002460B4610461946FB6B03F1650244F218
:102380004823C2F2000302F5CA724FEAC2029B1848
:10239000D3E9002305F0FCF802460B461046194627
:1023A000FB6B03F1650244F24823C2F2000302F220
:1023B00086524FEAC2029B18D3E9002305F0E8F8E1
:1023C00002460B4610461946FB6B03F1650244F2C8
:1023D0004823C2F2000302F5CA624FEAC2029B1808
:1023E000D3E9002305F0D4F802460B4610461946FF
:1023F000FB6B03F1650244F24823C2F2000302F5CD
:102400004A724FEAC2029B18D3E9002305F0C0F8D4
:1024100002460B461046194644F24823C2F2000316
:1024200003F5864303F12803C3E9000140F20003EA
:10243000C2F20003FA6B02F5D4624FEAC2029B18A3
:10244000D3E9000144F24823C2F2000303F58643B6
:1024500003F12803D3E9002305F04CFA02460B46AA
:102460001046194644F24823C2F20003FA6B02F206
:102470007F724FEAC2029B18C3E9000144F248236D
:10248000C2F2000303F5864303F12803D3E90001F8
:1024900044F24823C2F20003FA6B02F2E4724FEAFC
:1024A000C2029B18C3E90001FB6B03F10103FB634C
:1024B000FB6B642B7FF740AF44F24823C2F200036A
:1024C00003F56F5303F13803D3E9000144F24823C5
:1024D000C2F2000303F5854303F17803C3E9000169
:1024E00044F24823C2F2000303F57C5303F12003B6
:1024F000D3E9000144F24823C2F2000303F5864306
:1025000003F12803C3E900014FF00003FB6355E02A
:10251000B885002044F24823C2F2000303F5854346
:1025200003F17803D3E90001FB6B03F1010244F2EC
:102530004823C2F2000302F27F724FEAC2029B18E4
:10254000D3E9002305F024F802460B46104619464D
:1025500044F24823C2F2000303F5854303F17803F4
:10256000C3E9000144F24823C2F2000303F58643A5
:1025700003F12803D3E90001FB6B03F1010244F2EC
:102580004823C2F2000302F2E4724FEAC2029B182F
:10259000D3E9002304F0FCFF02460B46104619461F
:1025A00044F24823C2F2000303F5864303F12803F3
:1025B000C3E90001FB6B03F10103FB63FB6B632BBE
:1025C000A8DD44F24823C2F2000303F5864303F179
:1025D0002803D3E9000144F24823C2F2000303F5C3
:1025E000864303F17803C3E9000144F24823C2F2B1
:1025F000000303F5864303F17803D3E90023104673
:1026000019464FF000024FF0000305F0EFFB0346C0
:10261000002B0ED040F20003C2F20003D3E90A01FE
:1026200044F24823C2F2000303F58743C3E90001E3
:1026300010E044F24823C2F2000303F5864303F19D
:10264000780393ED007BB0EE470AF0EE670ABD48D1
:10265000FDF784FF44F24823C2F2000303F58543EB
:1026600003F17803D3E9000144F24823C2F20003E6
:1026700003F58743D3E9002305F066FA02460B46CB
:102680001046194644F24823C2F2000303F585437D
:1026900003F17803C3E9000144F21823C2F20003F6
:1026A000D3E90A23104619464FF000024FF0404389
:1026B00005F092FB0346002B10D144F21823C2F21E
:1026C0000003D3E90A23104619464FF000024FF0E9
:1026D000000305F09FFB0346002B10D040F20003DF
:1026E000C2F20003D3E9460144F24823C2F20003D8
:1026F00003F5874303F10803C3E9000153E044F203
:102700001823C2F20003D3E90A23104619464FF0FA
:1027100000024FF00003CBF6F07305F053FB0346C5
:10272000002B10D040F20003C2F20003D3E94A01AB
:1027300044F24823C2F2000303F5874303F1080380
:10274000C3E900012FE044F21823C2F20003D3E9E9
:102750000A23104619464FF000024FF00003CBF653
:10276000F07305F039FB0346002B0ED044F218231A
:10277000C2F2000393ED0A7BB0EE470AF0EE670A5F
:1027800071487249FDF7FAFE0DE044F21823C2F2D7
:10279000000393ED0A7BB0EE470AF0EE670A6A4841
:1027A0006B49FDF715FF40F20003C2F2000303F589
:1027B0006D5303F11003D3E9000144F24823C2F240
:1027C000000303F5874303F10803D3E9002305F071
:1027D00091F802460B461046194644F24823C2F2CD
:1027E000000303F58643C3E900014FF00003FB63D8
:1027F00029E044F24823C2F2000303F58643D3E9FB
:10280000000140F20003C2F20003FA6B02F2AA22B6
:102810004FEAC2029B18D3E9002305F06BF8024689
:102820000B461046194644F24823C2F20003FA6BE5
:1028300002F5CA624FEAC2029B18C3E90001FB6BB2
:1028400003F10103FB63FB6B642BD2DD4FF000034C
:10285000FB632BE0FB6B03F1650444F24823C2F2F7
:10286000000303F58643D3E9000140F20003C2F2FE
:102870000003FA6B02F20F324FEAC2029B18D3E94F
:10288000002305F037F802460B461046194644F27D
:102890004823C2F2000304F5CA624FEAC2029B1841
:1028A000C3E90001FB6B03F10103FB63FB6B642BCA
:1028B000D0DD44F21823C2F20003D3E90823104606
:1028C00019464FF000024FF00003CBF6F07305F00D
:1028D00083FA0346002B12D144F21823C2F20003FC
:1028E000D3E90823104619464FF000024FF00003C9
:1028F000C3F6F07305F08EFA0346002B08D040F2C1
:102900000003C2F20003D3E95623C7E9082353E0CA
:1029100044F21823C2F20003D3E9082310461946F3
:102920004FF000024FF0000305F04CFA0346002B75
:1029300010D040F20003C2F20003D3E95A23C7E9E2
:10294000082339E0C8850020D0850020D83F00202A
:10295000C83F002044F21823C2F20003D3E9082341
:10296000104619464FF000024FF0000305F034FA0C
:102970000346002B10D044F21823C2F2000393ED5B
:10298000087B07F12003B0EE470AF0EE670A18460D
:102990009B49FDF7F3FD0FE044F21823C2F2000358
:1029A00093ED087B07F12003B0EE470AF0EE670ACB
:1029B00018469449FDF70CFE44F24823C2F2000386
:1029C00003F5864303F13003D3E9000144F24823C1
:1029D000C2F2000303F5864303F16003D3E9002349
:1029E00005F004FA0346002B14D044F24823C2F247
:1029F000000303F5864303F13003D3E9000144F2F9
:102A00004823C2F2000303F5864303F11003C3E930
:102A1000000113E044F24823C2F2000303F58643A9
:102A200003F16003D3E9000144F24823C2F200033A
:102A300003F5864303F11003C3E9000144F2482380
:102A4000C2F2000303F5864303F11003D3E900014A
:102A5000D7E908234FF0010405F0C8F90346002B1D
:102A600002D14FF000031C46E3B283F00103DBB256
:102A7000002B0BD0D7E9080144F24823C2F200032F
:102A800003F5864303F11003C3E9000140F200039C
:102A9000C2F2000303F56D5303F11803D3E90001FB
:102AA00044F24823C2F2000303F5864303F1100306
:102AB000D3E9002304F01EFF02460B4610461946D8
:102AC00044F24823C2F2000303F5864303F10803EE
:102AD000C3E900014FF00003FB632BE044F24823FD
:102AE000C2F2000303F5864303F10803D3E90001B2
:102AF00040F20003C2F20003FA6B02F2AA224FEA8C
:102B0000C2029B18D3E9002304F0F4FE02460B46F0
:102B10001046194644F24823C2F20003FA6B02F24F
:102B200086524FEAC2029B18C3E90001FB6B03F116
:102B30000103FB63FB6B642BD0DD4FF00003FB63F1
:102B40002DE0FB6B03F1650444F24823C2F200035D
:102B500003F5864303F10803D3E9000140F20003C3
:102B6000C2F20003FA6B02F23B624FEAC2029B1808
:102B7000D3E9002304F0BEFE02460B461046194678
:102B800044F24823C2F2000304F286524FEAC20222
:102B90009B18C3E90001FB6B03F10103FB63FB6BB3
:102BA000642BCEDD44F24823C2F2000303F58643D2
:102BB00003F13803D3E9000144F24823C2F20003D1
:102BC00003F5864303F16003D3E9002305F00EF912
:102BD0000346002B18D044F24823C2F2000303F549
:102BE000864303F13803D3E9000144F24823C2F2DB
:102BF000000303F5864303F11003C3E9000117E066
:102C0000983F0020883F002044F24823C2F200038E
:102C100003F5864303F16003D3E9000144F248233E
:102C2000C2F2000303F5864303F11003C3E9000178
:102C300044F24823C2F2000303F5864303F1100374
:102C4000D3E90001D7E908234FF0010405F0CEF8DD
:102C50000346002B02D14FF000031C46E3B283F081
:102C60000103DBB2002B0BD0D7E9080144F2482363
:102C7000C2F2000303F5864303F11003C3E9000128
:102C800044F24823C2F2000303F5864303F1100324
:102C9000D3E9000140F20003C2F2000303F56D53D3
:102CA00003F12003D3E9002304F024FE02460B467F
:102CB0001046194644F24823C2F2000303F5864346
:102CC00003F11003C3E900014FF00003FB632BE0A5
:102CD00044F24823C2F2000303F5864303F11003D4
:102CE000D3E9000140F20003C2F20003FA6B02F2E2
:102CF000D6524FEAC2029B18D3E9002304F0FAFD32
:102D000002460B461046194644F24823C2F200031D
:102D1000FA6B02F2BC424FEAC2029B18C3E90001FF
:102D2000FB6B03F10103FB63FB6B642BD0DD4FF006
:102D30000003FB632DE0FB6B03F1650444F24823C1
:102D4000C2F2000303F5864303F11003D3E9000147
:102D500040F20003C2F20003FA6B02F20F324FEAB4
:102D6000C2029B18D3E9002304F0C4FD02460B46BF
:102D70001046194644F24823C2F2000304F2BC4252
:102D80004FEAC2029B18C3E90001FB6B03F1010388
:102D9000FB63FB6B642BCEDD4FF00003FB63B5E000
:102DA000FB6B03F1CA0244F24823C2F200034FEA6C
:102DB000C2029B18D3E9000144F24823C2F2000387
:102DC000FA6B02F5CA624FEAC2029B18D3E90023EC
:102DD00004F0DEFB02460B4610461946FB6B03F17E
:102DE000CA0244F24823C2F2000302F5CA724FEA53
:102DF000C2029B18D3E9002304F0CAFB02460B462B
:102E00001046194644F24823C2F20003FA6B02F25C
:102E100086524FEAC2029B18D3E9002304F0B8FBA4
:102E200002460B461046194644F24823C2F20003FC
:102E3000FA6B02F2BC424FEAC2029B18D3E90023AC
:102E400004F0A6FB02460B4610461946FB6B03F145
:102E5000CA0244F24823C2F2000302F54A724FEA62
:102E6000C2029B18D3E9002304F092FB02460B46F2
:102E70001046194644F24823C2F2000303F5864384
:102E800003F12803C3E9000140F20003C2F200038A
:102E9000FA6B02F205724FEAC2029B18D3E90001F5
:102EA00044F24823C2F2000303F5864303F12803EA
:102EB000D3E9002304F01EFD02460B4610461946D6
:102EC00044F24823C2F20003FA6B02F27F724FEA27
:102ED000C2029B18C3E9000144F24823C2F2000376
:102EE00003F5864303F12803D3E9000144F24823A4
:102EF000C2F20003FA6B02F2E4724FEAC2029B18BC
:102F0000C3E90001FB6B03F10103FB63FB6B642B63
:102F10007FF746AF44F24823C2F2000303F56F5334
:102F200003F13803D3E9000144F24823C2F200035D
:102F300003F5864303F11803C3E9000144F2482373
:102F4000C2F2000303F57C5303F12003D3E900012F
:102F500044F24823C2F2000303F5864303F1280339
:102F6000C3E900014FF00003FB6353E044F2482340
:102F7000C2F2000303F5864303F11803D3E900010D
:102F8000FB6B03F1010244F24823C2F2000302F298
:102F90007F724FEAC2029B18D3E9002304F0F8FACB
:102FA00002460B461046194644F24823C2F200037B
:102FB00003F5864303F11803C3E9000144F24823F3
:102FC000C2F2000303F5864303F12803D3E90001AD
:102FD000FB6B03F1010244F24823C2F2000302F248
:102FE000E4724FEAC2029B18D3E9002304F0D0FA3E
:102FF00002460B461046194644F24823C2F200032B
:1030000003F5864303F12803C3E90001FB6B03F1D9
:103010000103FB63FB6B632BA8DD44F24823C2F280
:10302000000303F5864303F12803D3E9000144F2CA
:103030004823C2F2000303F5874303F11003C3E9F9
:10304000000144F24823C2F2000303F5874303F171
:103050001003D3E90023104619464FF000024FF049
:10306000000304F0C3FE0346002B10D040F200031F
:10307000C2F20003D3E90E0144F24823C2F2000376
:1030800003F5874303F11803C3E9000110E044F29C
:103090004823C2F2000303F5874303F1100393EDC5
:1030A000007BB0EE470AF0EE670A8B48FDF756FA50
:1030B00044F24823C2F2000303F5864303F11803E8
:1030C000D3E9000144F24823C2F2000303F5874329
:1030D00003F11803D3E9002304F036FD02460B4642
:1030E0001046194644F24823C2F2000303F5864312
:1030F00003F11803C3E900014FF00003FB63BBE0D9
:10310000FB6B03F1650244F24823C2F2000302F5AF
:10311000CA624FEAC2029B18D3E90001FB6B03F2BB
:103120002F1244F24823C2F200034FEAC2029B1856
:10313000D3E9002304F02CFA02460B461046194648
:10314000FB6B03F22F1244F24823C2F2000302F594
:10315000CA724FEAC2029B18D3E9002304F018FA9E
:1031600002460B4610461946FB6B03F1650244F21A
:103170004823C2F2000302F286524FEAC2029B18B1
:10318000D3E9002304F004FA02460B461046194620
:10319000FB6B03F1650244F24823C2F2000302F222
:1031A000BC424FEAC2029B18D3E9002304F0F0F9B5
:1031B00002460B4610461946FB6B03F22F1244F2EF
:1031C0004823C2F2000302F54A724FEAC2029B187A
:1031D000D3E9002304F0DCF902460B4610461946F9
:1031E00044F24823C2F2000303F5864303F12803A7
:1031F000C3E9000140F20003C2F20003FA6B02F2DD
:103200006D724FEAC2029B18D3E9000144F24823D1
:10321000C2F2000303F5864303F12803D3E9002338
:1032200004F068FB02460B461046194644F2482358
:10323000C2F20003FA6B02F27F724FEAC2029B18DD
:10324000C3E9000144F24823C2F2000303F58643B8
:1032500003F12803D3E9000144F24823C2F200033A
:10326000FA6B02F2E4724FEAC2029B18C3E9000152
:10327000FB6B03F10103FB63FB6B642B7FF740AF38
:1032800044F24823C2F2000303F56F5303F13803FD
:10329000D3E9000144F24823C2F2000303F5864358
:1032A00003F12003C3E9000144F24823C2F2000302
:1032B00003F57C5303F12003D3E9000144F24823D2
:1032C000C2F2000303F5864303F12803C3E90001BA
:1032D0004FF00003FB6355E0E085002044F24823F3
:1032E000C2F2000303F5864303F12003D3E9000192
:1032F000FB6B03F1010244F24823C2F2000302F225
:103300007F724FEAC2029B18D3E9002304F040F910
:1033100002460B461046194644F24823C2F2000307
:1033200003F5864303F12003C3E9000144F2482377
:10333000C2F2000303F5864303F12803D3E9000139
:10334000FB6B03F1010244F24823C2F2000302F2D4
:10335000E4724FEAC2029B18D3E9002304F018F983
:1033600002460B461046194644F24823C2F20003B7
:1033700003F5864303F12803C3E90001FB6B03F166
:103380000103FB63FB6B632BA8DD44F24823C2F20D
:10339000000303F5864303F12803D3E9000144F257
:1033A0004823C2F2000303F5874303F12003C3E976
:1033B000000144F24823C2F2000303F5874303F1FE
:1033C0002003D3E90023104619464FF000024FF0C6
:1033D000000304F00BFD0346002B10D040F2000365
:1033E000C2F20003D3E9120144F24823C2F20003FF
:1033F00003F5874303F12803C3E9000110E044F219
:103400004823C2F2000303F5874303F1200393ED41
:10341000007BB0EE470AF0EE670AB448FDF79EF86D
:1034200044F24823C2F2000303F5864303F120036C
:10343000D3E9000144F24823C2F2000303F58743B5
:1034400003F12803D3E9002304F07EFB02460B4678
:103450001046194644F24823C2F2000303F586439E
:1034600003F12003C3E9000144F24823C2F2000340
:1034700003F5854303F12003D3E9000144F2482317
:10348000C2F2000303F5854303F12803D3E90023C7
:1034900004F07EF802460B461046194644F24823D3
:1034A000C2F2000303F58643D3E9002304F070F869
:1034B00002460B461046194644F24823C2F2000366
:1034C00003F5854303F14003D3E9002304F060F8DA
:1034D00002460B461046194644F24823C2F2000346
:1034E00003F5854303F14803D3E9002304F050F8C2
:1034F00002460B461046194644F24823C2F2000326
:1035000003F5854303F15003D3E9002304F040F8A9
:1035100002460B461046194644F24823C2F2000305
:1035200003F5864303F10803D3E9002304F030F8E0
:1035300002460B461046194644F24823C2F20003E5
:1035400003F5864303F11003D3E9002304F020F8C8
:1035500002460B461046194644F24823C2F20003C5
:1035600003F5854303F15803D3E9002304F010F871
:1035700002460B461046194644F24823C2F20003A5
:1035800003F5854303F16003D3E9002304F000F859
:1035900002460B461046194644F24823C2F2000385
:1035A00003F5854303F16803D3E9002303F0F0FF3B
:1035B00002460B461046194644F24823C2F2000365
:1035C00003F5854303F13003D3E9002303F0E0FF63
:1035D00002460B461046194644F24823C2F2000345
:1035E00003F5854303F13803D3E9002303F0D0FF4B
:1035F00002460B461046194640F20003C2F2000391
:1036000003F57A5303F11003D3E9002304F002FC1D
:103610000346002B06D04FF000024FF00003C3F624
:10362000F07303E04FF000024FF0000340F200019E
:10363000C2F2000101F57B51D1E90045104619465F
:1036400022462B4604F0DCFB0346002B00F0EA8008
:103650004FF00003FB632DE044F24823C2F2000365
:10366000FA6B02F21A724FEAC2029B18D3E9000108
:1036700040F20003C2F20003FA6B02F146024FEA85
:10368000C2029B18D3E9002304F034F902460B462A
:103690001046194644F24823C2F20003FA6B02F2C4
:1036A0001A724FEAC2029B18C3E90001FB6B03F1D7
:1036B0000103FB63FB6B642BCEDD44F24823C2F2B3
:1036C000000303F5635303F11003D3E9000144F24F
:1036D0004823C2F2000303F5864303F12803C3E93C
:1036E00000014FF00003FB632EE000BFF0850020D7
:1036F00044F24823C2F2000303F5864303F1280392
:10370000D3E90001FB6B03F1010244F24823C2F24A
:10371000000302F21A724FEAC2029B18D3E9002397
:1037200003F036FF02460B461046194644F2482382
:10373000C2F2000303F5864303F12803C3E9000145
:10374000FB6B03F10103FB63FB6B632BD0DD44F2E6
:103750004823C2F2000303F5864303F12803D3E9AB
:103760000001D7E90C2304F0EFF902460B4610469E
:10377000194644F24823C2F2000303F5844303F1DF
:103780007803C3E9000144F24823C2F2000303F5C1
:10379000854303F17003D3E9000144F24823C2F2E8
:1037A000000303F58543C3E9000144F24823C2F254
:1037B000000303F5854303F17803D3E9000144F2E4
:1037C0004823C2F2000303F5854303F10803C3E96C
:1037D000000144F24823C2F2000303F5864303F1DB
:1037E0001803D3E9000144F24823C2F2000303F5B1
:1037F000854303F11003C3E9000144F24823C2F2F8
:10380000000303F5864303F12003D3E9000144F2EA
:103810004823C2F2000303F5854303F11803C3E90B
:10382000000122E04FF00003FB631BE040F20003C5
:10383000C2F20003FA6B02F2D3724FEAC2029B1883
:10384000D3E9000144F24823C2F20003FA6B02F606
:103850004F024FEAC2029B18C3E90001FB6B03F160
:103860000103FB63FB6B042BE0DD44F24823C2F24F
:10387000000303F5844303F17803D3E9000144F224
:10388000F013C2F20003C3E9000144F24823C2F27C
:10389000000303F58543D3E9000144F2F013C2F2BB
:1038A0000003C3E9020144F24823C2F2000303F516
:1038B000854303F10803D3E9000144F2F013C2F297
:1038C0000003C3E9040144F24823C2F2000303F5F4
:1038D000854303F11003D3E9000144F2F013C2F26F
:1038E0000003C3E9060144F24823C2F2000303F5D2
:1038F000854303F11803D3E9000144F2F013C2F247
:103900000003C3E9080144F21823C2F20003D3E91B
:103910000623104619464FF000024FF0404304F0D2
:103920005BFA0346002B10D144F21823C2F20003C5
:10393000D3E90623104619464FF000024FF000036A
:1039400004F068FA0346002B08D040F20003C2F2EC
:103950000003D3E91623C7E906234FE044F21823F6
:10396000C2F20003D3E90623104619464FF00002C5
:103970004FF00003CBF6F07304F024FA0346002B5B
:1039800008D040F20003C2F20003D3E91A23C7E9CA
:10399000062333E044F21823C2F20003D3E90623DE
:1039A000104619464FF000024FF00003CBF6F073BB
:1039B00004F012FA0346002B10D044F21823C2F28E
:1039C000000393ED067B07F11803B0EE470AF0EE13
:1039D000670A1846B949FCF7D1FD0FE044F21823F5
:1039E000C2F2000393ED067B07F11803B0EE470A1D
:1039F000F0EE670A1846B249FCF7EAFD44F21823D4
:103A0000C2F20003D3E90623104619464FF0000224
:103A10004FF0000304F0E0F90346002B10D144F20C
:103A20001823C2F20003D3E90623104619464FF0CB
:103A300000024FF0804304F0EDF90346002B08D05C
:103A400040F20003C2F20003D3E92623C7E90423AE
:103A50004FE044F21823C2F20003D3E906231046D4
:103A600019464FF000024FF00003C3F6F07304F064
:103A7000A9F90346002B08D040F20003C2F200036C
:103A8000D3E92A23C7E9042333E044F21823C2F21E
:103A90000003D3E90623104619464FF000024FF009
:103AA0000003C3F6F07304F097F90346002B10D01F
:103AB00044F21823C2F2000393ED067B07F11003D2
:103AC000B0EE470AF0EE670A18467E49FCF756FD4D
:103AD0000FE044F21823C2F2000393ED067B07F1D6
:103AE0001003B0EE470AF0EE670A18467649FCF775
:103AF0006FFD44F21823C2F20003D3E908231046F5
:103B000019464FF000024FF0404304F065F90346B8
:103B1000002B10D144F21823C2F20003D3E908238A
:103B2000104619464FF000024FF0000304F072F9FE
:103B30000346002B08D040F20003C2F20003D3E991
:103B40004E23C7E902234FE044F21823C2F20003D8
:103B5000D3E90823104619464FF000024FF0000346
:103B6000CBF6F07304F02EF90346002B08D040F298
:103B70000003C2F20003D3E95223C7E9022333E072
:103B800044F21823C2F20003D3E908231046194671
:103B90004FF000024FF00003CBF6F07304F01CF975
:103BA0000346002B10D044F21823C2F2000393ED19
:103BB000087B07F10803B0EE470AF0EE670A1846E3
:103BC0004249FCF7DBFC0FE044F21823C2F2000389
:103BD00093ED087B07F10803B0EE470AF0EE670AA1
:103BE00018463B49FCF7F4FC44F21823C2F20003E8
:103BF000D3E90823104619464FF000024FF00003A6
:103C000004F0EAF80346002B10D144F21823C2F264
:103C10000003D3E90823104619464FF000024FF085
:103C2000804304F0F7F80346002B08D040F200036D
:103C3000C2F20003D3E95E23C7E900235BE044F24C
:103C40001823C2F20003D3E90823104619464FF0A7
:103C500000024FF00003C3F6F07304F0B3F803461C
:103C6000002B08D040F20003C2F20003D3E9622324
:103C7000C7E900233FE044F21823C2F20003D3E96E
:103C80000823104619464FF000024FF00003C3F618
:103C9000F07304F0A1F80346002B1DD044F2182362
:103CA000C2F2000393ED087B3B46B0EE470AF0EE0C
:103CB000670A18460749FCF761FC1CE098400020A1
:103CC000884000205840002048400020B83F002095
:103CD000A83F0020783F002044F21823C2F20003DE
:103CE00093ED087B3B46B0EE470AF0EE670A1846B4
:103CF0003349FCF76DFC44F21823C2F20003D3E908
:103D0000000144F24823C2F2000303F5844303F1A7
:103D10004803C3E9000144F21823C2F20003D3E9C7
:103D2000020144F24823C2F2000303F5844303F185
:103D30005003C3E9000144F21823C2F20003D3E99F
:103D4000040144F24823C2F2000303F5844303F163
:103D50005803C3E9000144F21823C2F20003D3E977
:103D6000060144F24823C2F2000303F5844303F141
:103D70006003C3E9000144F21823C2F20003D3E94F
:103D8000080144F24823C2F2000303F5844303F11F
:103D90006803C3E9000144F21823C2F20003D3E927
:103DA0000A0144F24823C2F2000303F5844303F1FD
:103DB0007003C3E9000107F14007BD46B0BD00BF75
:103DC000683F002080B500AF44F24820C2F20000F6
:103DD0004FF0000144F2C03204F096F844F218208B
:103DE000C2F200004FF000014FF0300204F08CF8F6
:103DF00044F2F010C2F200004FF000014FF0280230
:103E000004F082F880BD00BF80B500AF4FF4001011
:103E10004FF0010102F042FF4FF002004FF00101AC
:103E200002F012FF44F29813C2F200034FF4407202
:103E30001A6044F29813C2F200034FF002021A71A2
:103E400044F29813C2F200034FF002025A7144F296
:103E50009813C2F200034FF001029A7144F29813D2
:103E6000C2F200034FF00102DA714FF48060C4F235
:103E7000020044F29811C2F2000102F0ABFA4FF4D2
:103E80008060C4F202004FF008014FF0040202F01B
:103E90009BFB4FF48060C4F202004FF009014FF029
:103EA000040202F091FB48F21863C2F2000348F2E8
:103EB000A062C0F201021A6048F21863C2F2000365
:103EC0004FF000029A8048F21863C2F200034BF6EA
:103ED000FF72DA8048F21863C2F200034FF000026A
:103EE0001A8148F21863C2F200034FF480625A81CB
:103EF00048F21863C2F200034FF480429A814FF4F3
:103F0000A840C4F2000048F21861C2F2000102F0B9
:103F1000AFFB4FF4A840C4F200004FF0010102F0E3
:103F20007DFC4FF004004FF4FA7100F05DFA80BDA3
:103F300090B585B000AF0B463A600246FA71BB718E
:103F40004FF4A840C4F200004FF0010102F086FCDB
:103F500000BF4FF4A840C4F200004FF00101C0F2CE
:103F6000030102F017FD0346002BF2D04FF4A840E6
:103F7000C4F200004FF0D0014FF0000202F0AEFC9E
:103F800000BF4FF4A840C4F200004FF08201C0F21D
:103F9000070102F0FFFC0346002BF2D0FB794FF43F
:103FA000A840C4F20000194602F0D6FC00BF4FF44E
:103FB000A840C4F200004FF08401C0F2070102F0F3
:103FC000E9FC0346002BF2D04FF4A840C4F20000F5
:103FD0004FF0010102F042FC00BF4FF4A840C4F2D0
:103FE00000004FF00101C0F2030102F0D3FC0346D0
:103FF000002BF2D04FF4A840C4F200004FF0D001E3
:104000004FF0010202F06AFC00BF4FF4A840C4F276
:1040100000004FF00201C0F2030102F0BBFC0346B6
:10402000002BF2D04FF00003FB604FF00003FB6069
:1040300030E0BA79FB689A420FD14FF4A840C4F23D
:1040400000004FF0000102F067FC4FF4A840C4F2FA
:1040500000004FF0010102F021FC00BF4FF4A84026
:10406000C4F200004FF04001C0F2030102F092FCE4
:104070000346002BF2D0FB683A68D4184FF4A840EE
:10408000C4F2000002F078FC03462370FB6803F1E1
:104090000103FB60BA79FB689A42CADA4FF4A84080
:1040A000C4F200004FF0010102F036FC07F11407E2
:1040B000BD4690BD80B582B000AF02460B46FA7196
:1040C000BB714FF4A840C4F200004FF0010102F0B0
:1040D000C5FB00BF4FF4A840C4F200004FF001013F
:1040E000C0F2030102F056FC0346002BF2D04FF45D
:1040F000A840C4F200004FF0D0014FF0000202F0DF
:10410000EDFB00BF4FF4A840C4F200004FF0820165
:10411000C0F2070102F03EFC0346002BF2D04FF440
:10412000A840C4F200004FF0010102F077FBFB79D8
:104130004FF4A840C4F20000194602F00DFC00BF85
:104140004FF4A840C4F200004FF08401C0F2070110
:1041500002F020FC0346002BF2D0BB794FF4A840BC
:10416000C4F20000194602F0F7FB00BF4FF4A8406C
:10417000C4F200004FF08401C0F2070102F00AFC13
:104180000346002BF2D04FF4A840C4F200004FF0D9
:10419000010102F083FB07F10807BD4680BD00BFA7
:1041A00080B500AF4FF03B004FF00E0148F20862BF
:1041B000C2F20002FFF7BCFE48F20863C2F200033D
:1041C0001B784FEA03239AB248F20863C2F2000355
:1041D0005B7813439BB21BB207EE903AB8EEE77AD6
:1041E00044F2A803C2F20003D3ED007AF8EEE77AB6
:1041F000C7EE277A44F2D003C2F20003C3ED007A7F
:1042000048F20863C2F200039B784FEA03239AB294
:1042100048F20863C2F20003DB7813439BB21BB27F
:1042200007EE903AB8EEE77A44F2A803C2F2000330
:10423000D3ED007AF8EEE77AC7EE277A44F2D0039E
:10424000C2F20003C3ED017A48F20863C2F2000330
:104250001B794FEA03239AB248F20863C2F20003C3
:104260005B7913439BB21BB207EE903AB8EEE77A44
:1042700044F2A803C2F20003D3ED007AF8EEE77A25
:10428000C7EE277A44F2D003C2F20003C3ED027AEC
:1042900048F20863C2F200039B794FEA03239AB203
:1042A00048F20863C2F20003DB7913439BB21BB2EE
:1042B00007EE103AF8EEC77A17EE900A03F0C6FA46
:1042C00002460B461046194645A3D3E9002303F0E6
:1042D0005FF902460B46104619464FF000024FF4B4
:1042E0008043C4F2750303F02FFC02460B461046D0
:1042F000194603F0B9FD024644F2D003C2F20003AE
:104300009A6148F20863C2F200031B7A4FEA032362
:104310009AB248F20863C2F200035B7A13439BB27D
:104320001BB207EE903AB8EEE77A44F2AC03C2F261
:104330000003D3ED007AF8EEE77AC7EE277A44F26D
:10434000D003C2F20003C3ED037A48F20863C2F25D
:1043500000039B7A4FEA03239AB248F20863C2F241
:104360000003DB7A13439BB21BB207EE903AB8EE20
:10437000E77A44F2AC03C2F20003D3ED007AF8EE20
:10438000E77AC7EE277A44F2D003C2F20003C3ED06
:10439000047A48F20863C2F200031B7B4FEA03234E
:1043A0009AB248F20863C2F200035B7B13439BB2EC
:1043B0001BB207EE903AB8EEE77A44F2AC03C2F2D1
:1043C0000003D3ED007AF8EEE77AC7EE277A44F2DD
:1043D000D003C2F20003C3ED057A80BDAFF30080C5
:1043E00000000000003EC84080B582B000AF786099
:1043F00039607B68042B0ED144F2F003C2F2000353
:104400004FF008021A6044F2A803C2F200034FF40E
:1044100000521A6031E07B68082B0ED144F2F003A1
:10442000C2F200034FF010021A6044F2A803C2F275
:1044300000034FF480521A601FE07B68102B0ED1EE
:1044400044F2F003C2F200034FF018021A6044F283
:10445000A803C2F200034FF400621A600DE044F2B8
:10446000F003C2F200034FF000021A6044F2A80306
:10447000C2F200034FF480421A603B68B3F5FA7F42
:104480000ED144F2F403C2F200034FF008021A60A6
:1044900044F2AC03C2F200034FF041021A6033E071
:1044A0003B68B3F57A7F0ED144F2F403C2F2000305
:1044B0004FF010021A6044F2AC03C2F200034FF056
:1044C00020021A6020E03B68B3F5FA6F0ED144F287
:1044D000F403C2F200034FF018021A6044F2AC0376
:1044E000C2F200034FF010021A600DE044F2F40330
:1044F000C2F200034FF000021A6044F2AC03C2F2B1
:1045000000034FF083021A604FF01A004FF00001D1
:10451000FFF7D0FD44F2F003C2F200031B68DBB2E8
:104520004FF01C001946FFF7C5FD44F2F403C2F238
:1045300000031B68DBB24FF01B001946FFF7BAFD02
:104540004FF06B004FF00001FFF7B4FD07F10807D3
:10455000BD4680BD80B500AF4FF001004FF00101B6
:1045600002F072FB4FF480404FF0010102F0C0FBFB
:104570004FF001004FF0010102F090FB4FF00400FA
:104580004FF0010102F08AFB4FF400304FF00101BF
:1045900002F0AEFB4FF480204FF0010102F0A8FBC7
:1045A0004FF080004FF0010102F078FB4FF4807073
:1045B0004FF0010102F072FB44F29813C2F20003C3
:1045C0004FF00F021A6044F29813C2F200034FF04A
:1045D00000021A7144F29813C2F200034FF0030272
:1045E0005A7144F29813C2F200034FF00102DA71DB
:1045F0004FF00000C4F2020044F29811C2F2000130
:1046000001F0E8FE44F29813C2F200034FF0F0020A
:104610001A6044F29813C2F200034FF000021A71BC
:1046200044F29813C2F200034FF003025A7144F2AD
:104630009813C2F200034FF00102DA714FF000004C
:10464000C4F2020044F29811C2F2000101F0C2FE6D
:104650004FF000004FF0000102F09EFB4FF0000011
:104660004FF0010102F098FB4FF000004FF0020103
:1046700002F092FB4FF000004FF0030102F08CFBC0
:104680004FF000004FF0040102F086FB4FF00000F5
:104690004FF0050102F080FB4FF000004FF00601E3
:1046A00002F07AFB4FF000004FF0070102F074FBBC
:1046B00048F23463C2F200034FF000021A7148F26C
:1046C0003463C2F200034FF010025A7148F23463AF
:1046D000C2F200034FF001029A7148F23463C2F251
:1046E00000034FF001021A6048F23460C2F2000089
:1046F00001F0A6FD48F23463C2F200034FF002025B
:104700001A6048F23460C2F2000001F099FD48F2EC
:104710003463C2F200034FF004021A6048F23460BE
:10472000C2F2000001F08CFD48F23463C2F20003D3
:104730004FF008021A6048F23460C2F2000001F043
:104740007FFD48F23463C2F200034FF010021A609A
:1047500048F23460C2F2000001F072FD48F23463A6
:10476000C2F200034FF020021A6048F23460C2F235
:10477000000001F065FD48F23463C2F200034FF01F
:1047800040021A6048F23460C2F2000001F058FDA5
:1047900048F23463C2F200034FF080021A6048F21C
:1047A0003460C2F2000001F04BFD44F2A013C2F2EB
:1047B00000034FF005025A7044F2A013C2F2000346
:1047C0004FF001029A7044F2A013C2F200034FF0BE
:1047D0000102DA7044F2A013C2F200034FF00A02A1
:1047E0001A7044F2A010C2F2000000F099FC44F2EA
:1047F000A013C2F200034FF017021A7044F2A01087
:10480000C2F2000000F08CFC44F2A013C2F20003DC
:104810004FF019021A7044F2A010C2F2000000F02A
:104820007FFC44F2A013C2F200034FF01A021A7088
:1048300044F2A010C2F2000000F072FC44F2A01397
:10484000C2F200034FF02C021A7044F2A010C2F220
:10485000000000F065FC44F2A013C2F200034FF028
:104860002D021A7044F2A010C2F2000000F058FCB1
:1048700044F2A013C2F200034FF001025A7044F256
:10488000A013C2F200034FF001029A7044F2A01389
:10489000C2F200034FF00102DA7044F2A013C2F238
:1048A00000034FF01E021A7044F2A010C2F2000082
:1048B00000F036FC44F2A013C2F200034FF00602EF
:1048C0001A7044F2A010C2F2000000F029FC44F279
:1048D000A013C2F200034FF007021A7044F2A010B6
:1048E000C2F2000000F01CFC44F2A013C2F200036C
:1048F0004FF008021A7044F2A010C2F2000000F05B
:104900000FFC44F2A013C2F200034FF009021A7028
:1049100044F2A010C2F2000000F002FC48F228634A
:10492000C2F200034FF000029A7248F22863C2F20A
:1049300000034FF000025A8048F22863C2F20003DD
:104940004FF000021A8148F22863C2F200034FF0D0
:104950002A021A8048F22863C2F200034CF2503255
:104960005A604FF40060C4F2000048F22861C2F2BD
:10497000000102F069FA4FF40060C4F200004FF049
:1049800001014FF0010202F021FB4FF40060C4F27C
:1049900000004FF0010102F0F9FA48F22863C2F278
:1049A00000034FF000021A8148F22863C2F20003AC
:1049B0004FF004021A8048F22863C2F200034FF657
:1049C000FF725A604FF0804048F22861C2F2000145
:1049D00002F03AFA4FF080404FF0010102F0D6FAAF
:1049E00048F22863C2F200034FF000021A8148F235
:1049F0002863C2F200034FF4C8621A8048F22863A9
:104A0000C2F2000342F210725A604FF48840C4F2BE
:104A1000010048F22861C2F2000102F015FA4FF4D9
:104A20008840C4F201004FF001014FF0010202F092
:104A3000CDFA4FF48840C4F201004FF0010102F0BA
:104A4000A5FA4FF49040C4F2010048F22861C2F286
:104A5000000102F0F9F94FF49040C4F201004FF068
:104A600001014FF0010202F0B1FA4FF49040C4F29C
:104A700001004FF0010102F089FA48F22863C2F206
:104A800000034FF000021A8148F22863C2F20003CB
:104A90004FF452721A8048F22863C2F2000342F2C5
:104AA00010725A604FF4E050C4F2000048F22861DE
:104AB000C2F2000102F0C8F94FF4E050C4F2000065
:104AC0004FF001014FF0010202F080FA4FF4E05084
:104AD000C4F200004FF0010102F058FA4FF4005008
:104AE000C4F2000048F22861C2F2000102F0ACF901
:104AF0004FF40050C4F200004FF001014FF00102EA
:104B000002F064FA4FF40050C4F200004FF00101CB
:104B100002F03CFA80BD00BF80B500AF4FF40060EA
:104B2000C4F200004FF0010102F074FA0346002BBA
:104B300018D044F2F803C2F200034FF000004FF027
:104B40000001C3E9000144F2F803C2F200034FF090
:104B500000029A604FF40060C4F200004FF00101BF
:104B600002F088FA80BD00BF80B500AF4FF00100B1
:104B700001F002FC0346002B2ED04FF00000C4F2DF
:104B800002004FF0010101F0E5FC0346002B11D1BA
:104B90004FF0804002F0EEF90346184600F0C4F9E9
:104BA000B0EE407AF0EE607A44F2F803C2F200030D
:104BB00083ED007B4FF080404FF0000102F0BEF922
:104BC0004FF40060C4F200004FF0000102F0B6F9AB
:104BD0004FF0010001F0EEFB80BD00BF80B500AFDB
:104BE0004FF0020001F0C8FB0346002B28D04FF025
:104BF0000000C4F202004FF0020101F0ABFC0346DA
:104C0000002B13D14FF0804002F0B4F90346184650
:104C100000F08AF953EC102B1046194603F024F9E2
:104C2000024644F2F803C2F200039A604FF080405B
:104C30004FF0000102F082F94FF0020001F0BAFBE0
:104C400080BD00BF80B500AF4FF0040001F094FBC1
:104C50004FF0040001F0AEFB80BD00BF80B500AF97
:104C60004FF0080001F088FB4FF0080001F0A2FBB4
:104C700080BD00BF80B500AF4FF48840C4F2010092
:104C80004FF0010102F0C6F90346002B11D044F2A7
:104C90001013C2F200034FF000004FF00001C3E90F
:104CA00000014FF48840C4F201004FF0010102F00E
:104CB000E1F980BD80B500AF4FF49040C4F201002F
:104CC0004FF0010102F0A6F90346002B11D044F287
:104CD0001013C2F200034FF000004FF00001C3E9CF
:104CE00002014FF49040C4F201004FF0010102F0C4
:104CF000C1F980BD80B500AF4FF4E050C4F20000B0
:104D00004FF0010102F086F90346002B11D044F266
:104D10001013C2F200034FF000004FF00001C3E98E
:104D200004014FF4E050C4F200004FF0010102F022
:104D3000A1F980BD80B500AF4FF40050C4F200006F
:104D40004FF0010102F066F90346002B11D044F246
:104D50001013C2F200034FF000004FF00001C3E94E
:104D600006014FF40050C4F200004FF0010102F0C0
:104D700081F980BD80B500AF4FF0100001F0FCFA62
:104D80000346002B1FD04FF48840C4F2010002F00C
:104D9000F1F80346184600F08FF8B0EE407AF0EED6
:104DA000607A44F21013C2F2000383ED007B4FF4EB
:104DB0008840C4F201004FF0000102F0BFF84FF04C
:104DC000100001F0F7FA80BD80B500AF4FF0200071
:104DD00001F0D2FA0346002B1FD04FF49040C4F2EA
:104DE000010002F0C7F80346184600F065F8B0EE7F
:104DF000407AF0EE607A44F21013C2F2000383EDC1
:104E0000027B4FF49040C4F201004FF0000102F029
:104E100095F84FF0200001F0CDFA4FF0400001F07E
:104E2000ABFA0346002B1FD04FF4E050C4F2000051
:104E300002F0A0F80346184600F03EF8B0EE407AC3
:104E4000F0EE607A44F21013C2F2000383ED047BAB
:104E50004FF4E050C4F200004FF0000102F06EF891
:104E60004FF0400001F0A6FA4FF0800001F084FA04
:104E70000346002B1FD04FF40050C4F2000002F094
:104E800079F80346184600F017F8B0EE407AF0EED5
:104E9000607A44F21013C2F2000383ED067B4FF4F4
:104EA0000050C4F200004FF0000102F047F84FF04C
:104EB000800001F07FFA80BD80B582B000AF7860DD
:104EC000786802F0A1FC02460B461046194614A36E
:104ED000D3E9002302F038FE02460B46104619467D
:104EE0004FF000024FF00003C4F22C0302F002FD69
:104EF00002460B464FF000004FF00001C4F24E0195
:104F000002F022FE02460B4643EC172BB0EE470A96
:104F1000F0EE670A07F10807BD4680BDAFF30080D9
:104F200000000000006AF84080B582B000AF7860F1
:104F30007B68B3F57A5F2BD97A6848F2CF439A42FF
:104F400026D8786802F060FC02460B4610461946E7
:104F50004FF000024FF48043C4F2CF0302F016FB7F
:104F600002460B461046194611A3D3E9002302F06E
:104F7000EBFD02460B46104619464FF000024FF07B
:104F80000003C3F6F07302F001FB02460B4603E098
:104F90004FF000024FF0000343EC172BB0EE470A2E
:104FA000F0EE670A07F10807BD4680BDAFF3008049
:104FB000000000000094C14080B500AF02F0C6F9C7
:104FC00045F2555001F01EFD4FF0000001F02AFDA2
:104FD00040F2FF7001F036FDFFF7BCFA00F012F965
:104FE00000F042FBFBF7D0F8FEF70EFFFEF7EAFEFB
:104FF000FFF7D6F844F2D003C2F2000393ED057A2E
:10500000DFED457AC7EE277A17EE900A02F01EFC14
:1050100044F21823C2F20003C3E9000144F2F8038A
:10502000C2F20003D3E9000144F21823C2F20003E4
:10503000C3E9020144F2F803C2F200039B68184678
:1050400002F004FC44F21823C2F20003C3E9040195
:1050500044F21823C2F200032DA1D1E90001C3E9F3
:10506000060144F21823C2F200034FF000004FF093
:105070000001C3E9080144F21823C2F200034FF013
:1050800000004FF00001C3E90A01FBF7D7FA44F230
:10509000F013C2F20003D3E9000144F23013C2F26C
:1050A0000003C3E90E0144F2F013C2F20003D3E996
:1050B000020144F23013C2F20003C3E9000144F2DA
:1050C000F013C2F20003D3E9040144F23013C2F238
:1050D0000003C3E9020144F2F013C2F20003D3E972
:1050E000060144F23013C2F20003C3E9040144F2A2
:1050F000F013C2F20003D3E9080144F23013C2F204
:105100000003C3E9060101F0ADFC71E7AFF30080D5
:105110009A9999999999E93F0000FA43AFF3008071
:1051200080B485B000AF78604FF00003FB734FF0A0
:105130000003BB734FF00F037B737B68DB78002B9E
:1051400045D04FF46D43CEF20003DB686FEA0303F2
:1051500003F4E0634FEA1323FB73FB7BC3F1040307
:10516000BB737A7BFB7B42FA03F37B737B685B78D0
:105170001A46BB7B02FA03F3FB737B689A787B7B4E
:105180001340DAB2FB7B1343FB73FB7B4FEA031341
:10519000FB734FF46143CEF200037A6812789B18D8
:1051A000FA7B83F800234FF46143CEF200037A6860
:1051B00012784FEA5212D2B27968097801F01F01D1
:1051C0004FF0010000FA01F143F8221014E04FF40F
:1051D0006143CEF200037A6812784FEA5212D2B2DB
:1051E0007968097801F01F014FF0010000FA01F120
:1051F00002F1200243F8221007F11407BD4680BCDB
:10520000704700BF80B500AF4FF002004FF00101C2
:1052100001F01AFD4FF004004FF0010101F014FD00
:105220004FF002004FF0010101F038FD44F29813F5
:10523000C2F200034FF001021A7144F29813C2F255
:1052400000034FF000029A7144F29813C2F2000377
:105250004FF003025A7144F29813C2F200034FF068
:105260000002DA7144F29813C2F200034FF4707234
:105270001A604FF40060C4F2020044F29811C2F2C6
:10528000000101F0A7F844F29813C2F200034FF4B2
:1052900070421A604FF48060C4F2020044F2981128
:1052A000C2F2000101F096F844F2A013C2F200032A
:1052B0004FF002025A7044F2A013C2F200034FF002
:1052C00002029A7044F2A013C2F200034FF00102EE
:1052D000DA7044F2A013C2F200034FF01D021A70FC
:1052E00044F2A010C2F20000FFF71AFF48F2286350
:1052F000C2F200034FF000021A8148F22863C2F2A2
:1053000000034FF004021A8048F22863C2F200033F
:105310004FF000025A8048F22863C2F200034FF6B1
:10532000FF725A6048F22863C2F200034FF0000295
:105330009A724FF48060C4F2000048F22861C2F211
:10534000000101F081FD4FF48060C4F200004FF0D5
:1053500001014FF0010201F039FE4FF48060C4F208
:1053600000004FF0010101F011FE80BD80B500AFDB
:105370004FF48060C4F200004FF0010101F04AFEDA
:105380000346002B00F0068144F27013C2F20003C2
:105390001B68042B00F2FE8001A252F823F000BF2C
:1053A000B55300081754000879540008DB5400086E
:1053B0003D55000844F23013C2F2000393ED007B28
:1053C000B0EE470AF0EE670A00F0EEF803464FF43D
:1053D0008060C4F20000194601F0BEFD4FF4806009
:1053E000C4F202004FF4004101F0D2F84FF4006023
:1053F000C4F202004FF0400101F0D8F844F27013FB
:10540000C2F200031B6803F1010244F27013C2F2FE
:1054100000031A60BEE044F23013C2F2000393EDC1
:10542000027BB0EE470AF0EE670A00F0BDF80346D3
:105430004FF48060C4F20000194601F08DFD4FF476
:105440000060C4F202004FF0400101F0A1F84FF4F7
:105450000060C4F202004FF0800101F0A7F844F2AE
:105460007013C2F200031B6803F1010244F27013CF
:10547000C2F200031A608DE044F23013C2F200035E
:1054800093ED047BB0EE470AF0EE670A00F08CF86B
:1054900003464FF48060C4F20000194601F05CFD41
:1054A0004FF40060C4F202004FF0800101F070F888
:1054B0004FF40060C4F202004FF4807101F076F8FE
:1054C00044F27013C2F200031B6803F1010244F2BC
:1054D0007013C2F200031A605CE044F23013C2F2AF
:1054E000000393ED067BB0EE470AF0EE670A00F08A
:1054F0005BF803464FF48060C4F20000194601F0E7
:105500002BFD4FF40060C4F202004FF4807101F0F3
:105510003FF84FF40060C4F202004FF4007101F054
:1055200045F844F27013C2F200031B6803F1010254
:1055300044F27013C2F200031A602BE044F23013FD
:10554000C2F2000393ED0E7BB0EE470AF0EE670A5D
:1055500000F02AF803464FF48060C4F200001946B8
:1055600001F0FAFC4FF40060C4F202004FF4007145
:1055700001F00EF84FF48060C4F202004FF40041D5
:1055800001F014F844F27013C2F200034FF000026D
:105590001A6000BF4FF48060C4F200004FF00101B8
:1055A00001F068FD80BD00BF80B582B000AF87ED1F
:1055B000000BD7E900014FF000024FF00003C3F6E3
:1055C000F07302F027FC0346002B07D04FF00002D7
:1055D0004FF00003C3F6F073C7E90023D7E90001D9
:1055E0004FF000024FF00003CBF6F07302F0F4FB33
:1055F0000346002B07D04FF000024FF00003CBF61C
:10560000F073C7E90023D7E900014FF000024FF023
:105610000003C3F6F07301F0BBFF02460B461046D1
:1056200019460FA3D3E9002302F064F902460B46A2
:10563000104619464FF000024FF48043C4F2CF03E6
:1056400001F0A6FF02460B461046194602F0ECFB9D
:105650000346184607F10807BD4680BDAFF300803A
:10566000000000000094C14080B500AF4FF0020080
:105670004FF0010101F0E8FA4FF010004FF0010186
:1056800001F036FB44F29813C2F200034FF0C0025F
:105690001A6044F29813C2F200034FF002021A712A
:1056A00044F29813C2F200034FF002025A7144F21E
:1056B0009813C2F200034FF000029A7144F298135B
:1056C000C2F200034FF00102DA714FF48060C4F2BD
:1056D000020044F29811C2F2000100F07BFE4FF488
:1056E0008060C4F202004FF006014FF0070200F0A4
:1056F0006BFF4FF48060C4F202004FF007014FF0DF
:10570000070200F061FF48F23C63C2F200034FF46D
:1057100016521A6048F23C63C2F200034FF00002D6
:105720009A8048F23C63C2F200034FF00002DA8034
:1057300048F23C63C2F200034FF000021A8148F2C3
:105740003C63C2F200034FF000029A8148F23C63CE
:10575000C2F200034FF00C025A814FF48050C4F2A1
:10576000010048F23C61C2F2000101F095FC4FF4E7
:105770008050C4F2010040F225514FF0010201F0C7
:1057800093FD44F2A013C2F200034FF025021A70F9
:1057900044F2A013C2F200034FF006025A7044F222
:1057A000A013C2F200034FF006029A7044F2A01355
:1057B000C2F200034FF00102DA7044F2A010C2F20C
:1057C0000000FFF7ADFC4FF48050C4F201004FF031
:1057D000010101F037FD80BD80B582B000AF4FF010
:1057E00000037B604FF000037B601BE04FF48050B0
:1057F000C4F2010001F046FD03460A2B16D04FF417
:105800008050C4F2010001F03DFD0346DAB248F2D7
:105810004C63C2F2000379685B181A707B6803F16D
:1058200001037B607B68642BE0DD00E000BF07F1D3
:105830000807BD4680BD00BF80B582B000AF48F20A
:105840003403C0F600037B6040F20003C2F20003A1
:105850003B600BE07B681A683B681A603B6803F1A9
:1058600004033B607B6803F104037B603A6844F205
:10587000C003C2F200039A42ECD30B480B494FF02D
:1058800000028842B8BF40F8042BFFF6FAAFDFF8F9
:105890002000016841F470010160FFF78DFB07F102
:1058A0000807BD4680BD0000C0400020B086002033
:1058B00088ED00E080B400AFFEE700BF80B500AF28
:1058C0004FF480704FF0010101F03CFA4FF480700A
:1058D0004FF0000101F036FA80BD00BF80B485B002
:1058E00000AF786039604FF00003FB604FF00003B9
:1058F000FB727B685B68FB60FB6823F0407323F4FA
:105900008073FB603B681B794FEA03223B681B688E
:105910001343FA681343FB607B68FA685A607B683C
:105920009B68FB60FA684FF2FD73CCF2FF031340F3
:10593000FB603B681A693B68DB681A433B689B68FD
:105940001A433B685B794FEA43031343FA681343F6
:10595000FB607B68FA689A607B68DB6AFB60FB68C7
:1059600023F47003FB603B681B7D03F1FF33DAB265
:10597000FB7A1343FB72FB7A4FEA0353FA68134333
:10598000FB607B68FA68DA6207F11407BD4680BCE9
:10599000704700BF80B483B000AF78607B684FF081
:1059A00000021A607B684FF000021A717B684FF0AA
:1059B00000025A717B684FF000029A607B684FF0DA
:1059C0000002DA607B684FF000021A617B684FF0DA
:1059D00001021A7507F10C07BD4680BC704700BF75
:1059E00080B485B000AF78604FF00003FB604FF4E7
:1059F0000C53C4F201035B68FB60FA6843F2E003F6
:105A0000CFF6FC731340FB607B681A687B685B68A9
:105A10001A437B689B681A437B68DB681343FA6808
:105A20001343FB604FF40C53C4F20103FA685A604D
:105A300007F11407BD4680BC704700BF80B483B037
:105A400000AF78607B684FF000021A607B684FF00F
:105A500000025A607B684FF000029A607B684FF04A
:105A60000002DA6007F10C07BD4680BC704700BF3A
:105A700080B483B000AF78600B46FB70FB78002BDE
:105A800006D07B689B6843F001027B689A6005E062
:105A90007B689B6823F001027B689A6007F10C0722
:105AA000BD4680BC704700BF80B485B000AF786051
:105AB000F970BA707B704FF00003FB604FF0000389
:105AC000BB60FB78092B27D97B68DB68FB60FA7821
:105AD00013464FEA43039B18A3F11E034FF007023E
